:100000000C94B7010C94DF010C94DF010C94DF0118
:100010000C94DF010C94DF010C94DF010C94DF01E0
:100020000C94DF010C941C030C94DF010C949C03D2
:100030000C94C6030C94DF010C94DF010C94DF01D7
:100040000C94DF010C94DF010C94DF010C94DF01B0
:100050000C94DF0157135B136B138C13E315C2135E
:10006000E013F313201465147A14BA148B14E315F7
:10007000E315E315E315E315C314E914FE141A158B
:100080005413084AD73B3BCE016E84BCBFFDC12F41
:100090003D6C74319ABD56833DDA3D00C77F11BE79
:1000A000D9E4BB4C3E916BAAAABE000000803F057C
:1000B000A84CCDB2D44EB93836A9020C50B99186AD
:1000C00088083CA6AAAA2ABE000000803F0664EC6D
:1000D0001B3C04BC163E3BE5B93CC93C37C29E5AAA
:1000E0003D660498083EEA69AAAA3E000000803FE7
:1000F0006E616E00696E66005265626F6F74696E44
:10010000672E2E2E00206572726F720020646F6E53
:10011000650055706461746520436861725365744D
:1001200000557064617465204368617253657400A2
:100130004F534420496E697469616C697A65642023
:100140002020004D697373696E672F4F6C642043E4
:100150006F6E66696700426F6F74696E67207570B5
:100160003AEDF2F2F2F2F2F2F2F2F2F300576169D2
:1001700074696E6720666F727C4D41564C696E6B78
:1001800020686561727462656174732E2E2E00871B
:1001900025332E306925008625332E30668800856C
:1001A00025352E30668D001F25352E30668D00EAF0
:1001B000EB00EAEC0025342E3066B00020C0C0C051
:1001C000C0C0C7C0C0C0C0C0207CD02573D10083D0
:1001D0002531312E36667C842531312E366600116C
:1001E00020001020000F2532690020E225352E3234
:1001F000668E256300253469B0B200253469B0B13C
:1002000000050304057C1513141500737461620066
:100210006163726F00616C7468006175746F006C6B
:100220006F6974007265746C006775696400636956
:10023000726300706F7369006C616E64006F666C4E
:100240006F00666277610066627762006D616E754D
:100250000020202020BABBBCBDBE7C20202020CAAC
:10026000CBCCCDCE7C4172647543616D204F53443D
:100270000000407A10F35A00A0724E18090010A531
:10028000D4E80000E87648170000E40B54020000B0
:10029000CA9A3B000000E1F5050000809698000036
:1002A0000040420F000000A086010000001027005F
:1002B000000000E803000000006400000000000AE5
:1002C00000000000000100000000002C76D888DC4F
:1002D000674F0823DFC1DFAE59E1B1B796E5E3E42C
:1002E00053C63AE651997696E8E6C28426EB898CA5
:1002F0009B62ED407C6FFCEFBC9C9F40F2BAA56F07
:10030000A5F490055A2AF75C936B6CF9676DC11BD5
:10031000FCE0E40D47FEF520E6B500D0ED902E039D
:1003200000943577050080841E080000204E0A00E6
:100330000000C80C333333330F986E12831141EF32
:100340008D2114893BE65516CFFEE6DB18D1844B90
:10035000381BF77C1D901DA4BBE424203284725E00
:10036000228100C9F124ECA1E53D270052041124AB
:100370001FBECFE5D4E0DEBFCDBF10E0A0E6B0E009
:10038000E8E6F4E302C005900D92A23DB107D9F76B
:1003900012E0A2EDB0E001C01D92AE39B107E1F765
:1003A00013E0CEE6D3E004C02297FE010E94E919D3
:1003B000CC36D107C9F70E94AF040C94321A0C94C2
:1003C0000000283008F027E03327DA01990F311DAB
:1003D00087FD916000966105710539F432602E5FEA
:1003E0003D9330E32A95E1F708959F3F30F0803840
:1003F0007105610509F03C5F3C5F3D93913008F069
:100400008068911DDF93CF931F930F93FF92EF921C
:10041000192F987F9695E92F96959695E90FFF27C6
:10042000E553FD4F99273327EE24FF24A701E70169
:1004300005900894079428F4360FE71EF81E491F0C
:10044000511D660F771F881F991F0694A1F705900D
:10045000079428F4E70EF81E491F561FC11D770F99
:10046000881F991F661F0694A1F70590079428F42A
:10047000F80E491F561FC71FD11D880F991F661FF1
:10048000771F0694A1F70590079420F4490F561F93
:10049000C71FD81F990F661F771F881F0694A9F7DB
:1004A00084911095177041F0D695C795579547954B
:1004B000F794E7941A95C1F7E1E7F2E06894159094
:1004C000159135916591959105907FE27395E118AD
:1004D000F10A430B560BC90BD009C0F7E10CF11E12
:1004E000431F561FC91FD01D7EF4703311F48A9527
:1004F000E6CFE894015030F0080F0AF40027021705
:1005000008F4202F2395022F7A3328F079E37D9386
:100510002A95E9F710C07D932A9589F60694979558
:100520006795379517951794E118F10A430B560B09
:10053000C90BD00998F023957E9173957A3308F012
:1005400070E37C932013B8F77E9170617D9330F057
:10055000839571E37D9370E32A95E1F71124EF9081
:10056000FF900F911F91CF91DF91992787FD909573
:100570000895FA01AA27283051F1203181F1E89439
:100580006F936E7F6E5F7F4F8F4F9F4FAF4FB1E086
:100590003ED0B4E03CD0670F781F891F9A1FA11D81
:1005A000680F791F8A1F911DA11D6A0F711D811D82
:1005B000911DA11D20D009F468943F912AE0269F47
:1005C00011243019305D3193DEF6CF010895462FA6
:1005D0004770405D4193B3E00FD0C9F7F6CF462F87
:1005E0004F70405D4A3318F0495D31FD40524193F0
:1005F00002D0A9F7EACFB4E0A695979587957795AD
:100600006795BA95C9F700976105710508959B0133
:10061000AC010A2E06945795479537952795BA95BC
:10062000C9F7620F731F841F951FA01D08958FB90E
:10063000779BFECF8FB108951F920F920FB60F9246
:1006400011242F933F938F939F93AF93BF938091E8
:10065000D6009091D700A091D800B091D9003091E8
:10066000DA000196A11DB11D232F2D5F2D3720F03B
:100670002D570196A11DB11D2093DA008093D6005D
:100680009093D700A093D800B093D9008091D20066
:100690009091D300A091D400B091D5000196A11DF6
:1006A000B11D8093D2009093D300A093D400B09357
:1006B000D500BF91AF919F918F913F912F910F9056
:1006C0000FBE0F901F9018958FB7F8942091D60009
:1006D0003091D7004091D8005091D9008FBFB90117
:1006E000CA010895EF92FF920F931F937B018C0133
:1006F0008FB7F8944091D6005091D7006091D80000
:100700007091D9008FBF2FB7F8948091D600909147
:10071000D700A091D800B091D9002FBF841B950BB2
:10072000A60BB70BE816F9060A071B0760F71F911F
:100730000F91FF90EF9008951F920F920FB60F92B6
:1007400011242F938F939F93EF93FF939BB12CB121
:10075000E0911D01EF5FEF7180911E01E81711F428
:1007600082E008C0892F8871E0931D01F0E0E55018
:10077000FF4F208380931F01FF91EF919F918F91F5
:100780002F910F900FBE0F901F9018951F920F92F0
:100790000FB60F9211248F939F93EF93FF93909135
:1007A0001B0180911C01981761F0E0911C01EF5F23
:1007B000EF71E0931C01F0E0E552FF4F80818CB9AE
:1007C00001C05598FF91EF919F918F910F900FBEAF
:1007D0000F901F9018959C0110921B0110921C0104
:1007E00010921D0110921E0197FF03C082E08BB989
:1007F0003F7730BD29B988E98AB986E880BD089578
:1008000090911D0180911E01981719F420E031E0AC
:1008100012C0E0911E01EF5FEF71E0931E01F0E066
:10082000E550FF4F308120911F01922F80E0AC01F5
:10083000430F511D9A01C901089590911D018091A6
:100840001E019817D1F3E0911E01EF5FEF71E09365
:100850001E01F0E0E550FF4F80810895282F909110
:100860001B019F5F9F7180911C019817E1F3E92F95
:10087000F0E0E552FF4F208390931B01559A0895B5
:1008800080911D0120911E0190E04F96821B9109DD
:100890006FE170E00E94C019089580911E0180935D
:1008A0001D01089580E291E060E670E00E947E0FF5
:1008B0000895EF92FF920F931F93A89580E291E025
:1008C0000E948D0A0E9464037B018C0180916A0161
:1008D00090916B01A0916C01B0916D01A8019701FD
:1008E000281B390B4A0B5B0B293731054105510594
:1008F00060F080E291E00E943616E0926A01F09288
:100900006B0100936C0110936D011F910F91FF908B
:10091000EF900895F89482E081BB83E083BF89B7AC
:10092000816089BF81E290E80E94EB0380EB87BB86
:1009300081E58DB9789480E291E00E94CE0E64EF5B
:1009400071E080E090E00E9472032DE088E190E089
:100950000FB6F894A89581BD0FBE21BD08950E94E1
:100960008A040E945904FDCF0F931F93CF93DF9306
:100970008C01EB0108C0D801ED91FC910280F3815C
:10098000E02DC8010995FE0121966491662399F72F
:10099000DF91CF911F910F9108958FEF9FE70895F9
:1009A000DF93CF93CDB7DEB7FE0139968D819E815F
:1009B00061E04F8158859F010E94E104CF91DF9152
:1009C00008952F923F924F925F926F927F928F92F3
:1009D0009F92AF92BF92CF92DF92EF92FF920F93CE
:1009E0001F93DF93CF93CDB7DEB762970FB6F8941E
:1009F000DEBF0FBECDBF6C016E87588B4F8759018C
:100A0000AE014F5F5F4F5A8B498BEF85F8894E855A
:100A100040FD659140FF6191F88BEF87662309F4F3
:100A2000D0C3653249F440FD859140FF8191F88B38
:100A3000EF878532B1F40CC06A3051F4D601ED91E4
:100A4000FC910280F381E02DC6016DE009956AE01A
:100A5000D601ED91FC910280F381E02DC60109954C
:100A6000D4CF982F10E0662477241032B0F49B3254
:100A700069F09C3228F4903251F0933271F40BC03B
:100A80009D3239F0903349F4116028C0126014602F
:100A900025C0186023C0106121C017FD2BC0892F0D
:100AA00080538A3078F416FF06C0BAE07B9E702C23
:100AB0001124780E13C0EAE06E9E602C1124680E9B
:100AC00010620CC09E3221F416FD7BC3106406C078
:100AD0009C3611F4106802C0983661F4EF85F889ED
:100AE0004E8540FD959140FF9191F88BEF879923BA
:100AF00009F0BBCF892F8554833020F4812F80618A
:100B0000905E07C0892F8556833008F0DFC1812FA2
:100B10008F7E86FD02C076E0772E6FE3F62EF822F8
:100B2000953619F450E4F52A07C0963619F480E892
:100B3000F82A02C071107A94F7FE0BC09BE3971558
:100B400020F427E05CE3952E0DC0972C939427E0CA
:100B500009C0A7E0A71520F447E0742E27E001C0E4
:100B6000272D9924F5013496FD87EC87D5016D91E9
:100B70007D918D919C91AE014F5F5F4F092D0E9439
:100B8000E1015C010981202E332400FF04C003FD34
:100B900002C01DE209C0F1FE02C01BE205C0F2FC6A
:100BA00002C010E001C010E2C1018C709070892B6E
:100BB00009F443C0112311F483E001C084E08615D9
:100BC00010F066240EC0681AF3FC0BC0D601ED913C
:100BD000FC910280F381E02DC60160E209956A94E0
:100BE000A9F7112349F0D601ED91FC910280F38120
:100BF000E02DC601612F099523FE03C000EF10E030
:100C000012C004EF10E00FC0E114F10409F06052CB
:100C1000D601ED91FC910280F381E02DC60109958A
:100C20000F5F1F4F05C0EF2CFF24B0E1EB22FF2424
:100C3000F8016491662341F746C1F7FE12C09A0C91
:100C400024FE04C08A81813309F49A9419141CF09B
:100C5000992493942DC0F8E0F91550F538E0932EBF
:100C600027C0F6FC25C0872D90E08A159B054CF027
:100C70004CEFA4164FEFB40624F050E8F52A01C05B
:100C80007A94772049F0E2E0F0E0EC0FFD1FE70DE9
:100C9000F11D80818033A1F3F7FE0AC0972C939455
:100CA000872D90E0A816B90614F0772401C07A18B1
:100CB000F7FC03C025E030E009C01A141B041CF047
:100CC00021E030E003C095012F5F3F4F112311F069
:100CD0002F5F3F4F772029F0872D90E00196280F56
:100CE000391F862D90E02817390714F0662401C0BB
:100CF000621A4F2C5524C20189709070892B59F0CB
:100D00000CC0D601ED91FC910280F381E02DC6016B
:100D100060E209956A946620A1F7112349F0D60193
:100D2000ED91FC910280F381E02DC601612F0995C0
:100D300043FE0BC00CC0D601ED91FC910280F38103
:100D4000E02DC60160E309956A946620A1F7F7FEDD
:100D500050C08501B7FE02C000E010E075010894A4
:100D6000E11CF11CE01AF10AE1E0F0E0EC0FFD1FDC
:100D7000EE0EFF1E250149185108872D90E08824AA
:100D80009924881A990AFFEF0F3F1F0749F4D601EB
:100D9000ED91FC910280F381E02DC6016EE2099590
:100DA000A016B10634F0401651061CF4F70160811C
:100DB00001C060E3015010400894E11CF11C0815CB
:100DC00019054CF0D601ED91FC910280F381E02DE4
:100DD000C6010995D8CF0A151B0539F48A818633D7
:100DE00018F4853311F424FE61E3D601ED91FC91F2
:100DF00065C06A81613309F00F7ED601ED91FC91E7
:100E00000280F381E02DC60109957720E1F0D6013B
:100E1000ED91FC910280F381E02DC6016EE209950F
:100E200012E0E1E0F0E0EC0FFD1FE10FF11D608149
:100E30001F5FD601ED91FC910280F381E02DC60188
:100E400009957A9471F7D601ED91FC910280F381B6
:100E5000E02D44FC02C065E601C065E4C6010995C9
:100E6000B7FC05C0A114B10441F404FF06C0B0945E
:100E7000A194B108B3946DE201C06BE2D601ED918B
:100E8000FC910280F381E02DC601099560E305C065
:100E90006F5FE6EFFFEFAE0EBF1EFAE0AF16B104D4
:100EA000BCF7D601ED91FC910280F381E02DC601E3
:100EB0000995D601ED91FC916A2D605D0280F38168
:100EC000E02DC6010995AC84BD8478C1933631F01C
:100ED000933799F0933509F061C023C0F501808103
:100EE00089834E010894811C911C42E050E0A40EBD
:100EF000B51E21E0E22EF12C12C0D5018D909C9000
:100F000016FD03C06FEF7FEF02C0672D70E0E2E0D7
:100F1000F0E0AE0EBF1EC4010E94F8197C011F77DD
:100F200013C0D5018D909C9016FD03C06FEF7FEF2D
:100F300002C0672D70E0E2E0F0E0AE0EBF1EC4011B
:100F40000E94ED197C01106813FF0BC023C0D6016D
:100F5000ED91FC910280F381E02DC60160E20995DC
:100F60006A94862D90E0E816F90688F313C0F40120
:100F700017FD659117FF61914F01D601ED91FC912D
:100F80000280F381E02DC601099561106A940894EE
:100F9000E108F108E114F10451F710C1943611F0A1
:100FA000993699F517FF0AC0F501208131814281F8
:100FB000538184E090E0A80EB91E0CC0D5018D913C
:100FC0009C919C01442737FD4095542FE2E0F0E0CE
:100FD000AE0EBF1E9FE6F92EF12257FF09C05095B5
:100FE0004095309521953F4F4F4F5F4FF0E8FF2AD6
:100FF000CA01B901AE014F5F5F4F2AE030E00E94A5
:10100000B902E82E4989E41A41C0953721F41F7EC0
:101010002AE030E01CC0197F9F3661F0903720F441
:10102000983509F0CEC00FC0903739F0983709F0E5
:10103000C8C004C028E030E00AC0106114FD14608C
:1010400020E130E004C014FD166020E132E017FF1B
:1010500008C0D5016D917D918D919C91E4E0F0E007
:1010600008C0D5018D919C91BC0180E090E0E2E048
:10107000F0E0AE0EBF1EAE014F5F5F4F0E94B9029F
:10108000E82EF989EF1A8FE7F82EF122F6FE0BC051
:101090004EEFF422E71438F4F4FE07C0F2FC05C06A
:1010A0005FEEF52202C01E2D01C0172DF4FE0DC00B
:1010B000FE01EE0DF11D8081803319F489EEF822D6
:1010C00008C01F5FF2FE05C003C08F2D867809F0AF
:1010D0001F5F0F2DF3FC18C0F0FE13C0161510F0A3
:1010E0007E2C0FC07E2C760C711A162D0AC0D601EC
:1010F000ED91FC910280F381E02DC60160E209953B
:101100001F5F1615A0F304C0161510F4611A01C074
:10111000662404FF17C0D601ED91FC910280F38193
:10112000E02DC60160E3099502FF29C0D601ED91CB
:10113000FC910280F381E02D01FD02C068E712C03E
:1011400068E510C0802F8678D1F001FF02C06BE205
:1011500001C060E2F7FC6DE2D601ED91FC910280E6
:10116000F381E02DC60109950AC0D601ED91FC91ED
:101170000280F381E02DC60160E309957A94E714BB
:10118000A0F3EA94D601ED91FC91A1E0B0E0AC0FA0
:10119000BD1FAE0DB11D0280F381E02DC6016C9123
:1011A0000995EE2071F70AC0D601ED91FC910280FD
:1011B000F381E02DC60160E209956A946620A1F7EB
:1011C00024CC62960FB6F894DEBF0FBECDBFCF9190
:1011D000DF911F910F91FF90EF90DF90CF90BF9024
:1011E000AF909F908F907F906F905F904F903F90C7
:1011F0002F900895FC0180816827262F2295207F5B
:10120000262730E0522F4427C90163E0880F991F39
:101210006A95E1F748275927818190E048275927A7
:1012200084E0359527958A95E1F742275327518326
:1012300040830895DF93CF9300D000D0CDB7DEB7C1
:10124000FC013896E60FF11D2381328141815081E6
:10125000B901CA010F900F900F900F90CF91DF91BD
:101260000895CF92DF92EF92FF920F931F93CF9347
:10127000DF936901E82EFF2480E191E0E89E800180
:10128000E99E100DF89E100D11240C581E4F970169
:10129000220F331FF901EE0DFF1DEF01CC0FDD1FF3
:1012A000CC0FDD1FCC57DD4F18828B819C818430A1
:1012B0009105B1F18530910554F48230910539F1F1
:1012C000833091050CF044C09923C4F4C3C0873027
:1012D000910509F45BC08830910544F4853091058F
:1012E00009F43FC0069709F0B5C043C088309105A6
:1012F00009F46FC0099709F0ADC094C0653509F0D5
:10130000A9C082E090E09C838B83D80180C0F80163
:1013100063831D82C8010E94FA0884E090E015C032
:1013200084E490E0E89EF001E99EF00DF89EF00D57
:101330001124EE0FFF1FEE0FFF1FE858FE4F6083D2
:10134000C8010E94FA0883E090E09C838B8382C0EE
:10135000D80115966C93C8010E94FA0885E090E0C8
:10136000F4CFF8016683C8010E94FA0886E090E095
:10137000ECCFD80117966C93C8010E94FA08F801C7
:101380008381882319F187E090E0DFCF8D81F70119
:10139000B5E0EE0FFF1FBA95E1F7E20FF31F3196AC
:1013A000A3E0EE0FFF1FAA95E1F7E80FF11DEC583F
:1013B000FE4F60838F5F8D83C8010E94FA089D8174
:1013C000D80113968C91981709F044C088E090E0FA
:1013D000BCCF262F30E0D8018D919C911197907051
:1013E00028173907E1F0EE0FFF1FEE0FFF1FEA5736
:1013F000FD4F80818F5F8083188281E090E09C8325
:101400008B83653539F582E090E09C838B8313965E
:101410001C9213978FEF9FEF8D939C931BC089E0D5
:1014200090E093CF262F30E0D80111968C91119740
:1014300090E028173907B9F681E0888381E090E0D1
:101440009C838B83DA01F80180E191E001900D9299
:101450000197E1F7D701AA0FBB1FAE0DBF1DAA0F61
:10146000BB1FAA0FBB1FAC57BD4F8C91813069F5D4
:1014700084E490E0E89EF001E99EF00DF89EF00D06
:101480001124EE0FFF1FEE0FFF1FE858FE4F808163
:1014900016968C93169718968D919C911997892B77
:1014A00021F41B961C921E921A97F701EE0FFF1F54
:1014B000EE0DFF1DEE0FFF1FEE0FFF1FEC57FD4F50
:1014C00080859185019691878087F701EE0FFF1F38
:1014D000EE0DFF1DEE0FFF1FEE0FFF1FDF01AC57DC
:1014E000BD4F16968C9116978F5FE6018E831896E6
:1014F0008D919C91199799878887EA57FD4F808134
:101500008A871B8610828C91DF91CF911F910F915A
:10151000FF90EF90DF90CF9008952F923F924F92DF
:101520005F926F927F928F929F92AF92BF92CF9273
:10153000DF92EF92FF920F931F93DF93CF93CDB77C
:10154000DEB7C052D1400FB6F894DEBF0FBECDBF9C
:101550008C019FE0E92EF12CEC0EFD1E6E0108942B
:10156000C11CD11CC8018C5B9F4FC15EDE4F9983AB
:101570008883CF51D14085E4282E312C200E311E96
:10158000B3E44B2E512C400E511EAEE36A2E712C4B
:10159000600E711EF2E48F2E912C800E911EE6E4F7
:1015A000AE2EB12CA00EB11E31C10E940004682FD6
:1015B00080916E01882361F580916F016A3021F47A
:1015C0008F5F80936F0122C18330F0F06235C1F0EC
:1015D000633520F4663409F019C106C0633541F063
:1015E000633709F013C108C0C8010E94340E0EC150
:1015F000C8010E94CF0D0AC1C8010E94A20D06C1F8
:10160000C8010E947C0D02C16D3011F010926F0173
:1016100080E0A7019E012D5F3F4F0E943109882382
:1016200009F4F0C091E090936E018E898E3109F437
:10163000BFC08F3130F4882369F08B3109F0E2C0EC
:101640006BC0823259F18A3409F46BC0803209F0E0
:10165000D9C04BC081E0F80185AF8C89C15EDE4FF7
:10166000E881F981CF51D14080838D89F101808358
:10167000F7018085F20180830E9464030E94A41711
:10168000F3016083718382839383F40180818823D3
:1016900009F4B8C081E0F5018083B4C08D8DF601F6
:1016A00080838C8D818369817A8180E090E00E94C3
:1016B000A41720E030E04AE754E40E940B17F80139
:1016C00066837783808791878F8990E09687858767
:1016D000888D87878F8DF60180838E8D81838981A8
:1016E0009A81F801938782878DC0C70169E00E94C3
:1016F0001A09F801608B718B828B938BC7016DE0A7
:101700000E941A09F801648B758B868B978BF70101
:101710008089F801818F76C0F7018085F801808F7C
:1017200071C0C70164E00E941A09F80167AB70AF8D
:1017300081AF92AF88A1F60180838F8D818369810B
:101740007A81882777FD8095982F0E94A617F80147
:1017500067A770AB81AB92AB8AA1F601808389A1A8
:10176000818389819A81F80194AF83AF83AD94AD71
:101770008536910548F083AD94AD8639910520F406
:1017800084E690E094AF83AFF80183AD94AD83AD70
:1017900094AD8739910510F014AE13AEC7016CE01B
:1017A0000E941A09F80163AB74AB85AB96AB2AC0F3
:1017B000C7016CE00E941A0921EE3EE245E652E4C0
:1017C0000E9497180E947317F80164A7C70168E088
:1017D0000E941A0921EE3EE245E652E40E94971863
:1017E0000E947317F80165A7C70160E10E941A09FA
:1017F00021EE3EE245E652E40E9497180E947317DC
:10180000F80166A788E292E00197F1F70E94400490
:10181000181619060CF4C9CE8091700190917101CF
:101820002D853E85820F931F9093710180937001E7
:101830002D818091720190917301820F911D90937F
:10184000730180937201C05EDE4F0FB6F894DEBF65
:101850000FBECDBFCF91DF911F910F91FF90EF9001
:10186000DF90CF90BF90AF909F908F907F906F90C0
:101870005F904F903F902F900895FC0189E990E090
:10188000918380830895FC016115710521F0613019
:10189000710549F404C0148286E08583089580E4CC
:1018A000848388E085830895FC018481882331F056
:1018B000803419F421E030E003C0089520E030E0E6
:1018C000C9010895FC01858190E00895FC016283BF
:1018D0004383089580E090E00895EF92FF921F9374
:1018E000CF93DF93162F7A01C39880E00E941703ED
:1018F00080E00E94170389E00E941703812F0E9455
:101900001703C0E0D0E0F701EC0FFD1F10818AE063
:101910000E9417038C2F0E9417038BE00E9417036D
:10192000812F0E9417032196C633D10561F788E005
:101930000E94170380EA0E94170380EA0E9417039F
:1019400085FDFBCF80E00E9417038CE00E94170307
:10195000C39ADF91CF911F91FF90EF9008951F934D
:10196000CF93DF93EC01162FC39880E00E941703FA
:10197000112319F0113039F402C08C8102C08C811E
:101980008C610E941703C39ADF91CF911F91089534
:101990000F931F938C0187E00E9417038FEF0E9423
:1019A0001703C39AF80183818F5F83831F910F917F
:1019B00008950F931F93FC0103818EE1089F80011E
:1019C00011248281080F111DC39884E00E9417031F
:1019D00083E00E94170385E00E941703812F0E9475
:1019E000170386E00E941703802F0E9417031F91A0
:1019F0000F9108951F93CF93DF93EC01162F6C374F
:101A000031F40E94C80CCE010E94D90C06C087E0B8
:101A10000E941703812F0E941703DF91CF911F911E
:101A20000895C39884E00E94170384E00E9417037E
:101A3000C39A0895CF93DF93EC01C39880EA0E9484
:101A400017038FEF0E94170381FF04C0CE0160E0EF
:101A500070E003C0CE0161E070E00E94430CC39AC5
:101A6000DF91CF9108951F93CF93DF93EC01BB9A41
:101A70000E941A0DC3988CEE0E9417038FEF0E94EC
:101A80001703182F80E00E9417038C8182600E9448
:101A9000170362E370E080E090E00E9472038CE63E
:101AA0000E941703812F8F7E0E94170310929102CC
:101AB0001092900213C08091900290919102805FE9
:101AC0000E94170380E00E9417038091900290917A
:101AD00091020196909391028093900280919002DE
:101AE000909191020C973CF3CE0161E00E94AF0C03
:101AF000DF91CF911F9108950F931F93182F092FF6
:101B00000E94110D812F902F66E049E00E94660C23
:101B1000812F902F0E94D90C812F902F68EF70E0B9
:101B20000E94B404812F902F0E94C80C10E064E63C
:101B300070E080E090E00E947203A8951F5F14316E
:101B4000B1F7FFCFCF92DF92FF920F931F93CF9306
:101B5000DF938C0183E70E942E0484E30E942E040D
:101B6000085B1F4FF801C081D181FF24680105C0C7
:101B70001991812F0E942E04F10EF601808191812E
:101B8000C496C817D907A0F38F2D0E942E04DF91A9
:101B9000CF911F910F91FF90DF90CF900895AF925A
:101BA000BF92CF92DF92FF920F931F93DF93CF9359
:101BB000CDB7DEB7E4970FB6F894DEBF0FBECDBF4A
:101BC0006C0183E50E942E040E941D04A8958433B5
:101BD000C1F5FF248E010F5F1F4F85E3A82EB12CA6
:101BE000AC0EBD1E0E941D04F80181938F01F80EFA
:101BF000A895EA15FB05B1F70E941D04A8958F155D
:101C000001F5F601E85BFF4F20813181C901DC015C
:101C1000FE01319684E301900D928150E1F7A89581
:101C2000F601E85BFF4F8081918161E070E044E361
:101C300050E00E941B1AA895C6010E94110D81E276
:101C400001C080E40E942E04E4960FB6F894DEBF33
:101C50000FBECDBFCF91DF911F910F91FF90DF900D
:101C6000CF90BF90AF9008956F927F928F929F9286
:101C7000BF92CF92DF92EF92FF920F931F93DF9369
:101C8000CF93CDB7DEB7C054D0400FB6F894DEBFC7
:101C90000FBECDBFC82EB92E0E94110D8C2D9B2DCD
:101CA00066E049E00E94660C8C2D9B2D0E94D90CA9
:101CB0008C2D9B2D61E271E00E94B4048C2D9B2D34
:101CC0000E94C80C86E40E942E04EE24FF244E01DC
:101CD0000894811C911C97E3692E712C6C0E7D1E5B
:101CE000A8958401DD240E941D04F80181938F01D1
:101CF000D80EE615F705B9F7A8950E941D048D15B5
:101D000099F48C2D9B2DB701A4010E946D0C81E2EA
:101D10000E942E040894E11CF11CF0E0EF16F1E0A3
:101D2000FF06F1F610E004C080E40E942E0411E0EA
:101D30008C2D9B2D66E049E00E94660C8C2D9B2D1E
:101D40000E94D90C8C2D9B2D62E171E00E94B4049D
:101D5000112329F08C2D9B2D6CE071E004C08C2D9B
:101D60009B2D65E071E00E94B4048C2D9B2D0E9498
:101D7000C80CC05CDF4F0FB6F894DEBF0FBECDBFFE
:101D8000CF91DF911F910F91FF90EF90DF90CF9057
:101D9000BF909F908F907F906F9008958F929F92A9
:101DA000AF92BF92CF92DF92EF92FF920F931F9369
:101DB000CF93DF93EC01982E8D2E0E94330DCE0130
:101DC0000E94F31080E090E00E94131A48E4E42E91
:101DD000F12CEC0EFD1E823009F440C0CE0166E00D
:101DE00049E00E94660CCE010E94D90CCE0163E44A
:101DF00071E00E94B404CE010E94C80C64EF71E04F
:101E000080E090E00E94720380E090E062E00E9437
:101E1000251AD7018D919C9161E070E044E350E078
:101E20000E941B1ACE0166E049E00E94660CCE01BA
:101E30000E94D90CCE0160E371E00E94B404CE018F
:101E40000E94C80C64EF71E080E090E00E94720391
:101E5000CE0169E070E00E94DD1009C0F7018081C9
:101E6000918161E070E044E350E00E94031AEE24A7
:101E7000FF2438E4A32EB12CAC0EBD1ED501ED918C
:101E8000FC916701CC0CDD1CEC0DFD1D0581892D3D
:101E9000982D0E94620C10E00817190774F0892D24
:101EA000982D0E94540C892B41F4D501ED91FC91A1
:101EB000EC0DFD1D8581835085830894E11CF11C88
:101EC000B8E1EB16F104D1F6CE010E940C1164EFDB
:101ED00071E080E090E00E947203892D982D0E94AD
:101EE000110DDF91CF911F910F91FF90EF90DF9037
:101EF000CF90BF90AF909F908F900895EF92FF92F8
:101F00000F931F938C017B010E943D0C85EA90E0AA
:101F1000F80191838083085B1F4FF801F182E08212
:101F20001F910F91FF90EF9008951F93CF93DF9330
:101F3000EC018BA5823010F410E903C01BA5110F32
:101F40001257E881F9810280F381E02DCE01612FE3
:101F50000995E881F9811F5F0280F381E02DCE01B0
:101F6000612F0995DF91CF911F9108952F923F9294
:101F70004F925F926F927F928F929F92AF92BF9299
:101F8000CF92DF92EF92FF920F931F93CF93DF9345
:101F9000EC018A8D882309F0F9C0898D823008F41C
:101FA000F5C088899989AA89BB898B8F9C8FAD8F51
:101FB000BE8F8C899D89AE89BF898F8F98A3A9A375
:101FC000BAA38BA99CA9ADA9BEA98BA39CA3ADA3C1
:101FD000BEA381E08A8FDEC06B8D7C8D8D8D9E8D42
:101FE0009F7725E33AEF4EE85CE30E9497180E9442
:101FF00008171B012C016B8D7C8D8D8D9E8D288982
:1020000039894A895B890E9441169F7720EC3BE61B
:1020100049ED57E40E9497185B016C016F8D78A120
:1020200089A19AA12C893D894E895F890E94411618
:102030009F7720EC3BE649ED57E40E949718A201F8
:1020400091010E9497187B018C01C601B501A60180
:1020500095010E9497185B016C01C801B701A801A6
:1020600097010E9497189B01AC01C601B5010E941F
:1020700042160E941E190E9473176FA378A789A7A2
:102080009AA7AF8CB8A0C9A0DAA06C887D888E888A
:102090009F886B8D7C8D8D8D9E8D288939894A898D
:1020A0005B890E9441167B018C0160E070E080E852
:1020B0009FE3A20191010E940B179B01AC01C80193
:1020C000B7010E9497187B018C01C601B501A401DC
:1020D00093010E9441169B01AC015058C801B70101
:1020E0000E94B51620EE3EE245E652E40E949718A3
:1020F00020E030E044EB52E40E9442160E94731745
:102100009B01AC0197FF04C028593E4F4F4F5F4FD2
:10211000CA01B901645B70408040904097FF06C0DF
:10212000CA01B9016C547F4F8F4F9F4FEFA4F8A89D
:1021300009A91AA90E94A617A80197010E94411691
:102140000E94731797FF04C068597E4F8F4F9F4FAF
:102150000E94A61720E030E044EB53E40E940B17E6
:1021600020E030E040E851E40E9497180E94FA18FD
:1021700020E030E040E85FE30E9442160E947817BA
:102180006BA78BA5813130F01BA604C08A8D8130EE
:1021900009F422CFDF91CF911F910F91FF90EF9023
:1021A000DF90CF90BF90AF909F908F907F906F9077
:1021B0005F904F903F902F9008950F931F93CF9370
:1021C000DF93EC01462F8C0160E00E94660CCE018B
:1021D0000E94D90CE881F9810280F381E02DC801C9
:1021E00060E20995F7CF0F931F93182F092F6AE02C
:1021F00045E00E94660C812F902F0E94D90C812F00
:10220000902F61E572E00E94B404812F902F0E940C
:10221000C80C1F910F910895AF92BF92DF92EF9279
:10222000FF920F931F93CF93DF93EC01D82EED2EE7
:1022300065E04CE00E94660CCE010E94D90CCE01F4
:1022400066E571E00E94B404CE010E94C80C64EF00
:1022500071E080E090E00E9472030E944D0400E073
:1022600010E0FF2480EAA82E8FE0B82EC8016AEFA4
:1022700070E00E94C019892BD9F481E1F80E8D2DF0
:102280009E2D6F2D4CE00E94660C8D2D9E2D0E9480
:10229000D90CE881F9810280F381E02D8D2D9E2DEE
:1022A0006EEE09958D2D9E2D0E94C80C80EFF80EC4
:1022B000C5010197F1F70F5F1F4F87E0013D180738
:1022C000A9F6DF91CF911F910F91FF90EF90DF90D2
:1022D000BF90AF9008952F923F924F925F926F926E
:1022E0007F928F929F92AF92BF92CF92DF92EF92A6
:1022F000FF920F931F93DF93CF93CDB7DEB728974D
:102300000FB6F894DEBF0FBECDBF3C016F83488788
:102310004DB75EB75E834D838DB79EB748970FB6B6
:10232000F8949EBF0FBE8DBF0196982E892ED301C3
:102330009C968C91992787FD909597FF03C0909567
:1023400081959F4F8A359105B1F4F30164A57727F4
:1023500067FD70958AE590E00E94C019882777FD97
:102360008095982F0E94A61721EE3AEF43EB52E496
:102370000E9497180AC0D3019C966C91772767FD3D
:102380007095872F972F0E94A61725E33AEF4EE806
:102390005CEB0E9497187B018C01F30185A59927BE
:1023A00087FD909597FF03C0909581959F4F8A3543
:1023B0009105B9F4D3019D966C91772767FD7095CF
:1023C0008AE590E00E94C019882777FD8095982FB4
:1023D0000E94A61721EE3AEF43EB52E40E949718B1
:1023E00009C0F30165A5772767FD7095872F972FA3
:1023F0000E94A61725E33AEF4EE85CE30E94971887
:102400005B016C01B701C8010E945F1920E030E058
:1024100044E352E40E9497180E94FA180E9473172E
:102420007B018C01B501C6010E945F1969837A8323
:102430008B839C83292D382DC9012C011C013EEB77
:10244000C32E3FEFD32E4701AA2497FCA094BA2CA9
:10245000B601882777FD8095982F0E94A6179B01CB
:10246000AC0169817A818B819C810E9497187B01E4
:102470008C01C501B4010E94A6179B01AC01C801E3
:10248000B7010E94421620E030E044E352E40E948B
:10249000421620E030E040E85FE30E9441160E94CF
:1024A0007317D1016D937D931D01ECE0F0E0CE0E2A
:1024B000DF1EFEE4CF16D10459F65301CC24DD24EF
:1024C0002EEE822E2FEF922ED2012D913C911216DC
:1024D00013060CF044C02A3531050CF040C0C90188
:1024E00001976EEE7FEF0E94C0198B010B5F1F4FAB
:1024F0002B553040089DC001099D900D189D900DF1
:102500001124F901E81BF90BCF0162E070E00E9491
:10251000C019882777FD8095982F0E94A6170E94E2
:10252000FA180E9473177B01672B19F491E0E92ECA
:10253000F12C6F816C0D402F4150F8854F0FC50174
:102540000E94660CC5010E94D90CD301ED91FC914B
:102550006E2D6B5F0280F381E02DC5010995089413
:10256000C11CD11CE2E0F0E04E0E5F1EFCE0CF1675
:10257000D10409F0A9CF4D815E810FB6F8945EBFFA
:102580000FBE4DBF28960FB6F894DEBF0FBECDBF6D
:10259000CF91DF911F910F91FF90EF90DF90CF903F
:1025A000BF90AF909F908F907F906F905F904F9073
:1025B0003F902F9008952F923F924F925F926F928B
:1025C0007F928F929F92AF92BF92CF92DF92EF92C3
:1025D000FF920F931F93CF93DF936C010E946403CC
:1025E0002EE330E0C20ED31ED601ED90FD900D918A
:1025F0001C91C2ECDFEFCC0EDD1E0E94A417A801D7
:1026000097010E9441160E94731720919400605D0B
:102610007740804090400CF0E2C2222329F0C601AE
:102620000E94110D109294003601560188249924BD
:1026300078E4472E512C4C0C5D1C63E4262E312C83
:102640002C0C3D1CD201CD91DC9188819981AA810D
:10265000BB81082C04C0B695A795979587950A94D9
:10266000D2F780FFB3C2F4013296EE0FFF1FEC0FDA
:10267000FD1F6081C401880F991FC80FD91F4D81AC
:10268000C3010E94660CC3010E94D90CE82DF0E042
:10269000E731F10508F097C2E65DFF4FEE0FFF1F2F
:1026A0000590F491E02D099408ECFF2455C2C50172
:1026B00061E072E095C0E6012CA500D000D000D00A
:1026C000EDB7FEB73196ADB7BEB71196AC92B182F9
:1026D0008BEF91E00FC0F60125A500D000D000D00F
:1026E000EDB7FEB73196ADB7BEB71196AC92B182D9
:1026F00085EF91E093838283332727FD30953583DF
:1027000024830E94D004CDB7DEB726960FB6F89486
:10271000DEBF0FBECDBF57C2F601E680F780008551
:102720001185428553852AEB88EE93E003C08456D9
:102730009040215048175907D0F36DB77EB76A50C3
:1027400070400FB6F8947EBF0FBE6DBFEDB7FEB7F9
:102750003196ADB7BEB71196AC92B1828AEE91E0D8
:1027600093838283E482F58206831783822F9927DD
:1027700087FD9095918780870E94D004CDB7DEB702
:102780002A96C4CFF601808D00D000D000D0EDB7DE
:10279000FEB73196ADB7BEB71196AC92B182C5EE19
:1027A000D1E0D383C283848315820E94D004EDB725
:1027B000FEB736960FB6F894FEBF0FBEEDBF03C24C
:1027C000D60159968C91823020F0843008F0FBC1FC
:1027D00004C0C50162EE71E003C0C5016FED71E098
:1027E0000E94B404F0C1E60188899989AA89BB894D
:1027F0002C893D894E895F89EDB7FEB73C970FB6AE
:10280000F894FEBF0FBEEDBF3196CDB7DEB7A982FB
:10281000B1826FEC71E07383628384839583A683B6
:10282000B78320873187428753870E94D0048DB7B2
:102830009EB70C960FB6F8949EBF0FBE8DBFC3C156
:10284000D6019F966D917D918D919C91D29720E0BC
:1028500030E040E152E40E94971820E030E044EB81
:1028600053E40E940B170E94FA180E9473179B01F1
:102870002550304037FF03C09B01215E3F4FA2E946
:10288000B2E0F901E355FF4F80818C932F5F3F4FFA
:102890002432310514F020E030E01196E2E0AD3949
:1028A000BE0779F71C9200D000D000D0EDB7FEB77C
:1028B0003196CDB7DEB7A982B1822CEB31E03383FC
:1028C00022831B97B583A483AEC0E6018FA598A988
:1028D000A9A9BAA9EDB7FEB738970FB6F894FEBF0D
:1028E0000FBEEDBF3196CDB7DEB7A982B18225EB21
:1028F00031E05DC0D601DD968C91882341F0C501A1
:1029000062EB71E00E94B404E6011DAE5CC1C5013A
:102910006FEA71E065CFF601828D813009F053C115
:1029200067A170A581A592A52DB73EB7285030406C
:102930000FB6F8943EBF0FBE2DBF0DB71EB70F5F89
:102940001F4FADB7BEB71196AC92E801B982E7EA66
:10295000F1E0FB83EA830E94A617D80114966D93D9
:102960007D938D939C9317970E94D004CDB7DEB7CB
:102970002896CCCEF601828D813009F024C1C601A3
:102980000E94950F20C1E6018BA99CA9ADA9BEA903
:10299000EDB7FEB738970FB6F894FEBF0FBEEDBF88
:1029A0003196CDB7DEB7A982B1822FE931E033830A
:1029B000228384839583A683B7830E94D0046DB756
:1029C0007EB7685F7F4F0FB6F8947EBF0FBE6DBFB6
:1029D000FAC0E6018FA998ADA9ADBAADEDB7FEB7C3
:1029E00038970FB6F894FEBF0FBEEDBF3196CDB746
:1029F000DEB7A982B18227E931E0D9CFD601DB96D3
:102A00008D919C91DC9700D000D000D0EDB7FEB73F
:102A10003196CDB7DEB7A982B1822FE831E033839A
:102A20002283958384830E94D0046DB77EB76A5F4A
:102A30007F4FC9CFD1013C91E6012F858D859E85C1
:102A4000323009F04AC08636910561F1873691052A
:102A500098F48430910549F18530910520F403976D
:102A600009F0B1C02BC08436910509F4DEC085366B
:102A7000910509F0A8C013C08C36910529F18D3657
:102A8000910528F48B36910509F09DC05CC08D3608
:102A90009105E9F08E36910509F095C01BC000E163
:102AA00012E0C5C005E112E0C2C0233009F43FC006
:102AB0002530C1F1223009F086C03FC0233009F033
:102AC00082C009E212E0B3C003E312E0B0C008E341
:102AD00012E0ADC00DE312E0AAC0313009F073C0BE
:102AE0008530910519F4243059F59FC08630910541
:102AF00059F4213019F402E412E099C0223009F0AF
:102B000062C007E412E093C08230910531F42430B2
:102B100009F059C00CE412E08AC08430910581F4B8
:102B2000253019F404E212E082C0233019F40AE1DE
:102B300012E07DC0283009F046C00FE112E077C0F6
:102B4000079709F040C00EE212E071C0E2E0FE1605
:102B500011F408ED01C008ECD601ED91FC91028062
:102B6000F381E02DC301602F099510E0E601E881B3
:102B7000F9810280F381E02DC30160E209951F5FB6
:102B80001C30A1F7E881F9810F5F0280F381E02D0D
:102B9000C301602F0995E881F9810280F381E02D5E
:102BA000C3016CE70995F394E5E0FE1679F6D201CE
:102BB000ED91FC9160A941A970E06F5F7F4FC60164
:102BC00050E00E946B11C3010E94C80C0894811C44
:102BD000911CB8E18B16910409F034CD34C0222346
:102BE00091F511E010939400C6010E94110DC2E40A
:102BF000D0E0CC0EDD1EF60110832EEB3FEFC20EAF
:102C0000D31EC6010E94F310C60165E04AE00E948F
:102C1000660CC6010E94D90CC6016DE671E00E94E7
:102C2000B404C6010E94C80C0EC00BE012E0D6012D
:102C3000ED91FC910280F381E02DC30160EE0995D6
:102C4000C501B801CDCDDF91CF911F910F91FF90BC
:102C5000EF90DF90CF90BF90AF909F908F907F903C
:102C60006F905F904F903F902F9008950F931F9318
:102C70008C010E94B60FC8010E94DB121F910F91B8
:102C800008955058BB27AA270ED0FFC1C8D130F0F5
:102C9000CDD120F031F49F3F11F41EF498C10EF411
:102CA000E095E7FB8EC1E92F12D280F3BA176207D5
:102CB00073078407950718F071F49EF52AC20EF485
:102CC000E0950B2EBA2FA02D0B01B90190010C013C
:102CD000CA01A0011124FF27591B99F0593F50F454
:102CE000503E68F11A16F040A22F232F342F4427AC
:102CF000585FF3CF469537952795A795F0405395A4
:102D0000C9F77EF41F16BA0B620B730B840BBAF073
:102D10009150A1F0FF0FBB1F661F771F881FC2F7DE
:102D20000EC0BA0F621F731F841F48F487957795F2
:102D30006795B795F7959E3F08F0B3CF9395880FA9
:102D400008F09927EE0F97958795089568D158F068
:102D500080E891E009F49EEF69D128F040E851E065
:102D600059F45EEF09C033C1D4C1E92FE078AFD187
:102D700068F3092E052AC1F32617370748075907B4
:102D800038F00E2E07F8E02569F0E025E0640AC06F
:102D9000EF6307F8009407FADB01B9019D01DC013C
:102DA000CA01AD01EF9346D070D10AD05F9155238F
:102DB00031F02BED3FE049E450FD49EC63CF08953D
:102DC000DF93DD27B92FBF7740E85FE316161706BC
:102DD00048075B0710F4D92FA3D19F938F937F935C
:102DE0006F936AD2E2E8F0E0F5D04FD12F913F9196
:102DF0004F915F91A8D1DD2349F09058A2EA2AEDC6
:102E00003FE049EC5FE3D0785D274DDFDF913DC1C6
:102E100015D1E3954BC10CD038C108D140F0FFD09B
:102E200030F021F45F3F19F0CCC0511173C1CFC015
:102E30004ED198F39923C9F35523B1F3951B550B44
:102E4000BB27AA2762177307840738F09F5F5F4F7D
:102E5000220F331F441FAA1FA9F333D00E2E3AF0BE
:102E6000E0E830D091505040E695001CCAF729D0D8
:102E7000FE2F27D0660F771F881FBB1F2617370727
:102E80004807AB07B0E809F0BB0B802DBF01FF2757
:102E900093585F4F2AF09E3F510568F092C03AC1A7
:102EA0005F3FECF3983EDCF3869577956795B79591
:102EB000F7959F5FC9F7880F911D9695879597F9AC
:102EC0000895E1E0660F771F881FBB1F6217730725
:102ED0008407BA0720F0621B730B840BBA0BEE1F3A
:102EE00088F7E095089504D06894B11113C108954E
:102EF000F6D088F09F5790F0B92F9927B751A0F0DE
:102F0000D1F0660F771F881F991F1AF0BA95C9F77D
:102F100012C0B13081F0FDD0B1E00895FAC0672F42
:102F2000782F8827B85F39F0B93FCCF3869577952D
:102F30006795B395D9F73EF4909580957095619516
:102F40007F4F8F4F9F4F0895E89409C097FB3EF441
:102F500090958095709561957F4F8F4F9F4F9923E6
:102F6000A9F0F92F96E9BB279395F6958795779564
:102F70006795B795F111F8CFFAF4BB0F11F460FF24
:102F80001BC06F5F7F4F8F4F9F4F16C0882311F07C
:102F900096E911C0772321F09EE8872F762F05C090
:102FA000662371F096E8862F70E060E02AF09A952B
:102FB000660F771F881FDAF7880F9695879597F920
:102FC000089597F99F6780E870E060E008959FEFAB
:102FD00080EC0895DF93CF931F930F93FF92EF92AE
:102FE000DF927B018C01689405C0DA2EEF01ABD033
:102FF000FE01E894A5912591359145915591AEF347
:10300000EF0151DEFE019701A801DA9479F7DF9014
:10301000EF90FF900F911F91CF91DF9108950024C1
:103020000A941616170618060906089500240A942D
:1030300012161306140605060895C9CF50D0E8F3FA
:10304000E894E0E0BB279F57F0F02AED3FE049EC21
:1030500006C0EE0FBB0F661F771F881F28F0B23A1D
:1030600062077307840728F0B25A620B730B840B54
:10307000E3959A9572F7803830F49A95BB0F661FE6
:10308000771F881FD2F7904857C1092E0394000C70
:1030900011F4882352F0BB0F40F4BF2B11F460FFF2
:1030A00004C06F5F7F4F8F4F9F4F0895EF93E0FFF6
:1030B00006C0A2EA2AED3FE049EC5FEBF4DDE5DF74
:1030C0000F90039401FC9058EFEAF0E048C157FDDF
:1030D0009058440F551F59F05F3F71F04795880F86
:1030E00097FB991F61F09F3F79F08795089512161D
:1030F00013061406551FF2CF4695F1DF08C01616C9
:1031000017061806991FF1CF869571056105089479
:103110000895E894BB2766277727CB0197F9089590
:103120009B01AC0160E070E080E89FE374CE0BD0BF
:10313000ACCF75DF28F07ADF18F0952309F041CF86
:1031400046CF1124E7CFC3DFA0F3959FD1F3950FAE
:1031500050E0551F629FF001729FBB27F00DB11D1B
:10316000639FAA27F00DB11DAA1F649F6627B00DAB
:10317000A11D661F829F2227B00DA11D621F739F94
:10318000B00DA11D621F839FA00D611D221F749FA2
:103190003327A00D611D231F849F600D211D822FE9
:1031A000762F6A2F11249F5750408AF0E1F0882330
:1031B0004AF0EE0FFF1FBB1F661F771F881F91503D
:1031C0005040A9F79E3F510570F0FBCEA3CF5F3F63
:1031D000ECF3983EDCF3869577956795B795F79570
:1031E000E7959F5FC1F7FE2B880F911D96958795F8
:1031F00097F9089574DFE0F09E37D8F09639B8F467
:103200009E3848F4672F782F8827985FF9CF8695E6
:103210007795679593959539D0F3B62FB1706B0F6D
:10322000711D811D20F4879577956795939567C0EB
:1032300081C070CF11F40EF4CACE7CC050DFD0F341
:103240009923D9F3CEF39F57550B87FF81D00024E4
:10325000A0E640EA900180585695979528F4805C46
:10326000660F771F881F20F026173707480730F4AE
:10327000621B730B840B202931294A2BA6951794C6
:103280000794202531254A2758F7660F771F881F96
:1032900020F026173707480730F4620B730B840BB6
:1032A000200D311D411DA09581F7B901842F915842
:1032B000880F9695879508959B01AC0138CFDF93D1
:1032C000D92FBCDEE695D7952AED3FE049E45FE3D0
:1032D000B33A6207730784079507D7952AF0A2EAE5
:1032E00049EC9068E0DCD1DEEDECF0E038D0DD0FA9
:1032F0000BF016DFDD0F0BF49058DF910895882353
:1033000071F4772321F09850872B762F07C066231E
:1033100011F499270DC09051862B70E060E02AF0DF
:103320009A95660F771F881FDAF7880F969587950D
:1033300097F908959F3F31F0915020F48795779544
:103340006795B795880F911D9695879597F908957C
:1033500091505040660F771F881FD2F708959F93B2
:103360008F937F936F93FF93EF939B01AC01DFDE0D
:10337000EF91FF912FDE2F913F914F915F91D7CE2B
:1033800097FB092E07260AD077FD04D00CD006D073
:1033900000201AF4709561957F4F0895F6F7909587
:1033A00081959F4F0895AA1BBB1B51E107C0AA1F1F
:1033B000BB1FA617B70710F0A61BB70B881F991FD6
:1033C0005A95A9F780959095BC01CD010895EE0F0F
:1033D000FF1F0590F491E02D0994FC0105906150C8
:1033E00070400110D8F7809590958E0F9F1F08951B
:1033F000FC016150704001900110D8F780959095C4
:103400008E0F9F1F0895DC01CB01FC01E199FECFD7
:1034100006C0FFBBEEBBE09A31960DB20D92415053
:103420005040B8F70895E199FECF9FBB8EBBE09A5C
:1034300099278DB30895DC01CB0103C02D910E9423
:10344000261A41505040D0F70895262FE199FECF1B
:103450009FBB8EBB2DBB0FB6F894E29AE19A0FBECC
:0834600001960895F894FFCFD6
:10346800EE1F7C000D0716090B0114011503020D50
:10347800050D020E100E180D02090E0302010000C0
:103488000000150515021504020202030204110DBD
:103498000807000001000000006A0CFA0CCD043394
:1034A8000D000000006A0CFA0CCD04CE0EC2C0C09C
:1034B800C1C0C0C1C0C0C4C0C0C1C0C0C1C0C0C3F9
:1034C800C0C0C1C0C0C1C0C0C5C0C0C1C0C0C1C0EB
:0234D800C00032
:00000001FF
