:100000000C94DB010C94F8010C94F8010C94F801A9
:100010000C94F8010C94F8010C94F8010C94F8017C
:100020000C94F8010C9435030C94F8010C94C30360
:100030000C94ED030C94F8010C94F8010C94F80165
:100040000C94F8010C94F8010C94F8010C94F8014C
:100050000C94F801C806CB06DB06F306030722075B
:1000600030073E076B07AA07B8070C08C607140835
:10007000460887089908A708B908D408F90811099B
:1000800042095109C506A209084AD73B3BCE016E79
:1000900084BCBFFDC12F3D6C74319ABD56833DDADF
:1000A0003D00C77F11BED9E4BB4C3E916BAAAABEEE
:1000B000000000803F05A84CCDB2D44EB93836A917
:1000C000020C50B9918688083CA6AAAA2ABE000054
:1000D00000803F0664EC1B3C04BC163E3BE5B93C8B
:1000E000C93C37C29E5A3D660498083EEA69AAAAEE
:1000F0003E000000803F52657175657374696E67DC
:10010000204461746153747265616D732E2E2E00EC
:10011000426F6F74696E672075703AEDF2F2F2F219
:10012000F2F2F2F2F2F30057616974696E672066C9
:100130006F727C4D41564C696E6B206865617274BC
:1001400062656174732E2E2E002020202020202036
:10015000200044697361726D65640041504D20490F
:100160006E69740087253369252500E825332E3014
:1001700066256300E925332E3066256300E72535C3
:100180002E3066256300E625352E3066256300E5B2
:1001900025352E32668F00E425352E32668F00E13C
:1001A000253369252500572532690025342E306610
:1001B0002563001F25352E3066256300EAEB00EA33
:1001C000EC0025342E3066B00020C0C0C0C0C0C7CF
:1001D000C0C0C0C0C0207CD02573D1008325313180
:1001E0002E36667C842531312E36660011200010B3
:1001F00020000F25326900E325352E32668E00E29D
:1002000025352E32668E00253469B0B2002534695A
:10021000B0B100050304057C151314150048617A7C
:10022000792773204F53442076312E30337C20665B
:100230006F72204D41564C696E6B20312E3000524A
:1002400065626F6F74696E672E2E2E004F534420C7
:10025000496E697469616C697A6564202020004D7B
:10026000697373696E672F4F6C6420436F6E6669A4
:1002700067007374616200616C7468006175746F0B
:100280000067756964006C6F6974007265746C0056
:100290006369726300706F7369006C616E64006FF4
:1002A000666C6F006D616E750066627761006662F4
:1002B0007762006E616E00696E660000407A10F32E
:1002C0005A00A0724E18090010A5D4E80000E87684
:1002D00048170000E40B54020000CA9A3B000000DB
:1002E000E1F505000080969800000040420F0000F4
:1002F00000A08601000000102700000000E80300B5
:100300000000006400000000000A0000000000017E
:1003100000000000002C76D888DC674F0823DFC17E
:10032000DFAE59E1B1B796E5E3E453C63AE6519939
:100330007696E8E6C28426EB898C9B62ED407C6F62
:10034000FCEFBC9C9F40F2BAA56FA5F490055A2A19
:10035000F75C936B6CF9676DC11BFCE0E40D47FE25
:10036000F520E6B500D0ED902E030094357705001A
:1003700080841E080000204E0A000000C80C3333A1
:1003800033330F986E12831141EF8D2114893BE6B0
:100390005516CFFEE6DB18D1844B381BF77C1D9039
:1003A0001DA4BBE424203284725E228100C9F124A2
:1003B000ECA1E53D270011241FBECFE5D4E0DEBF50
:1003C000CDBF11E0A0E6B0E0E4E7F5E302C00590A0
:1003D0000D92A433B107D9F712E0A4E3B1E001C054
:1003E0001D92A339B107E1F70E942D0E0C94B81AA3
:1003F0000C940000283008F027E03327DA01990F29
:10040000311D87FD916000966105710539F43260F8
:100410002E5F3D9330E32A95E1F708959F3F30F03A
:1004200080387105610509F03C5F3C5F3D93913078
:1004300008F08068911DDF93CF931F930F93FF9275
:10044000EF92192F987F9695E92F96959695E90F3B
:10045000FF27EB5EFC4F99273327EE24FF24A701EB
:10046000E70105900894079428F4360FE71EF81E5C
:10047000491F511D660F771F881F991F0694A1F70A
:100480000590079428F4E70EF81E491F561FC11D5A
:10049000770F881F991F661F0694A1F70590079490
:1004A00028F4F80E491F561FC71FD11D880F991F2A
:1004B000661F771F0694A1F70590079420F4490F53
:1004C000561FC71FD81F990F661F771F881F0694D6
:1004D000A9F784911095177041F0D695C795579557
:1004E0004795F794E7941A95C1F7EBEBF2E068941F
:1004F0001590159135916591959105907FE27395D1
:10050000E118F10A430B560BC90BD009C0F7E10CF7
:10051000F11E431F561FC91FD01D7EF4703311F406
:100520008A95E6CFE894015030F0080F0AF40027CE
:10053000021708F4202F2395022F7A3328F079E34D
:100540007D932A95E9F710C07D932A9589F6069444
:1005500097956795379517951794E118F10A430B0E
:10056000560BC90BD00998F023957E9173957A3379
:1005700008F070E37C932013B8F77E9170617D934F
:1005800030F0839571E37D9370E32A95E1F71124B0
:10059000EF90FF900F911F91CF91DF91992787FDE9
:1005A00090950895FA01AA27283051F1203181F160
:1005B000E8946F936E7F6E5F7F4F8F4F9F4FAF4F6B
:1005C000B1E03ED0B4E03CD0670F781F891F9A1F7E
:1005D000A11D680F791F8A1F911DA11D6A0F711D32
:1005E000811D911DA11D20D009F468943F912AE03E
:1005F000269F11243019305D3193DEF6CF01089526
:10060000462F4770405D4193B3E00FD0C9F7F6CF56
:10061000462F4F70405D4A3318F0495D31FD40521E
:10062000419302D0A9F7EACFB4E0A69597958795B4
:1006300077956795BA95C9F7009761057105089593
:100640009B01AC010A2E069457954795379527953F
:10065000BA95C9F7620F731F841F951FA01D0895D7
:100660008FB9779BFECF8FB108951F920F920FB66F
:100670000F9211242F933F938F939F93AF93BF9328
:100680008091380190913901A0913A01B0913B01DC
:1006900030913C010196A11DB11D232F2D5F2D37F7
:1006A00020F02D570196A11DB11D20933C01809390
:1006B000380190933901A0933A01B0933B018091A6
:1006C000340190913501A0913601B0913701019626
:1006D000A11DB11D8093340190933501A093360183
:1006E000B0933701BF91AF919F918F913F912F911F
:1006F0000F900FBE0F901F9018958FB7F894209110
:1007000038013091390140913A0150913B018FBF3E
:10071000B901CA010895EF92FF920F931F937B01D5
:100720008C018FB7F8944091380150913901609154
:100730003A0170913B018FBF2FB7F8948091380137
:1007400090913901A0913A01B0913B012FBF841BD8
:10075000950BA60BB70BE816F9060A071B0760F7FF
:100760001F910F91FF90EF900895019759F0FC01B0
:10077000EE0FFF1FEE0FFF1F32978FB7F8943197E0
:10078000F1F78FBF08951F920F920FB60F921124A9
:100790002F938F939F93EF93FF939BB12CB1E09195
:1007A0009F01EF5FEF738091A001E81711F482E0E1
:1007B00008C0892F8871E0939F01F0E0E35AFE4F53
:1007C00020838093A101FF91EF919F918F912F91B1
:1007D0000F900FBE0F901F9018951F920F920FB69B
:1007E0000F9211248F939F93EF93FF9390919D010C
:1007F00080919E01981761F0E0919E01EF5FEF718B
:10080000E0939E01F0E0E35CFE4F80818CB901C073
:100810005598FF91EF919F918F910F900FBE0F9080
:100820001F9018959C0110929D0110929E011092AC
:100830009F011092A00197FF03C082E08BB93F7720
:1008400030BD29B988E98AB986E880BD08959091BC
:100850009F018091A001981719F420E031E012C0A7
:10086000E091A001EF5FEF73E093A001F0E0E35AA5
:10087000FE4F30812091A101922F80E0AC01430F07
:10088000511D9A01C901089590919F018091A00185
:100890009817D1F3E091A001EF5FEF73E093A0010F
:1008A000F0E0E35AFE4F80810895282F90919D013A
:1008B0009F5F9F7180919E019817E1F3E92FF0E00F
:1008C000E35CFE4F208390939D01559A089580919B
:1008D0009F019091A001891B8F7308958091A001C1
:1008E00080939F01089587B940E020E030E0369A78
:1008F000349BFECF84B195B1280F391F34984F5FD8
:100900004230A9F73093A3012093A2013595279592
:10091000C90108950F931F938C01FC0180810E94EF
:100920007304AA2797FDA095BA2FBC01CD010E94A0
:100930000E18F80121813281438154810E942319CC
:10094000F80125813681478150850E94A6161F91A6
:100950000F91089587E065E00E94FC110E948D12BE
:100960008DE192E00E94C0120E94801208950E94C0
:10097000CE120E94AA0485E06AE00E94FC110E9447
:100980008D1287E291E00E94C0120E9480120895A9
:100990001F93CF93DF9385E06CE00E94FC110E94CF
:1009A0008D1280E191E00E94C0120E94801264EFDB
:1009B00071E080E090E00E948B030E946E04C0E032
:1009C000D0E010E0CE016AEF70E00E944C1A892B53
:1009D00069F4812F8F5E6CE00E94FC110E948D12E1
:1009E0008EEE0E94AF120E9480121F5F61E070E0E5
:1009F00080E090E00E948B03A895219687E0C13D9E
:100A0000D80701F7DF91CF911F9108951F9382308E
:100A100010F410E903C0182F110F1257812F0E94F4
:100A2000AF12812F8F5F0E94AF121F9108952F92F6
:100A30003F924F925F926F927F928F929F92AF926E
:100A4000BF92CF92DF92EF92FF920F931F93DF93AB
:100A5000CF9300D000D000D0CDB7DEB789836A83B2
:100A60002DB73EB73E832D838DB79EB748970FB6FF
:100A7000F8949EBF0FBE8DBFEDB7FEB73196FC83D5
:100A8000EB838091EE01992787FD909597FF03C036
:100A9000909581959F4F8A359105B1F46091EE0153
:100AA000772767FD70958AE590E00E944C1A8827A9
:100AB00077FD8095982F0E940E1821EE3AEF43EBB8
:100AC00052E40E94231909C06091EE01772767FD67
:100AD0007095872F972F0E940E1825E33AEF4EE866
:100AE0005CEB0E9423197B018C018091EF01992717
:100AF00087FD909597FF03C0909581959F4F8A350C
:100B00009105B1F46091EF01772767FD70958AE553
:100B100090E00E944C1A882777FD8095982F0E94BC
:100B20000E1821EE3AEF43EB52E40E94231909C05C
:100B30006091EF01772767FD7095872F972F0E94AF
:100B40000E1825E33AEF4EE85CE30E9423195B019F
:100B50006C01B701C8010E94EB1920E030E044E3CA
:100B600052E40E9423190E9486190E94DB177B0120
:100B70008C01B501C6010E94EB192B013C012B80B1
:100B80003C802EEBC22E2FEFD22E4701AA2497FCD9
:100B9000A094BA2CB601882777FD8095982F0E94E3
:100BA0000E189B01AC01C301B2010E9423197B0105
:100BB0008C01C501B4010E940E189B01AC01C80153
:100BC000B7010E94A61620E030E044E352E40E9400
:100BD000A61620E030E040E85FE30E94A5160E94E0
:100BE000DB17F101619371931F012CE030E0C20E1D
:100BF000D31E3EE4C316D10469F6CC24DD249EEE58
:100C0000892E9FEF992EBA80BA94EB81FC81EC0D6E
:100C1000FD1D0190F081E02D1E161F06B4F5EA358A
:100C2000F1059CF5CF0101976EEE7FEF0E944C1A03
:100C30008B010B5F1F4FEB55F040089DC001099DD4
:100C4000900D189D900D11249F01281B390BC9018F
:100C500062E070E00E944C1A882777FD8095982FFB
:100C60000E940E180E9486190E94DB177B01672BD9
:100C700019F481E0E82EF12C6B2D600F89810E9420
:100C800068128E2D8B5F0E94AF1282E090E0C80E3A
:100C9000D91E99819F5F9983E8E1CE16D10409F0AE
:100CA000B4CF2D813E810FB6F8943EBF0FBE2DBF4D
:100CB00026960FB6F894DEBF0FBECDBFCF91DF9161
:100CC0001F910F91FF90EF90DF90CF90BF90AF906A
:100CD0009F908F907F906F905F904F903F902F905C
:100CE00008952F923F924F925F926F927F928F92D0
:100CF0009F92AF92BF92CF92DF92EF92FF920F93AB
:100D00001F93CF93DF93A6E6CA2EA0E0DA2EC0E0B1
:100D1000D0E0FCEDAF2EF1E0BF2EE2EF8E2EE1E051
:100D20009E2E77EF672E71E0772E6FEF462E61E0F3
:100D3000562E57E0252E52E0352E8091620090917C
:100D40006300A0916400B09165000C2E04C0B695BC
:100D5000A795979587950A94D2F780FF07C3D60188
:100D60008C9111966C910E94FC110E948D12EC2FB7
:100D7000F0E0EA31F10508F0F7C2E65DFF4FEE0F53
:100D8000FF1F0590F491E02D099418ECEE24BBC2EE
:100D900083E192E0E7C28091EE0100D000D02DE027
:100DA00032E0EDB7FEB732832183992787FD909516
:100DB0009483838311C08091EF0100D000D0ADB740
:100DC000BEB712963C922E921197992787FD909567
:100DD00014969C938E9313970E9401120F900F907C
:100DE0000F900F90C1C28091BF019091C001A0915E
:100DF000C101B091C20100D000D000D0EDB7FEB764
:100E0000528241820FC08091C7019091C801A09188
:100E1000C901B091CA0100D000D000D0EDB7FEB733
:100E20007282618283839483A583B6830E940112B8
:100E30002DB73EB72A5F3F4F0FB6F8943EBF0FBEA7
:100E40002DBF92C28091DA0100D000D0EDB7FEB77D
:100E50003196ADB7BEB712969C928E92119766C12D
:100E60008091DB01823020F0843008F07DC203C025
:100E70008FEE91E077C28CEE91E074C2E090D201E7
:100E8000F090D3010091D4011091D5012091D601A9
:100E90003091D7014091D8015091D901EDB7FEB7FB
:100EA0003A970FB6F894FEBF0FBEEDBF3196ADB7BF
:100EB000BEB71296BC92AE921197E282F38204837F
:100EC000158326833783408751870E940112EDB72F
:100ED000FEB73A969BC06091F1017091F20180914A
:100EE000F3019091F40120E030E040E152E40E94EF
:100EF000231920E030E044EB53E40E9473170E9472
:100F000086190E94DB179B012550304037FF03C034
:100F10009B01215E3F4FAFEAB1E0F901E350FF4F83
:100F200080818C932F5F3F4F2432310514F020E0F5
:100F300030E01196F1E0AA3BBF0779F700D000D06E
:100F400029EC31E0EDB7FEB7328321831B97B483E0
:100F5000A38342CF8091F1019091F201A091F3011E
:100F6000B091F40100D000D000D022EC31E0FCC000
:100F700080910A02882339F08FEB91E00E94C01221
:100F800010920A02F1C18CEB91E0ECC18091DC017E
:100F9000813009F0E9C16091E9017091EA01809125
:100FA000EB019091EC01ADB7BEB718970FB6F8946E
:100FB000BEBF0FBEADBF0DB71EB70F5F1F4FE3EB38
:100FC000F1E01296FC93EE9311970E940E18209177
:100FD000AB013091AC014091AD015091AE010E9446
:100FE0002319D80112966D937D938D939C93159739
:100FF0008091A601992787FD909517969C938E93D3
:1010000016970E940112EDB7FEB738960FB6F89406
:10101000FEBF0FBEEDBFA8C18091DC01813009F099
:10102000A3C18091ED012FC0609108027091090267
:10103000E090F101F090F2010091F3011091F401C0
:10104000882777FD8095982F0E940E18A801970198
:101050000E94A51620E030E044EB53E40E94731791
:1010600020E030E040E851E40E9423190E948619F4
:1010700020E030E040E85FE30E94A6160E94DB1704
:10108000862F67FD805F0E9406056EC120910502D4
:1010900060910602709107028DB79EB70A970FB64E
:1010A000F8949EBF0FBE8DBF0DB71EB70F5F1F4FC9
:1010B000E6EAF1E0ADB7BEB71296FC93EE93119756
:1010C000D80112962C93129713961C9280E090E010
:1010D0000E940C182091AB013091AC014091AD0100
:1010E0005091AE010E942319F801648375838683B1
:1010F00097838091A601992787FD90959187808796
:101100000E9401122DB73EB7265F3F4F95CE8091CA
:10111000040200D000D0EDB7FEB731962FE931E0E0
:10112000ADB7BEB712963C932E931197828313826C
:1011300053CE8091C3019091C401A091C501B0919B
:10114000C60100D000D000D027E931E00DC0809169
:10115000CB019091CC01A091CD01B091CE0100D0F6
:1011600000D000D02FE831E0EDB7FEB73283218305
:1011700059CE6091F5017091F6018091F70190913F
:10118000F801ADB7BEB718970FB6F894BEBF0FBE43
:10119000ADBF0DB71EB70F5F1F4FE6E8F1E0129627
:1011A000FC93EE93119713CF6091F5017091F601C6
:1011B0008091F7019091F8012091E5013091E601CD
:1011C0004091E7015091E801ADB7BEB718970FB64F
:1011D000F894BEBF0FBEADBF0DB71EB70F5F1F4F58
:1011E000EDE7F1E01296FC93EE9311970E94A5169D
:1011F000EECE6091FD017091FE018091FF01909112
:1012000000022DB73EB7285030400FB6F8943EBFCD
:101210000FBE2DBF0DB71EB70F5F1F4FE4E7F1E004
:1012200017C06091F9017091FA018091FB019091D2
:10123000FC012DB73EB7285030400FB6F8943EBFA2
:101240000FBE2DBF0DB71EB70F5F1F4FEBE6F1E0CE
:10125000ADB7BEB71296FC93EE9311972091A701FC
:101260003091A8014091A9015091AA010E9423192F
:10127000D80112966D937D938D939C9315978091D1
:10128000A501B8CE809101029091020200D000D059
:10129000E4E6F1E0ADB7BEB71296FC93EE9311977A
:1012A00097CD80910F02813031F48091CF019091E0
:1012B000D0010D9738F08091CF019091D0010B971C
:1012C00008F052C080EE0E94AF1280910F02813070
:1012D00049F4E091CF01F091D001EE0FFF1FE352EE
:1012E000FF4F08C0E091CF01F091D001EE0FFF1F3A
:1012F000E953FF4F8081918135C0F2E0EF1611F480
:1013000018ED01C018EC812F0E94AF1200E080E2BE
:101310000E94AF120F5F0C30D1F7812F8F5F0E94B8
:10132000AF128CE70E94AF12E39425E0E21629F792
:101330000E948012809196008F5F609197000E94BA
:10134000170512C080910302833018F48BE591E0F9
:1013500009C080910302843019F082E591E002C057
:1013600089E491E00E94C0120E948012219662E0FE
:1013700070E0C60ED71EC831D10509F0DECCDF9172
:10138000CF911F910F91FF90EF90DF90CF90BF9082
:10139000AF909F908F907F906F905F904F903F9015
:1013A0002F90089582E50E9455040E94CE120E945B
:1013B000AA0486E069E00E94FC110E948D128FE36E
:1013C00092E00E94C0120E948012FFCF0F931F93E1
:1013D000CF93DF9383E70E94550487E60E9455046C
:1013E00000E0C0E6D0E005C01991812F0E945504AD
:1013F000010F80E0C73CD807B9F7802F0E94550441
:10140000DF91CF911F910F910895FF920F931F933A
:1014100081E60E9455040E944404A8950E9473042A
:101420008C01892F990F990BF82E0E945504802F5B
:101430000E9455048F2D800F0E9455041F910F911B
:10144000FF900895CF92DF92FF920F931F93DF9347
:10145000CF93CDB7DEB7C756D0400FB6F894DEBFF6
:101460000FBECDBF83E50E9455040E944404A89599
:10147000873691F58E010F5F1F4FFF2488E6C82E37
:10148000D12CCC0EDD1E0E944404F80181938F0103
:10149000F80EA895EC15FD05B1F70E944404A89537
:1014A0008F15D1F489818630B9F4A0E6B0E0FE0151
:1014B000319687E601900D928150E1F7A89580E67C
:1014C00090E061E070E047E650E00E94A11AA89524
:1014D0000E94CE1281E201C080E40E945504C959E5
:1014E000DF4F0FB6F894DEBF0FBECDBFCF91DF91B7
:1014F0001F910F91FF90DF90CF9008958F929F9250
:10150000AF92BF92DF92EF92FF920F931F93DF9300
:10151000CF93CDB7DEB7C054D0400FB6F894DEBF3E
:101520000FBECDBF86E40E945504EE24FF245E0169
:101530000894A11CB11C97E3892E912C8C0E9D1E42
:101540002CC0A8950E9467048823D9F30E94270421
:10155000F80181938F01D80EE815F90599F701C0BC
:10156000A8950E9467048823D9F30E942704D816FF
:1015700081F4C701B5010E94101281E20E94550456
:101580000894E11CF11CF0E0EF16F1E0FF0629F4ED
:1015900007C080E40E94550403C08501DD24D2CF3A
:1015A0000E94CE12C05CDF4F0FB6F894DEBF0FBEB4
:1015B000CDBFCF91DF911F910F91FF90EF90DF9002
:1015C000BF90AF909F908F9008953DC00E942704D8
:1015D000982F80911202882371F59A3019F09D306E
:1015E00039F429C08091A4018F5F8093A40123C0A6
:1015F0008091A4018330E8F0933579F0943528F494
:10160000963441F09235A9F40EC0913679F09337B3
:1016100081F406C00E947E0A16C00E94220A13C0EE
:101620000E94E60910C00E94D2090DC00E94050A5E
:101630000AC01092A401892F0E94760E8AE890E0D9
:101640000E94B503A8950E946704882309F0BECFC5
:10165000089580E090E00E94991A8F3431F481E07F
:1016600090E00E94991A863091F186E069E00E942C
:10167000FC110E948D128FE592E00E94C0120E9420
:10168000801264EF71E080E090E00E948B0380E0C4
:1016900090E06FE40E94AB1A80E690E061E070E0B9
:1016A00047E650E00E94A11A86E069E00E94FC1122
:1016B0000E948D128CE492E00E94C0120E9480125F
:1016C00064EF71E080E090E00E948B0308C080E648
:1016D00090E061E070E047E650E00E94891A809156
:1016E0009202882399F480919102482F50E0E7E616
:1016F000F0E02081822F90E08417950714F02350AA
:101700002083329680E0E739F80799F780916100ED
:1017100087FF1DC086E696E6A6E6B0E48093A701A3
:101720009093A801A093A901B093AA0180E090E052
:10173000A0E8BFE38093AB019093AC01A093AD010F
:10174000B093AE0181E88093A5018DE81CC082E5CD
:1017500098EBAEE0B0E48093A7019093A801A0932A
:10176000A901B093AA0185E89BEEA1E5B0E48093BE
:10177000AB019093AC01A093AD01B093AE018BEFA0
:101780008093A50186E68093A60108952F923F924B
:101790004F925F926F927F928F929F92AF92BF9281
:1017A000CF92DF92EF92FF920F931F93DF93CF932D
:1017B00000D000D0CDB7DEB70E94AA040E94290B4A
:1017C0000E94C8040E94B704A8958091120282303A
:1017D00059F50E94CE120E94AA0483E06AE00E949A
:1017E000FC110E948D1286EF90E00E94C0120E94B0
:1017F00080120E942E1162E370E080E090E00E946F
:101800008B030E942E1162E370E080E090E00E9462
:101810008B030E942E1162E370E080E090E00E9452
:101820008B0383E0809312020E94E50A0E947D03ED
:1018300069837A838B839C8380910B0290910C0245
:10184000A0910D02B0910E0229813A814B815C81F9
:10185000281B390B4A0B5B0BDA01C901805D9740ED
:10186000A040B04008F0C5C18091BB019091BC017F
:10187000A091BD01B091BE0129813A814B815C816B
:10188000281B390B4A0B5B0B2937310541055105E4
:1018900008F49ACF80911202843008F495CF809199
:1018A000DC01882309F0B3C18091DB01823008F4A8
:1018B000AEC18091D2019091D301A091D401B09199
:1018C000D5018093DD019093DE01A093DF01B093F9
:1018D000E0018091D6019091D701A091D801B091FB
:1018E000D9018093E1019093E201A093E301B093C9
:1018F000E4018091F5019091F601A091F701B0917A
:10190000F8018093E5019093E601A093E701B0937D
:10191000E80131E03093DC0108C16091DD01709194
:10192000DE018091DF019091E0019F7725E33AEF9E
:101930004EE85CE30E9423190E9470171B012C01E2
:101940006091DD017091DE018091DF019091E001F5
:101950002091D2013091D3014091D4015091D50111
:101960000E94A5169F7720EC3BE649ED57E40E94C4
:1019700023195B016C016091E1017091E20180919A
:10198000E3019091E4012091D6013091D70140917B
:10199000D8015091D9010E94A5169F7720EC3BE613
:1019A00049ED57E40E942319A20191010E942319D5
:1019B0007B018C01C601B501A60195010E94231986
:1019C0005B016C01C801B701A80197010E942319AE
:1019D0009B01AC01C601B5010E94A6160E94AA197E
:1019E0000E94DB176093E9017093EA018093EB0199
:1019F0009093EC01A090E101B090E201C090E3016E
:101A0000D090E4016090D6017090D7018090D80109
:101A10009090D9016091DD017091DE018091DF012C
:101A20009091E0012091D2013091D3014091D401F5
:101A30005091D5010E94A5167B018C0160E070E0F9
:101A400080E89FE3A20191010E9473179B01AC0102
:101A5000C801B7010E9423197B018C01C601B501A1
:101A6000A40193010E94A5169B01AC015058C80126
:101A7000B7010E94191720EE3EE245E652E40E94AB
:101A8000231920E030E044EB52E40E94A6160E94A5
:101A9000DB179B01AC0197FF04C028593E4F4F4F05
:101AA0005F4FCA01B901645B70408040904097FF6E
:101AB00006C0CA01B9016C547F4F8F4F9F4FE09011
:101AC000F101F090F2010091F3011091F4010E94F4
:101AD0000E18A80197010E94A5160E94DB1797FF18
:101AE00004C068597E4F8F4F9F4F0E940E1820E010
:101AF00030E044EB53E40E94731720E030E040E80C
:101B000051E40E9423190E94861920E030E040E849
:101B10005FE30E94A6160E94E0176093ED0180919A
:101B2000ED01813110F01092ED018091610080FF94
:101B30000CC08AE990E00E948A046093BF01709310
:101B4000C0018093C1019093C2018091610081FF27
:101B50000CC083EA90E00E948A046093C7017093EE
:101B6000C8018093C9019093CA018091610082FFEE
:101B70000CC08CEA90E00E948A046093C3017093C9
:101B8000C4018093C5019093C6018091610083FFD9
:101B90000CC085EB90E00E948A046093CB017093A7
:101BA000CC018093CD019093CE018091610084FFA0
:101BB00008C08EEB90E00E948A040E94E0176093B8
:101BC000040280911202843029F40E94CE1245E072
:101BD000409312020E94710689819A81AB81BC8177
:101BE0008093BB019093BC01A093BD01B093BE0153
:101BF000EBCD80911202813009F4E6CD8091120282
:101C0000882309F4E1CD91E090931202DBCD80911D
:101C1000DC01813009F089CF80CEF89482E081BB6D
:101C200083E083BF89B7816089BF81E290E80E9429
:101C3000120480EB87BB81E58DB917B887E886B9B8
:101C400078940E94F0122FE088E190E00FB6F894AB
:101C5000A89581BD0FBE21BD08950E940D0E0E9462
:101C6000C60B80E090E00895FB0190819827292F12
:101C70002295207F292730E0522F4427C90163E0B5
:101C8000880F991F6A95E1F748275927818190E0CD
:101C90004827592784E0359527958A95E1F742270B
:101CA00053275183408308958931B1F08A3138F444
:101CB000813061F0813060F08831B1F40BC0833243
:101CC00089F08A3459F08E3179F40AC08CE708958E
:101CD00082E3089588E1089587E1089584E10895F5
:101CE00087E2089584EF089580E008951F93182FE8
:101CF0001092830280918602909187028430910530
:101D000009F44EC08530910554F48230910561F19B
:101D1000833091050CF04EC09923C4F4D4C08730B1
:101D2000910509F469C08830910544F48530910526
:101D300009F44AC0069709F0C6C050C08830910522
:101D400009F473C0099709F0BEC0A6C01E3F09F090
:101D5000BAC082E090E0909387028093860210924E
:101D600016021093150285C0113650F0809184023E
:101D70008F5F809384021092830281E090E00BC019
:101D80001093160210928802812F63E172E00E9484
:101D9000340E84E090E0909387028093860293C093
:101DA00010931702812F63E172E00E94340E83E0EA
:101DB00090E0F1CF10931802812F63E172E00E944E
:101DC000340E85E090E0E7CF10931902812F63E194
:101DD00072E00E94340E86E090E0DDCF10931A028C
:101DE000812F63E172E00E94340E809116028823F5
:101DF000C9F087E090E0CFCF80918802E82FF0E033
:101E0000E55EFD4F10838F5F80938802812F63E131
:101E100072E00E94340E9091880280911602981709
:101E200009F051C088E090E0B6CF80911A020E947C
:101E3000540E63E172E00E94340E212F30E0809155
:101E4000130290911402907028173907C9F010926C
:101E5000830281E090E090938702809386021E3F88
:101E600091F582E090E09093870280938602109231
:101E700016028FEF9FEF909314028093130223C0FA
:101E800089E090E09093870280938602E091880237
:101E9000F0E0E55EFD4F16C0212F30E08091140286
:101EA00090E02817390799F681E08093830281E05A
:101EB00090E09093870280938602E0918802F0E0A0
:101EC000E45EFD4F108320918302213099F48091CC
:101ED00017028093890280918B0290918C02009767
:101EE00021F410928E0210928D02019690938C0232
:101EF00080938B0210928502222309F4A7C180915E
:101F00001A028E3109F451C18F3148F4813009F43D
:101F100052C08130A0F0883109F098C19FC08A3248
:101F200009F47FC18B3220F4833209F08FC174C170
:101F30008E3309F47BC18A3409F088C1C8C081E0BE
:101F400080930A02809118028093100280911902F6
:101F50008093110280911F0280930F0280911B02D7
:101F600090911C029093D0018093CF011092D101E7
:101F7000809122028093030280910302843041F415
:101F800080912102881F8827881F8D5F809303021C
:101F90000E947D039B01AC0120930B0230930C0245
:101FA00040930D0250930E0280911202823008F08D
:101FB0004DC182E050C06091290270912A0280E0F8
:101FC00090E00E940C1820E030E04AE754E40E94C0
:101FD00073176093BF017093C0018093C101909308
:101FE000C20160912B0270912C02882777FD8095A9
:101FF000982F0E940E1820E030E048EC52E40E9436
:1020000073176093C3017093C4018093C5019093CB
:10201000C6016091C3017091C4018091C501909186
:10202000C60120E030E040E050E00E946C178823B9
:1020300064F480E090E0A0E0B0E08093C30190936E
:10204000C401A093C501B093C601809112028330F0
:1020500009F0FCC084E080931202F8C06091230272
:102060007091240280912502909126020E940E1800
:1020700020E836E948E15BE40E9473176093D201DF
:102080007093D3018093D4019093D501609127027E
:10209000709128028091290290912A020E940E18C4
:1020A00020E836E948E15BE40E9473176093D601AB
:1020B0007093D7018093D8019093D9018091370212
:1020C0008093DB01809138028093DA01BFC0809158
:1020D0001B0290911C02A0911D02B0911E028093E0
:1020E000F9019093FA01A093FB01B093FC01809158
:1020F0001F0290912002A0912102B09122028093B0
:10210000FD019093FE01A093FF01B0930002609146
:102110002B0270912C02882777FD8095982F0E94C2
:102120000E186093F1017093F2018093F301909384
:10213000F40180912D0290912E02909302028093DF
:10214000010280910102909102028536910568F0AA
:1021500080910102909102028639910530F484E663
:1021600090E090930202809301028091010290918D
:10217000020280910102909102028739910520F0BC
:102180001092020210920102809123029091240287
:10219000A0912502B09126028093F5019093F6015B
:1021A000A093F701B093F80151C0609123027091A0
:1021B0002402809125029091260221EE3EE245E61E
:1021C00052E40E9423190E94DB176093EE01609194
:1021D0001F0270912002809121029091220221EE33
:1021E0003EE245E652E40E9423190E94DB17609309
:1021F000EF0160912702709128028091290290914D
:102200002A0221EE3EE245E652E40E9423190E9492
:10221000DB176093F0011AC08091300280930402B2
:1022200015C080911B028093050210C0809131027D
:1022300090913202909309028093080280913302B8
:102240009091340290930702809306021F910895A3
:10225000892B19F4862F0E94550408952F923F92DE
:102260004F925F926F927F928F929F92AF92BF92A6
:10227000CF92DF92EF92FF920F931F93DF93CF9352
:10228000CDB7DEB762970FB6F894DEBF0FBECDBFF5
:102290000DE2E02E01E0F02E11E2C12E11E0D12E70
:1022A000B7E02B2E312C2C0E3D1EA3E14A2E512CD3
:1022B0004C0E5D1EFDE0AF2EB12CAC0EBD1E3E01DE
:1022C0000894611C711CE3E08E2E912C8C0E9D1ED7
:1022D0002091100230911102F7014081F6018081B6
:1022E000918198878F8329873A874B87F1E0FC8714
:1022F0008EEF8D8796E09E8790918A029F878091CE
:10230000F700888B8091F800898BE2E4EA8B9F5F6D
:1023100090938A028FEF9FEF9E838D838E01025FE1
:102320001F4F08C0F80181918F01BE016B5F7F4F85
:102330000E94340E04151505A9F78D819E819A839C
:102340008983810106C0F80181918F01B3010E9448
:10235000340E0A151B05B9F784E9B3010E94340E47
:1023600089819A818B839C83850180E090E0F801CC
:1023700061918F010E94281104151505B1F78101A3
:1023800080E090E0F80161918F010E9428110A1508
:102390001B05B1F780E090E0F40160810E942811F4
:1023A00080E090E0F40161810E9428110894E11C12
:1023B000F11C82E090E0C80ED91E93E3E91691E08B
:1023C000F90609F085CF62960FB6F894DEBF0FBE0E
:1023D000CDBFCF91DF911F910F91FF90EF90DF90D4
:1023E000CF90BF90AF909F908F907F906F905F90B5
:1023F0004F903F902F9008958093900260938F02AA
:102400000895DF93CF93CDB7DEB7FE013596619186
:10241000719181E0AF010E942013CF91DF91089567
:10242000EF92FF921F93CF93DF93182F7B01C398F6
:1024300080E00E94300380E00E94300389E00E9427
:102440003003812F0E943003C0E0D0E0F701EC0F91
:10245000FD1F10818AE00E9430038C2F0E94300300
:102460008BE00E943003812F0E9430032196C633F7
:10247000D10561F788E00E94300380EA0E943003B2
:1024800080EA0E94300385FDFBCF80E00E9430038C
:102490008CE00E943003C39ADF91CF911F91FF908F
:1024A000EF9008951F93182FC39880E00E94300387
:1024B000112319F0113049F403C08091920203C036
:1024C000809192028C610E943003C39A1F910895FB
:1024D0000F931F939EE1699F80011124080F111D26
:1024E000C39885E00E943003812F0E94300386E06C
:1024F0000E943003802F0E9430031F910F91089596
:1025000087E00E9430038FEF0E943003C39A8091CE
:102510008F028F5F80938F0208950F931F93009116
:102520008F028EE1089F8001112480919002080F94
:10253000111DC39884E00E94300383E00E943003A1
:1025400085E00E943003812F0E94300386E00E94C4
:102550003003802F0E9430031F910F9108951F9325
:10256000182F8C3729F40E9480120E948D1206C009
:1025700087E00E943003812F0E9430031F9108954D
:10258000CF93DF93EC0102C00E94AF12FE012196AF
:1025900084918823C9F7DF91CF910895C39884E08F
:1025A0000E94300384E00E943003C39A0895C398C8
:1025B00080EA0E9430038FEF0E94300381FD03C048
:1025C00080E490E002C080E090E080939202892B4A
:1025D00011F088E001C086E080939102C39A0895CB
:1025E0001F93BB9A0E94D712C3988CEE0E943003AF
:1025F0008FEF0E943003182F80E00E9430038091FB
:10260000920282600E94300362E370E080E090E01A
:102610000E948B038CE60E943003812F8F7E0E94E4
:10262000300310E1812F0E94300380E00E943003CC
:102630001F5F1C31B9F781E00E9452121F9108956B
:102640002F923F924F925F926F927F928F929F92C2
:10265000AF92BF92CF92DF92EF92FF920F931F93B0
:10266000DF93CF93CDB7DEB760970FB6F894DEBF98
:102670000FBECDBF8C877E876D875A019E012F5F6D
:102680003F4F388B2F87ED85FE852C8520FD85916A
:1026900020FF8191FE87ED87882309F43DC38532B1
:1026A00049F420FD859120FF8191FE87ED878532D9
:1026B00051F406C08A3021F48DE00E94AF128AE006
:1026C0000E94AF12E0CF982FFF24882499243FE185
:1026D0003F15D0F09B3269F09C3228F4903259F0CB
:1026E000933291F40EC09D3249F0903369F441E089
:1026F00026C052E0F52A84E0F82A2AC098E0F92A98
:1027000027C0E0E1FE2A24C0F7FC2EC0892F8053A9
:102710008A3080F4F6FE06C0FAE09F9E902C1124C9
:10272000980E16C02AE0829E802C1124880E30E27A
:10273000F32A0EC09E3229F4F6FCEEC240E4F42ADD
:1027400007C09C3619F450E8F52A02C0983661F4A7
:10275000ED85FE852C8520FD959120FF9191FE87CA
:10276000ED87992309F0B3CF892F8554833020F466
:102770008F2D8061905E07C0892F8556833008F0C9
:1027800087C18F2D8F7E86FD02C076E0972E182F91
:102790001F73953611F4106406C0963611F4106854
:1027A00002C091109A9417FF0BC03BE3391520F437
:1027B00027E06CE3762E0EC0792C739427E00AC0D4
:1027C00047E0491528F427E0772457E0952E02C00A
:1027D000292D772444E0242E312C2A0C3B1CF501B2
:1027E0006081718182819381AE014F5F5F4F072DC0
:1027F0000E94FA016C01B9804B2C5524B0FE04C034
:10280000B3FC02C00DE209C011FF02C00BE205C01B
:1028100012FD02C000E001C000E2C2018C709070A5
:10282000892BA9F1002311F483E001C084E088150D
:1028300010F0882408C0881A13FD05C080E20E94A9
:10284000AF128A94D9F7002319F0802F0E94AF129B
:1028500043FE05C033EBE32E32E0F32E0FC027EB2F
:10286000E22E22E0F22E0AC00115110509F0805275
:102870000E94AF120894E11CF11C04C0012F10E06B
:1028800000711070F7018491882371F7FFC017FF62
:1028900012C07C0C44FE04C08A81813309F47A940E
:1028A00017141CF0772473942CC0F8E0F71548F542
:1028B00098E0792E26C016FD24C0892D90E08C1555
:1028C0009D0544F02CEFC2162FEFD2061CF01068C5
:1028D00001C09A94992049F0E2E0F0E0EC0FFD1F6E
:1028E000E90DF11D80818033A1F317FF0AC0792C17
:1028F0007394892D90E0C816D90614F0992401C06C
:102900009C1817FD03C025E030E009C01C141D040D
:102910001CF021E030E003C096012F5F3F4F002301
:1029200011F02F5F3F4F992029F0892D90E00196FB
:10293000280F391F882D90E02817390714F08824B4
:1029400001C0821AE12EFF24C70189709070892B83
:1029500029F006C080E20E94AF128A948820D1F745
:10296000002319F0802F0E94AF12E3FE05C006C0BD
:1029700080E30E94AF128A948820D1F717FF45C0E8
:102980008601D7FE02C000E010E076010894E11C49
:10299000F11CE01AF10A41E050E04C0F5D1FE40E1B
:1029A000F51EC601871991093C01892D90E0AA24E2
:1029B000BB24A81AB90A9FEF0F3F190719F48EE23A
:1029C0000E94AF12C016D10634F0601671061CF4D6
:1029D000F701808101C080E3015010400894E11CA0
:1029E000F11C0A151B051CF00E94AF12E4CF0C1558
:1029F0001D0509F049C09A81963328F4953309F0F2
:102A000043C044FC41C081E33FC08A81813311F05F
:102A1000FFEEBF220E94AF12992081F08EE20E9449
:102A2000AF1212E0E1E0F0E0EC0FFD1FE10FF11D4D
:102A30001F5F80810E94AF129A94A1F7E4FC02C04C
:102A400085E601C085E40E94AF12D7FC05C0C11421
:102A5000D10441F4B4FE06C0D094C194D108D394FB
:102A60008DE201C08BE20E94AF1280E305C08F5F50
:102A700026EF3FEFC20ED31E3AE0C316D104BCF7D7
:102A80000E94AF128C2D805D0E94AF12510141C196
:102A9000933631F0933791F0933509F055C023C048
:102AA000F501808189836E010894C11CD11C22E04C
:102AB00030E0A20EB31E01E010E012C0F501C080AC
:102AC000D180F6FC03C06FEF7FEF02C0692D70E08C
:102AD00022E030E0A20EB31EC6010E947E1A8C01D5
:102AE0003FE7F32214C0F501C080D180F6FC03C09B
:102AF0006FEF7FEF02C0692D70E022E030E0A20EA0
:102B0000B31EC6010E94731A8C0130E8F32AF3FE4B
:102B100005C016C080E20E94AF128A94882D90E012
:102B200008171907B8F30CC0F601F7FC8591F7FEFA
:102B300081916F010E94AF1281108A940150104060
:102B40000115110589F7E5C0943611F0993681F524
:102B5000F7FE08C0F501208131814281538184E074
:102B600090E00AC0F501808191819C01442737FDE6
:102B70004095542F82E090E0A80EB91E9FE6F922FE
:102B800057FF09C050954095309521953F4F4F4FC5
:102B90005F4FE0E8FE2ACA01B901AE014F5F5F4F07
:102BA0002AE030E00E94D202E82EFF85EF1A43C0EF
:102BB000953729F41F2D1F7E2AE030E01DC01F2D00
:102BC000197F9F3661F0903720F4983509F0A4C042
:102BD0000FC0903739F0983709F09EC004C028E044
:102BE00030E00AC0106114FD146020E130E004C040
:102BF00014FD166020E132E017FF08C0F501608186
:102C000071818281938144E050E008C0F5018081A8
:102C10009181BC0180E090E042E050E0A40EB51E3E
:102C2000AE014F5F5F4F0E94D202E82E5F85E51A2A
:102C30008FE7F82EF122F6FE0BC08EEFF822E91492
:102C400038F4F4FE07C0F2FC05C09FEEF92202C082
:102C50001E2D01C0192DF4FE0DC0FE01EE0DF11D5B
:102C60008081803319F4E9EEFE2208C01F5FF2FE76
:102C700005C003C08F2D867809F01F5F0F2DF3FC70
:102C800012C0F0FE0DC0181510F09E2C09C09E2C2D
:102C9000980C911A182D04C080E20E94AF121F5F99
:102CA0001815D0F304C0181510F4811A01C0882437
:102CB00004FF0BC080E30E94AF1202FF17C001FDAA
:102CC00002C088E70CC088E50AC0802F867871F0C2
:102CD00001FF02C08BE201C080E2F7FC8DE20E949E
:102CE000AF1204C080E30E94AF129A94E914D0F3AB
:102CF000EA94E1E0F0E0EC0FFD1FEE0DF11D8081A4
:102D00000E94AF12EE20A1F704C080E20E94AF1231
:102D10008A948820D1F7B7CC60960FB6F894DEBFBE
:102D20000FBECDBFCF91DF911F910F91FF90EF901C
:102D3000DF90CF90BF90AF909F908F907F906F90DB
:102D40005F904F903F902F9008955058BB27AA272F
:102D50000ED027C2F0D130F0F5D120F031F49F3FF2
:102D600011F41EF4C0C10EF4E095E7FBB6C1E92FE3
:102D70003AD280F3BA17620773078407950718F0F1
:102D800071F49EF552C20EF4E0950B2EBA2FA02DD1
:102D90000B01B90190010C01CA01A0011124FF2708
:102DA000591B99F0593F50F4503E68F11A16F04003
:102DB000A22F232F342F4427585FF3CF4695379502
:102DC0002795A795F0405395C9F77EF41F16BA0BC7
:102DD000620B730B840BBAF09150A1F0FF0FBB1F75
:102DE000661F771F881FC2F70EC0BA0F621F731FBE
:102DF000841F48F4879577956795B795F7959E3F1B
:102E000008F0B3CF9395880F08F09927EE0F9795A8
:102E10008795089590D158F080E891E009F49EEFED
:102E200091D128F040E851E059F45EEF09C05BC150
:102E3000FCC1E92FE078D7D168F3092E052AC1F348
:102E4000261737074807590738F00E2E07F8E025F0
:102E500069F0E025E0640AC0EF6307F8009407FA20
:102E6000DB01B9019D01DC01CA01AD01EF934AD03C
:102E700098D10AD05F91552331F02BED3FE049E422
:102E800050FD49EC63CF0895DF93DD27B92FBF775D
:102E900040E85FE31616170648075B0710F4D92FC2
:102EA000CBD19F938F937F936F9392D2E8E8F0E01A
:102EB0001DD177D12F913F914F915F91D0D1DD23DB
:102EC00049F09058A2EA2AED3FE049EC5FE3D07860
:102ED0005D274DDFDF9165C1DCD008F481E0089506
:102EE00039D1E3956FC10CD05CC12CD140F023D116
:102EF00030F021F45F3F19F0F0C0511197C1F3C0D9
:102F000072D198F39923C9F35523B1F3951B550B4F
:102F1000BB27AA2762177307840738F09F5F5F4FAC
:102F2000220F331F441FAA1FA9F333D00E2E3AF0ED
:102F3000E0E830D091505040E695001CCAF729D007
:102F4000FE2F27D0660F771F881FBB1F2617370756
:102F50004807AB07B0E809F0BB0B802DBF01FF2786
:102F600093585F4F2AF09E3F510568F0B6C05EC18E
:102F70005F3FECF3983EDCF3869577956795B795C0
:102F8000F7959F5FC9F7880F911D9695879597F9DB
:102F90000895E1E0660F771F881FBB1F6217730754
:102FA0008407BA0720F0621B730B840BBA0BEE1F69
:102FB00088F7E095089504D06894B11137C1089559
:102FC0001AD188F09F5790F0B92F9927B751A0F0E8
:102FD000D1F0660F771F881F991F1AF0BA95C9F7AD
:102FE00012C0B13081F021D1B1E008951EC1672F28
:102FF000782F8827B85F39F0B93FCCF3869577955D
:103000006795B395D9F73EF4909580957095619545
:103010007F4F8F4F9F4F0895E89409C097FB3EF470
:1030200090958095709561957F4F8F4F9F4F992315
:10303000A9F0F92F96E9BB279395F6958795779593
:103040006795B795F111F8CFFAF4BB0F11F460FF53
:103050001BC06F5F7F4F8F4F9F4F16C0882311F0AB
:1030600096E911C0772321F09EE8872F762F05C0BF
:10307000662371F096E8862F70E060E02AF09A955A
:10308000660F771F881FDAF7880F9695879597F94F
:103090000895990F0008550FAA0BE0E8FEEF1616E9
:1030A0001706E807F907C0F012161306E407F5073C
:1030B00098F0621B730B840B950B39F40A2661F0B0
:1030C000232B242B252B21F408950A2609F4A14053
:1030D000A6958FEF811D811D089597F99F6780E860
:1030E00070E060E008959FEF80EC0895DF93CF9348
:1030F0001F930F93FF92EF92DF927B018C016894F4
:1031000005C0DA2EEF01ABD0FE01E894A591259120
:10311000359145915591AEF3EF0129DEFE019701FE
:10312000A801DA9479F7DF90EF90FF900F911F914B
:10313000CF91DF91089500240A94161617061806F9
:103140000906089500240A941216130614060506AB
:103150000895C9CF50D0E8F3E894E0E0BB279F572B
:10316000F0F02AED3FE049EC06C0EE0FBB0F661F02
:10317000771F881F28F0B23A62077307840728F088
:10318000B25A620B730B840BE3959A9572F78038F1
:1031900030F49A95BB0F661F771F881FD2F79048AF
:1031A00057C1092E0394000C11F4882352F0BB0F71
:1031B00040F4BF2B11F460FF04C06F5F7F4F8F4F4F
:1031C0009F4F0895EF93E0FF06C0A2EA2AED3FE08B
:1031D00049EC5FEBCCDDE5DF0F90039401FC9058E8
:1031E000E5EBF0E048C157FD9058440F551F59F0EA
:1031F0005F3F71F04795880F97FB991F61F09F3FE4
:1032000079F087950895121613061406551FF2CF0C
:103210004695F1DF08C0161617061806991FF1CF5C
:1032200086957105610508940895E894BB27662783
:103230007727CB0197F908959B01AC0160E070E01E
:1032400080E89FE350CE0BD0ACCF75DF28F07ADF5B
:1032500018F0952309F041CF46CF1124E7CFC3DF03
:10326000A0F3959FD1F3950F50E0551F629FF00199
:10327000729FBB27F00DB11D639FAA27F00DB11DF2
:10328000AA1F649F6627B00DA11D661F829F22277B
:10329000B00DA11D621F739FB00DA11D621F839F02
:1032A000A00D611D221F749F3327A00D611D231FD8
:1032B000849F600D211D822F762F6A2F11249F5726
:1032C00050408AF0E1F088234AF0EE0FFF1FBB1F49
:1032D000661F771F881F91505040A9F79E3F5105E8
:1032E00070F0FBCEA3CF5F3FECF3983EDCF3869506
:1032F00077956795B795F795E7959F5FC1F7FE2B93
:10330000880F911D9695879597F9089574DFE0F0E1
:103310009E37D8F09639B8F49E3848F4672F782F46
:103320008827985FF9CF8695779567959395953916
:10333000D0F3B62FB1706B0F711D811D20F48795EE
:1033400077956795939567C081C070CF11F40EF49F
:10335000CACE7CC050DFD0F39923D9F3CEF39F5768
:10336000550B87FF81D00024A0E640EA90018058E9
:103370005695979528F4805C660F771F881F20F07C
:1033800026173707480730F4621B730B840B20297C
:1033900031294A2BA69517940794202531254A27D1
:1033A00058F7660F771F881F20F026173707480742
:1033B00030F4620B730B840B200D311D411DA09561
:1033C00081F7B901842F9158880F969587950895B4
:1033D0009B01AC0138CFDF93D92FBCDEE695D795A2
:1033E0002AED3FE049E45FE3B33A620773078407DD
:1033F0009507D7952AF0A2EA49EC9068B8DCD1DEAF
:10340000E3EDF0E038D0DD0F0BF016DFDD0F0BF44D
:103410009058DF910895882371F4772321F0985014
:10342000872B762F07C0662311F499270DC0905182
:10343000862B70E060E02AF09A95660F771F881F50
:10344000DAF7880F9695879597F908959F3F31F0A1
:10345000915020F4879577956795B795880F911DC2
:103460009695879597F9089591505040660F771F6C
:10347000881FD2F708959F938F937F936F93FF9345
:10348000EF939B01AC01DFDEEF91FF912FDE2F91D7
:103490003F914F915F91D7CE97FB092E07260AD017
:1034A00077FD04D00CD006D000201AF470956195F9
:1034B0007F4F0895F6F7909581959F4F0895AA1B29
:1034C000BB1B51E107C0AA1FBB1FA617B70710F00F
:1034D000A61BB70B881F991F5A95A9F78095909541
:1034E000BC01CD010895FC010590615070400110B0
:1034F000D8F7809590958E0F9F1F0895FC0161501D
:10350000704001900110D8F7809590958E0F9F1F05
:103510000895DC01CB01FC01E199FECF06C0FFBBA1
:10352000EEBBE09A31960DB20D9241505040B8F783
:103530000895E199FECF9FBB8EBBE09A99278DB38A
:103540000895DC01CB0103C02D910E94AC1A4150BB
:103550005040D0F70895262FE199FECF9FBB8EBB38
:103560002DBB0FB6F894E29AE19A0FBE019608952A
:04357000F894FFCFFD
:103574000600EE1FFC030D0716090B0101060108E6
:10358400010D040D010E100E180D0E0F0E03160181
:10359400110C140C16050107010916031602010289
:1035A40001010104110D08060B04000000000000D5
:1035B4000000000000000000000000000000000007
:1035C40000000000000000000000000000000000F7
:1035D400000000000000007202720277027C028187
:1035E4000286028B02900295029A029F02A4029024
:1035F40002720272027202A902AE027202720272B4
:10360400027C028B028602070100000000C2C0C0D7
:10361400C1C0C0C1C0C0C4C0C0C1C0C0C1C0C0C39B
:10362400C0C0C1C0C0C1C0C0C5C0C0C1C0C0C1C08D
:10363400C0020002000500020005000200010203AE
:04364400060A0B0067
:00000001FF
