:100000000C94BF010C94DC010C94DC010C94DC0119
:100010000C94DC010C94DC010C94DC010C94DC01EC
:100020000C94DC010C9419030C94DC010C94A703D0
:100030000C94D1030C94DC010C94DC010C94DC01D5
:100040000C94DC010C94DC010C94DC010C94DC01BC
:100050000C94DC01F508F8080809180926094A0972
:100060005B0969099B09D809E8091A0AF809620BB2
:10007000620B220A620B320A630A770A8D0AA60A09
:10008000F208480B084AD73B3BCE016E84BCBFFD4B
:10009000C12F3D6C74319ABD56833DDA3D00C77F58
:1000A00011BED9E4BB4C3E916BAAAABE00000080F1
:1000B0003F05A84CCDB2D44EB93836A9020C50B980
:1000C000918688083CA6AAAA2ABE000000803F06A6
:1000D00064EC1B3C04BC163E3BE5B93CC93C37C252
:1000E0009E5A3D660498083EEA69AAAA3E000000AE
:1000F000803F52657175657374696E6720446174E1
:100100006153747265616D732E2E2E00426F6F7491
:10011000696E672075703AEDF2F2F2F2F2F2F2F2E5
:10012000F2F30057616974696E6720666F727C4DE7
:1001300041564C696E6B20686561727462656174CA
:10014000732E2E2E00202020202020202000446905
:100150007361726D6564008725332E3069250086D2
:1001600025332E306688008525352E30668D008536
:1001700025352E30668D00E125336925001F253594
:100180002E30668D00EAEB00EAEC0025342E306656
:10019000B00020C0C0C0C0C0C7C0C0C0C0C0207CAC
:1001A000D02573D100832531312E36667C842531EC
:1001B000312E3666001120001020000F2532690014
:1001C00020E325352E32668E0020E225352E32665C
:1001D0008E00253469B0B200253469B0B100050342
:1001E00004057C15131415007374616200616C744E
:1001F00068006175746F0067756964006C6F69747D
:10020000007265746C006369726300706F736900DB
:100210006C616E64006F666C6F006D616E75006678
:1002200062776100666277620048617A7973204F75
:1002300053442076312E307C20666F72204D41561B
:100240004C696E6B20312E30005265626F6F74699D
:100250006E672E2E2E004F534420496E69746961DB
:100260006C697A6564202020004D697373696E673C
:100270002F4F6C6420436F6E666967006E616E007D
:10028000696E660000407A10F35A00A0724E180999
:100290000010A5D4E80000E87648170000E40B54ED
:1002A000020000CA9A3B000000E1F50500008096BC
:1002B0009800000040420F000000A08601000000EE
:1002C000102700000000E8030000000064000000A8
:1002D00000000A00000000000100000000002C7671
:1002E000D888DC674F0823DFC1DFAE59E1B1B7968C
:1002F000E5E3E453C63AE651997696E8E6C28426E9
:10030000EB898C9B62ED407C6FFCEFBC9C9F40F2C4
:10031000BAA56FA5F490055A2AF75C936B6CF96740
:100320006DC11BFCE0E40D47FEF520E6B500D0ED05
:10033000902E0300943577050080841E080000206D
:100340004E0A000000C80C333333330F986E12830B
:100350001141EF8D2114893BE65516CFFEE6DB18DF
:10036000D1844B381BF77C1D901DA4BBE4242032A4
:1003700084725E228100C9F124ECA1E53D2711249D
:100380001FBECFE5D4E0DEBFCDBF11E0A0E6B0E0F8
:10039000E2E3F5E302C005900D92A23EB107D9F762
:1003A00013E0A2EEB1E001C01D92AA34B107E1F75B
:1003B0000E94BF110C94971A0C940000283008F08A
:1003C00027E03327DA01990F311D87FD91600096F0
:1003D0006105710539F432602E5F3D9330E32A9553
:1003E000E1F708959F3F30F080387105610509F00D
:1003F0003C5F3C5F3D93913008F08068911DDF9336
:10040000CF931F930F93FF92EF92192F987F96959A
:10041000E92F96959695E90FFF27E252FD4F992710
:100420003327EE24FF24A701E701059008940794E1
:1004300028F4360FE71EF81E491F511D660F771F5F
:10044000881F991F0694A1F70590079428F4E70EDA
:10045000F81E491F561FC11D770F881F991F661F61
:100460000694A1F70590079428F4F80E491F561F2B
:10047000C71FD11D880F991F661F771F0694A1F70C
:100480000590079420F4490F561FC71FD81F990FD6
:10049000661F771F881F0694A9F78491109517701F
:1004A00041F0D695C79557954795F794E7941A95D7
:1004B000C1F7E4E8F2E068941590159135916591E3
:1004C000959105907FE27395E118F10A430B560B65
:1004D000C90BD009C0F7E10CF11E431F561FC91FFD
:1004E000D01D7EF4703311F48A95E6CFE894015064
:1004F00030F0080F0AF40027021708F4202F239584
:10050000022F7A3328F079E37D932A95E9F710C01A
:100510007D932A9589F60694979567953795179553
:100520001794E118F10A430B560BC90BD00998F048
:1005300023957E9173957A3308F070E37C932013B2
:10054000B8F77E9170617D9330F0839571E37D9370
:1005500070E32A95E1F71124EF90FF900F911F911E
:10056000CF91DF91992787FD90950895FA01AA27E9
:10057000283051F1203181F1E8946F936E7F6E5FE6
:100580007F4F8F4F9F4FAF4FB1E03ED0B4E03CD094
:10059000670F781F891F9A1FA11D680F791F8A1F77
:1005A000911DA11D6A0F711D811D911DA11D20D0DE
:1005B00009F468943F912AE0269F11243019305D98
:1005C0003193DEF6CF010895462F4770405D419389
:1005D000B3E00FD0C9F7F6CF462F4F70405D4A33D6
:1005E00018F0495D31FD4052419302D0A9F7EACF9E
:1005F000B4E0A6959795879577956795BA95C9F7CD
:1006000000976105710508959B01AC010A2E0694BF
:100610005795479537952795BA95C9F7620F731F78
:10062000841F951FA01D08958FB9779BFECF8FB1B2
:1006300008951F920F920FB60F9211242F933F939C
:100640008F939F93AF93BF938091E6019091E701C1
:10065000A091E801B091E9013091EA010196A11D54
:10066000B11D232F2D5F2D3720F02D570196A11D91
:10067000B11D2093EA018093E6019093E701A093D6
:10068000E801B093E9018091E2019091E301A0912A
:10069000E401B091E5010196A11DB11D8093E20135
:1006A0009093E301A093E401B093E501BF91AF9172
:1006B0009F918F913F912F910F900FBE0F901F90A0
:1006C00018958FB7F8942091E6013091E701409199
:1006D000E8015091E9018FBFB901CA010895EF9275
:1006E000FF920F931F937B018C018FB7F894409179
:1006F000E6015091E7016091E8017091E9018FBF37
:100700002FB7F8948091E6019091E701A091E8015C
:10071000B091E9012FBF841B950BA60BB70BE81610
:10072000F9060A071B0760F71F910F91FF90EF90E2
:100730000895019759F0FC01EE0FFF1FEE0FFF1F08
:1007400032978FB7F8943197F1F78FBF08951F92C2
:100750000F920FB60F9211242F938F939F93EF93C5
:10076000FF939BB12CB1E0914D02EF5FEF7380914D
:100770004E02E81711F482E008C0892F8871E093D7
:100780004D02F0E0E55FFD4F208380934F02FF9123
:10079000EF919F918F912F910F900FBE0F901F900F
:1007A00018951F920F920FB60F9211248F939F935B
:1007B000EF93FF9390914B0280914C02981761F058
:1007C000E0914C02EF5FEF71E0934C02F0E0E551F5
:1007D000FE4F80818CB901C05598FF91EF919F9198
:1007E0008F910F900FBE0F901F9018959C01109243
:1007F0004B0210924C0210924D0210924E0297FF43
:1008000003C082E08BB93F7730BD29B988E98AB946
:1008100086E880BD089590914D0280914E02981710
:1008200019F420E031E012C0E0914E02EF5FEF7367
:10083000E0934E02F0E0E55FFD4F308120914F02E2
:10084000922F80E0AC01430F511D9A01C901089518
:1008500090914D0280914E029817D1F3E0914E0293
:10086000EF5FEF73E0934E02F0E0E55FFD4F8081B4
:100870000895282F90914B029F5F9F7180914C02A9
:100880009817E1F3E92FF0E0E551FE4F20839093B4
:100890004B02559A089580914D0290914E02891B0A
:1008A0008F73089580914E0280934D02089587B909
:1008B00040E020E030E0369A349BFECF84B195B121
:1008C000280F391F34984F5F4230A9F730935102F7
:1008D0002093500235952795C9010895FB01908119
:1008E0009827292F2295207F292730E0522F44274F
:1008F000C90163E0880F991F6A95E1F748275927D6
:10090000818190E04827592784E0359527958A957D
:10091000E1F7422753275183408308956F927F92D6
:100920008F929F92BF92CF92DF92EF92FF920F939E
:100930001F93CF93DF93B62E3901C82EDD247601A5
:10094000EE0CFF1C47018C0C9D1CE401CC0FDD1F3D
:10095000CC0FDD1FC65CDC4F18828B819C818430FC
:10096000910509F473C0853091055CF482309105DE
:1009700009F443C0833091050CF089C09923C4F475
:1009800093C18730910509F4C1C08830910544F4C2
:100990008530910509F48EC0069709F085C19DC088
:1009A0008830910509F4E1C0099709F07DC12DC196
:1009B0008EEF681709F078C182E090E09C838B830A
:1009C00080E990E0C89ED001C99EB00DD89EB00DC0
:1009D0001124A655BD4F13961C92139788E490E0FE
:1009E000C89EF001C99EF00DD89EF00D1124EE0FA7
:1009F000FF1FE455FD4FB08235C167FF11C08981EB
:100A00008F5F8983F401EE0FFF1FEE0FFF1FE45C81
:100A1000FC4F80818F5F8083188281E090E013C05B
:100A200080E990E0C89EF001C99EF00DD89EF00DBF
:100A30001124E655FD4F63831D82862FBF010E945E
:100A40006E0484E090E09C838B832EC184E290E06E
:100A5000C89EF001C99EF00DD89EF00D1124EE0F36
:100A6000FF1FEE0FFF1FE255FD4F608380E990E00E
:100A7000C89EB001C99E700DD89E700D1124665598
:100A80007D4F8B2D0E946E0483E090E0DCCF80E9E7
:100A900090E0C89EF001C99EF00DD89EF00D112483
:100AA000E655FD4F6583862FBF010E946E0485E0E9
:100AB00090E0C9CF80E990E0C89EF001C99EF00D9A
:100AC000D89EF00D1124E655FD4F6683862FBF0199
:100AD0000E946E0486E090E0B6CF80E990E0C89E68
:100AE0008001C99E100DD89E100D112406551D4F72
:100AF000D80117966C93862FB8010E946E04F801F6
:100B00008381882379F187E090E09DCF8D81F70183
:100B100033E0EE0FFF1F3A95E1F7EE0DFF1D319622
:100B200023E0EE0FFF1F2A95E1F7E80FF11DE655D0
:100B3000FD4F60838F5F8D8380E990E0C89E8001C8
:100B4000C99E100DD89E100D112406551D4F862FDD
:100B5000B8010E946E049D81D80113968C9198175C
:100B600009F0A2C088E090E06ECF80E990E0C89ED6
:100B70008001C99E100DD89E100D112406551D4FE1
:100B8000D8011796EC91F0E0E053FF4F8081B80157
:100B90000E946E042B2D30E0F801808191819070CD
:100BA00028173907C9F0F401EE0FFF1FEE0FFF1FE2
:100BB000E45CFC4F80818F5F8083188281E090E04D
:100BC0009C838B83FEEFBF1609F06EC082E090E03D
:100BD0009C838B83D80143C089E090E09C838B8306
:100BE000F70183E0EE0FFF1F8A95E1F7EE0DFF1D81
:100BF000319603E0EE0FFF1F0A95E1F78D81E80FB4
:100C0000F11DE655FD4FB0824FC0262F30E080E940
:100C100090E0C89ED001C99EB00DD89EB00D1124A1
:100C2000A655BD4F11968C91119790E02817390762
:100C3000F1F0F401EE0FFF1FEE0FFF1FE45CFC4F1D
:100C400080818F5F8083188281E090E09C838B831A
:100C5000EEEF6E1749F582E090E09C838B8313964C
:100C60001C9213978FEF9FEF8D939C931DC081E093
:100C7000888381E090E09C838B83F70173E0EE0F23
:100C8000FF1F7A95E1F7EE0DFF1D319663E0EE0F41
:100C9000FF1F6A95E1F78D81E80FF11DE555FD4FC6
:100CA000B082EA01B983A883D601AA0FBB1FAC0D9D
:100CB000BD1DAA0FBB1FAA0FBB1FA65CBC4F8C910A
:100CC000813069F584E290E0C89EF001C99EF00D84
:100CD000D89EF00D1124EE0FFF1FEE0FFF1FE255FF
:100CE000FD4F808116968C93169718968D919C9146
:100CF0001997892B21F41B961C921E921A97F601C4
:100D0000EE0FFF1FEC0DFD1DEE0FFF1FEE0FFF1F7F
:100D1000E65CFC4F80859185019691878087F6017E
:100D2000EE0FFF1FEC0DFD1DEE0FFF1FEE0FFF1F5F
:100D3000DF01A65CBC4FE301B983A883E45CFC4FF0
:100D400010828C91DF91CF911F910F91FF90EF90C6
:100D5000DF90CF90BF909F908F907F906F9008957D
:100D60000F931F938C01FC0180810E945704AA27D6
:100D700097FDA095BA2FBC01CD010E94D417F801B0
:100D800021813281438154810E94C518F801258157
:100D90003681478150850E9470161F910F910895EA
:100DA00087E065E00E94C6110E94571289E292E036
:100DB0000E948A120E944A1208951F93CF93DF93D4
:100DC00085E06CE00E94C6110E9457128CE091E011
:100DD0000E948A120E944A1264EF71E080E090E063
:100DE0000E946F030E945204C0E0D0E010E0CE01E8
:100DF0006AEF70E00E94EE19892B69F4812F8F5EF3
:100E00006CE00E94C6110E9457128EEE0E94791269
:100E10000E944A121F5F61E070E080E090E00E9453
:100E20006F03219687E0C13DD80709F7DF91CF9185
:100E30001F9108951F9380917A02823010F410E977
:100E400004C010917A02110F1257812F0E9479125B
:100E5000812F8F5F0E9479121F9108952F923F92E8
:100E60004F925F926F927F928F929F92AF92BF92BA
:100E7000CF92DF92EF92FF920F931F93DF93CF9366
:100E800000D000D000D0CDB7DEB789836A832DB7FC
:100E90003EB73E832D838DB79EB748970FB6F89423
:100EA0009EBF0FBE8DBFEDB7FEB73196FC83EB83BF
:100EB00080917B02992787FD909597FF03C09095BD
:100EC00081959F4F8A359105B1F460917B02772718
:100ED00067FD70958AE590E00E94EE19882777FDFE
:100EE0008095982F0E94D41721EE3AEF43EB52E4FD
:100EF0000E94C51809C060917B02772767FD709535
:100F0000872F972F0E94D41725E33AEF4EE85CEB2A
:100F10000E94C5187B018C0180917C02992787FD76
:100F2000909597FF03C0909581959F4F8A359105C5
:100F3000B1F460917C02772767FD70958AE590E0B7
:100F40000E94EE19882777FD8095982F0E94D4176C
:100F500021EE3AEF43EB52E40E94C51809C06091BC
:100F60007C02772767FD7095872F972F0E94D417F3
:100F700025E33AEF4EE85CE30E94C5185B016C0183
:100F8000B701C8010E948D1920E030E044E352E42B
:100F90000E94C5180E9428190E94A1177B018C018C
:100FA000B501C6010E948D192B013C012B803C80AC
:100FB000BEEBCB2EBFEFDB2E4701AA2497FCA094FB
:100FC000BA2CB601882777FD8095982F0E94D417F8
:100FD0009B01AC01C301B2010E94C5187B018C01C9
:100FE000C501B4010E94D4179B01AC01C801B7012F
:100FF0000E94701620E030E044E352E40E94701634
:1010000020E030E040E85FE30E946F160E94A117E5
:10101000F101619371931F012CE030E0C20ED31EE9
:101020003EE4C316D10469F6CC24DD24AEEE8A2E4C
:10103000AFEF9A2EBA80BA94EB81FC81EC0DFD1DC6
:101040000190F081E02D1E161F06B4F5EA35F1057A
:101050009CF5CF0101976EEE7FEF0E94EE198B0198
:101060000B5F1F4FEB55F040089DC001099D900D8F
:10107000189D900D11249F01281B390BC90162E0B6
:1010800070E00E94EE19882777FD8095982F0E94C6
:10109000D4170E9428190E94A1177B01672B19F40D
:1010A000F1E0EF2EF12C6B2D600F89810E9432123E
:1010B0008E2D8B5F0E94791282E090E0C80ED91EBF
:1010C00099819F5F9983E8E1CE16D10409F0B4CFEE
:1010D0002D813E810FB6F8943EBF0FBE2DBF2696E0
:1010E0000FB6F894DEBF0FBECDBFCF91DF911F9139
:1010F0000F91FF90EF90DF90CF90BF90AF909F90B7
:101100008F907F906F905F904F903F902F900895B9
:101110002F923F924F925F926F927F928F929F9207
:10112000AF92BF92CF92DF92FF920F931F93CF9314
:10113000DF930E94610320918F02309190024091D1
:10114000910250919202621B730B840B950B605DB0
:1011500077408040904008F0C6C280919302882377
:1011600011F00E94981224E6A22E20E0B22ECC2488
:10117000DD2497E7892E91E0992E8DE7682E81E096
:10118000782E0BE8402E01E0502E12E9212E11E0BE
:10119000312E1C2D8091600090916100A091620021
:1011A000B09163000C2C04C0B695A79597958795D0
:1011B0000A94D2F780FF8AC2D5018C9111966C9166
:1011C0000E94C6110E945712EC2DF0E0E831F105A3
:1011D00008F078C2E65DFF4FEE0FFF1F0590F49117
:1011E000E02D099418ECFF2434C28EED91E0FDC08F
:1011F00020917B0200D000D088ED91E0CDB7DEB722
:101200009A838983332727FD30953C832B8397C1AD
:1012100020917C0200D000D082ED91E0EDB7FEB7C6
:1012200092838183332727FD30953483238387C1BD
:101230002091520230915302409154025091550234
:1012400000D000D000D089EC91E00DC02091580270
:101250003091590240915A0250915B0200D000D067
:1012600000D080EC91E0ADB7BEB712969C938E9300
:101270001197CDB7DEB72B833C834D835E830E94ED
:10128000CB11EDB7FEB736960FB6F894FEBF0FBE82
:10129000EDBF1AC22091670200D000D0EDB7FEB7B3
:1012A00031968BEB91E0ADB7BEB712969C938E93BF
:1012B00011972283D5C080916802823020F084305B
:1012C00008F000C203C088EB91E08FC085EB91E08D
:1012D0008CC080915F0290916002A0916102B091F8
:1012E0006202209163023091640240916502509144
:1012F0006602CDB7DEB72A970FB6F894DEBF0FBEF1
:10130000CDBFEDB7FEB7319665EA71E07A836983A8
:1013100082839383A483B583268337834087518751
:101320000E94CB118DB79EB70A960FB6F8949EBF58
:101330000FBE8DBFC9C160917E0270917F02809106
:1013400080029091810220E030E040E152E40E946E
:10135000C51820E030E044EB53E40E9439170E94A6
:1013600028190E94A1179B012550304037FF03C068
:101370009B01215E3F4FAAE9B2E0F901E455FF4F1E
:1013800080818C932F5F3F4F2432310514F020E091
:1013900030E0119692E0A53AB90779F700D000D075
:1013A000CDB7DEB73A8229821B97BC83AB83C7C017
:1013B00080917E0290917F02A0918002B091810283
:1013C00000D000D000D0EDB7FEB7528241828CC071
:1013D00080918E02882339F088E891E00E948A1279
:1013E00010928E0271C185E891E00E948A126CC150
:1013F00080916902813009F067C160917602709135
:101400007702809178029091790200D000D000D0CC
:101410000DB71EB70F5F1F4FADB7BEB712967C92C8
:101420006E9211970E94D417E8016A837B838C83A4
:101430009D8325CF80916902813009F045C10E94CA
:101440001A0742C180918D0200D000D0EDB7FEB7DF
:101450003196ADB7BEB712969C928E921197828349
:1014600013826DC060918202709183028091840228
:101470009091850220916A0230916B0240916C023A
:1014800050916D0200D000D000D00DB71EB70F5F95
:101490001F4FEFE6F1E0CDB7DEB7FA83E9830E9494
:1014A0006F16D80112966D937D938D939C9315972B
:1014B0000E94CB11CDB7DEB726960FB6F894DEBFEB
:1014C0000FBECDBF01C18091820290918302A09195
:1014D0008402B091850200D000D000D027E631E030
:1014E000EDB7FEB732832183CDB7DEB711C080914F
:1014F000860290918702A0918802B091890200D063
:1015000000D000D0EFE5F1E0CDB7DEB7FA83E98394
:101510008B839C83AD83BE83B2CE80918A029091EF
:101520008B0200D000D0C7E5D1E0ADB7BEB71296B0
:10153000DC93CE93119714969C938E9313970E94ED
:10154000CB110F900F900F900F90BEC0209194027E
:1015500080915E0280915C0290915D022230D1F513
:101560008530910509F46CC08630910578F482309D
:10157000910509F18230910508F4CDC083309105C1
:1015800009F458C0049709F09DC018C0883091052F
:10159000C1F08930910540F48630910509F44DC0C1
:1015A000079709F08FC03AC08930910569F00A9712
:1015B00009F088C00CC0CDEED1E0AFC0C7EFD1E0DC
:1015C000ACC0CBE0D2E0A9C0C0E1D2E0A6C0C5E18A
:1015D000D2E0A3C0213009F077C08530910521F118
:1015E0008630910550F481309105C1F0813091052C
:1015F000C0F0029709F066C08EC08A309105D1F024
:101600008B30910520F4069709F05CC010C08B3038
:10161000910599F00C9709F055C012C0C6E0D2E0D0
:101620007CC0CAE1D2E079C0CFE1D2E076C0C4E2AA
:10163000D2E073C0C2EFD1E070C0C1E0D2E06DC0B3
:10164000CCEFD1E06AC0E2E0FE1611F418ED01C063
:1016500018EC812F0E94791200E080E20E9479123A
:101660000F5F0C30D1F7812F8F5F0E9479128CE7CA
:101670000E947912F394F5E0FF1629F70E944A12AE
:10168000809190008F5F609191000E942E071EC094
:1016900080918C02843051F000D0CEE4D1E0ADB71F
:1016A000BEB71296DC93CE93119707C000D025E405
:1016B00031E0EDB7FEB7328321830E94CB110F904A
:1016C0000F9002C0163111F00E944A120894C11CFA
:1016D000D11C62E070E0A60EB71E78E1C716D104F7
:1016E00009F057CD21C0809193028823E9F481E06D
:1016F000809393020E9498120E94D00685E06AE0CF
:101700000E94C6110E94571283E291E00E948A1241
:101710000E944A1209C0C8EED1E080EE0E94791200
:10172000CE010E948A12CECFDF91CF911F910F91EF
:10173000FF90DF90CF90BF90AF909F908F907F9061
:101740006F905F904F903F902F9008951F9382E588
:101750000E9439040E9498120E94D00686E069E037
:101760000E94C6110E94571289E492E00E948A12D8
:101770000E944A1210E064E670E080E090E00E946F
:101780006F03A8951F5F1A30B1F7FFCF0F931F9318
:10179000CF93DF9383E70E94390486E40E943904E3
:1017A000C0E6D0E000E005C01991812F0E94390405
:1017B000010F80E0C63AD807B9F7802F0E9439049C
:1017C000DF91CF911F910F910895892B19F4862FE6
:1017D0000E94390408952F923F924F925F926F9228
:1017E0007F928F929F92AF92BF92CF92DF92EF92B1
:1017F000FF920F931F93DF93CF93CDB7DEB762971E
:101800000FB6F894DEBF0FBECDBFECEDEE2EE1E0DB
:10181000FE2E70EDC72E71E0D72E67E0262E312CFC
:101820002C0E3D1E53E1452E512C4C0E5D1E4DE0FD
:10183000A42EB12CAC0EBD1E3E010894611C711C7F
:1018400033E0832E912C8C0E9D1E209195023091B9
:101850009602F7014081F6018081918198878F83FC
:1018600029873A874B87F1E0FC878EEF8D8796E0DA
:101870009E87909141039F878091A600888B8091DD
:10188000A700898BE2E4EA8B9F5F909341038FEF7F
:101890009FEF9E838D838E01025F1F4F08C0F8016A
:1018A00081918F01BE016B5F7F4F0E946E04041512
:1018B0001505A9F78D819E819A838983810106C0D0
:1018C000F80181918F01B3010E946E040A151B0576
:1018D000B9F784E9B3010E946E0489819A818B83F0
:1018E0009C83850180E090E0F80161918F010E9466
:1018F000E50B04151505B1F7810180E090E0F801D2
:1019000061918F010E94E50B0A151B05B1F780E07C
:1019100090E0F40160810E94E50B80E090E0F4012A
:1019200061810E94E50B0894E11CF11C82E090E0CB
:10193000C80ED91E92EEE91691E0F90609F085CF9E
:1019400062960FB6F894DEBF0FBECDBFCF91DF9188
:101950001F910F91FF90EF90DF90CF90BF90AF90CD
:101960009F908F907F906F905F904F903F902F90BF
:101970000895FF920F931F9381E60E9439040E94FD
:101980002804A8950E9457048C01892F990F990B60
:10199000F82E0E943904802F0E9439048F2D800F69
:1019A0000E9439041F910F91FF900895CF92DF920A
:1019B000FF920F931F93DF93CF93CDB7DEB7C6543B
:1019C000D0400FB6F894DEBF0FBECDBF83E50E94B6
:1019D00039040E942804A895863479F5FF248E01E5
:1019E0000F5F1F4FA7E4CA2ED12CCC0EDD1E0E9424
:1019F0002804F80181938F01F80EA895EC15FD05D8
:101A0000B1F70E942804A8958F15B9F4A0E6B0E0BC
:101A1000FE01319686E401900D928150E1F7A89580
:101A200080E690E062E070E046E450E00E94801AB8
:101A3000A8950E94981281E201C080E40E943904B6
:101A4000CA5BDF4F0FB6F894DEBF0FBECDBFCF919C
:101A5000DF911F910F91FF90DF90CF9008958F92AB
:101A60009F92AF92BF92DF92EF92FF920F931F93DC
:101A7000DF93CF93CDB7DEB7C054D0400FB6F89404
:101A8000DEBF0FBECDBF86E40E943904EE24FF24E2
:101A90005E010894A11CB11CB7E38B2E912C8C0E17
:101AA0009D1E2CC0A8950E944B048823D9F30E9448
:101AB0000B04F80181938F01D80EE815F90599F709
:101AC00001C0A8950E944B048823D9F30E940B04FF
:101AD000D81681F4C701B5010E94DA1181E20E9493
:101AE00039040894E11CF11CF0E0EF16F1E0FF0668
:101AF00029F407C080E40E94390403C08501DD2475
:101B0000D2CF0E949812C05CDF4F0FB6F894DEBFB0
:101B10000FBECDBFCF91DF911F910F91FF90EF903E
:101B2000DF90BF90AF909F908F9008958F929F927B
:101B3000AF92BF92CF92DF92FF920F931F93DF93EA
:101B4000CF9300D000D0CDB7DEB703E0802E912C2C
:101B50008C0E9D1E5E010894A11CB11CFF24F39401
:101B600014E6C12ED12C6EC10E940B04682F809107
:101B70009802882371F56A3019F06D3039F429C064
:101B8000809199028F5F8093990223C0809199027E
:101B90008330E8F0633579F0643528F4663441F039
:101BA0006235A9F40EC0613679F0633781F406C05E
:101BB0000E942F0D47C10E94D60C44C10E94C60B43
:101BC00041C10E94A60B3EC10E94B90C3BC11092BC
:101BD000990280E0A50194010E948E04882309F4F3
:101BE0002DC1F0929802A981BA8117968C9117970E
:101BF000883109F467C0893130F4882359F0813085
:101C000009F01CC13DC08E3109F4E8C08A3409F0E6
:101C100015C18EC0F0928E0215968C911597809307
:101C2000950216968C91169780939602FD01389630
:101C300084818093940218968D919C91199790932A
:101C40005D0280935C0210925E028681881F882765
:101C5000881F8D5F80938C020E9461039B01AC0101
:101C600020938F02309390024093910250939202FE
:101C700080919302882309F4E1C0F0929702DEC0BC
:101C80008D01085F1F4FF8016685778580E090E041
:101C90000E94D21720E030E04AE754E40E9439174E
:101CA00060935202709353028093540290935502B2
:101CB000F801868D992787FD909590935702809320
:101CC0005602BCC08D01085F1F4FF8016085718509
:101CD0008285938520E836E948E950E00E94011AA0
:101CE000CA01B9010E94D41760935F027093600229
:101CF0008093610290936202F80164857585868500
:101D0000978520E836E948E950E00E94011ACA01A7
:101D1000B9010E94D41760936302709364028093A8
:101D2000650290936602F801848D8093680286C0F4
:101D30008D01085F1F4FF80184819581A681B781CD
:101D40008093860290938702A0938802B0938902C1
:101D500060897189882777FD8095982F0E94D41714
:101D600060937E0270937F02809380029093810241
:101D7000F8018289938990938B0280938A028091E3
:101D80008A0290918B028536910558F080918A02E3
:101D900090918B028639910520F4D0928B02C092EB
:101DA0008A0280918A0290918B0280918A0290919E
:101DB0008B028739910520F010928B0210928A02D3
:101DC000F80180859185A285B385809382029093E6
:101DD0008302A0938402B093850230C08D01085F16
:101DE0001F4FF801608571858285938521EE3EE263
:101DF00045E652E40E94C5180E94A11760937B0239
:101E0000F801648175818681978121EE3EE245E685
:101E100052E40E94C5180E94A11760937C02F80149
:101E2000648575858685978521EE3EE245E652E418
:101E30000E94C5180E94A11760937D028AE890E075
:101E40000E9499030E944B04882309F08DCE0F90C5
:101E50000F900F900F90CF91DF911F910F91FF90F6
:101E6000DF90CF90BF90AF909F908F9008952F926A
:101E70003F924F925F926F927F928F929F92AF921A
:101E8000BF92CF92DF92EF92FF920F931F93DF9357
:101E9000CF9300D000D0CDB7DEB7A8958091970240
:101EA000882309F443C00E94981283E06AE00E94EC
:101EB000C6110E94571282EF90E00E948A120E947F
:101EC0004A120E94EB0B62E370E080E090E00E9417
:101ED0006F030E94EB0B62E370E080E090E00E94F1
:101EE0006F030E94EB0B62E370E080E090E00E94E1
:101EF0006F031092970210E068EC70E080E090E0D1
:101F00000E946F03A8951F5F1A30B1F70E949812C4
:101F1000109293020E9461039B01AC0120938F02F7
:101F20003093900240939102509392020E94960D3A
:101F30000E94610369837A838B839C838091A602CC
:101F40009091A702A091A802B091A90229813A819B
:101F50004B815C81281B390B4A0B5B0B2937310500
:101F60004105510508F499CF80916902882309F051
:101F700070C180916802823008F46BC180915F0269
:101F800090916002A0916102B091620280936A0216
:101F900090936B02A0936C02B0936D0280916302E8
:101FA00090916402A0916502B091660280936E02E6
:101FB00090936F02A0937002B0937102809182029D
:101FC00090918302A0918402B09185028093720265
:101FD00090937302A0937402B093750231E0309332
:101FE000690208C160916A0270916B0280916C0273
:101FF00090916D029F7725E33AEF4EE85CE30E94F3
:10200000C5180E9436171B012C0160916A0270915D
:102010006B0280916C0290916D0220915F02309171
:10202000600240916102509162020E946F169F7798
:1020300020EC3BE649ED57E40E94C5185B016C01BA
:1020400060916E0270916F028091700290917102A6
:1020500020916302309164024091650250916602C2
:102060000E946F169F7720EC3BE649ED57E40E94F3
:10207000C518A20191010E94C5187B018C01C601FF
:10208000B501A60195010E94C5185B016C01C8014C
:10209000B701A80197010E94C5189B01AC01C601B8
:1020A000B5010E9470160E944C190E94A1176093FE
:1020B0007602709377028093780290937902A090D1
:1020C0006E02B0906F02C0907002D090710260906A
:1020D0006302709064028090650290906602609145
:1020E0006A0270916B0280916C0290916D02209156
:1020F0005F023091600240916102509162020E9441
:102100006F167B018C0160E070E080E89FE3A20124
:1021100091010E9439179B01AC01C801B7010E94CF
:10212000C5187B018C01C601B501A40193010E9471
:102130006F169B01AC015058C801B7010E94E3160D
:1021400020EE3EE245E652E40E94C51820E030E071
:1021500044EB52E40E9470160E94A1179B01AC014F
:1021600097FF04C028593E4F4F4F5F4FCA01B90136
:10217000645B70408040904097FF06C0CA01B9017F
:102180006C547F4F8F4F9F4FE0907E02F0907F0204
:1021900000918002109181020E94D417A80197013A
:1021A0000E946F160E94A11797FF04C068597E4FC6
:1021B0008F4F9F4F0E94D41720E030E044EB53E450
:1021C0000E94391720E030E040E851E40E94C51831
:1021D0000E94281920E030E040E85FE30E9470167A
:1021E0000E94A61760937A0280917A02813110F0E2
:1021F00010927A028091600084FF0CC084E990E024
:102200000E94B006609358027093590280935A025C
:1022100090935B0280916000909161008070907853
:10222000892B41F08DE990E00E94B0060E94A6172C
:1022300060938D020E94880889819A81AB81BC815C
:102240008093A6029093A702A093A802B093A9023C
:1022500024CE80916902813069F6C4CE80E090E09E
:102260000E94781A8F3431F481E090E00E94781A4D
:102270008230B9F186E069E00E94C6110E945712CF
:1022800089E692E00E948A120E944A1264EF71E08D
:1022900080E090E00E946F0380E090E06FE40E9495
:1022A0008A1A81E090E062E00E948A1A80E690E05B
:1022B00062E070E046E450E00E94801A86E069E047
:1022C0000E94C6110E94571286E592E00E948A126F
:1022D0000E944A1264EF71E080E090E00E946F0378
:1022E00008C080E690E062E070E046E450E00E94C2
:1022F000681A80914903882399F480914803482FF4
:1023000050E0E5E6F0E02081822F90E08417950709
:1023100014F023502083329680E0E539F80799F7CE
:102320000895F89482E081BB83E083BF89B7816020
:1023300089BF81E290E80E94F60380EB87BB81E5CC
:102340008DB917B887E886B978940E94BA120E94AE
:10235000D0060E942E110E94DD0664EF71E080E03D
:1023600090E00E946F030E9498122FE088E190E0B5
:102370000FB6F894A89581BD0FBE21BD08950E94A7
:1023800091110E94370F80E090E0089580934703F9
:10239000609346030895DF93CF93CDB7DEB7FE0178
:1023A00035966191719181E0AF010E94EA12CF915F
:1023B000DF910895EF92FF921F93CF93DF93182F31
:1023C0007B01C39880E00E94140380E00E94140304
:1023D00089E00E941403812F0E941403C0E0D0E022
:1023E000F701EC0FFD1F10818AE00E9414038C2F6F
:1023F0000E9414038BE00E941403812F0E94140397
:102400002196C633D10561F788E00E94140380EA63
:102410000E94140380EA0E94140385FDFBCF80E034
:102420000E9414038CE00E941403C39ADF91CF91A1
:102430001F91FF90EF9008951F93182FC39880E08D
:102440000E941403112319F0113049F403C0809144
:10245000490303C0809149038C610E941403C39A0D
:102460001F9108950F931F939EE1699F800111248E
:10247000080F111DC39885E00E941403812F0E944C
:10248000140386E00E941403802F0E9414031F91FE
:102490000F91089587E00E9414038FEF0E941403A8
:1024A000C39A809146038F5F8093460308950F93EC
:1024B0001F93009146038EE1089F800111248091B3
:1024C0004703080F111DC39884E00E94140383E0A2
:1024D0000E94140385E00E941403812F0E941403BC
:1024E00086E00E941403802F0E9414031F910F9115
:1024F00008951F93182F8C3729F40E944A120E94C6
:10250000571206C087E00E941403812F0E94140313
:102510001F910895CF93DF93EC0102C00E947912BE
:10252000FE01219684918823C9F7DF91CF91089508
:10253000C39884E00E94140384E00E941403C39AA9
:102540000895C39880EA0E9414038FEF0E94140339
:1025500081FD03C080E490E002C080E090E08093C1
:102560004903892B11F088E001C086E0809348037D
:10257000C39A08951F93BB9A0E94A112C3988CEE30
:102580000E9414038FEF0E941403182F80E00E9412
:1025900014038091490382600E94140362E370E097
:1025A00080E090E00E946F038CE60E941403812F6C
:1025B0008F7E0E94140310E1812F0E94140380E09B
:1025C0000E9414031F5F1C31B9F781E00E941C12A6
:1025D0001F9108952F923F924F925F926F927F9238
:1025E0008F929F92AF92BF92CF92DF92EF92FF9223
:1025F0000F931F93DF93CF93CDB7DEB760970FB6DE
:10260000F894DEBF0FBECDBF8C877E876D875A01E1
:102610009E012F5F3F4F388B2F87ED85FE852C85E0
:1026200020FD859120FF8191FE87ED87882309F4A5
:102630003DC3853249F420FD859120FF8191FE87BD
:10264000ED87853251F406C08A3021F48DE00E9476
:1026500079128AE00E947912E0CF982FFF24882413
:1026600099243FE13F15D0F09B3269F09C3228F469
:10267000903259F0933291F40EC09D3249F090336C
:1026800069F441E026C052E0F52A84E0F82A2AC025
:1026900098E0F92A27C0E0E1FE2A24C0F7FC2EC00A
:1026A000892F80538A3080F4F6FE06C0FAE09F9EA0
:1026B000902C1124980E16C02AE0829E802C1124A2
:1026C000880E30E2F32A0EC09E3229F4F6FCEEC2E8
:1026D00040E4F42A07C09C3619F450E8F52A02C0F9
:1026E000983661F4ED85FE852C8520FD959120FFBF
:1026F0009191FE87ED87992309F0B3CF892F8554F7
:10270000833020F48F2D8061905E07C0892F85561D
:10271000833008F087C18F2D8F7E86FD02C076E062
:10272000972E182F1F73953611F4106406C0963635
:1027300011F4106802C091109A9417FF0BC03BE38C
:10274000391520F427E06CE3762E0EC0792C7394B3
:1027500027E00AC047E0491528F427E0772457E02E
:10276000952E02C0292D772444E0242E312C2A0CEA
:102770003B1CF5016081718182819381AE014F5FC5
:102780005F4F072D0E94DE016C01B9804B2C552450
:10279000B0FE04C0B3FC02C00DE209C011FF02C0CC
:1027A0000BE205C012FD02C000E001C000E2C20160
:1027B0008C709070892BA9F1002311F483E001C083
:1027C00084E0881510F0882408C0881A13FD05C01D
:1027D00080E20E9479128A94D9F7002319F0802FA1
:1027E0000E94791243FE05C03CE7E32E32E0F32E4F
:1027F0000FC020E8E22E22E0F22E0AC001151105DA
:1028000009F080520E9479120894E11CF11C04C066
:10281000012F10E000711070F7018491882371F787
:10282000FFC017FF12C07C0C44FE04C08A818133B4
:1028300009F47A9417141CF0772473942CC0F8E0F0
:10284000F71548F598E0792E26C016FD24C0892D8D
:1028500090E08C159D0544F02CEFC2162FEFD206A8
:102860001CF0106801C09A94992049F0E2E0F0E071
:10287000EC0FFD1FE90DF11D80818033A1F317FFDF
:102880000AC0792C7394892D90E0C816D90614F0EB
:10289000992401C09C1817FD03C025E030E009C051
:1028A0001C141D041CF021E030E003C096012F5FD2
:1028B0003F4F002311F02F5F3F4F992029F0892DC2
:1028C00090E00196280F391F882D90E028173907CE
:1028D00014F0882401C0821AE12EFF24C7018970F8
:1028E0009070892B29F006C080E20E9479128A94A8
:1028F0008820D1F7002319F0802F0E947912E3FE7F
:1029000005C006C080E30E9479128A948820D1F71E
:1029100017FF45C08601D7FE02C000E010E0760137
:102920000894E11CF11CE01AF10A41E050E04C0F60
:102930005D1FE40EF51EC601871991093C01892D22
:1029400090E0AA24BB24A81AB90A9FEF0F3F1907E9
:1029500019F48EE20E947912C016D10634F0601686
:1029600071061CF4F701808101C080E30150104022
:102970000894E11CF11C0A151B051CF00E94791239
:10298000E4CF0C151D0509F049C09A81963328F44F
:10299000953309F043C044FC41C081E33FC08A81C4
:1029A000813311F0FFEEBF220E947912992081F04D
:1029B0008EE20E94791212E0E1E0F0E0EC0FFD1FE0
:1029C000E10FF11D1F5F80810E9479129A94A1F797
:1029D000E4FC02C085E601C085E40E947912D7FCC0
:1029E00005C0C114D10441F4B4FE06C0D094C19412
:1029F000D108D3948DE201C08BE20E94791280E36A
:102A000005C08F5F26EF3FEFC20ED31E3AE0C3161C
:102A1000D104BCF70E9479128C2D805D0E9479123E
:102A2000510141C1933631F0933791F0933509F05C
:102A300055C023C0F501808189836E010894C11CB3
:102A4000D11C22E030E0A20EB31E01E010E012C063
:102A5000F501C080D180F6FC03C06FEF7FEF02C0AC
:102A6000692D70E022E030E0A20EB31EC6010E9484
:102A70005D1A8C013FE7F32214C0F501C080D180BC
:102A8000F6FC03C06FEF7FEF02C0692D70E022E01B
:102A900030E0A20EB31EC6010E94521A8C0130E82B
:102AA000F32AF3FE05C016C080E20E9479128A94D0
:102AB000882D90E008171907B8F30CC0F601F7FC51
:102AC0008591F7FE81916F010E94791281108A949D
:102AD000015010400115110589F7E5C0943611F039
:102AE000993681F5F7FE08C0F501208131814281D8
:102AF000538184E090E00AC0F501808191819C01BE
:102B0000442737FD4095542F82E090E0A80EB91E6F
:102B10009FE6F92257FF09C05095409530952195C1
:102B20003F4F4F4F5F4FE0E8FE2ACA01B901AE01A7
:102B30004F5F5F4F2AE030E00E94B602E82EFF852B
:102B4000EF1A43C0953729F41F2D1F7E2AE030E08D
:102B50001DC01F2D197F9F3661F0903720F49835E6
:102B600009F0A4C00FC0903739F0983709F09EC023
:102B700004C028E030E00AC0106114FD146020E1B8
:102B800030E004C014FD166020E132E017FF08C0F9
:102B9000F501608171818281938144E050E008C039
:102BA000F50180819181BC0180E090E042E050E03D
:102BB000A40EB51EAE014F5F5F4F0E94B602E82E15
:102BC0005F85E51A8FE7F82EF122F6FE0BC08EEF37
:102BD000F822E91438F4F4FE07C0F2FC05C09FEEB9
:102BE000F92202C01E2D01C0192DF4FE0DC0FE01F8
:102BF000EE0DF11D8081803319F4E9EEFE2208C04C
:102C00001F5FF2FE05C003C08F2D867809F01F5F9D
:102C10000F2DF3FC12C0F0FE0DC0181510F09E2C05
:102C200009C09E2C980C911A182D04C080E20E94B5
:102C300079121F5F1815D0F304C0181510F4811A0B
:102C400001C0882404FF0BC080E30E94791202FFB8
:102C500017C001FD02C088E70CC088E50AC0802FBC
:102C6000867871F001FF02C08BE201C080E2F7FCC0
:102C70008DE20E94791204C080E30E9479129A9436
:102C8000E914D0F3EA94E1E0F0E0EC0FFD1FEE0D63
:102C9000F11D80810E947912EE20A1F704C080E22C
:102CA0000E9479128A948820D1F7B7CC60960FB62B
:102CB000F894DEBF0FBECDBFCF91DF911F910F9172
:102CC000FF90EF90DF90CF90BF90AF909F908F904C
:102CD0007F906F905F904F903F902F900895505845
:102CE000BB27AA270ED0FFC1C8D130F0CDD120F02C
:102CF00031F49F3F11F41EF498C10EF4E095E7FB08
:102D00008EC1E92F12D280F3BA17620773078407C6
:102D1000950718F071F49EF52AC20EF4E0950B2E7B
:102D2000BA2FA02D0B01B90190010C01CA01A0011D
:102D30001124FF27591B99F0593F50F4503E68F178
:102D40001A16F040A22F232F342F4427585FF3CFB9
:102D5000469537952795A795F0405395C9F77EF48A
:102D60001F16BA0B620B730B840BBAF09150A1F0D3
:102D7000FF0FBB1F661F771F881FC2F70EC0BA0F59
:102D8000621F731F841F48F4879577956795B795E1
:102D9000F7959E3F08F0B3CF9395880F08F09927D9
:102DA000EE0F97958795089568D158F080E891E0E7
:102DB00009F49EEF69D128F040E851E059F45EEF44
:102DC00009C033C1D4C1E92FE078AFD168F3092E2F
:102DD000052AC1F3261737074807590738F00E2E82
:102DE00007F8E02569F0E025E0640AC0EF6307F822
:102DF000009407FADB01B9019D01DC01CA01AD01B4
:102E0000EF9346D070D10AD05F91552331F02BED6E
:102E10003FE049E450FD49EC63CF0895DF93DD279F
:102E2000B92FBF7740E85FE31616170648075B0720
:102E300010F4D92FA3D19F938F937F936F936AD26E
:102E4000E4E8F0E0F5D04FD12F913F914F915F91A1
:102E5000A8D1DD2349F09058A2EA2AED3FE049ECE1
:102E60005FE3D0785D274DDFDF913DC115D1E3955C
:102E70004BC10CD038C108D140F0FFD030F021F464
:102E80005F3F19F0CCC0511173C1CFC04ED198F340
:102E90009923C9F35523B1F3951B550BBB27AA27DB
:102EA00062177307840738F09F5F5F4F220F331F4D
:102EB000441FAA1FA9F333D00E2E3AF0E0E830D019
:102EC00091505040E695001CCAF729D0FE2F27D01C
:102ED000660F771F881FBB1F261737074807AB07EA
:102EE000B0E809F0BB0B802DBF01FF2793585F4F5F
:102EF0002AF09E3F510568F092C03AC15F3FECF363
:102F0000983EDCF3869577956795B795F7959F5F23
:102F1000C9F7880F911D9695879597F90895E1E077
:102F2000660F771F881FBB1F621773078407BA07D6
:102F300020F0621B730B840BBA0BEE1F88F7E09531
:102F4000089504D06894B11113C10895F6D088F0A3
:102F50009F5790F0B92F9927B751A0F0D1F0660F85
:102F6000771F881F991F1AF0BA95C9F712C0B130A0
:102F700081F0FDD0B1E00895FAC0672F782F88273F
:102F8000B85F39F0B93FCCF3869577956795B395DF
:102F9000D9F73EF490958095709561957F4F8F4F4E
:102FA0009F4F0895E89409C097FB3EF49095809553
:102FB000709561957F4F8F4F9F4F9923A9F0F92FFF
:102FC00096E9BB279395F695879577956795B7957D
:102FD000F111F8CFFAF4BB0F11F460FF1BC06F5F63
:102FE0007F4F8F4F9F4F16C0882311F096E911C075
:102FF000772321F09EE8872F762F05C0662371F096
:1030000096E8862F70E060E02AF09A95660F771FA9
:10301000881FDAF7880F9695879597F9089597F99D
:103020009F6780E870E060E008959FEF80EC08956E
:10303000DF93CF931F930F93FF92EF92DF927B0169
:103040008C01689405C0DA2EEF01ABD0FE01E89444
:10305000A5912591359145915591AEF3EF0151DE42
:10306000FE019701A801DA9479F7DF90EF90FF90C5
:103070000F911F91CF91DF91089500240A941616A5
:10308000170618060906089500240A941216130656
:10309000140605060895C9CF50D0E8F3E894E0E09F
:1030A000BB279F57F0F02AED3FE049EC06C0EE0F3A
:1030B000BB0F661F771F881F28F0B23A620773079D
:1030C000840728F0B25A620B730B840BE3959A9530
:1030D00072F7803830F49A95BB0F661F771F881FF0
:1030E000D2F7904857C1092E0394000C11F488239D
:1030F00052F0BB0F40F4BF2B11F460FF04C06F5FB0
:103100007F4F8F4F9F4F0895EF93E0FF06C0A2EAD5
:103110002AED3FE049EC5FEBF4DDE5DF0F9003942F
:1031200001FC9058E1EBF0E048C157FD9058440F86
:10313000551F59F05F3F71F04795880F97FB991F16
:1031400061F09F3F79F087950895121613061406D3
:10315000551FF2CF4695F1DF08C016161706180660
:10316000991FF1CF86957105610508940895E8943B
:10317000BB2766277727CB0197F908959B01AC0100
:1031800060E070E080E89FE374CE0BD0ACCF75DFD9
:1031900028F07ADF18F0952309F041CF46CF1124AB
:1031A000E7CFC3DFA0F3959FD1F3950F50E0551FF4
:1031B000629FF001729FBB27F00DB11D639FAA278C
:1031C000F00DB11DAA1F649F6627B00DA11D661FDB
:1031D000829F2227B00DA11D621F739FB00DA11DFC
:1031E000621F839FA00D611D221F749F3327A00DB6
:1031F000611D231F849F600D211D822F762F6A2F52
:1032000011249F5750408AF0E1F088234AF0EE0FD6
:10321000FF1FBB1F661F771F881F91505040A9F7E3
:103220009E3F510570F0FBCEA3CF5F3FECF3983E7D
:10323000DCF3869577956795B795F795E7959F5F4A
:10324000C1F7FE2B880F911D9695879597F90895E4
:1032500074DFE0F09E37D8F09639B8F49E3848F421
:10326000672F782F8827985FF9CF86957795679590
:1032700093959539D0F3B62FB1706B0F711D811DE9
:1032800020F4879577956795939567C081C070CF37
:1032900011F40EF4CACE7CC050DFD0F39923D9F3D9
:1032A000CEF39F57550B87FF81D00024A0E640EA5C
:1032B000900180585695979528F4805C660F771F8B
:1032C000881F20F026173707480730F4621B730B5E
:1032D000840B202931294A2BA69517940794202581
:1032E00031254A2758F7660F771F881F20F02617C9
:1032F0003707480730F4620B730B840B200D311D28
:10330000411DA09581F7B901842F9158880F96959A
:10331000879508959B01AC0138CFDF93D92FBCDE90
:10332000E695D7952AED3FE049E45FE3B33A6207BB
:10333000730784079507D7952AF0A2EA49EC9068AD
:10334000E0DCD1DEEFECF0E038D0DD0F0BF016DF83
:10335000DD0F0BF49058DF910895882371F47723E3
:1033600021F09850872B762F07C0662311F49927F8
:103370000DC09051862B70E060E02AF09A95660FA0
:10338000771F881FDAF7880F9695879597F9089524
:103390009F3F31F0915020F4879577956795B795C9
:1033A000880F911D9695879597F9089591505040F3
:1033B000660F771F881FD2F708959F938F937F938F
:1033C0006F93FF93EF939B01AC01DFDEEF91FF91D1
:1033D0002FDE2F913F914F915F91D7CE97FB092E12
:1033E00007260AD077FD04D027D006D000201AF493
:1033F000709561957F4F0895F6F7909581959F4F51
:10340000089597FB092E05260ED057FD04D028D02D
:103410000AD0001C38F450954095309521953F4FC7
:103420004F4F5F4F0895F6F7909580957095619591
:103430007F4F8F4F9F4F0895AA1BBB1B51E107C0C1
:10344000AA1FBB1FA617B70710F0A61BB70B881F34
:10345000991F5A95A9F780959095BC01CD010895C3
:10346000A1E21A2EAA1BBB1BFD010DC0AA1FBB1F88
:10347000EE1FFF1FA217B307E407F50720F0A21BFA
:10348000B30BE40BF50B661F771F881F991F1A9467
:1034900069F760957095809590959B01AC01BD0191
:1034A000CF010895FC010590615070400110D8F7DC
:1034B000809590958E0F9F1F0895FC01615070407C
:1034C00001900110D8F7809590958E0F9F1F089559
:1034D000DC01CB01FC01E199FECF06C0FFBBEEBBD6
:1034E000E09A31960DB20D9241505040B8F70895D0
:1034F000E199FECF9FBB8EBBE09A99278DB30895CB
:10350000DC01CB0103C02D910E948B1A4150504029
:10351000D0F70895262FE199FECF9FBB8EBB2DBB20
:103520000FB6F894E29AE19A0FBE01960895F894C6
:02353000FFCFCB
:10353200EE1FFC000D0716090B0115011503020D04
:10354200050D020E100E180D02090E0302010000F5
:103552000000160515020202020202030204110D06
:1035620008070B040000000000000000000000003B
:103572000000000000000C0100000000C2C0C0C139
:10358200C0C0C1C0C0C4C0C0C1C0C0C1C0C0C3C02F
:10359200C0C1C0C0C1C0C0C5C0C0C1C0C0C1C0C020
:1035A200327C8900EDD968770000005900000000E4
:1035B20000000000D69FDCA81817AA90437327F6D4
:1035C200B968EDF4DED409FEE61C1C84DDE80B9933
:1035D2002927D6DF8D210F036418EFEE1EF0B78284
:1035E2008200941500347C0000001400988F0000C3
:1035F200000000000000000000E7B73F36000000B6
:1036020000000000AF669ED03800000000000000FD
:1036120000000000000000000000000000000000A8
:103622000000000000000000000000000000000098
:1036320000000000000086DBD0BC54161315860083
:103642004E44BD7F2A151500000000000000000056
:103652000000000000000000000000000000000068
:103662000000000000000000000000000000000058
:103672000000000000000000000000000000000048
:103682000000000000000000000000000000000038
:10369200000000000000000000CC31AA2C532E00D4
:1036A20002000200050002000500020001020306FA
:0236B2000A0B01
:00000001FF
