:100000000C94BB010C94D8010C94D8010C94D80129
:100010000C94D8010C94D8010C94D8010C94D801FC
:100020000C94D8010C9415030C94D8010C94A303E0
:100030000C94CD030C94D8010C94D8010C94D801E5
:100040000C94D8010C94D8010C94D8010C94D801CC
:100050000C94D801F908FC080C091C092A09440968
:10006000520960098B09CA09D8090C0AE8093A0B38
:100070003A0B140A3A0B3A0B240A450A650A7E0A1F
:10008000F608200B084AD73B3BCE016E84BCBFFD6F
:10009000C12F3D6C74319ABD56833DDA3D00C77F58
:1000A00011BED9E4BB4C3E916BAAAABE00000080F1
:1000B0003F05A84CCDB2D44EB93836A9020C50B980
:1000C000918688083CA6AAAA2ABE000000803F06A6
:1000D00064EC1B3C04BC163E3BE5B93CC93C37C252
:1000E0009E5A3D660498083EEA69AAAA3E000000AE
:1000F000803F52657175657374696E6720446174E1
:100100006153747265616D732E2E2E00426F6F7491
:10011000696E672075703AEDF2F2F2F2F2F2F2F2E5
:10012000F2F30057616974696E6720666F727C4DE7
:1001300041564C696E6B20686561727462656174CA
:10014000732E2E2E00202020202020202000446905
:100150007361726D656400872533692500862533D8
:100160002E306688008525352E30668D00E12533DA
:100170006925001F25352E30668D00EAEB00EAEC7C
:100180000025342E3066B00020C0C0C0C0C0C7C03B
:10019000C0C0C0C0207CD02573D100832531312E52
:1001A00036667C842531312E366600112000102001
:1001B000000F2532690020E325352E32668E00209F
:1001C000E225352E32668E00253469B0B200253422
:1001D00069B0B100050304057C1513141500737490
:1001E000616200616C7468006175746F00677569A5
:1001F00064006C6F6974007265746C00636972638B
:1002000000706F7369006C616E64006F666C6F00E4
:100210006D616E75006662776100666277620048A4
:10022000617A7973204F53442076312E30317C200F
:10023000666F72204D41564C696E6B20312E300036
:100240005265626F6F74696E672E2E2E004F534495
:1002500020496E697469616C697A656420202000A8
:100260004D697373696E672F4F6C6420436F6E66C0
:100270006967006E616E00696E660000407A10F377
:100280005A00A0724E18090010A5D4E80000E876C4
:1002900048170000E40B54020000CA9A3B0000001B
:1002A000E1F505000080969800000040420F000034
:1002B00000A08601000000102700000000E80300F5
:1002C0000000006400000000000A000000000001BF
:1002D00000000000002C76D888DC674F0823DFC1BF
:1002E000DFAE59E1B1B796E5E3E453C63AE651997A
:1002F0007696E8E6C28426EB898C9B62ED407C6FA3
:10030000FCEFBC9C9F40F2BAA56FA5F490055A2A59
:10031000F75C936B6CF9676DC11BFCE0E40D47FE65
:10032000F520E6B500D0ED902E030094357705005A
:1003300080841E080000204E0A000000C80C3333E1
:1003400033330F986E12831141EF8D2114893BE6F0
:100350005516CFFEE6DB18D1844B381BF77C1D9079
:100360001DA4BBE424203284725E228100C9F124E2
:10037000ECA1E53D270011241FBECFE5D4E0DEBF90
:10038000CDBF11E0A0E6B0E0E8E4F5E302C00590DF
:100390000D92AC3EB107D9F713E0ACEEB1E001C06D
:1003A0001D92A235B107E1F70E94CA110C94A21A5E
:1003B0000C940000283008F027E03327DA01990F69
:1003C000311D87FD916000966105710539F4326039
:1003D0002E5F3D9330E32A95E1F708959F3F30F07B
:1003E00080387105610509F03C5F3C5F3D939130B9
:1003F00008F08068911DDF93CF931F930F93FF92B6
:10040000EF92192F987F9695E92F96959695E90F7B
:10041000FF27EB52FD4F99273327EE24FF24A70136
:10042000E70105900894079428F4360FE71EF81E9C
:10043000491F511D660F771F881F991F0694A1F74A
:100440000590079428F4E70EF81E491F561FC11D9A
:10045000770F881F991F661F0694A1F705900794D0
:1004600028F4F80E491F561FC71FD11D880F991F6A
:10047000661F771F0694A1F70590079420F4490F93
:10048000561FC71FD81F990F661F771F881F069416
:10049000A9F784911095177041F0D695C795579597
:1004A0004795F794E7941A95C1F7EBE7F2E0689463
:1004B0001590159135916591959105907FE2739511
:1004C000E118F10A430B560BC90BD009C0F7E10C38
:1004D000F11E431F561FC91FD01D7EF4703311F447
:1004E0008A95E6CFE894015030F0080F0AF400270F
:1004F000021708F4202F2395022F7A3328F079E38E
:100500007D932A95E9F710C07D932A9589F6069484
:1005100097956795379517951794E118F10A430B4E
:10052000560BC90BD00998F023957E9173957A33B9
:1005300008F070E37C932013B8F77E9170617D938F
:1005400030F0839571E37D9370E32A95E1F71124F0
:10055000EF90FF900F911F91CF91DF91992787FD29
:1005600090950895FA01AA27283051F1203181F1A0
:10057000E8946F936E7F6E5F7F4F8F4F9F4FAF4FAB
:10058000B1E03ED0B4E03CD0670F781F891F9A1FBE
:10059000A11D680F791F8A1F911DA11D6A0F711D72
:1005A000811D911DA11D20D009F468943F912AE07E
:1005B000269F11243019305D3193DEF6CF01089566
:1005C000462F4770405D4193B3E00FD0C9F7F6CF97
:1005D000462F4F70405D4A3318F0495D31FD40525F
:1005E000419302D0A9F7EACFB4E0A69597958795F5
:1005F00077956795BA95C9F70097610571050895D4
:100600009B01AC010A2E069457954795379527957F
:10061000BA95C9F7620F731F841F951FA01D089517
:100620008FB9779BFECF8FB108951F920F920FB6AF
:100630000F9211242F933F938F939F93AF93BF9368
:100640008091F0019091F101A091F201B091F3013C
:100650003091F4010196A11DB11D232F2D5F2D377F
:1006600020F02D570196A11DB11D2093F401809318
:10067000F0019093F101A093F201B093F301809106
:10068000EC019091ED01A091EE01B091EF01019686
:10069000A11DB11D8093EC019093ED01A093EE019B
:1006A000B093EF01BF91AF919F918F913F912F91A7
:1006B0000F900FBE0F901F9018958FB7F894209150
:1006C000F0013091F1014091F2015091F3018FBF9F
:1006D000B901CA010895EF92FF920F931F937B0116
:1006E0008C018FB7F8944091F0015091F101609125
:1006F000F2017091F3018FBF2FB7F8948091F00150
:100700009091F101A091F201B091F3012FBF841BF0
:10071000950BA60BB70BE816F9060A071B0760F73F
:100720001F910F91FF90EF900895019759F0FC01F0
:10073000EE0FFF1FEE0FFF1F32978FB7F894319720
:10074000F1F78FBF08951F920F920FB60F921124E9
:100750002F938F939F93EF93FF939BB12CB1E091D5
:100760005702EF5FEF7380915802E81711F482E0AF
:1007700008C0892F8871E0935702F0E0EB5EFD4FCF
:10078000208380935902FF91EF919F918F912F9138
:100790000F900FBE0F901F9018951F920F920FB6DB
:1007A0000F9211248F939F93EF93FF939091550293
:1007B00080915602981761F0E0915602EF5FEF7159
:1007C000E0935602F0E0EB50FE4F80818CB901C0FF
:1007D0005598FF91EF919F918F910F900FBE0F90C1
:1007E0001F9018959C01109255021092560210927B
:1007F00057021092580297FF03C082E08BB93F77EF
:1008000030BD29B988E98AB986E880BD08959091FC
:10081000570280915802981719F420E031E012C075
:10082000E0915802EF5FEF73E0935802F0E0EB5E67
:10083000FD4F308120915902922F80E0AC01430F8F
:10084000511D9A01C9010895909157028091580253
:100850009817D1F3E0915802EF5FEF73E0935802DD
:10086000F0E0EB5EFD4F80810895282F90915502B6
:100870009F5F9F71809156029817E1F3E92FF0E096
:10088000EB50FE4F208390935502559A0895809126
:10089000570290915802891B8F73089580915802D6
:1008A00080935702089587B940E020E030E0369AFF
:1008B000349BFECF84B195B1280F391F34984F5F18
:1008C0004230A9F730935B0220935A023595279561
:1008D000C9010895FB0190819827292F2295207F37
:1008E000292730E0522F4427C90163E0880F991F60
:1008F0006A95E1F748275927818190E048275927D1
:1009000084E0359527958A95E1F74227532751834F
:10091000408308956F927F928F929F92BF92CF9261
:10092000DF92EF92FF920F931F93CF93DF93B62E38
:100930003901C82EDD247601EE0CFF1C47018C0C1A
:100940009D1CE401CC0FDD1FCC0FDD1FCE5BDC4F07
:1009500018828B819C818430910509F473C08530A5
:1009600091055CF48230910509F443C08330910510
:100970000CF089C09923C4F493C18730910509F420
:10098000C1C08830910544F48530910509F48EC0CA
:10099000069709F085C19DC08830910509F4E1C032
:1009A000099709F07DC12DC18EEF681709F078C154
:1009B00082E090E09C838B8380E990E0C89ED00128
:1009C000C99EB00DD89EB00D1124AE54BD4F1396E4
:1009D0001C92139788E490E0C89EF001C99EF00D28
:1009E000D89EF00D1124EE0FFF1FEC54FD4FB08286
:1009F00035C167FF11C089818F5F8983F401EE0FD4
:100A0000FF1FEE0FFF1FEC5BFC4F80818F5F808329
:100A1000188281E090E013C080E990E0C89EF00168
:100A2000C99EF00DD89EF00D1124EE54FD4F638346
:100A30001D82862FBF010E946A0484E090E09C839F
:100A40008B832EC184E290E0C89EF001C99EF00D18
:100A5000D89EF00D1124EE0FFF1FEE0FFF1FEA547A
:100A6000FD4F608380E990E0C89EB001C99E700D83
:100A7000D89E700D11246E547D4F8B2D0E946A04F8
:100A800083E090E0DCCF80E990E0C89EF001C99E51
:100A9000F00DD89EF00D1124EE54FD4F6583862F86
:100AA000BF010E946A0485E090E0C9CF80E990E030
:100AB000C89EF001C99EF00DD89EF00D1124EE5491
:100AC000FD4F6683862FBF010E946A0486E090E096
:100AD000B6CF80E990E0C89E8001C99E100DD89ED7
:100AE000100D11240E541D4FD80117966C93862FAC
:100AF000B8010E946A04F8018381882379F187E0B4
:100B000090E09DCF8D81F70133E0EE0FFF1F3A9506
:100B1000E1F7EE0DFF1D319623E0EE0FFF1F2A9542
:100B2000E1F7E80FF11DEE54FD4F60838F5F8D8379
:100B300080E990E0C89E8001C99E100DD89E100DDE
:100B400011240E541D4F862FB8010E946A049D8106
:100B5000D80113968C91981709F0A2C088E090E014
:100B60006ECF80E990E0C89E8001C99E100DD89E8E
:100B7000100D11240E541D4FD8011796EC91F0E082
:100B8000E752FF4F8081B8010E946A042B2D30E0AC
:100B9000F80180819181907028173907C9F0F4011C
:100BA000EE0FFF1FEE0FFF1FEC5BFC4F80818F5F8E
:100BB0008083188281E090E09C838B83FEEFBF16D8
:100BC00009F06EC082E090E09C838B83D80143C023
:100BD00089E090E09C838B83F70183E0EE0FFF1F99
:100BE0008A95E1F7EE0DFF1D319603E0EE0FFF1F32
:100BF0000A95E1F78D81E80FF11DEE54FD4FB082AB
:100C00004FC0262F30E080E990E0C89ED001C99EF9
:100C1000B00DD89EB00D1124AE54BD4F11968C91DD
:100C2000119790E028173907F1F0F401EE0FFF1F3C
:100C3000EE0FFF1FEC5BFC4F80818F5F808318827B
:100C400081E090E09C838B83EEEF6E1749F582E0A4
:100C500090E09C838B8313961C9213978FEF9FEFEA
:100C60008D939C931DC081E0888381E090E09C83FC
:100C70008B83F70173E0EE0FFF1F7A95E1F7EE0D1E
:100C8000FF1D319663E0EE0FFF1F6A95E1F78D813E
:100C9000E80FF11DED54FD4FB082EA01B983A8833E
:100CA000D601AA0FBB1FAC0DBD1DAA0FBB1FAA0FFB
:100CB000BB1FAE5BBC4F8C91813069F584E290E044
:100CC000C89EF001C99EF00DD89EF00D1124EE0FC4
:100CD000FF1FEE0FFF1FEA54FD4F808116968C9385
:100CE000169718968D919C911997892B21F41B9634
:100CF0001C921E921A97F601EE0FFF1FEC0DFD1DC0
:100D0000EE0FFF1FEE0FFF1FEE5BFC4F80859185FE
:100D1000019691878087F601EE0FFF1FEC0DFD1DF8
:100D2000EE0FFF1FEE0FFF1FDF01AE5BBC4FE301B5
:100D3000B983A883EC5BFC4F10828C91DF91CF913B
:100D40001F910F91FF90EF90DF90CF90BF909F90F9
:100D50008F907F906F9008950F931F938C01FC01EB
:100D600080810E945304AA2797FDA095BA2FBC0149
:100D7000CD010E94DF17F801218132814381548126
:100D80000E94D018F80125813681478150850E9444
:100D90007B161F910F91089587E065E00E94D111A5
:100DA0000E9462128FE192E00E9495120E945512F9
:100DB00008951F93CF93DF9385E06CE00E94D111DB
:100DC0000E9462128CE091E00E9495120E945512DE
:100DD00064EF71E080E090E00E946B030E944E049B
:100DE000C0E0D0E010E0CE016AEF70E00E94F91997
:100DF000892B69F4812F8F5E6CE00E94D1110E94D3
:100E000062128EEE0E9484120E9455121F5F61E0F2
:100E100070E080E090E00E946B03219687E0C13D86
:100E2000D80709F7DF91CF911F9108951F93809103
:100E30008402823010F410E904C010918402110F72
:100E40001257812F0E948412812F8F5F0E9484127B
:100E50001F9108952F923F924F925F926F927F92CF
:100E60008F929F92AF92BF92CF92DF92EF92FF92BA
:100E70000F931F93DF93CF9300D000D000D0CDB756
:100E8000DEB789836A832DB73EB73E832D838DB746
:100E90009EB748970FB6F8949EBF0FBE8DBFEDB7B3
:100EA000FEB73196FC83EB8380918502992787FDFD
:100EB000909597FF03C0909581959F4F8A35910536
:100EC000B1F460918502772767FD70958AE590E01F
:100ED0000E94F919882777FD8095982F0E94DF17C7
:100EE00021EE3AEF43EB52E40E94D01809C0609122
:100EF0008502772767FD7095872F972F0E94DF1750
:100F000025E33AEF4EE85CEB0E94D0187B018C01A0
:100F100080918602992787FD909597FF03C0909551
:100F200081959F4F8A359105B1F4609186027727AC
:100F300067FD70958AE590E00E94F919882777FD92
:100F40008095982F0E94DF1721EE3AEF43EB52E491
:100F50000E94D01809C060918602772767FD7095BE
:100F6000872F972F0E94DF1725E33AEF4EE85CE3C7
:100F70000E94D0185B016C01B701C8010E9498194A
:100F800020E030E044E352E40E94D0180E9433197C
:100F90000E94AC177B018C01B501C6010E94981913
:100FA0002B013C012B803C80BEEBCB2EBFEFDB2E18
:100FB0004701AA2497FCA094BA2CB601882777FD94
:100FC0008095982F0E94DF179B01AC01C301B201ED
:100FD0000E94D0187B018C01C501B4010E94DF176B
:100FE0009B01AC01C801B7010E947B1620E030E0F4
:100FF00044E352E40E947B1620E030E040E85FE3E7
:101000000E947A160E94AC17F101619371931F013F
:101010002CE030E0C20ED31E3EE4C316D10469F6C4
:10102000CC24DD24AEEE8A2EAFEF9A2EBA80BA948D
:10103000EB81FC81EC0DFD1D0190F081E02D1E1671
:101040001F06B4F5EA35F1059CF5CF0101976EEE68
:101050007FEF0E94F9198B010B5F1F4FEB55F0409A
:10106000089DC001099D900D189D900D11249F01B0
:10107000281B390BC90162E070E00E94F91988272A
:1010800077FD8095982F0E94DF170E9433190E94E8
:10109000AC177B01672B19F4F1E0EF2EF12C6B2DCF
:1010A000600F89810E943D128E2D8B5F0E948412F9
:1010B00082E090E0C80ED91E99819F5F9983E8E194
:1010C000CE16D10409F0B4CF2D813E810FB6F8942D
:1010D0003EBF0FBE2DBF26960FB6F894DEBF0FBEE3
:1010E000CDBFCF91DF911F910F91FF90EF90DF90D7
:1010F000CF90BF90AF909F908F907F906F905F90B8
:101100004F903F902F9008952F923F924F925F9271
:101110006F927F928F929F92AF92BF92CF92DF9207
:10112000FF920F931F93CF93DF930E945D03209153
:10113000990230919A0240919B0250919C02621B4D
:10114000730B840B950B605D77408040904008F0F6
:10115000A2C28091A002843029F40E94A31285E0EB
:101160008093A0028091A002843008F4B9C224E6E2
:10117000A22E20E0B22ECC24DD2495E6492E91E06B
:10118000592E8DE6282E81E0382E0BE9802E01E0C5
:10119000902E11EB612E11E0712E1C2D80916000BC
:1011A00090916100A0916200B09163000C2C04C08A
:1011B000B695A795979587950A94D2F780FF5EC25A
:1011C000D5018C9111966C910E94D1110E946212EE
:1011D000EC2DF0E0E831F10508F04CC2E65DFF4F80
:1011E000EE0FFF1F0590F491E02D099418ECFF24F9
:1011F00008C284ED91E0E9C02091850200D000D0C2
:101200008EEC91E0CDB7DEB79A838983332727FD33
:1012100030953C832B836BC12091860200D000D097
:1012200088EC91E0EDB7FEB792838183332727FDE9
:101230003095348323835BC120915C0230915D0241
:1012400040915E0250915F0200D000D000D08FEB41
:1012500091E00DC0209162023091630240916402DE
:101260005091650200D000D000D086EB91E0ADB780
:10127000BEB712969C938E931197CDB7DEB72B8392
:101280003C834D835E8316C18091710200D000D0F3
:10129000EDB7FEB73196ADB7BEB712967C926E929F
:1012A0001197CFC080917202823020F0843008F014
:1012B000E1C103C08EEA91E088C08BEA91E085C06D
:1012C0008091690290916A02A0916B02B0916C02C8
:1012D00020916D0230916E0240916F025091700228
:1012E000CDB7DEB72A970FB6F894DEBF0FBECDBFDD
:1012F000EDB7FEB731969A82898282839383A48365
:10130000B58326833783408751870E94D611EDB776
:10131000FEB73A96D4C0609188027091890280919C
:101320008A0290918B0220E030E040E152E40E947A
:10133000D01820E030E044EB53E40E9444170E94B0
:1013400033190E94AC179B012550304037FF03C072
:101350009B01215E3F4FA2EAB2E0F901EB54FF4F3F
:1013600080818C932F5F3F4F2432310514F020E0B1
:1013700030E01196F2E0AD3ABF0779F700D000D027
:10138000E8E8F1E0CDB7DEB7FA83E9831B97BC83C9
:10139000AB83ADC08091880290918902A0918A02AE
:1013A000B0918B0200D000D000D0E1E8F1E07AC02B
:1013B00080919802882339F08EE791E00E9495127F
:1013C0001092980259C18BE791E00E94951254C186
:1013D00080917302813009F04FC160918002709159
:1013E0008102809182029091830200D000D000D0CF
:1013F0000DB71EB70F5F1F4FC3E7D1E0ADB7BEB744
:101400001296DC93CE9311970E94DF17F801628346
:101410007383848395832DC080917302813009F09A
:101420002BC10E94160728C18091970200D000D0DE
:10143000EDB7FEB73196ADB7BEB712963C922E927D
:1014400011978283138253C080918C0290918D02F8
:10145000A0918E02B0918F0200D000D000D0CDB705
:10146000DEB75A824982EDB7FEB783839483A583A2
:10147000B6830E94D6112DB73EB72A5F3F4F0FB6F5
:10148000F8943EBF0FBE2DBFF7C08091900290919F
:101490009102A0919202B091930200D000D000D0AE
:1014A000EDE5F1E0CDB7DEB7FA83E9838B839C836A
:1014B000AD83BE830E94D611EDB7FEB736960FB648
:1014C000F894FEBF0FBEEDBFD7C0809194029091FB
:1014D000950200D000D0C7E5D1E0ADB7BEB71296F7
:1014E000DC93CE93119714969C938E9313970E943E
:1014F000D6110F900F900F900F90BEC020919D02BB
:101500008091680280916602909167022230D1F545
:101510008530910509F46CC08630910578F48230ED
:10152000910509F18230910508F4D1C0833091050D
:1015300009F458C0049709F09DC018C0883091057F
:10154000C1F08930910540F48630910509F44DC011
:10155000079709F08FC03AC08930910569F00A9762
:1015600009F088C00CC0C3EED1E0B3C0CDEED1E02D
:10157000B0C0C1E0D2E0ADC0C6E0D2E0AAC0CBE0CE
:10158000D2E0A7C0213009F077C08530910521F164
:101590008630910550F481309105C1F0813091057C
:1015A000C0F0029709F066C092C08A309105D1F070
:1015B0008B30910520F4069709F05CC010C08B3089
:1015C000910599F00C9709F055C012C0CCEFD1E00D
:1015D00080C0C0E1D2E07DC0C5E1D2E07AC0CAE1FE
:1015E000D2E077C0C8EED1E074C0C7EFD1E071C0DF
:1015F000C2EFD1E06EC0E2E0FE1611F418ED01C0BA
:1016000018EC812F0E94841200E080E20E94841274
:101610000F5F0C30D1F7812F8F5F0E9484128CE70F
:101620000E948412F394F5E0FF1629F70E945512E8
:10163000809190008F5F609191000E942A071EC0E8
:1016400080919602843051F000D0CEE4D1E0ADB765
:10165000BEB71296DC93CE93119707C000D025E455
:1016600031E0EDB7FEB7328321830E94D6110F908F
:101670000F9002C0163111F00E9455120894C11C3F
:10168000D11C62E070E0A60EB71E78E1C716D10447
:1016900009F083CD25C08091A002813009F18091AD
:1016A000A002882319F081E08093A0020E94A31277
:1016B0000E94CC0685E06AE00E94D1110E9462126D
:1016C00083E291E00E9495120E94551209C0CEED6E
:1016D000D1E080EE0E948412CE010E949512CACF02
:1016E000DF91CF911F910F91FF90DF90CF90BF902E
:1016F000AF909F908F907F906F905F904F903F90B2
:101700002F90089582E50E9435040E94A3120E9442
:10171000CC0686E069E00E94D1110E94621280E44A
:1017200092E00E9495120E945512FFCF0F931F93D3
:10173000CF93DF9383E70E9435048FE40E94350442
:10174000C0E6D0E000E005C01991812F0E94350469
:10175000010F80E0CF3AD807B9F7802F0E943504F7
:10176000DF91CF911F910F910895892B19F4862F46
:101770000E94350408952F923F924F925F926F928C
:101780007F928F929F92AF92BF92CF92DF92EF9211
:10179000FF920F931F93DF93CF93CDB7DEB762977E
:1017A0000FB6F894DEBF0FBECDBFE5EEEE2EE1E042
:1017B000FE2E79EDC72E71E0D72E67E0262E312C54
:1017C0002C0E3D1E53E1452E512C4C0E5D1E4DE05E
:1017D000A42EB12CAC0EBD1E3E010894611C711CE0
:1017E00033E0832E912C8C0E9D1E20919E02309111
:1017F0009F02F7014081F6018081918198878F8354
:1018000029873A874B87F1E0FC878EEF8D8796E03A
:101810009E87909149039F878091AF00888B80912C
:10182000B000898BE2E4EA8B9F5F909349038FEFCE
:101830009FEF9E838D838E01025F1F4F08C0F801CA
:1018400081918F01BE016B5F7F4F0E946A04041576
:101850001505A9F78D819E819A838983810106C030
:10186000F80181918F01B3010E946A040A151B05DA
:10187000B9F784E9B3010E946A0489819A818B8354
:101880009C83850180E090E0F80161918F010E94C6
:10189000B50B04151505B1F7810180E090E0F80162
:1018A00061918F010E94B50B0A151B05B1F780E00D
:1018B00090E0F40160810E94B50B80E090E0F401BB
:1018C00061810E94B50B0894E11CF11C82E090E05C
:1018D000C80ED91E9BEEE91691E0F90609F085CFF6
:1018E00062960FB6F894DEBF0FBECDBFCF91DF91E9
:1018F0001F910F91FF90EF90DF90CF90BF90AF902E
:101900009F908F907F906F905F904F903F902F901F
:101910000895FF920F931F9381E60E9435040E9461
:101920002404A8950E9453048C01892F990F990BC8
:10193000F82E0E943504802F0E9435048F2D800FD1
:101940000E9435041F910F91FF900895CF92DF926E
:10195000FF920F931F93DF93CF93CDB7DEB7CF5492
:10196000D0400FB6F894DEBF0FBECDBF83E50E9416
:1019700035040E942404A8958F3479F5FF248E0144
:101980000F5F1F4FA0E5CA2ED12CCC0EDD1E0E948A
:101990002404F80181938F01F80EA895EC15FD053C
:1019A000B1F70E942404A8958F15B9F4A0E6B0E021
:1019B000FE0131968FE401900D928150E1F7A895D8
:1019C00080E690E062E070E04FE450E00E948B1A05
:1019D000A8950E94A31281E201C080E40E94350410
:1019E000C15BDF4F0FB6F894DEBF0FBECDBFCF9106
:1019F000DF911F910F91FF90DF90CF9008958F920C
:101A00009F92AF92BF92DF92EF92FF920F931F933C
:101A1000DF93CF93CDB7DEB7C054D0400FB6F89464
:101A2000DEBF0FBECDBF86E40E943504EE24FF2446
:101A30005E010894A11CB11CB7E38B2E912C8C0E77
:101A40009D1E2CC0A8950E9447048823D9F30E94AC
:101A50000704F80181938F01D80EE815F90599F76D
:101A600001C0A8950E9447048823D9F30E94070467
:101A7000D81681F4C701B5010E94E51181E20E94E8
:101A800035040894E11CF11CF0E0EF16F1E0FF06CC
:101A900029F407C080E40E94350403C08501DD24D9
:101AA000D2CF0E94A312C05CDF4F0FB6F894DEBF06
:101AB0000FBECDBFCF91DF911F910F91FF90EF909F
:101AC000DF90BF90AF909F908F9008957F928F92FC
:101AD0009F92AF92BF92CF92DF92EF92FF920F93BD
:101AE0001F93DF93CF9300D000D0CDB7DEB793E044
:101AF000A92EB12CAC0EBD1E7E010894E11CF11C78
:101B000084E6C82ED12C8824839402E0702E14E041
:101B1000912E77C10E940704682F8091A00288232C
:101B200071F56A3019F06D3039F429C08091A10245
:101B30008F5F8093A10223C08091A1028330E8F0DF
:101B4000633579F0643528F4663441F06235A9F4E0
:101B50000EC0613679F0633781F406C00E94FF0C35
:101B600050C10E94A60C4DC10E94960B4AC10E9412
:101B7000820B47C10E94890C44C11092A10280E0EF
:101B8000A70195010E948A04882309F436C1A9811E
:101B9000BA8117968C911797883109F472C08931F0
:101BA00030F4882359F0813009F027C141C08E31CB
:101BB00009F4F3C08A3409F020C199C080929802D8
:101BC00015968C91159780939E0216968C91169778
:101BD00080939F02FD013896848180939D02189620
:101BE0008D919C9119979093670280936602109251
:101BF00068028681881F8827881F8D5F80939602E0
:101C00000E945D039B01AC012093990230939A02DC
:101C100040939B0250939C028091A002882329F05C
:101C20008091A002813009F0E8C07092A002E5C066
:101C30008D01085F1F4FF8016685778580E090E091
:101C40000E94DD1720E030E04AE754E40E94441788
:101C500060935C0270935D0280935E0290935F02DA
:101C6000F801868D992787FD909590936102809366
:101C700060028091A002833009F0BFC09092A00260
:101C8000BCC08D01085F1F4FF8016085718582859A
:101C9000938520E836E948E950E00E940C1ACA0111
:101CA000B9010E94DF176093690270936A02809302
:101CB0006B0290936C02F801648575858685978523
:101CC00020E836E948E950E00E940C1ACA01B9013F
:101CD0000E94DF1760936D0270936E0280936F0213
:101CE00090937002F801848D8093720286C08D01FA
:101CF000085F1F4FF80184819581A681B781809389
:101D0000900290939102A0939202B0939302608903
:101D10007189882777FD8095982F0E94DF1760933F
:101D200088027093890280938A0290938B02F80153
:101D30008289938990939502809394028091940272
:101D4000909195028536910558F08091940290917A
:101D500095028639910520F4D0929502C0929402A2
:101D600080919402909195028091940290919502B5
:101D70008739910520F01092950210929402F80193
:101D800080859185A285B38580938C0290938D0286
:101D9000A0938E02B0938F0230C08D01085F1F4F59
:101DA000F801608571858285938521EE3EE245E6E6
:101DB00052E40E94D0180E94AC1760938502F8018B
:101DC000648175818681978121EE3EE245E652E489
:101DD0000E94D0180E94AC1760938602F8016485B7
:101DE00075858685978521EE3EE245E652E40E94A0
:101DF000D0180E94AC17609387028AE890E00E9496
:101E000095030E944704882309F084CE0F900F9019
:101E10000F900F90CF91DF911F910F91FF90EF9056
:101E2000DF90CF90BF90AF909F908F907F9008955C
:101E30002F923F924F925F926F927F928F929F92DA
:101E4000AF92BF92CF92DF92EF92FF920F931F93C8
:101E5000DF93CF9300D000D0CDB7DEB7A8958091A7
:101E6000A002823059F50E94A3120E94CC0683E0A2
:101E70006AE00E94D1110E94621282EF90E00E94FB
:101E800095120E9455120E94BB0B62E370E080E045
:101E900090E00E946B030E94BB0B62E370E080E065
:101EA00090E00E946B030E94BB0B62E370E080E055
:101EB00090E00E946B0383E08093A0020E94660D75
:101EC0000E945D0369837A838B839C838091AE0239
:101ED0009091AF02A091B002B091B10229813A81F4
:101EE0004B815C81281B390B4A0B5B0B2937310571
:101EF0004105510508F4B2CF80917302882309F09F
:101F0000B2C180917202823008F4ADC18091690241
:101F100090916A02A0916B02B0916C02809374025E
:101F200090937502A0937602B093770280916D0230
:101F300090916E02A0916F02B0917002809378022E
:101F400090937902A0937A02B0937B0280918C02E5
:101F500090918D02A0918E02B0918F0280937C02AD
:101F600090937D02A0937E02B0937F0231E0309384
:101F7000730208C1609174027091750280917602BB
:101F8000909177029F7725E33AEF4EE85CE30E9459
:101F9000D0180E9441171B012C01609174027091AE
:101FA00075028091760290917702209169023091BA
:101FB0006A0240916B0250916C020E947A169F77E0
:101FC00020EC3BE649ED57E40E94D0185B016C0120
:101FD000609178027091790280917A0290917B02EF
:101FE00020916D0230916E0240916F02509170020B
:101FF0000E947A169F7720EC3BE649ED57E40E9459
:10200000D018A20191010E94D0187B018C01C60159
:10201000B501A60195010E94D0185B016C01C801B1
:10202000B701A80197010E94D0189B01AC01C6011D
:10203000B5010E947B160E9457190E94AC1760934D
:102040008002709381028093820290938302A09019
:102050007802B0907902C0907A02D0907B026090B2
:102060006D0270906E0280906F029090700260918D
:10207000740270917502809176029091770220919E
:10208000690230916A0240916B0250916C020E9489
:102090007A167B018C0160E070E080E89FE3A2018A
:1020A00091010E9444179B01AC01C801B7010E9435
:1020B000D0187B018C01C601B501A40193010E94D7
:1020C0007A169B01AC015058C801B7010E94EE1668
:1020D00020EE3EE245E652E40E94D01820E030E0D7
:1020E00044EB52E40E947B160E94AC179B01AC01AA
:1020F00097FF04C028593E4F4F4F5F4FCA01B901A7
:10210000645B70408040904097FF06C0CA01B901EF
:102110006C547F4F8F4F9F4FE0908802F090890260
:1021200000918A0210918B020E94DF17A80197018B
:102130000E947A160E94AC1797FF04C068597E4F20
:102140008F4F9F4F0E94DF1720E030E044EB53E4B5
:102150000E94441720E030E040E851E40E94D0188B
:102160000E94331920E030E040E85FE30E947B16D4
:102170000E94B1176093840280918402813110F033
:10218000109284028091600090916100A0916200A1
:10219000B0916300B0FF0CC084E990E00E94AC06EF
:1021A00060935C0270935D0280935E0290935F0285
:1021B0008091600090916100A0916200B0916300F5
:1021C000B1FF0CC08DE990E00E94AC066093620202
:1021D0007093630280936402909365028091600023
:1021E00090916100A0916200B0916300B4FF08C0BB
:1021F00086EA90E00E94AC060E94B11760939702B5
:102200008091600090916100A0916200B0916300A4
:10221000B5FF1AC060918C0270918D0280918E0280
:1022200090918F0220917402309175024091760254
:10223000509177020E947A1660938C0270938D02FF
:1022400080938E0290938F020E94840889819A81E4
:10225000AB81BC818093AE029093AF02A093B00299
:10226000B093B102FBCD80917302813009F08ACF27
:1022700081CE80E090E00E94831A8F3431F481E0B7
:1022800090E00E94831A8330B9F186E069E00E94F1
:10229000D1110E94621280E692E00E9495120E9483
:1022A000551264EF71E080E090E00E946B0380E0E3
:1022B00090E06FE40E94951A81E090E063E00E9454
:1022C000951A80E690E062E070E04FE450E00E94F2
:1022D0008B1A86E069E00E94D1110E9462128DE49F
:1022E00092E00E9495120E94551264EF71E080E026
:1022F00090E00E946B0308C080E690E062E070E02E
:102300004FE450E00E94731A80915103882399F49E
:1023100080915003482F50E0E5E6F0E02081822FC5
:1023200090E08417950714F023502083329680E0C4
:10233000E539F80799F70895F89482E081BB83E0C6
:1023400083BF89B7816089BF81E290E80E94F20370
:1023500080EB87BB81E58DB917B887E886B978949B
:102360000E94C5120E94CC060E9439110E94D90613
:1023700064EF71E080E090E00E946B030E94A31282
:102380002FE088E190E00FB6F894A89581BD0FBECC
:1023900021BD08950E949C110E94180F80E090E0DA
:1023A000089580934F0360934E030895DF93CF9376
:1023B000CDB7DEB7FE0135966191719181E0AF0135
:1023C0000E94F512CF91DF910895EF92FF921F9333
:1023D000CF93DF93182F7B01C39880E00E941003F6
:1023E00080E00E94100389E00E941003812F0E9468
:1023F0001003C0E0D0E0F701EC0FFD1F10818AE070
:102400000E9410038C2F0E9410038BE00E94100387
:10241000812F0E9410032196C633D10561F788E011
:102420000E94100380EA0E94100380EA0E941003B9
:1024300085FDFBCF80E00E9410038CE00E9410031A
:10244000C39ADF91CF911F91FF90EF9008951F9352
:10245000182FC39880E00E941003112319F0113047
:1024600049F403C08091510303C0809151038C61F2
:102470000E941003C39A1F9108950F931F939EE12A
:10248000699F80011124080F111DC39885E00E94E7
:102490001003812F0E94100386E00E941003802FFA
:1024A0000E9410031F910F91089587E00E9410036E
:1024B0008FEF0E941003C39A80914E038F5F809329
:1024C0004E0308950F931F9300914E038EE1089FD2
:1024D0008001112480914F03080F111DC39884E0DF
:1024E0000E94100383E00E94100385E00E94100305
:1024F000812F0E94100386E00E941003802F0E940B
:1025000010031F910F9108951F93182F8C3729F4F2
:102510000E9455120E94621206C087E00E941003BA
:10252000812F0E9410031F910895CF93DF93EC0138
:1025300002C00E948412FE01219684918823C9F76B
:10254000DF91CF910895C39884E00E94100384E046
:102550000E941003C39A0895C39880EA0E94100352
:102560008FEF0E94100381FD03C080E490E002C061
:1025700080E090E080935103892B11F088E001C046
:1025800086E080935003C39A08951F93BB9A0E94DC
:10259000AC12C3988CEE0E9410038FEF0E941003C0
:1025A000182F80E00E9410038091510382600E94E6
:1025B000100362E370E080E090E00E946B038CE621
:1025C0000E941003812F8F7E0E94100310E1812F43
:1025D0000E94100380E00E9410031F5F1C31B9F7B6
:1025E00081E00E9427121F9108952F923F924F92EF
:1025F0005F926F927F928F929F92AF92BF92CF9293
:10260000DF92EF92FF920F931F93DF93CF93CDB79B
:10261000DEB760970FB6F894DEBF0FBECDBF8C87D4
:102620007E876D875A019E012F5F3F4F388B2F8722
:10263000ED85FE852C8520FD859120FF8191FE870B
:10264000ED87882309F43DC3853249F420FD859147
:1026500020FF8191FE87ED87853251F406C08A30D4
:1026600021F48DE00E9484128AE00E948412E0CF5F
:10267000982FFF24882499243FE13F15D0F09B3206
:1026800069F09C3228F4903259F0933291F40EC0E4
:102690009D3249F0903369F441E026C052E0F52ABA
:1026A00084E0F82A2AC098E0F92A27C0E0E1FE2A4F
:1026B00024C0F7FC2EC0892F80538A3080F4F6FEA8
:1026C00006C0FAE09F9E902C1124980E16C02AE0B6
:1026D000829E802C1124880E30E2F32A0EC09E3296
:1026E00029F4F6FCEEC240E4F42A07C09C3619F443
:1026F00050E8F52A02C0983661F4ED85FE852C85F8
:1027000020FD959120FF9191FE87ED87992309F097
:10271000B3CF892F8554833020F48F2D8061905E54
:1027200007C0892F8556833008F087C18F2D8F7E93
:1027300086FD02C076E0972E182F1F73953611F490
:10274000106406C0963611F4106802C091109A9475
:1027500017FF0BC03BE3391520F427E06CE3762E1E
:102760000EC0792C739427E00AC047E0491528F47D
:1027700027E0772457E0952E02C0292D772444E0E6
:10278000242E312C2A0C3B1CF50160817181828141
:102790009381AE014F5F5F4F072D0E94DA016C01FC
:1027A000B9804B2C5524B0FE04C0B3FC02C00DE22E
:1027B00009C011FF02C00BE205C012FD02C000E01B
:1027C00001C000E2C2018C709070892BA9F1002336
:1027D00011F483E001C084E0881510F0882408C05B
:1027E000881A13FD05C080E20E9484128A94D9F7EA
:1027F000002319F0802F0E94841243FE05C033E7A6
:10280000E32E32E0F32E0FC027E7E22E22E0F22E75
:102810000AC00115110509F080520E948412089423
:10282000E11CF11C04C0012F10E000711070F701D1
:102830008491882371F7FFC017FF12C07C0C44FEFF
:1028400004C08A81813309F47A9417141CF0772428
:1028500073942CC0F8E0F71548F598E0792E26C05F
:1028600016FD24C0892D90E08C159D0544F02CEFB9
:10287000C2162FEFD2061CF0106801C09A9499205E
:1028800049F0E2E0F0E0EC0FFD1FE90DF11D808161
:102890008033A1F317FF0AC0792C7394892D90E03F
:1028A000C816D90614F0992401C09C1817FD03C05E
:1028B00025E030E009C01C141D041CF021E030E0CC
:1028C00003C096012F5F3F4F002311F02F5F3F4F52
:1028D000992029F0892D90E00196280F391F882D25
:1028E00090E02817390714F0882401C0821AE12EDD
:1028F000FF24C70189709070892B29F006C080E2FF
:102900000E9484128A948820D1F7002319F0802F26
:102910000E948412E3FE05C006C080E30E94841278
:102920008A948820D1F717FF45C08601D7FE02C0E0
:1029300000E010E076010894E11CF11CE01AF10AB5
:1029400041E050E04C0F5D1FE40EF51EC6018719F3
:1029500091093C01892D90E0AA24BB24A81AB90A48
:102960009FEF0F3F190719F48EE20E948412C016E0
:10297000D10634F0601671061CF4F701808101C0A5
:1029800080E3015010400894E11CF11C0A151B055E
:102990001CF00E948412E4CF0C151D0509F049C0FB
:1029A0009A81963328F4953309F043C044FC41C022
:1029B00081E33FC08A81813311F0FFEEBF220E9484
:1029C0008412992081F08EE20E94841212E0E1E0EC
:1029D000F0E0EC0FFD1FE10FF11D1F5F80810E94F1
:1029E00084129A94A1F7E4FC02C085E601C085E454
:1029F0000E948412D7FC05C0C114D10441F4B4FE76
:102A000006C0D094C194D108D3948DE201C08BE26A
:102A10000E94841280E305C08F5F26EF3FEFC20E55
:102A2000D31E3AE0C316D104BCF70E9484128C2D49
:102A3000805D0E948412510141C1933631F0933779
:102A400091F0933509F055C023C0F5018081898349
:102A50006E010894C11CD11C22E030E0A20EB31E0E
:102A600001E010E012C0F501C080D180F6FC03C087
:102A70006FEF7FEF02C0692D70E022E030E0A20E20
:102A8000B31EC6010E94681A8C013FE7F32214C0EE
:102A9000F501C080D180F6FC03C06FEF7FEF02C06C
:102AA000692D70E022E030E0A20EB31EC6010E9444
:102AB0005D1A8C0130E8F32AF3FE05C016C080E2EF
:102AC0000E9484128A94882D90E008171907B8F3A1
:102AD0000CC0F601F7FC8591F7FE81916F010E9411
:102AE000841281108A94015010400115110589F754
:102AF000E5C0943611F0993681F5F7FE08C0F5016E
:102B0000208131814281538184E090E00AC0F50147
:102B1000808191819C01442737FD4095542F82E0AC
:102B200090E0A80EB91E9FE6F92257FF09C0509504
:102B30004095309521953F4F4F4F5F4FE0E8FE2A7B
:102B4000CA01B901AE014F5F5F4F2AE030E00E9439
:102B5000B202E82EFF85EF1A43C0953729F41F2DE6
:102B60001F7E2AE030E01DC01F2D197F9F3661F0C7
:102B7000903720F4983509F0A4C00FC0903739F091
:102B8000983709F09EC004C028E030E00AC0106108
:102B900014FD146020E130E004C014FD166020E153
:102BA00032E017FF08C0F501608171818281938155
:102BB00044E050E008C0F50180819181BC0180E0D3
:102BC00090E042E050E0A40EB51EAE014F5F5F4FB3
:102BD0000E94B202E82E5F85E51A8FE7F82EF122F7
:102BE000F6FE0BC08EEFF822E91438F4F4FE07C0AD
:102BF000F2FC05C09FEEF92202C01E2D01C0192D66
:102C0000F4FE0DC0FE01EE0DF11D8081803319F43C
:102C1000E9EEFE2208C01F5FF2FE05C003C08F2D43
:102C2000867809F01F5F0F2DF3FC12C0F0FE0DC077
:102C3000181510F09E2C09C09E2C980C911A182D76
:102C400004C080E20E9484121F5F1815D0F304C0F4
:102C5000181510F4811A01C0882404FF0BC080E30A
:102C60000E94841202FF17C001FD02C088E70CC059
:102C700088E50AC0802F867871F001FF02C08BE2E0
:102C800001C080E2F7FC8DE20E94841204C080E360
:102C90000E9484129A94E914D0F3EA94E1E0F0E0FF
:102CA000EC0FFD1FEE0DF11D80810E948412EE20BD
:102CB000A1F704C080E20E9484128A948820D1F790
:102CC000B7CC60960FB6F894DEBF0FBECDBFCF91E4
:102CD000DF911F910F91FF90EF90DF90CF90BF9009
:102CE000AF909F908F907F906F905F904F903F90AC
:102CF0002F9008955058BB27AA270ED0FFC1C8D1E6
:102D000030F0CDD120F031F49F3F11F41EF498C182
:102D10000EF4E095E7FB8EC1E92F12D280F3BA17CB
:102D2000620773078407950718F071F49EF52AC2AD
:102D30000EF4E0950B2EBA2FA02D0B01B9019001D6
:102D40000C01CA01A0011124FF27591B99F0593F1A
:102D500050F4503E68F11A16F040A22F232F342F62
:102D60004427585FF3CF469537952795A795F040B0
:102D70005395C9F77EF41F16BA0B620B730B840BC5
:102D8000BAF09150A1F0FF0FBB1F661F771F881F7D
:102D9000C2F70EC0BA0F621F731F841F48F48795D5
:102DA00077956795B795F7959E3F08F0B3CF9395C4
:102DB000880F08F09927EE0F97958795089568D1A9
:102DC00058F080E891E009F49EEF69D128F040E8DE
:102DD00051E059F45EEF09C033C1D4C1E92FE07866
:102DE000AFD168F3092E052AC1F326173707480724
:102DF000590738F00E2E07F8E02569F0E025E06469
:102E00000AC0EF6307F8009407FADB01B9019D01DE
:102E1000DC01CA01AD01EF9346D070D10AD05F91B9
:102E2000552331F02BED3FE049E450FD49EC63CFF1
:102E30000895DF93DD27B92FBF7740E85FE31616CB
:102E4000170648075B0710F4D92FA3D19F938F93E0
:102E50007F936F936AD2E4E8F0E0F5D04FD12F91E1
:102E60003F914F915F91A8D1DD2349F09058A2EA9C
:102E70002AED3FE049EC5FE3D0785D274DDFDF913D
:102E80003DC115D1E3954BC10CD038C108D140F0FC
:102E9000FFD030F021F45F3F19F0CCC0511173C165
:102EA000CFC04ED198F39923C9F35523B1F3951BA5
:102EB000550BBB27AA2762177307840738F09F5F5B
:102EC0005F4F220F331F441FAA1FA9F333D00E2ECA
:102ED0003AF0E0E830D091505040E695001CCAF737
:102EE00029D0FE2F27D0660F771F881FBB1F2617FC
:102EF00037074807AB07B0E809F0BB0B802DBF01CF
:102F0000FF2793585F4F2AF09E3F510568F092C00B
:102F10003AC15F3FECF3983EDCF386957795679571
:102F2000B795F7959F5FC9F7880F911D969587957F
:102F300097F90895E1E0660F771F881FBB1F62179E
:102F400073078407BA0720F0621B730B840BBA0B5C
:102F5000EE1F88F7E095089504D06894B11113C16D
:102F60000895F6D088F09F5790F0B92F9927B75160
:102F7000A0F0D1F0660F771F881F991F1AF0BA953D
:102F8000C9F712C0B13081F0FDD0B1E00895FAC0A8
:102F9000672F782F8827B85F39F0B93FCCF3869533
:102FA00077956795B395D9F73EF490958095709590
:102FB00061957F4F8F4F9F4F0895E89409C097FB0D
:102FC0003EF490958095709561957F4F8F4F9F4F00
:102FD0009923A9F0F92F96E9BB279395F695879544
:102FE00077956795B795F111F8CFFAF4BB0F11F407
:102FF00060FF1BC06F5F7F4F8F4F9F4F16C08823AE
:1030000011F096E911C0772321F09EE8872F762FE3
:1030100005C0662371F096E8862F70E060E02AF024
:103020009A95660F771F881FDAF7880F9695879510
:1030300097F9089597F99F6780E870E060E0089538
:103040009FEF80EC0895DF93CF931F930F93FF9230
:10305000EF92DF927B018C01689405C0DA2EEF01BC
:10306000ABD0FE01E894A5912591359145915591FC
:10307000AEF3EF0151DEFE019701A801DA9479F772
:10308000DF90EF90FF900F911F91CF91DF91089506
:1030900000240A9416161706180609060895002437
:1030A0000A9412161306140605060895C9CF50D0C7
:1030B000E8F3E894E0E0BB279F57F0F02AED3FE00B
:1030C00049EC06C0EE0FBB0F661F771F881F28F064
:1030D000B23A62077307840728F0B25A620B730B87
:1030E000840BE3959A9572F7803830F49A95BB0F6C
:1030F000661F771F881FD2F7904857C1092E039487
:10310000000C11F4882352F0BB0F40F4BF2B11F4D4
:1031100060FF04C06F5F7F4F8F4F9F4F0895EF9305
:10312000E0FF06C0A2EA2AED3FE049EC5FEBF4DDE8
:10313000E5DF0F90039401FC9058E1EBF0E048C10B
:1031400057FD9058440F551F59F05F3F71F0479558
:10315000880F97FB991F61F09F3F79F0879508953D
:10316000121613061406551FF2CF4695F1DF08C05C
:10317000161617061806991FF1CF86957105610579
:1031800008940895E894BB2766277727CB0197F921
:1031900008959B01AC0160E070E080E89FE374CE8D
:1031A0000BD0ACCF75DF28F07ADF18F0952309F04B
:1031B00041CF46CF1124E7CFC3DFA0F3959FD1F3D2
:1031C000950F50E0551F629FF001729FBB27F00DD5
:1031D000B11D639FAA27F00DB11DAA1F649F66272A
:1031E000B00DA11D661F829F2227B00DA11D621F79
:1031F000739FB00DA11D621F839FA00D611D221F33
:10320000749F3327A00D611D231F849F600D211D16
:10321000822F762F6A2F11249F5750408AF0E1F0B9
:1032200088234AF0EE0FFF1FBB1F661F771F881F02
:1032300091505040A9F79E3F510570F0FBCEA3CFAF
:103240005F3FECF3983EDCF3869577956795B795ED
:10325000F795E7959F5FC1F7FE2B880F911D969517
:10326000879597F9089574DFE0F09E37D8F0963986
:10327000B8F49E3848F4672F782F8827985FF9CFE5
:1032800086957795679593959539D0F3B62FB1705C
:103290006B0F711D811D20F4879577956795939528
:1032A00067C081C070CF11F40EF4CACE7CC050DF6D
:1032B000D0F39923D9F3CEF39F57550B87FF81D0D5
:1032C0000024A0E640EA900180585695979528F48E
:1032D000805C660F771F881F20F026173707480786
:1032E00030F4621B730B840B202931294A2BA695DD
:1032F00017940794202531254A2758F7660F771F22
:10330000881F20F026173707480730F4620B730B2D
:10331000840B200D311D411DA09581F7B901842F2B
:103320009158880F9695879508959B01AC0138CFE9
:10333000DF93D92FBCDEE695D7952AED3FE049E42F
:103340005FE3B33A6207730784079507D7952AF0BE
:10335000A2EA49EC9068E0DCD1DEEFECF0E038D096
:10336000DD0F0BF016DFDD0F0BF49058DF910895A1
:10337000882371F4772321F09850872B762F07C08C
:10338000662311F499270DC09051862B70E060E000
:103390002AF09A95660F771F881FDAF7880F96959F
:1033A000879597F908959F3F31F0915020F48795C4
:1033B00077956795B795880F911D9695879597F99D
:1033C000089591505040660F771F881FD2F70895D7
:1033D0009F938F937F936F93FF93EF939B01AC0128
:1033E000DFDEEF91FF912FDE2F913F914F915F91A3
:1033F000D7CE97FB092E07260AD077FD04D027D019
:1034000006D000201AF4709561957F4F0895F6F765
:10341000909581959F4F089597FB092E05260ED014
:1034200057FD04D028D00AD0001C38F450954095A0
:10343000309521953F4F4F4F5F4F0895F6F7909588
:103440008095709561957F4F8F4F9F4F0895AA1B70
:10345000BB1B51E107C0AA1FBB1FA617B70710F07F
:10346000A61BB70B881F991F5A95A9F780959095B1
:10347000BC01CD010895A1E21A2EAA1BBB1BFD01C0
:103480000DC0AA1FBB1FEE1FFF1FA217B307E40743
:10349000F50720F0A21BB30BE40BF50B661F771F9B
:1034A000881F991F1A9469F760957095809590957B
:1034B0009B01AC01BD01CF010895FC010590615055
:1034C00070400110D8F7809590958E0F9F1F08953A
:1034D000FC016150704001900110D8F780959095E3
:1034E0008E0F9F1F0895DC01CB01FC01E199FECFF7
:1034F00006C0FFBBEEBBE09A31960DB20D92415073
:103500005040B8F70895E199FECF9FBB8EBBE09A7B
:1035100099278DB30895DC01CB0103C02D910E9442
:10352000961A41505040D0F70895262FE199FECFCA
:103530009FBB8EBB2DBB0FB6F894E29AE19A0FBEEB
:0835400001960895F894FFCFF5
:10354800EE1FFC000D0716090B0115011503020DEE
:10355800050D020E100E180D02090E0302010000DF
:103568000000160515020202020202030204110DF0
:1035780008070B0400000000000000000000000025
:103588000000000000000000000000000000000C27
:103598000100000000C2C0C0C1C0C0C1C0C0C4C0DA
:1035A800C0C1C0C0C1C0C0C3C0C0C1C0C0C1C0C00C
:1035B800C5C0C0C1C0C0C1C0C0327C8900EDD968D7
:1035C80077000000590000000000000000D69FDCD2
:1035D800A81817AA90437327F6B968EDF4DED40942
:1035E800FEE61C1C84DDE80B992927D6DF8D210F08
:1035F800036418EFEE1EF0B7828200941500347C45
:103608000000001400988F00000000000000000077
:103618000000E7B73F3600000000000000AF669EDC
:10362800D03800000000000000000000000000008A
:103638000000000000000000000000000000000082
:1036480000000000000000000000000000000086EC
:10365800DBD0BC5416131586004E44BD7F2A1515C1
:103668000000000000000000000000000000000052
:103678000000000000000000000000000000000042
:103688000000000000000000000000000000000032
:103698000000000000000000000000000000000022
:1036A8000000000000000000000000000000000012
:1036B8000000CC31AA2C532E0002000200050002A3
:0C36C8000005000200010203060A0B00CE
:00000001FF
