:100000000C94BE010C94DB010C94DB010C94DB011D
:100010000C94DB010C94DB010C94DB010C94DB01F0
:100020000C94DB010C9418030C94DB010C94A603D4
:100030000C94D0030C94DB010C94DB010C94DB01D9
:100040000C94DB010C94DB010C94DB010C94DB01C0
:100050000C94DB01BA08BD08CD08DD08EB080509E2
:100060001609240956099509A509D709B509160BDA
:10007000160BDF09160B160BEF09100A300A490A96
:10008000B708FC0A084AD73B3BCE016E84BCBFFDD3
:10009000C12F3D6C74319ABD56833DDA3D00C77F58
:1000A00011BED9E4BB4C3E916BAAAABE00000080F1
:1000B0003F05A84CCDB2D44EB93836A9020C50B980
:1000C000918688083CA6AAAA2ABE000000803F06A6
:1000D00064EC1B3C04BC163E3BE5B93CC93C37C252
:1000E0009E5A3D660498083EEA69AAAA3E000000AE
:1000F000803F52657175657374696E6720446174E1
:100100006153747265616D732E2E2E00426F6F7491
:10011000696E672075703AEDF2F2F2F2F2F2F2F2E5
:10012000F2F30057616974696E6720666F727C4DE7
:1001300041564C696E6B20686561727462656174CA
:10014000732E2E2E00202020202020202000446905
:100150007361726D6564008725332E3069250086D2
:1001600025332E306688008525352E30668D00E1DA
:1001700025336925001F25352E30668D00EAEB00FA
:10018000EAEC0025342E3066B00020C0C0C0C0C0EC
:10019000C7C0C0C0C0C0207CD02573D1008325312A
:1001A000312E36667C842531312E366600112000D2
:1001B0001020000F2532690020E325352E32668E8F
:1001C0000020E225352E32668E00253469B0B2005B
:1001D000253469B0B100050304057C15131415001E
:1001E00073746162006163726F00616C74680061B6
:1001F00075746F006C6F6974007265746C0067755C
:100200006964006369726300706F7369006C616E8A
:1002100064006F666C6F0066627761006662776289
:10022000006D616E750020202020BABBBCBDBE7C75
:1002300020202020CACBCCCDCE7C41726475436196
:100240006D204F5344005265626F6F74696E672E64
:100250002E2E004F534420496E697469616C697A8F
:100260006564202020004D697373696E672F4F6CA1
:100270006420436F6E666967006E616E00696E662A
:100280000000407A10F35A00A0724E18090010A521
:10029000D4E80000E87648170000E40B54020000A0
:1002A000CA9A3B000000E1F5050000809698000026
:1002B0000040420F000000A086010000001027004F
:1002C000000000E803000000006400000000000AD5
:1002D00000000000000100000000002C76D888DC3F
:1002E000674F0823DFC1DFAE59E1B1B796E5E3E41C
:1002F00053C63AE651997696E8E6C28426EB898C95
:100300009B62ED407C6FFCEFBC9C9F40F2BAA56FF6
:10031000A5F490055A2AF75C936B6CF9676DC11BC5
:10032000FCE0E40D47FEF520E6B500D0ED902E038D
:1003300000943577050080841E080000204E0A00D6
:100340000000C80C333333330F986E12831141EF22
:100350008D2114893BE65516CFFEE6DB18D1844B80
:10036000381BF77C1D901DA4BBE424203284725EF0
:10037000228100C9F124ECA1E53D270011241FBE14
:10038000CFE5D4E0DEBFCDBF10E0A0E6B0E0E0E70F
:10039000F4E302C005900D92A23EB107D9F712E036
:1003A000A2EEB0E001C01D92AA34B107E1F70E94AD
:1003B0009B110C94361A0C940000283008F027E0AA
:1003C0003327DA01990F311D87FD91600096610591
:1003D000710539F432602E5F3D9330E32A95E1F7E1
:1003E00008959F3F30F080387105610509F03C5F4A
:1003F0003C5F3D93913008F08068911DDF93CF936F
:100400001F930F93FF92EF92192F987F9695E92FE4
:1004100096959695E90FFF27E552FD4F99273327CB
:10042000EE24FF24A701E70105900894079428F41F
:10043000360FE71EF81E491F511D660F771F881FD4
:10044000991F0694A1F70590079428F4E70EF81E6B
:10045000491F561FC11D770F881F991F661F0694DD
:10046000A1F70590079428F4F80E491F561FC71FDF
:10047000D11D880F991F661F771F0694A1F705905D
:10048000079420F4490F561FC71FD81F990F661FE6
:10049000771F881F0694A9F784911095177041F073
:1004A000D695C79557954795F794E7941A95C1F750
:1004B000E1E8F2E068941590159135916591959178
:1004C00005907FE27395E118F10A430B560BC90BB7
:1004D000D009C0F7E10CF11E431F561FC91FD01DE4
:1004E0007EF4703311F48A95E6CFE894015030F031
:1004F000080F0AF40027021708F4202F2395022F73
:100500007A3328F079E37D932A95E9F710C07D933B
:100510002A9589F6069497956795379517951794B8
:10052000E118F10A430B560BC90BD00998F023953B
:100530007E9173957A3308F070E37C932013B8F7BB
:100540007E9170617D9330F0839571E37D9370E3CC
:100550002A95E1F71124EF90FF900F911F91CF9111
:10056000DF91992787FD90950895FA01AA272830F1
:1005700051F1203181F1E8946F936E7F6E5F7F4F70
:100580008F4F9F4FAF4FB1E03ED0B4E03CD0670FEC
:10059000781F891F9A1FA11D680F791F8A1F911D3F
:1005A000A11D6A0F711D811D911DA11D20D009F48F
:1005B00068943F912AE0269F11243019305D3193D1
:1005C000DEF6CF010895462F4770405D4193B3E0BA
:1005D0000FD0C9F7F6CF462F4F70405D4A3318F061
:1005E000495D31FD4052419302D0A9F7EACFB4E012
:1005F000A6959795879577956795BA95C9F70097CA
:100600006105710508959B01AC010A2E069457956A
:10061000479537952795BA95C9F7620F731F841FC1
:10062000951FA01D08958FB9779BFECF8FB10895B8
:100630001F920F920FB60F9211242F933F938F9317
:100640009F93AF93BF938091E6009091E700A091B4
:10065000E800B091E9003091EA000196A11DB11DBA
:10066000232F2D5F2D3720F02D570196A11DB11D91
:100670002093EA008093E6009093E700A093E800BF
:10068000B093E9008091E2009091E300A091E40032
:10069000B091E5000196A11DB11D8093E2009093F9
:1006A000E300A093E400B093E500BF91AF919F9168
:1006B0008F913F912F910F900FBE0F901F90189523
:1006C0008FB7F8942091E6003091E7004091E80060
:1006D0005091E9008FBFB901CA010895EF92FF92CE
:1006E0000F931F937B018C018FB7F8944091E60024
:1006F0005091E7006091E8007091E9008FBF2FB73B
:10070000F8948091E6009091E700A091E800B09104
:10071000E9002FBF841B950BA60BB70BE816F90653
:100720000A071B0760F71F910F91FF90EF90089544
:10073000019759F0FC01EE0FFF1FEE0FFF1F3297DC
:100740008FB7F8943197F1F78FBF08951F920F92EA
:100750000FB60F9211242F938F939F93EF93FF93D4
:100760009BB12CB1E0914D01EF5FEF7380914E0191
:10077000E81711F482E008C0892F8871E0934D01D9
:10078000F0E0E55FFE4F208380934F01FF91EF91F2
:100790009F918F912F910F900FBE0F901F901895E2
:1007A0001F920F920FB60F9211248F939F93EF9386
:1007B000FF9390914B0180914C01981761F0E0916B
:1007C0004C01EF5FEF71E0934C01F0E0E551FF4F1A
:1007D00080818CB901C05598FF91EF919F918F91C5
:1007E0000F900FBE0F901F9018959C0110924B0117
:1007F00010924C0110924D0110924E0197FF03C0D0
:1008000082E08BB93F7730BD29B988E98AB986E89B
:1008100080BD089590914D0180914E01981719F473
:1008200020E031E012C0E0914E01EF5FEF73E09302
:100830004E01F0E0E55FFE4F308120914F01922F95
:1008400080E0AC01430F511D9A01C90108959091B8
:100850004D0180914E019817D1F3E0914E01EF5F69
:10086000EF73E0934E01F0E0E55FFE4F8081089565
:10087000282F90914B019F5F9F7180914C01981799
:10088000E1F3E92FF0E0E551FF4F208390934B0116
:10089000559A089580914D0190914E01891B8F7357
:1008A000089580914E0180934D01089597B1907EF7
:1008B000982B97B940E020E030E0369A349BFECF89
:1008C00084B195B1280F391F34984F5F4230A9F792
:1008D000309351012093500135952795C901089512
:1008E000FB0190819827292F2295207F292730E02E
:1008F000522F4427C90163E0880F991F6A95E1F7D9
:1009000048275927818190E04827592784E0359569
:1009100027958A95E1F7422753275183408308950D
:10092000AF92BF92DF92EF92FF920F931F93CF93FC
:10093000DF93D62E5901E82EFF249701220F331F93
:10094000F901EE0DFF1DEF01CC0FDD1FCC0FDD1FF8
:10095000C65CDD4F18828B819C818430910509F43F
:1009600065C08530910554F482309105B9F183302A
:1009700091050CF07CC09923C4F448C187309105DF
:1009800009F4B3C08830910544F48530910509F429
:1009900081C0069709F03AC190C08830910509F4EA
:1009A000D2C0099709F032C1F7C085E5681709F090
:1009B0002DC182E090E09C838B8380E990E0E89EEB
:1009C000F001E99EF00DF89EF00D1124E655FE4F62
:1009D00013828FEF9FEF9183808318C167FF10C050
:1009E00089818F5F8983EE0FFF1FEE0FFF1FE45C8D
:1009F000FD4F80818F5F8083188281E090E013C07B
:100A000080E990E0E89EF001E99EF00DF89EF00D7F
:100A10001124E655FE4F63831D82862FBF010E947D
:100A2000700484E090E09C838B83F0C084E290E0CB
:100A3000E89EF001E99EF00DF89EF00D1124EE0FF6
:100A4000FF1FEE0FFF1FE255FE4F608380E990E02D
:100A5000E89EB001E99E700DF89E700D1124665558
:100A60007E4F8D2D0E94700483E090E0DCCF80E902
:100A700090E0E89EF001E99EF00DF89EF00D112443
:100A8000E655FE4F6583862FBF010E94700485E006
:100A900090E0C9CF80E990E0E89EF001E99EF00D7A
:100AA000F89EF00D1124E655FE4F6683862FBF0198
:100AB0000E94700486E090E0B6CF80E990E0E89E66
:100AC0008001E99E100DF89E100D112406551E4F51
:100AD000F8016783862FB8010E947004F8018381B2
:100AE000882371F187E090E09ECF8D81F901B3E01A
:100AF000EE0FFF1FBA95E1F7E20FF31F3196A3E067
:100B0000EE0FFF1FAA95E1F7E80FF11DE655FE4F26
:100B100060838F5F8D8380E990E0E89E8001E99E8D
:100B2000100DF89E100D112406551E4F862FB8018A
:100B30000E9470049D81F8018381981709F066C0B6
:100B400088E090E070CF262F30E080E990E0E89ECA
:100B5000D001E99EB00DF89EB00D1124A655BE4FF0
:100B60008D919C91119790702817390791F0EE0F95
:100B7000FF1FEE0FFF1FE45CFD4F80818F5F8083BE
:100B8000188281E090E09C838B83F5E56F17F1F587
:100B900028C089E090E047CF262F30E080E990E040
:100BA000E89ED001E99EB00DF89EB00D1124A65527
:100BB000BE4F11968C91119790E028173907E9F0F4
:100BC000EE0FFF1FEE0FFF1FE45CFD4F80818F5F74
:100BD0008083188281E090E09C838B8385E5D81622
:100BE000A9F482E090E09C838B8313961C92139768
:100BF0008FEF9FEF8D939C9309C081E0888381E004
:100C000090E09C838B83EA01B983A883D701AA0F64
:100C1000BB1FAE0DBF1DAA0FBB1FAA0FBB1FA65C3B
:100C2000BD4F8C91813069F584E290E0E89EF0013F
:100C3000E99EF00DF89EF00D1124EE0FFF1FEE0F50
:100C4000FF1FE255FE4F808116968C9316971896DB
:100C50008D919C911997892B21F41B961C921E92C1
:100C60001A97F701EE0FFF1FEE0DFF1DEE0FFF1F8E
:100C7000EE0FFF1FE65CFD4F808591850196918701
:100C80008087F701EE0FFF1FEE0DFF1DEE0FFF1F18
:100C9000EE0FFF1FDF01A65CBD4FE501B983A883FE
:100CA000E45CFD4F10828C91DF91CF911F910F91E9
:100CB000FF90EF90DF90BF90AF900895DF93CF93B8
:100CC00000D000D0CDB7DEB7FC013896E60FF11D9D
:100CD0002381328141815081B901CA010F900F9067
:100CE0000F900F90CF91DF9108950F931F938C0178
:100CF000FC0180810E945604AA2797FDA095BA2F77
:100D0000BC01CD010E94B017F801218132814381DD
:100D100054810E94A118F8012581368147815085B0
:100D20000E944C161F910F9108958AE065E00E9481
:100D3000A2110E94331286E292E00E9466120E9483
:100D4000261208951F93CF93DF9385E06CE00E94F5
:100D5000A2110E9433128CE091E00E9466120E9460
:100D6000261264EF71E080E090E00E946E030E9422
:100D7000510410E0C0E0D0E0CE016AEF70E00E94C4
:100D8000CA19892B69F4812F8F5E6CE00E94A21131
:100D90000E9433128EEE0E9455120E9426121F5F8F
:100DA00061E070E080E090E00E946E03219687E0B1
:100DB000C13DD80709F7DF91CF911F9108951F9387
:100DC00080917A01823010F410E904C010917A0108
:100DD000110F1257812F0E945512812F8F5F0E9491
:100DE00055121F9108952F923F924F925F926F92EA
:100DF0007F928F929F92AF92BF92CF92DF92EF92AB
:100E0000FF920F931F93DF93CF9300D000D000D0B9
:100E1000CDB7DEB789836A832DB73EB73E832D8376
:100E20008DB79EB748970FB6F8949EBF0FBE8DBF83
:100E3000EDB7FEB73196FC83EB8380917B01992758
:100E400087FD909597FF03C0909581959F4F8A35B8
:100E50009105B1F460917B01772767FD70958AE574
:100E600090E00E94CA19882777FD8095982F0E94EC
:100E7000B01721EE3AEF43EB52E40E94A11809C0EB
:100E800060917B01772767FD7095872F972F0E94D0
:100E9000B01725E33AEF4EE85CEB0E94A1187B0106
:100EA0008C0180917C01992787FD909597FF03C065
:100EB000909581959F4F8A359105B1F460917C01A1
:100EC000772767FD70958AE590E00E94CA19882708
:100ED00077FD8095982F0E94B01721EE3AEF43EBF3
:100EE00052E40E94A11809C060917C01772767FD38
:100EF0007095872F972F0E94B01725E33AEF4EE8A1
:100F00005CE30E94A1185B016C01B701C8010E945B
:100F1000691920E030E044E352E40E94A1180E94E5
:100F200004190E947D177B018C01B501C6010E9446
:100F300069192B013C012B803C804EEBC42E4FEFF6
:100F4000D42E4701AA2497FCA094BA2CB601882776
:100F500077FD8095982F0E94B0179B01AC01C301CB
:100F6000B2010E94A1187B018C01C501B4010E944D
:100F7000B0179B01AC01C801B7010E944C1620E0DC
:100F800030E044E352E40E944C1620E030E040E8B8
:100F90005FE30E944B160E947D17F10161937193EC
:100FA0001F012CE030E0C20ED31E3EE4C316D10474
:100FB00069F6CC24DD243EEE832E3FEF932EBA80DB
:100FC000BA94EB81FC81EC0DFD1D0190F081E02DC8
:100FD0001E161F06B4F5EA35F1059CF5CF01019701
:100FE0006EEE7FEF0E94CA198B010B5F1F4FEB550E
:100FF000F040089DC001099D900D189D900D112491
:101000009F01281B390BC90162E070E00E94CA19D8
:10101000882777FD8095982F0E94B0170E940419A9
:101020000E947D177B01672B19F421E0E22EF12C41
:101030006B2D600F89810E940E128E2D8B5F0E9496
:10104000551282E090E0C80ED91E99819F5F998366
:10105000E8E1CE16D10409F0B4CF2D813E810FB660
:10106000F8943EBF0FBE2DBF26960FB6F894DEBF94
:101070000FBECDBFCF91DF911F910F91FF90EF90E9
:10108000DF90CF90BF90AF909F908F907F906F90A8
:101090005F904F903F902F9008952F923F924F92E4
:1010A0005F926F927F928F929F92AF92BF92CF92F8
:1010B000DF92FF920F931F93CF93DF930E94600301
:1010C00020918F01309190014091910150919201B6
:1010D000621B730B840B950B605D774080409040E2
:1010E00008F0B5C280919301882311F00E94741218
:1010F000F4E6AF2EF0E0BF2ECC24DD24E7E68E2E02
:10110000E1E09E2E7FE6672E71E0772E65E7462EA2
:1011100061E0562E53E8252E51E0352E1C2D80918E
:10112000600090916100A0916200B09163000C2C6E
:1011300004C0B695A795979587950A94D2F780FF36
:1011400079C2D5018C9111966C910E94A2110E94D6
:101150003312EC2DF0E0E831F10508F067C2E65DEE
:10116000FF4FEE0FFF1F0590F491E02D099418EC4E
:10117000FF2423C286ED91E0F5C020917B0100D0D1
:1011800000D080ED91E0CDB7DEB79A838983332715
:1011900027FD30953C832B8375C120917C0100D0C5
:1011A00000D08AEC91E0EDB7FEB7928381833327BC
:1011B00027FD30953483238365C1209152013091FE
:1011C0005301409154015091550100D000D000D0FE
:1011D00081EC91E00DC0209158013091590140916E
:1011E0005A0150915B0100D000D000D088EB91E013
:1011F000ADB7BEB712969C938E931197CDB7DEB75D
:101200002B833C834D835E8320C12091670100D0F6
:1012100000D0EDB7FEB7319683EB91E0ADB7BEB726
:1012200012969C938E9311972283D7C08091680168
:10123000823020F0843008F0F9C103C080EB91E0E7
:1012400091C08DEA91E08EC080915F019091600124
:10125000A0916101B091620120916301309164011C
:101260004091650150916601CDB7DEB72A970FB660
:10127000F894DEBF0FBECDBFEDB7FEB731966DE976
:1012800071E07A83698382839383A483B583268301
:101290003783408751870E94A7118DB79EB70A9662
:1012A0000FB6F8949EBF0FBE8DBFC2C160917E0184
:1012B00070917F01809180019091810120E030E068
:1012C00040E152E40E94A11820E030E044EB53E4F6
:1012D0000E9415170E9404190E947D179B0125503A
:1012E000304037FF03C09B01215E3F4FAAE9B1E0C8
:1012F000F901E455FF4F80818C932F5F3F4F2432DB
:10130000310514F020E030E0119691E0A53AB907DC
:1013100079F700D000D0EAE8F1E0CDB7DEB7FA8384
:10132000E9831B97BC83AB83ADC080917E01909114
:101330007F01A0918001B091810100D000D000D048
:10134000CDB7DEB73A82298259C080918E018823B9
:1013500039F080E891E00E94661210928E0168C117
:101360008DE791E00E94661263C18091690181302E
:1013700009F05EC1609176017091770180917801EA
:101380009091790100D000D000D00DB71EB70F5F4B
:101390001F4FADB7BEB712965C924E9211970E9446
:1013A000B017E8016A837B838C839D834EC0809154
:1013B0006901813009F03CC10E94DF0639C180918A
:1013C0008D0100D000D0EDB7FEB73196ADB7BEB7F6
:1013D00012967C926E9211978283138253C08091F1
:1013E000820190918301A0918401B091850100D088
:1013F00000D000D0CDB7DEB79A828982EDB7FEB7B4
:1014000083839483A583B6830E94A7112DB73EB72B
:101410002A5F3F4F0FB6F8943EBF0FBE2DBF08C1E5
:101420008091860190918701A0918801B0918901F6
:1014300000D000D000D0EFE5F1E0CDB7DEB7FA8301
:10144000E9838B839C83AD83BE830E94A711EDB794
:10145000FEB736960FB6F894FEBF0FBEEDBFE8C0DC
:1014600080918A0190918B0100D000D0C7E5D1E036
:10147000ADB7BEB71296DC93CE93119714969C939A
:101480008E9313970E94A7110F900F900F900F90BB
:10149000CFC03091940120915E0180915C019091C8
:1014A0005D01323009F04AC08636910561F1873618
:1014B000910598F48430910549F18530910520F427
:1014C000039709F0B3C02BC08436910509F4D7C047
:1014D0008536910509F0AAC013C08C36910529F113
:1014E0008D36910528F48B36910509F09FC05CC0BC
:1014F0008D369105E9F08E36910509F097C01BC035
:10150000C5EED1E0BEC0CAEED1E0BBC0233009F4C5
:101510003FC02530C1F1223009F088C03FC02330E0
:1015200009F086C0CEEFD1E0ACC0C8E0D2E0A9C0DF
:10153000CDE0D2E0A6C0C2E1D2E0A3C0313009F0D4
:1015400075C08530910519F4243059F598C086305E
:10155000910559F4213019F4C7E1D2E092C022304C
:1015600009F064C0CCE1D2E08CC08230910531F446
:10157000243009F05BC0C1E2D2E083C08430910521
:1015800081F4253019F4C9EFD1E07BC0233019F480
:10159000CFEED1E076C0283009F048C0C4EFD1E0EA
:1015A00070C0079709F042C0C3E0D2E06AC0E2E031
:1015B000FE1611F418ED01C018EC812F0E9455128F
:1015C00000E080E20E9455120F5F0C30D1F7812FAE
:1015D0008F5F0E9455128CE70E945512F394F5E03C
:1015E000FF1629F70E942612809190008F5F60916C
:1015F00091000E94F3061EC080918C01843051F04E
:1016000000D0CEE4D1E0ADB7BEB71296DC93CE9356
:10161000119707C000D025E431E0EDB7FEB7328363
:1016200021830E94A7110F900F9002C0163111F074
:101630000E9426120894C11CD11C62E070E0A60E24
:10164000B71E78E1C716D10409F068CD21C080919A
:1016500093018823E9F481E0809393010E9474123E
:101660000E94950685E06AE00E94A2110E94331252
:1016700083E291E00E9466120E94261209C0C0EE29
:10168000D1E080EE0E945512CE010E946612CECFAC
:10169000DF91CF911F910F91FF90DF90CF90BF907E
:1016A000AF909F908F907F906F905F904F903F9002
:1016B0002F9008951F9382E50E9438040E947412AF
:1016C0000E94950686E069E00E94A2110E943312F2
:1016D00086E492E00E9466120E94261210E064E600
:1016E00070E080E090E00E946E03A8951F5F1A30C2
:1016F000B1F7FFCF0F931F93CF93DF9383E70E9440
:10170000380486E40E943804C0E6D0E000E005C05A
:101710001991812F0E943804010F80E0C63AD80742
:10172000B9F7802F0E943804DF91CF911F910F915C
:101730000895892B19F4862F0E94380408952F925A
:101740003F924F925F926F927F928F929F92AF9251
:10175000BF92CF92DF92EF92FF920F931F93DF938E
:10176000CF93CDB7DEB764970FB6F894DEBF0FBE48
:10177000CDBF9CEDE92E90E0F92E80EDC82E80E0E3
:10178000D82E1E010894211C311C05E1402E512C3D
:101790004C0E5D1E19E0612E712C6C0E7D1EBFE09B
:1017A000AB2EB12CAC0EBD1EA5E08A2E912C8C0E5A
:1017B0009D1E2091950130919601F7014081F6011F
:1017C000808191819A83898329873A874B87F101A8
:1017D00081818C8780818D87F1E0FE8785E58F8709
:1017E00096E0988B90914102998B8091A6008A8B0C
:1017F0008091A7008B8BE2E4EC8B9F5F909341027A
:101800008FEF9FEF98878F838E01005F1F4F08C077
:10181000F80181918F01BE01695F7F4F0E947004C2
:1018200004151505A9F78F8198859C838B83830107
:1018300008C0F80181918F01BE016D5F7F4F0E944A
:1018400070040A151B05A9F78B819C818D839E83EB
:10185000850180E090E0F80161918F010E94990B71
:1018600004151505B1F7830180E090E0F80161915E
:101870008F010E94990B0A151B05B1F780E090E0DB
:10188000F40160810E94990B80E090E0F401618195
:101890000E94990B0894E11CF11C82E090E0C80EB4
:1018A000D91E92EEE91690E0F90609F082CF64960F
:1018B0000FB6F894DEBF0FBECDBFCF91DF911F9161
:1018C0000F91FF90EF90DF90CF90BF90AF909F90DF
:1018D0008F907F906F905F904F903F902F900895E2
:1018E000FF920F931F9381E60E9438040E94270401
:1018F000A8950E9456048C01892F990F990BF82EF8
:101900000E943804802F0E9438048F2D800F0E947F
:1019100038041F910F91FF900895CF92DF92FF92AC
:101920000F931F93DF93CF93CDB7DEB7C654D0404C
:101930000FB6F894DEBF0FBECDBF83E50E9438041A
:101940000E942704A895863479F5FF248E010F5F45
:101950001F4F37E4C32ED12CCC0EDD1E0E9427046E
:10196000F80181938F01F80EA895EC15FD05B1F7EC
:101970000E942704A8958F15B9F4A0E6B0E0FE01F7
:10198000319686E401900D928150E1F7A89580E6AA
:1019900090E062E070E046E450E00E941F1AA895D3
:1019A0000E94741281E201C080E40E943804CA5B84
:1019B000DF4F0FB6F894DEBF0FBECDBFCF91DF91E2
:1019C0001F910F91FF90DF90CF9008958F929F927B
:1019D000AF92BF92DF92EF92FF920F931F93DF932C
:1019E000CF93CDB7DEB7C054D0400FB6F894DEBF6A
:1019F0000FBECDBF86E40E943804EE24FF245E01B2
:101A00000894A11CB11C47E3842E912C8C0E9D1EC2
:101A10002CC0A8950E944A048823D9F30E940A0486
:101A2000F80181938F01D80EE815F90599F701C0E7
:101A3000A8950E944A048823D9F30E940A04D81664
:101A400081F4C701B5010E94B61181E20E943804F9
:101A50000894E11CF11CF0E0EF16F1E0FF0629F418
:101A600007C080E40E94380403C08501DD24D2CF82
:101A70000E947412C05CDF4F0FB6F894DEBF0FBE39
:101A8000CDBFCF91DF911F910F91FF90EF90DF902D
:101A9000BF90AF909F908F9008954F925F926F92FA
:101AA0007F928F929F92BF92CF92DF92EF92FF929E
:101AB0000F931F93DF93CF9300D000D000D0CDB70A
:101AC000DEB773E0672E712C6C0E7D1E2E0108941C
:101AD000411C511CBB24B39465E0C62ED12CCC0E06
:101AE000DD1E54E6852E912C6CC10E940A04682FDD
:101AF00080919801882369F56A3059F16D3031F48D
:101B0000809199018F5F8093990123C08091990101
:101B10008330E8F0633579F0643528F4663441F0B9
:101B20006235A9F40EC0613679F0633781F406C0DE
:101B30000E94E60C46C10E948D0C43C10E947A0BA4
:101B400040C10E945A0B3DC10E94700C3AC11092D4
:101B5000990180E0A20193010E949004882309F476
:101B60002CC1B0929801E980FA80D70117968C9128
:101B70008E3109F4F6C08F3130F4882369F08B314F
:101B800009F01BC187C0823239F18A3409F488C058
:101B9000803209F012C15FC0B0928E01F7018581D9
:101BA000809395018681809396018085809394012E
:101BB0000E9460039B01AC0120938F013093900140
:101BC000409391015093920180919301882309F4ED
:101BD000F4C0B0929701F1C08701085F1F4FD70191
:101BE0001E968C911E97F60180831D968C918183A1
:101BF0006D817E8180E090E00E94AE1720E030E0B1
:101C00004AE754E40E941517609352017093530100
:101C10008093540190935501D70118968C91189791
:101C200090E090935D0180935C01F8018181809345
:101C30005E01828180938C0150968C91D6018C93A9
:101C4000F701878511968C938D819E819093570122
:101C500080935601B2C0C70169E00E945E0660939E
:101C60005F017093600180936101909362018981AB
:101C70009A816DE00E945E06609363017093640137
:101C80008093650190936601E981FA818089809350
:101C9000680193C0D70118968C91809367018DC01D
:101CA000C70164E00E945E0660938601709387011D
:101CB0008093880190938901E980FA80F701389632
:101CC0008185D6018C93808511968C936D817E8160
:101CD000882777FD8095982F0E94B01760937E012A
:101CE00070937F018093800190938101F701838934
:101CF000D6018C93828911968C938D819E819093CD
:101D00008B0180938A0180918A0190918B018536A5
:101D1000910558F080918A0190918B018639910547
:101D200020F490928B0180928A0180918A01909197
:101D30008B0180918A0190918B018739910520F068
:101D400010928B0110928A01C7016CE00E945E061E
:101D50006093820170938301809384019093850145
:101D60002CC0C7016CE00E945E0621EE3EE245E613
:101D700052E40E94A1180E947D1760937B01898123
:101D80009A8168E00E945E0621EE3EE245E652E45A
:101D90000E94A1180E947D1760937C0189819A811D
:101DA00060E10E945E0621EE3EE245E652E40E94BA
:101DB000A1180E947D1760937D018AE890E00E943F
:101DC00098030E944A04882309F08FCE26960FB606
:101DD000F894DEBF0FBECDBFCF91DF911F910F9161
:101DE000FF90EF90DF90CF90BF909F908F907F906B
:101DF0006F905F904F9008952F923F924F925F9215
:101E00006F927F928F929F92AF92BF92CF92DF920A
:101E1000EF92FF920F931F93DF93CF9300D000D0E8
:101E2000CDB7DEB7A89580919701882309F443C008
:101E30000E94741283E06AE00E94A2110E94331291
:101E400082EF90E00E9466120E9426120E949F0B71
:101E500062E370E080E090E00E946E030E949F0BBE
:101E600062E370E080E090E00E946E030E949F0BAE
:101E700062E370E080E090E00E946E0310929701B0
:101E800010E068EC70E080E090E00E946E03A8959E
:101E90001F5F1A30B1F70E947412109293010E94D2
:101EA00060039B01AC0120938F013093900140931C
:101EB0009101509392010E944D0D0E94600369832D
:101EC0007A838B839C838091A6019091A701A09136
:101ED000A801B091A90129813A814B815C81281B1D
:101EE000390B4A0B5B0B293731054105510508F4C5
:101EF0007AC180916901882309F070C180916801DD
:101F0000823008F46BC180915F0190916001A091D3
:101F10006101B091620180936A0190936B01A0937B
:101F20006C01B0936D018091630190916401A09167
:101F30006501B091660180936E0190936F01A0934B
:101F40007001B09371018091820190918301A09101
:101F50008401B09185018093720190937301A093E5
:101F60007401B093750181E08093690108C16091AB
:101F70006A0170916B0180916C0190916D019F7766
:101F800025E33AEF4EE85CE30E94A1180E94121785
:101F90001B012C0160916A0170916B0180916C01B1
:101FA00090916D0120915F0130916001409161013C
:101FB000509162010E944B169F7720EC3BE649ED61
:101FC00057E40E94A1185B016C0160916E01709151
:101FD0006F018091700190917101209163013091A6
:101FE000640140916501509166010E944B169F77F4
:101FF00020EC3BE649ED57E40E94A118A2019101B3
:102000000E94A1187B018C01C601B501A6019501B2
:102010000E94A1185B016C01C801B701A8019701DA
:102020000E94A1189B01AC01C601B5010E944C168B
:102030000E9428190E947D176093760170937701A2
:102040008093780190937901A0906E01B0906F0118
:10205000C0907001D0907101609063017090640134
:10206000809065019090660160916A0170916B01AA
:1020700080916C0190916D0120915F013091600120
:1020800040916101509162010E944B167B018C01CD
:1020900060E070E080E89FE3A20191010E941517C3
:1020A0009B01AC01C801B7010E94A1187B018C0102
:1020B000C601B501A40193010E944B169B01AC011E
:1020C0005058C801B7010E94BF1620EE3EE245E617
:1020D00052E40E94A11820E030E044EB52E40E9458
:1020E0004C160E947D179B01AC0197FF04C0285934
:1020F0003E4F4F4F5F4FCA01B901645B7040804053
:10210000904097FF06C0CA01B9016C547F4F8F4FB2
:102110009F4FE0907E01F0907F010091800110912F
:1021200081010E94B017A80197010E944B160E94DE
:102130007D1797FF04C068597E4F8F4F9F4F0E94B5
:10214000B01720E030E044EB53E40E94151720E084
:1021500030E040E851E40E94A1180E94041920E0F8
:1021600030E040E85FE30E944C160E9482176093C3
:102170007A0180917A01813110F010927A01809178
:10218000600084FF0CC084E990E00E9475066093B3
:1021900058017093590180935A0190935B0180918B
:1021A00060009091610080709078892B41F08DE9FA
:1021B00090E00E9475060E94821760938D010E9434
:1021C0004D0889819A81AB81BC818093A60190934F
:1021D000A701A093A801B093A90105C0809169014E
:1021E000813069F6C4CE0F900F900F900F90CF9171
:1021F000DF911F910F91FF90EF90DF90CF90BF90F4
:10220000AF909F908F907F906F905F904F903F9096
:102210002F90089580E090E00E94171A8F3431F4D7
:1022200081E090E00E94171A8130B9F186E069E000
:102230000E94A2110E94331286E692E00E9466126A
:102240000E94261264EF71E080E090E00E946E032D
:1022500080E090E06FE40E94291A81E090E061E064
:102260000E94291A80E690E062E070E046E450E0C7
:102270000E941F1A86E069E00E94A2110E94331298
:1022800083E592E00E9466120E94261264EF71E0DC
:1022900080E090E00E946E0308C080E690E062E07B
:1022A00070E046E450E00E94071A809149028823BA
:1022B00099F480914802482F50E0E5E6F0E0208153
:1022C000822F90E08417950714F0235020833296D4
:1022D00080E0E539F80799F70895F89482E081BB2A
:1022E00083E083BF89B7816089BF81E290E80E9463
:1022F000F50380EB87BB81E58DB917B887E886B910
:1023000078940E9496120E9495060E940A110E94DB
:10231000A20664EF71E080E090E00E946E030E94EC
:1023200074122DE088E190E00FB6F894A89581BD75
:102330000FBE21BD08950E946D110E94FC0E80E029
:1023400090E0089580934702609346020895DF93DA
:10235000CF93CDB7DEB7FE0135966191719181E0E3
:10236000AF010E94C612CF91DF910895EF92FF92C4
:102370001F93CF93DF93182F7B01C39880E00E94B7
:10238000130380E00E94130389E00E941303812F4E
:102390000E941303C0E0D0E0F701EC0FFD1F108195
:1023A0008AE00E9413038C2F0E9413038BE00E948B
:1023B0001303812F0E9413032196C633D10561F7C1
:1023C00088E00E94130380EA0E94130380EA0E94BF
:1023D000130385FDFBCF80E00E9413038CE00E9475
:1023E0001303C39ADF91CF911F91FF90EF9008954F
:1023F0001F93182FC39880E00E941303112319F034
:10240000113049F403C08091490203C08091490210
:102410008C610E941303C39A1F9108950F931F9319
:102420009EE1699F80011124080F111DC39885E06A
:102430000E941303812F0E94130386E00E9413035E
:10244000802F0E9413031F910F91089587E00E942F
:1024500013038FEF0E941303C39A809146028F5F8C
:102460008093460208950F931F93009146028EE1D8
:10247000089F8001112480914702080F111DC39805
:1024800084E00E94130383E00E94130385E00E940E
:102490001303812F0E94130386E00E941303802FF1
:1024A0000E9413031F910F9108951F93182F8C37CB
:1024B00029F40E9426120E94331206C087E00E946F
:1024C0001303812F0E9413031F910895CF93DF936D
:1024D000EC0102C00E945512FE01219684918823CE
:1024E000C9F7DF91CF910895C39884E00E94130348
:1024F00084E00E941303C39A0895C39880EA0E945F
:1025000013038FEF0E94130381FD03C080E490E06A
:1025100002C080E090E080934902892B11F088E0AE
:1025200001C086E080934802C39A08951F93BB9A26
:102530000E947D12C3988CEE0E9413038FEF0E94BD
:102540001303182F80E00E941303809149028260D8
:102550000E94130362E370E080E090E00E946E034B
:102560008CE60E941303812F8F7E0E94130310E1DB
:10257000812F0E94130380E00E9413031F5F1C3110
:10258000B9F781E00E94F8111F9108952F923F92B0
:102590004F925F926F927F928F929F92AF92BF9273
:1025A000CF92DF92EF92FF920F931F93DF93CF931F
:1025B000CDB7DEB760970FB6F894DEBF0FBECDBFC4
:1025C0008C877E876D875A019E012F5F3F4F388B26
:1025D0002F87ED85FE852C8520FD859120FF81913B
:1025E000FE87ED87882309F43DC3853249F420FD39
:1025F000859120FF8191FE87ED87853251F406C0D9
:102600008A3021F48DE00E9455128AE00E94551212
:10261000E0CF982FFF24882499243FE13F15D0F084
:102620009B3269F09C3228F4903259F0933291F445
:102630000EC09D3249F0903369F441E026C052E06B
:10264000F52A84E0F82A2AC098E0F92A27C0E0E1B8
:10265000FE2A24C0F7FC2EC0892F80538A3080F4D4
:10266000F6FE06C0FAE09F9E902C1124980E16C02C
:102670002AE0829E802C1124880E30E2F32A0EC0BC
:102680009E3229F4F6FCEEC240E4F42A07C09C36E0
:1026900019F450E8F52A02C0983661F4ED85FE85FC
:1026A0002C8520FD959120FF9191FE87ED87992340
:1026B00009F0B3CF892F8554833020F48F2D8061AA
:1026C000905E07C0892F8556833008F087C18F2D13
:1026D0008F7E86FD02C076E0972E182F1F739536E9
:1026E00011F4106406C0963611F4106802C09110FF
:1026F0009A9417FF0BC03BE3391520F427E06CE3F5
:10270000762E0EC0792C739427E00AC047E0491555
:1027100028F427E0772457E0952E02C0292D77244E
:1027200044E0242E312C2A0C3B1CF5016081718180
:1027300082819381AE014F5F5F4F072D0E94DD01C3
:102740006C01B9804B2C5524B0FE04C0B3FC02C010
:102750000DE209C011FF02C00BE205C012FD02C06C
:1027600000E001C000E2C2018C709070892BA9F1D9
:10277000002311F483E001C084E0881510F0882460
:1027800008C0881A13FD05C080E20E9455128A9481
:10279000D9F7002319F0802F0E94551243FE05C07F
:1027A00039E7E32E32E0F32E0FC02DE7E22E22E0D0
:1027B000F22E0AC00115110509F080520E9455122F
:1027C0000894E11CF11C04C0012F10E0007110708E
:1027D000F7018491882371F7FFC017FF12C07C0CAA
:1027E00044FE04C08A81813309F47A9417141CF0E2
:1027F000772473942CC0F8E0F71548F598E0792E0B
:1028000026C016FD24C0892D90E08C159D0544F04E
:102810002CEFC2162FEFD2061CF0106801C09A945C
:10282000992049F0E2E0F0E0EC0FFD1FE90DF11D09
:1028300080818033A1F317FF0AC0792C7394892D0E
:1028400090E0C816D90614F0992401C09C1817FD11
:1028500003C025E030E009C01C141D041CF021E079
:1028600030E003C096012F5F3F4F002311F02F5F30
:102870003F4F992029F0892D90E00196280F391FAC
:10288000882D90E02817390714F0882401C0821A97
:10289000E12EFF24C70189709070892B29F006C0B2
:1028A00080E20E9455128A948820D1F7002319F003
:1028B000802F0E945512E3FE05C006C080E30E94EF
:1028C00055128A948820D1F717FF45C08601D7FE9C
:1028D00002C000E010E076010894E11CF11CE01A4F
:1028E000F10A41E050E04C0F5D1FE40EF51EC601F9
:1028F000871991093C01892D90E0AA24BB24A81ACC
:10290000B90A9FEF0F3F190719F48EE20E94551282
:10291000C016D10634F0601671061CF4F7018081F0
:1029200001C080E3015010400894E11CF11C0A151D
:102930001B051CF00E945512E4CF0C151D0509F073
:1029400049C09A81963328F4953309F043C044FC7A
:1029500041C081E33FC08A81813311F0FFEEBF2285
:102960000E945512992081F08EE20E94551212E0C9
:10297000E1E0F0E0EC0FFD1FE10FF11D1F5F808132
:102980000E9455129A94A1F7E4FC02C085E601C0AA
:1029900085E40E945512D7FC05C0C114D10441F44E
:1029A000B4FE06C0D094C194D108D3948DE201C086
:1029B0008BE20E94551280E305C08F5F26EF3FEF48
:1029C000C20ED31E3AE0C316D104BCF70E945512C2
:1029D0008C2D805D0E945512510141C1933631F01A
:1029E000933791F0933509F055C023C0F5018081EC
:1029F00089836E010894C11CD11C22E030E0A20E34
:102A0000B31E01E010E012C0F501C080D180F6FCD9
:102A100003C06FEF7FEF02C0692D70E022E030E06D
:102A2000A20EB31EC6010E94FC198C013FE7F322DF
:102A300014C0F501C080D180F6FC03C06FEF7FEFBA
:102A400002C0692D70E022E030E0A20EB31EC60184
:102A50000E94F1198C0130E8F32AF3FE05C016C07C
:102A600080E20E9455128A94882D90E00817190779
:102A7000B8F30CC0F601F7FC8591F7FE81916F0168
:102A80000E94551281108A940150104001151105C1
:102A900089F7E5C0943611F0993681F5F7FE08C044
:102AA000F501208131814281538184E090E00AC0A8
:102AB000F501808191819C01442737FD4095542F79
:102AC00082E090E0A80EB91E9FE6F92257FF09C0E8
:102AD00050954095309521953F4F4F4F5F4FE0E81F
:102AE000FE2ACA01B901AE014F5F5F4F2AE030E014
:102AF0000E94B502E82EFF85EF1A43C0953729F4EE
:102B00001F2D1F7E2AE030E01DC01F2D197F9F362C
:102B100061F0903720F4983509F0A4C00FC09037C9
:102B200039F0983709F09EC004C028E030E00AC0B0
:102B3000106114FD146020E130E004C014FD166043
:102B400020E132E017FF08C0F501608171818281C8
:102B5000938144E050E008C0F50180819181BC017F
:102B600080E090E042E050E0A40EB51EAE014F5F61
:102B70005F4F0E94B502E82E5F85E51A8FE7F82EB9
:102B8000F122F6FE0BC08EEFF822E91438F4F4FEC1
:102B900007C0F2FC05C09FEEF92202C01E2D01C045
:102BA000192DF4FE0DC0FE01EE0DF11D8081803364
:102BB00019F4E9EEFE2208C01F5FF2FE05C003C053
:102BC0008F2D867809F01F5F0F2DF3FC12C0F0FEE9
:102BD0000DC0181510F09E2C09C09E2C980C911A4F
:102BE000182D04C080E20E9455121F5F1815D0F303
:102BF00004C0181510F4811A01C0882404FF0BC00A
:102C000080E30E94551202FF17C001FD02C088E751
:102C10000CC088E50AC0802F867871F001FF02C0E1
:102C20008BE201C080E2F7FC8DE20E94551204C0E5
:102C300080E30E9455129A94E914D0F3EA94E1E0FB
:102C4000F0E0EC0FFD1FEE0DF11D80810E9455128A
:102C5000EE20A1F704C080E20E9455128A948820D9
:102C6000D1F7B7CC60960FB6F894DEBF0FBECDBFDC
:102C7000CF91DF911F910F91FF90EF90DF90CF9058
:102C8000BF90AF909F908F907F906F905F904F908C
:102C90003F902F9008955058BB27AA270ED0FFC110
:102CA000C8D130F0CDD120F031F49F3F11F41EF4A3
:102CB00098C10EF4E095E7FB8EC1E92F12D280F3A4
:102CC000BA17620773078407950718F071F49EF529
:102CD0002AC20EF4E0950B2EBA2FA02D0B01B901DC
:102CE00090010C01CA01A0011124FF27591B99F082
:102CF000593F50F4503E68F11A16F040A22F232F8E
:102D0000342F4427585FF3CF469537952795A795DD
:102D1000F0405395C9F77EF41F16BA0B620B730B84
:102D2000840BBAF09150A1F0FF0FBB1F661F771FF5
:102D3000881FC2F70EC0BA0F621F731F841F48F4AA
:102D4000879577956795B795F7959E3F08F0B3CF30
:102D50009395880F08F09927EE0F9795879508951A
:102D600068D158F080E891E009F49EEF69D128F02D
:102D700040E851E059F45EEF09C033C1D4C1E92FF6
:102D8000E078AFD168F3092E052AC1F3261737077B
:102D90004807590738F00E2E07F8E02569F0E025BE
:102DA000E0640AC0EF6307F8009407FADB01B90199
:102DB0009D01DC01CA01AD01EF9346D070D10AD06C
:102DC0005F91552331F02BED3FE049E450FD49EC94
:102DD00063CF0895DF93DD27B92FBF7740E85FE326
:102DE0001616170648075B0710F4D92FA3D19F9337
:102DF0008F937F936F936AD2E4E8F0E0F5D04FD1E0
:102E00002F913F914F915F91A8D1DD2349F09058C8
:102E1000A2EA2AED3FE049EC5FE3D0785D274DDF81
:102E2000DF913DC115D1E3954BC10CD038C108D11C
:102E300040F0FFD030F021F45F3F19F0CCC05111C9
:102E400073C1CFC04ED198F39923C9F35523B1F381
:102E5000951B550BBB27AA2762177307840738F009
:102E60009F5F5F4F220F331F441FAA1FA9F333D068
:102E70000E2E3AF0E0E830D091505040E695001C1C
:102E8000CAF729D0FE2F27D0660F771F881FBB1FD8
:102E9000261737074807AB07B0E809F0BB0B802DB2
:102EA000BF01FF2793585F4F2AF09E3F510568F0FE
:102EB00092C03AC15F3FECF3983EDCF3869577957C
:102EC0006795B795F7959F5FC9F7880F911D969500
:102ED000879597F90895E1E0660F771F881FBB1F5C
:102EE000621773078407BA0720F0621B730B840B09
:102EF000BA0BEE1F88F7E095089504D06894B111DD
:102F000013C10895F6D088F09F5790F0B92F9927F4
:102F1000B751A0F0D1F0660F771F881F991F1AF0E4
:102F2000BA95C9F712C0B13081F0FDD0B1E0089573
:102F3000FAC0672F782F8827B85F39F0B93FCCF3F4
:102F4000869577956795B395D9F73EF490958095DA
:102F5000709561957F4F8F4F9F4F0895E89409C0FA
:102F600097FB3EF490958095709561957F4F8F4FBC
:102F70009F4F9923A9F0F92F96E9BB279395F695D2
:102F8000879577956795B795F111F8CFFAF4BB0F50
:102F900011F460FF1BC06F5F7F4F8F4F9F4F16C0B4
:102FA000882311F096E911C0772321F09EE8872F3E
:102FB000762F05C0662371F096E8862F70E060E0FA
:102FC0002AF09A95660F771F881FDAF7880F969573
:102FD000879597F9089597F99F6780E870E060E01A
:102FE00008959FEF80EC0895DF93CF931F930F9385
:102FF000FF92EF92DF927B018C01689405C0DA2E7C
:10300000EF01ABD0FE01E894A59125913591459152
:103010005591AEF3EF0151DEFE019701A801DA945C
:1030200079F7DF90EF90FF900F911F91CF91DF9193
:10303000089500240A94161617061806090608951E
:1030400000240A9412161306140605060895C9CF23
:1030500050D0E8F3E894E0E0BB279F57F0F02AED6A
:103060003FE049EC06C0EE0FBB0F661F771F881FBD
:1030700028F0B23A62077307840728F0B25A620B4D
:10308000730B840BE3959A9572F7803830F49A9518
:10309000BB0F661F771F881FD2F7904857C1092EB4
:1030A0000394000C11F4882352F0BB0F40F4BF2BA3
:1030B00011F460FF04C06F5F7F4F8F4F9F4F0895E3
:1030C000EF93E0FF06C0A2EA2AED3FE049EC5FEB98
:1030D000F4DDE5DF0F90039401FC9058E1EBF0E0A4
:1030E00048C157FD9058440F551F59F05F3F71F08C
:1030F0004795880F97FB991F61F09F3F79F087955F
:103100000895121613061406551FF2CF4695F1DFE7
:1031100008C0161617061806991FF1CF8695710577
:10312000610508940895E894BB2766277727CB01AB
:1031300097F908959B01AC0160E070E080E89FE39F
:1031400074CE0BD0ACCF75DF28F07ADF18F0952362
:1031500009F041CF46CF1124E7CFC3DFA0F3959FFD
:10316000D1F3950F50E0551F629FF001729FBB276E
:10317000F00DB11D639FAA27F00DB11DAA1F649F1A
:103180006627B00DA11D661F829F2227B00DA11DCD
:10319000621F739FB00DA11D621F839FA00D611D53
:1031A000221F749F3327A00D611D231F849F600D74
:1031B000211D822F762F6A2F11249F5750408AF0AD
:1031C000E1F088234AF0EE0FFF1FBB1F661F771F39
:1031D000881F91505040A9F79E3F510570F0FBCEDB
:1031E000A3CF5F3FECF3983EDCF386957795679528
:1031F000B795F795E7959F5FC1F7FE2B880F911D57
:103200009695879597F9089574DFE0F09E37D8F08A
:103210009639B8F49E3848F4672F782F8827985F3E
:10322000F9CF86957795679593959539D0F3B62F15
:10323000B1706B0F711D811D20F48795779567958F
:10324000939567C081C070CF11F40EF4CACE7CC0D4
:1032500050DFD0F39923D9F3CEF39F57550B87FF57
:1032600081D00024A0E640EA9001805856959795B9
:1032700028F4805C660F771F881F20F02617370719
:10328000480730F4621B730B840B202931294A2B29
:10329000A69517940794202531254A2758F7660FDD
:1032A000771F881F20F026173707480730F4620B76
:1032B000730B840B200D311D411DA09581F7B901C1
:1032C000842F9158880F9695879508959B01AC019E
:1032D00038CFDF93D92FBCDEE695D7952AED3FE0B6
:1032E00049E45FE3B33A6207730784079507D7950C
:1032F0002AF0A2EA49EC9068E0DCD1DEEFECF0E0E5
:1033000038D0DD0F0BF016DFDD0F0BF49058DF9196
:103310000895882371F4772321F09850872B762F16
:1033200007C0662311F499270DC09051862B70E0D9
:1033300060E02AF09A95660F771F881FDAF7880FEA
:103340009695879597F908959F3F31F0915020F415
:10335000879577956795B795880F911D9695879571
:1033600097F9089591505040660F771F881FD2F744
:1033700008959F938F937F936F93FF93EF939B0198
:10338000AC01DFDEEF91FF912FDE2F913F914F9146
:103390005F91D7CE97FB092E07260AD077FD04D080
:1033A0000CD006D000201AF4709561957F4F0895D7
:1033B000F6F7909581959F4F0895AA1BBB1B51E18D
:1033C00007C0AA1FBB1FA617B70710F0A61BB70B95
:1033D000881F991F5A95A9F780959095BC01CD013A
:1033E0000895FC010590615070400110D8F7809558
:1033F00090958E0F9F1F0895FC01615070400190C1
:103400000110D8F7809590958E0F9F1F0895DC01CD
:10341000CB01FC01E199FECF06C0FFBBEEBBE09AF9
:1034200031960DB20D9241505040B8F70895E19990
:10343000FECF9FBB8EBBE09A99278DB30895DC0128
:10344000CB0103C02D910E942A1A41505040D0F761
:103450000895262FE199FECF9FBB8EBB2DBB0FB6E3
:10346000F894E29AE19A0FBE01960895F894FFCF7E
:10347000EE1FFC000D0716090B0115011503020DC7
:10348000050D020E100E180D02090E0302010000B8
:103490000000160515021504020202030204110DB4
:1034A00008070B04000000000000000000000000FE
:1034B0000000000000000C0100000000C2C0C0C1FC
:1034C000C0C0C1C0C0C4C0C0C1C0C0C1C0C0C3C0F2
:1034D000C0C1C0C0C1C0C0C5C0C0C1C0C0C1C0C0E3
:1034E00002000200050002000500020001020306BE
:0234F0000A0BC5
:00000001FF
