:100000000C94B4010C94D1010C94D1010C94D10145
:100010000C94D1010C94D1010C94D1010C94D10118
:100020000C94D1010C940E030C94D1010C949C03FC
:100030000C94C6030C94D1010C94D1010C94D10101
:100040000C94D1010C94D1010C94D1010C94D101E8
:100050000C94D101ED08F008000910091E094209AD
:10006000530961099309D009E009120AF0095A0BF2
:100070005A0B1A0A5A0B2A0A5B0A6F0A850A9E0A49
:10008000EA08400B084AD73B3BCE016E84BCBFFD5B
:10009000C12F3D6C74319ABD56833DDA3D00C77F58
:1000A00011BED9E4BB4C3E916BAAAABE00000080F1
:1000B0003F05A84CCDB2D44EB93836A9020C50B980
:1000C000918688083CA6AAAA2ABE000000803F06A6
:1000D00064EC1B3C04BC163E3BE5B93CC93C37C252
:1000E0009E5A3D660498083EEA69AAAA3E000000AE
:1000F000803F52657175657374696E6720446174E1
:100100006153747265616D732E2E2E00426F6F7491
:10011000696E672075703AEDF2F2F2F2F2F2F2F2E5
:10012000F2F30057616974696E6720666F727C4DE7
:1001300041564C696E6B20686561727462656174CA
:10014000732E2E2E00202020202020202000446905
:100150007361726D6564008725332E3069250086D2
:1001600025332E306688008525352E30668D008536
:1001700025352E30668D00E125336925001F253594
:100180002E30668D00EAEB00EAEC0025342E306656
:10019000B00020C0C0C0C0C0C7C0C0C0C0C0207CAC
:1001A000D02573D100832531312E36667C842531EC
:1001B000312E3666001120001020000F2532690014
:1001C00020E325352E32668E0020E225352E32665C
:1001D0008E00253469B0B200253469B0B100050342
:1001E00004057C15131415007374616200616C744E
:1001F00068006175746F0067756964006C6F69747D
:10020000007265746C006369726300706F736900DB
:100210006C616E64006F666C6F006D616E75006678
:1002200062776100666277620048617A7973204F75
:100230005344005265626F6F74696E672E2E2E00F4
:100240004F534420496E697469616C697A65642012
:100250002020004D697373696E672F4F6C642043D3
:100260006F6E666967006E616E00696E66000040C1
:100270007A10F35A00A0724E18090010A5D4E800B5
:1002800000E87648170000E40B54020000CA9A3BCD
:10029000000000E1F5050000809698000000404253
:1002A0000F000000A08601000000102700000000E1
:1002B000E803000000006400000000000A000000E5
:1002C00000000100000000002C76D888DC674F0891
:1002D00023DFC1DFAE59E1B1B796E5E3E453C63A97
:1002E000E651997696E8E6C28426EB898C9B62ED0E
:1002F000407C6FFCEFBC9C9F40F2BAA56FA5F490C8
:10030000055A2AF75C936B6CF9676DC11BFCE0E43E
:100310000D47FEF520E6B500D0ED902E0300943594
:1003200077050080841E080000204E0A000000C8E7
:100330000C333333330F986E12831141EF8D211438
:10034000893BE65516CFFEE6DB18D1844B381BF708
:100350007C1D901DA4BBE424203284725E228100A7
:10036000C9F124ECA1E53D2711241FBECFE5D4E05F
:10037000DEBFCDBF11E0A0E6B0E0E8ECF5E302C0DF
:1003800005900D92AA3EB107D9F713E0AAEEB1E0AD
:1003900001C01D92A635B107E1F70E94DF110C9450
:1003A000E21A0C940000283008F027E03327DA0125
:1003B000990F311D87FD916000966105710539F433
:1003C00032602E5F3D9330E32A95E1F708959F3F19
:1003D00030F080387105610509F03C5F3C5F3D936A
:1003E000913008F08068911DDF93CF931F930F9396
:1003F000FF92EF92192F987F9695E92F96959695F3
:10040000E90FFF27E853FD4F99273327EE24FF24F8
:10041000A701E70105900894079428F4360FE71E1A
:10042000F81E491F511D660F771F881F991F0694DC
:10043000A1F70590079428F4E70EF81E491F561FF0
:10044000C11D770F881F991F661F0694A1F705909D
:10045000079428F4F80E491F561FC71FD11D880F97
:10046000991F661F771F0694A1F70590079420F443
:10047000490F561FC71FD81F990F661F771F881F68
:100480000694A9F784911095177041F0D695C795F9
:1004900057954795F794E7941A95C1F7EEE6F2E081
:1004A00068941590159135916591959105907FE22D
:1004B0007395E118F10A430B560BC90BD009C0F72D
:1004C000E10CF11E431F561FC91FD01D7EF470336F
:1004D00011F48A95E6CFE894015030F0080F0AF441
:1004E0000027021708F4202F2395022F7A3328F0D3
:1004F00079E37D932A95E9F710C07D932A9589F6D3
:10050000069497956795379517951794E118F10A12
:10051000430B560BC90BD00998F023957E91739528
:100520007A3308F070E37C932013B8F77E91706102
:100530007D9330F0839571E37D9370E32A95E1F725
:100540001124EF90FF900F911F91CF91DF91992788
:1005500087FD90950895FA01AA27283051F120319E
:1005600081F1E8946F936E7F6E5F7F4F8F4F9F4F47
:10057000AF4FB1E03ED0B4E03CD0670F781F891F89
:100580009A1FA11D680F791F8A1F911DA11D6A0F57
:10059000711D811D911DA11D20D009F468943F910A
:1005A0002AE0269F11243019305D3193DEF6CF0109
:1005B0000895462F4770405D4193B3E00FD0C9F7CF
:1005C000F6CF462F4F70405D4A3318F0495D31FD3C
:1005D0004052419302D0A9F7EACFB4E0A69597958F
:1005E000879577956795BA95C9F700976105710565
:1005F00008959B01AC010A2E0694579547953795AF
:100600002795BA95C9F7620F731F841F951FA01D08
:1006100008958FB9779BFECF8FB108951F920F92E7
:100620000FB60F9211242F933F938F939F93AF9305
:10063000BF938091EE019091EF01A091F001B091F4
:10064000F1013091F2010196A11DB11D232F2D5F03
:100650002D3720F02D570196A11DB11D2093F201D9
:100660008093EE019093EF01A093F001B093F1011C
:100670008091EA019091EB01A091EC01B091ED0124
:100680000196A11DB11D8093EA019093EB01A09307
:10069000EC01B093ED01BF91AF919F918F913F918C
:1006A0002F910F900FBE0F901F9018958FB7F89451
:1006B0002091EE013091EF014091F0015091F10154
:1006C0008FBFB901CA010895EF92FF920F931F9354
:1006D0007B018C018FB7F8944091EE015091EF01AE
:1006E0006091F0017091F1018FBF2FB7F894809164
:1006F000EE019091EF01A091F001B091F1012FBFB7
:10070000841B950BA60BB70BE816F9060A071B0707
:1007100060F71F910F91FF90EF900895019759F0A6
:10072000FC01EE0FFF1FEE0FFF1F32978FB7F894FB
:100730003197F1F78FBF08951F920F920FB60F9266
:1007400011242F938F939F93EF93FF939BB12CB121
:10075000E0915502EF5FEF7380915602E81711F4B4
:1007600082E008C0892F8871E0935502F0E0ED5EC9
:10077000FD4F208380935702FF91EF919F918F91BE
:100780002F910F900FBE0F901F9018951F920F92F0
:100790000FB60F9211248F939F93EF93FF93909135
:1007A000530280915402981761F0E0915402EF5F78
:1007B000EF71E0935402F0E0ED50FE4F80818CB970
:1007C00001C05598FF91EF919F918F910F900FBEAF
:1007D0000F901F9018959C01109253021092540292
:1007E000109255021092560297FF03C082E08BB917
:1007F0003F7730BD29B988E98AB986E880BD089578
:100800009091550280915602981719F420E031E03A
:1008100012C0E0915602EF5FEF73E0935602F0E0F2
:10082000ED5EFD4F308120915702922F80E0AC01A8
:10083000430F511D9A01C90108959091550280916D
:1008400056029817D1F3E0915602EF5FEF73E093F1
:100850005602F0E0ED5EFD4F80810895282F9091C3
:1008600053029F5F9F71809154029817E1F3E92F23
:10087000F0E0ED50FE4F208390935302559A089577
:100880008091550290915602891B8F730895809133
:10089000560280935502089597B1907E982B97B990
:1008A00040E020E030E0369A349BFECF84B195B131
:1008B000280F391F34984F5F4230A9F730935902FF
:1008C0002093580235952795C9010895FB01908121
:1008D0009827292F2295207F292730E0522F44275F
:1008E000C90163E0880F991F6A95E1F748275927E6
:1008F000818190E04827592784E0359527958A958E
:10090000E1F7422753275183408308956F927F92E6
:100910008F929F92BF92CF92DF92EF92FF920F93AE
:100920001F93CF93DF93B62E3901C82EDD247601B5
:10093000EE0CFF1C47018C0C9D1CE401CC0FDD1F4D
:10094000CC0FDD1FCE5BDC4F18828B819C81843005
:10095000910509F473C0853091055CF482309105EE
:1009600009F443C0833091050CF089C09923C4F485
:1009700093C18730910509F4C1C08830910544F4D2
:100980008530910509F48EC0069709F085C19DC098
:100990008830910509F4E1C0099709F07DC12DC1A6
:1009A0008EEF681709F078C182E090E09C838B831A
:1009B00080E990E0C89ED001C99EB00DD89EB00DD0
:1009C0001124AE54BD4F13961C92139788E490E007
:1009D000C89EF001C99EF00DD89EF00D1124EE0FB7
:1009E000FF1FEC54FD4FB08235C167FF11C08981F4
:1009F0008F5F8983F401EE0FFF1FEE0FFF1FEC5B8B
:100A0000FC4F80818F5F8083188281E090E013C06B
:100A100080E990E0C89EF001C99EF00DD89EF00DCF
:100A20001124EE54FD4F63831D82862FBF010E9467
:100A3000660484E090E09C838B832EC184E290E086
:100A4000C89EF001C99EF00DD89EF00D1124EE0F46
:100A5000FF1FEE0FFF1FEA54FD4F608380E990E017
:100A6000C89EB001C99E700DD89E700D11246E54A1
:100A70007D4F8B2D0E94660483E090E0DCCF80E9FF
:100A800090E0C89EF001C99EF00DD89EF00D112493
:100A9000EE54FD4F6583862FBF010E94660485E0FA
:100AA00090E0C9CF80E990E0C89EF001C99EF00DAA
:100AB000D89EF00D1124EE54FD4F6683862FBF01A2
:100AC0000E94660486E090E0B6CF80E990E0C89E80
:100AD0008001C99E100DD89E100D11240E541D4F7B
:100AE000D80117966C93862FB8010E946604F8010E
:100AF0008381882379F187E090E09DCF8D81F70194
:100B000033E0EE0FFF1F3A95E1F7EE0DFF1D319632
:100B100023E0EE0FFF1F2A95E1F7E80FF11DEE54D9
:100B2000FD4F60838F5F8D8380E990E0C89E8001D8
:100B3000C99E100DD89E100D11240E541D4F862FE6
:100B4000B8010E9466049D81D80113968C91981774
:100B500009F0A2C088E090E06ECF80E990E0C89EE6
:100B60008001C99E100DD89E100D11240E541D4FEA
:100B7000D8011796EC91F0E0E952FF4F8081B8015F
:100B80000E9466042B2D30E0F801808191819070E5
:100B900028173907C9F0F401EE0FFF1FEE0FFF1FF2
:100BA000EC5BFC4F80818F5F8083188281E090E056
:100BB0009C838B83FEEFBF1609F06EC082E090E04D
:100BC0009C838B83D80143C089E090E09C838B8316
:100BD000F70183E0EE0FFF1F8A95E1F7EE0DFF1D91
:100BE000319603E0EE0FFF1F0A95E1F78D81E80FC4
:100BF000F11DEE54FD4FB0824FC0262F30E080E94A
:100C000090E0C89ED001C99EB00DD89EB00D1124B1
:100C1000AE54BD4F11968C91119790E0281739076B
:100C2000F1F0F401EE0FFF1FEE0FFF1FEC5BFC4F26
:100C300080818F5F8083188281E090E09C838B832A
:100C4000EEEF6E1749F582E090E09C838B8313965C
:100C50001C9213978FEF9FEF8D939C931DC081E0A3
:100C6000888381E090E09C838B83F70173E0EE0F33
:100C7000FF1F7A95E1F7EE0DFF1D319663E0EE0F51
:100C8000FF1F6A95E1F78D81E80FF11DED54FD4FCF
:100C9000B082EA01B983A883D601AA0FBB1FAC0DAD
:100CA000BD1DAA0FBB1FAA0FBB1FAE5BBC4F8C9113
:100CB000813069F584E290E0C89EF001C99EF00D94
:100CC000D89EF00D1124EE0FFF1FEE0FFF1FEA5408
:100CD000FD4F808116968C93169718968D919C9156
:100CE0001997892B21F41B961C921E921A97F601D4
:100CF000EE0FFF1FEC0DFD1DEE0FFF1FEE0FFF1F90
:100D0000EE5BFC4F80859185019691878087F60187
:100D1000EE0FFF1FEC0DFD1DEE0FFF1FEE0FFF1F6F
:100D2000DF01AE5BBC4FE301B983A883EC5BFC4FF2
:100D300010828C91DF91CF911F910F91FF90EF90D6
:100D4000DF90CF90BF909F908F907F906F9008958D
:100D50000F931F938C01FC0180810E944C04AA27F1
:100D600097FDA095BA2FBC01CD010E941F18F80174
:100D700021813281438154810E941019F80125811B
:100D80003681478150850E94BB161F910F910895AF
:100D90008AE065E00E94E6110E94861289E292E0F4
:100DA0000E94B9120E94791208951F93CF93DF9386
:100DB00085E06CE00E94E6110E9486128CE091E0D2
:100DC0000E94B9120E94791264EF71E080E090E015
:100DD0000E9464030E944704C0E0D0E010E0CE010E
:100DE0006AEF70E00E94391A892B69F4812F8F5EB7
:100DF0006CE00E94E6110E9486128EEE0E94A812FC
:100E00000E9479121F5F61E070E080E090E00E9434
:100E10006403219687E0C13DD80709F7DF91CF91A0
:100E20001F9108951F9380918202823010F410E97F
:100E300004C010918202110F1257812F0E94A81234
:100E4000812F8F5F0E94A8121F9108952F923F92C9
:100E50004F925F926F927F928F929F92AF92BF92CA
:100E6000CF92DF92EF92FF920F931F93DF93CF9376
:100E700000D000D000D0CDB7DEB789836A832DB70C
:100E80003EB73E832D838DB79EB748970FB6F89433
:100E90009EBF0FBE8DBFEDB7FEB73196FC83EB83CF
:100EA00080918302992787FD909597FF03C09095C5
:100EB00081959F4F8A359105B1F460918302772720
:100EC00067FD70958AE590E00E94391A882777FDC2
:100ED0008095982F0E941F1821EE3AEF43EB52E4C1
:100EE0000E94101909C060918302772767FD7095F1
:100EF000872F972F0E941F1825E33AEF4EE85CEBEF
:100F00000E9410197B018C0180918402992787FD32
:100F1000909597FF03C0909581959F4F8A359105D5
:100F2000B1F460918402772767FD70958AE590E0BF
:100F30000E94391A882777FD8095982F0E941F18E4
:100F400021EE3AEF43EB52E40E94101909C0609180
:100F50008402772767FD7095872F972F0E941F18AF
:100F600025E33AEF4EE85CE30E9410195B016C0147
:100F7000B701C8010E94D81920E030E044E352E4F0
:100F80000E9410190E9473190E94EC177B018C01BA
:100F9000B501C6010E94D8192B013C012B803C8071
:100FA000BEEBCB2EBFEFDB2E4701AA2497FCA0940B
:100FB000BA2CB601882777FD8095982F0E941F18BC
:100FC0009B01AC01C301B2010E9410197B018C018D
:100FD000C501B4010E941F189B01AC01C801B701F3
:100FE0000E94BB1620E030E044E352E40E94BB16AE
:100FF00020E030E040E85FE30E94BA160E94EC1760
:10100000F101619371931F012CE030E0C20ED31EF9
:101010003EE4C316D10469F6CC24DD24AEEE8A2E5C
:10102000AFEF9A2EBA80BA94EB81FC81EC0DFD1DD6
:101030000190F081E02D1E161F06B4F5EA35F1058A
:101040009CF5CF0101976EEE7FEF0E94391A8B015C
:101050000B5F1F4FEB55F040089DC001099D900D9F
:10106000189D900D11249F01281B390BC90162E0C6
:1010700070E00E94391A882777FD8095982F0E948A
:101080001F180E9473190E94EC177B01672B19F43B
:10109000F1E0EF2EF12C6B2D600F89810E9461121F
:1010A0008E2D8B5F0E94A81282E090E0C80ED91EA0
:1010B00099819F5F9983E8E1CE16D10409F0B4CFFE
:1010C0002D813E810FB6F8943EBF0FBE2DBF2696F0
:1010D0000FB6F894DEBF0FBECDBFCF91DF911F9149
:1010E0000F91FF90EF90DF90CF90BF90AF909F90C7
:1010F0008F907F906F905F904F903F902F900895CA
:101100002F923F924F925F926F927F928F929F9217
:10111000AF92BF92CF92DF92FF920F931F93CF9324
:10112000DF930E94560320919702309198024091DC
:10113000990250919A02621B730B840B950B605DB0
:1011400077408040904008F0C6C280919B0288237F
:1011500011F00E94C7122BE6A22E20E0B22ECC2462
:10116000DD2497E7892E91E0992E8DE7682E81E0A6
:10117000782E0BE8402E01E0502E12E9212E11E0CE
:10118000312E1C2D8091670090916800A09169001C
:10119000B0916A000C2C04C0B695A79597958795D9
:1011A0000A94D2F780FF8AC2D5018C9111966C9176
:1011B0000E94E6110E948612EC2DF0E0E831F10564
:1011C00008F078C2E65DFF4FEE0FFF1F0590F49127
:1011D000E02D099418ECFF2434C28EED91E0FDC09F
:1011E0002091830200D000D088ED91E0CDB7DEB72A
:1011F0009A838983332727FD30953C832B8397C1BE
:101200002091840200D000D082ED91E0EDB7FEB7CE
:1012100092838183332727FD30953483238387C1CD
:1012200020915A0230915B0240915C0250915D0224
:1012300000D000D000D089EC91E00DC02091600278
:1012400030916102409162025091630200D000D05F
:1012500000D080EC91E0ADB7BEB712969C938E9310
:101260001197CDB7DEB72B833C834D835E830E94FD
:10127000EB11EDB7FEB736960FB6F894FEBF0FBE72
:10128000EDBF1AC220916F0200D000D0EDB7FEB7BB
:1012900031968BEB91E0ADB7BEB712969C938E93CF
:1012A00011972283D5C080917002823020F0843063
:1012B00008F000C203C088EB91E08FC085EB91E09D
:1012C0008CC08091670290916802A0916902B091F0
:1012D0006A0220916B0230916C0240916D02509134
:1012E0006E02CDB7DEB72A970FB6F894DEBF0FBEF9
:1012F000CDBFEDB7FEB7319665EA71E07A836983B9
:1013000082839383A483B583268337834087518761
:101310000E94EB118DB79EB70A960FB6F8949EBF48
:101320000FBE8DBFC9C16091860270918702809106
:1013300088029091890220E030E040E152E40E946E
:10134000101920E030E044EB53E40E9484170E941F
:1013500073190E94EC179B012550304037FF03C0E2
:101360009B01215E3F4FA2EAB2E0F901ED54FF4F2D
:1013700080818C932F5F3F4F2432310514F020E0A1
:1013800030E0119692E0AD3AB90779F700D000D07D
:10139000CDB7DEB73A8229821B97BC83AB83C7C027
:1013A0008091860290918702A0918802B091890273
:1013B00000D000D000D0EDB7FEB7528241828CC081
:1013C00080919602882339F088E891E00E94B91252
:1013D0001092960271C185E891E00E94B9126CC129
:1013E00080917102813009F067C160917E02709135
:1013F0007F02809180029091810200D000D000D0C5
:101400000DB71EB70F5F1F4FADB7BEB712967C92D8
:101410006E9211970E941F18E8016A837B838C8368
:101420009D8325CF80917102813009F045C10E94D2
:10143000120742C18091950200D000D0EDB7FEB7EF
:101440003196ADB7BEB712969C928E921197828359
:1014500013826DC060918A0270918B0280918C0220
:1014600090918D022091720230917302409174022A
:101470005091750200D000D000D00DB71EB70F5F9D
:101480001F4FEFE6F1E0CDB7DEB7FA83E9830E94A4
:10149000BA16D80112966D937D938D939C931597F0
:1014A0000E94EB11CDB7DEB726960FB6F894DEBFDB
:1014B0000FBECDBF01C180918A0290918B02A09195
:1014C0008C02B0918D0200D000D000D027E631E030
:1014D000EDB7FEB732832183CDB7DEB711C080915F
:1014E0008E0290918F02A0919002B091910200D053
:1014F00000D000D0EFE5F1E0CDB7DEB7FA83E983A5
:101500008B839C83AD83BE83B2CE809192029091F7
:10151000930200D000D0C7E5D1E0ADB7BEB71296B8
:10152000DC93CE93119714969C938E9313970E94FD
:10153000EB110F900F900F900F90BEC020919C0266
:101540008091660280916402909165022230D1F50B
:101550008530910509F46CC08630910578F48230AD
:10156000910509F18230910508F40BC18330910592
:1015700009F458C0049709F09DC018C0883091053F
:10158000C1F08930910540F48630910509F44DC0D1
:10159000079709F08FC03AC08930910569F00A9722
:1015A00009F088C00CC0CDEED1E0EDC0C7EFD1E0AE
:1015B000EAC0CBE0D2E0E7C0C0E1D2E0E4C0C5E1E0
:1015C000D2E0E1C0213009F077C08530910521F1EA
:1015D0008630910550F481309105C1F0813091053C
:1015E000C0F0029709F066C0CCC08A309105D1F0F6
:1015F0008B30910520F4069709F05CC010C08B3049
:10160000910599F00C9709F055C012C0C6E0D2E0E0
:10161000BAC0CAE1D2E0B7C0CFE1D2E0B4C0C4E200
:10162000D2E0B1C0C2EFD1E0AEC0C1E0D2E0ABC009
:10163000CCEFD1E0A8C0E2E0FE1611F418ED01C035
:1016400018EC812F0E94A81200E080E20E94A812EC
:101650000F5F0C30D1F7812F8F5F0E94A8128CE7AB
:101660000E94A812F394F5E0FF1629F70E94791260
:10167000809197008F5F609198000E9426071EC09E
:1016800080919402843051F000D0CEE4D1E0ADB727
:10169000BEB71296DC93CE93119707C000D025E415
:1016A00031E0EDB7FEB7328321830E94EB110F903A
:1016B0000F9002C0163111F00E9479120894C11CDB
:1016C000D11C62E070E0A60EB71E78E1C716D10407
:1016D00009F057CD17C080919B02882399F481E0CF
:1016E00080939B020E94C7120E94C80685E06AE0B0
:1016F0000E94E6110E94861283E291E00E94B912D4
:101700000E9479128DE064E00E94E6110E94861228
:101710000E94191300D000D020E630E0ADB7BEB76C
:1017200012963C932E93119714969C938E93139735
:101730000E94FA112091A102EDB7FEB7319683E61F
:1017400090E0CDB7DEB79A838983228313820E940B
:10175000FA110F900F900F900F900E947912DF9165
:10176000CF911F910F91FF90DF90CF90BF90AF90DE
:101770009F908F907F906F905F904F903F902F90B1
:101780000895C8EED1E080EE0E94A812CE010E941A
:10179000B91290CF1F9382E50E942E040E94C712B7
:1017A0000E94C80686E069E00E94E6110E94861247
:1017B00083E392E00E94B9120E94791210E064E67D
:1017C00070E080E090E00E946403A8951F5F1A30EB
:1017D000B1F7FFCF0F931F93CF93DF9383E70E945F
:1017E0002E0486E40E942E04C7E6D0E000E005C087
:1017F0001991812F0E942E04010F80E0CD3AD80765
:10180000B9F7802F0E942E04DF91CF911F910F9185
:101810000895892B19F4862F0E942E0408952F9283
:101820003F924F925F926F927F928F929F92AF9270
:10183000BF92CF92DF92EF92FF920F931F93DF93AD
:10184000CF93CDB7DEB762970FB6F894DEBF0FBE69
:10185000CDBFE3EEEE2EE1E0FE2E77EDC72E71E078
:10186000D72E67E0262E312C2C0E3D1E53E1452E3F
:10187000512C4C0E5D1E4DE0A42EB12CAC0EBD1EA5
:101880003E010894611C711C33E0832E912C8C0E58
:101890009D1E20919D0230919E02F7014081F6012C
:1018A0008081918198878F8329873A874B87F1E0E0
:1018B000FC878EEF8D8796E09E87909149039F87E6
:1018C0008091AD00888B8091AE00898BE2E4EA8B39
:1018D0009F5F909349038FEF9FEF9E838D838E01CF
:1018E000025F1F4F08C0F80181918F01BE016B5F3D
:1018F0007F4F0E94660404151505A9F78D819E810E
:101900009A838983810106C0F80181918F01B30117
:101910000E9466040A151B05B9F784E9B3010E9409
:10192000660489819A818B839C83850180E090E0A5
:10193000F80161918F010E94090C04151505B1F79A
:10194000810180E090E0F80161918F010E94090C13
:101950000A151B05B1F780E090E0F40160810E9458
:10196000090C80E090E0F40161810E94090C089468
:10197000E11CF11C82E090E0C80ED91E99EEE91638
:1019800091E0F90609F085CF62960FB6F894DEBFB4
:101990000FBECDBFCF91DF911F910F91FF90EF90C0
:1019A000DF90CF90BF90AF909F908F907F906F907F
:1019B0005F904F903F902F900895FF920F931F9349
:1019C00081E60E942E040E941D04A8950E944C04EA
:1019D0008C01892F990F990BF82E0E942E04802FCD
:1019E0000E942E048F2D800F0E942E041F910F91B4
:1019F000FF900895CF92DF92FF920F931F93DF9392
:101A0000CF93CDB7DEB7C654D0400FB6F894DEBF43
:101A10000FBECDBF83E50E942E040E941D04A89531
:101A2000863479F5FF248E010F5F1F4FA7E4CA2E7D
:101A3000D12CCC0EDD1E0E941D04F80181938F0174
:101A4000F80EA895EC15FD05B1F70E941D04A895A8
:101A50008F15B9F4A7E6B0E0FE01319686E4019057
:101A60000D928150E1F7A89587E690E062E070E082
:101A700046E450E00E94CB1AA8950E94C71281E26A
:101A800001C080E40E942E04CA5BDF4F0FB6F894B9
:101A9000DEBF0FBECDBFCF91DF911F910F91FF90A1
:101AA000DF90CF9008958F929F92AF92BF92DF9276
:101AB000EF92FF920F931F93DF93CF93CDB7DEB7D3
:101AC000C054D0400FB6F894DEBF0FBECDBF86E441
:101AD0000E942E04EE24FF245E010894A11CB11C78
:101AE000B7E38B2E912C8C0E9D1E2CC0A8950E94C6
:101AF00040048823D9F30E940004F80181938F01E8
:101B0000D80EE815F90599F701C0A8950E94400480
:101B10008823D9F30E940004D81681F4C701B501C7
:101B20000E94091281E20E942E040894E11CF11C1B
:101B3000F0E0EF16F1E0FF0629F407C080E40E9410
:101B40002E0403C08501DD24D2CF0E94C712C05CE1
:101B5000DF4F0FB6F894DEBF0FBECDBFCF91DF9140
:101B60001F910F91FF90EF90DF90BF90AF909F90EB
:101B70008F9008958F929F92AF92BF92CF92DF92F3
:101B8000FF920F931F93DF93CF9300D000D0CDB778
:101B9000DEB703E0802E912C8C0E9D1E5E01089412
:101BA000A11CB11CFF24F39414E6C12ED12C6AC1F0
:101BB0000E940004682F8091A002882371F56A308A
:101BC00019F06D3039F429C08091A1028F5F8093A4
:101BD000A10223C08091A1028330E8F0633579F03F
:101BE000643528F4663441F06235A9F40EC06136DC
:101BF00079F0633781F406C00E94530D43C10E94FF
:101C0000FA0C40C10E94EA0B3DC10E94CA0B3AC1C6
:101C10000E94DD0C37C11092A10280E0A501940161
:101C20000E948604882309F429C1F092A002A981A8
:101C3000BA8117968C911797883109F463C089315E
:101C400030F4882359F0813009F018C139C08E3141
:101C500009F4E4C08A3409F011C18AC0F0929602F6
:101C600015968C91159780939D0216968C911697D8
:101C700080939E02FD013896848180939C02189681
:101C80008D919C91199790936502809364021092B4
:101C900066028781809394020E9456039B01AC01E7
:101CA00020939702309398024093990250939A029E
:101CB00080919B02882309F4E1C0F0929F02DEC06C
:101CC0008D01085F1F4FF8016685778580E090E001
:101CD0000E941D1820E030E04AE754E40E94841777
:101CE00060935A0270935B0280935C0290935D0252
:101CF000F801868D992787FD909590935F028093D8
:101D00005E02BCC08D01085F1F4FF80160857185C0
:101D10008285938520E836E948E950E00E944C1A14
:101D2000CA01B9010E941F1860936702709368028C
:101D30008093690290936A02F801648575858685AF
:101D4000978520E836E948E950E00E944C1ACA011C
:101D5000B9010E941F1860936B0270936C0280930C
:101D60006D0290936E02F801848D8093700286C09C
:101D70008D01085F1F4FF80184819581A681B7818D
:101D800080938E0290938F02A0939002B093910261
:101D900060897189882777FD8095982F0E941F1888
:101DA00060938602709387028093880290938902E1
:101DB000F801828993899093930280939202809193
:101DC0009202909193028536910558F0809192028B
:101DD000909193028639910520F4D0929302C0929B
:101DE000920280919202909193028091920290913E
:101DF00093028739910520F010929302109292027B
:101E0000F80180859185A285B38580938A0290939D
:101E10008B02A0938C02B0938D0230C08D01085FBD
:101E20001F4FF801608571858285938521EE3EE222
:101E300045E652E40E9410190E94EC176093830259
:101E4000F801648175818681978121EE3EE245E645
:101E500052E40E9410190E94EC1760938402F8016A
:101E6000648575858685978521EE3EE245E652E4D8
:101E70000E9410190E94EC17609385028AE890E096
:101E80000E948E030E944004882309F091CE0F9097
:101E90000F900F900F90CF91DF911F910F91FF90B6
:101EA000DF90CF90BF90AF909F908F9008952F922A
:101EB0003F924F925F926F927F928F929F92AF92DA
:101EC000BF92CF92DF92EF92FF920F931F93DF9317
:101ED000CF9300D000D0CDB7DEB7A89580919F02F8
:101EE000882309F443C00E94C71283E06AE00E947D
:101EF000E6110E94861282EF90E00E94B9120E94C1
:101F000079120E940F0C62E370E080E090E00E9482
:101F100064030E940F0C62E370E080E090E00E9496
:101F200064030E940F0C62E370E080E090E00E9486
:101F3000640310929F0210E068EC70E080E090E093
:101F40000E946403A8951F5F1A30B1F70E94C71260
:101F500010929B020E9456039B01AC0120939702B2
:101F6000309398024093990250939A020E94BA0DBE
:101F70000E94560369837A838B839C838091AE028F
:101F80009091AF02A091B002B091B10229813A8143
:101F90004B815C81281B390B4A0B5B0B29373105C0
:101FA0004105510508F499CF80917102882309F009
:101FB00070C180917002823008F46BC18091670219
:101FC00090916802A0916902B0916A0280937202B6
:101FD00090937302A0937402B093750280916B0288
:101FE00090916C02A0916D02B0916E028093760286
:101FF00090937702A0937802B093790280918A023D
:1020000090918B02A0918C02B0918D0280937A0204
:1020100090937B02A0937C02B0937D0231E03093D9
:10202000710208C160917202709173028091740212
:10203000909175029F7725E33AEF4EE85CE30E94AA
:1020400010190E9481171B012C016091720270917E
:102050007302809174029091750220916702309111
:1020600068024091690250916A020E94BA169F77F5
:1020700020EC3BE649ED57E40E9410195B016C012E
:102080006091760270917702809178029091790246
:1020900020916B0230916C0240916D0250916E0262
:1020A0000E94BA169F7720EC3BE649ED57E40E9468
:1020B0001019A20191010E9410197B018C01C60127
:1020C000B501A60195010E9410195B016C01C801C0
:1020D000B701A80197010E9410199B01AC01C6012C
:1020E000B5010E94BB160E9497190E94EC176093DD
:1020F0007E0270937F028093800290938102A09071
:102100007602B0907702C0907802D0907902609009
:102110006B0270906C0280906D0290906E026091E4
:1021200072027091730280917402909175022091F5
:102130006702309168024091690250916A020E94E0
:10214000BA167B018C0160E070E080E89FE3A20199
:1021500091010E9484179B01AC01C801B7010E9444
:1021600010197B018C01C601B501A40193010E94E5
:10217000BA169B01AC015058C801B7010E942E1736
:1021800020EE3EE245E652E40E94101920E030E0E5
:1021900044EB52E40E94BB160E94EC179B01AC0179
:1021A00097FF04C028593E4F4F4F5F4FCA01B901F6
:1021B000645B70408040904097FF06C0CA01B9013F
:1021C0006C547F4F8F4F9F4FE0908602F0908702B4
:1021D00000918802109189020E941F18A80197019E
:1021E0000E94BA160E94EC1797FF04C068597E4FF0
:1021F0008F4F9F4F0E941F1820E030E044EB53E4C4
:102200000E94841720E030E040E851E40E94101959
:102210000E94731920E030E040E85FE30E94BB16A3
:102220000E94F1176093820280918202813110F046
:10223000109282028091670084FF0CC08BE990E0CD
:102240000E94A8066093600270936102809362020C
:1022500090936302809167009091680080709078FD
:10226000892B41F084EA90E00E94A8060E94F117B1
:10227000609395020E94800889819A81AB81BC811C
:102280008093AE029093AF02A093B002B093B102DC
:1022900024CE80917102813069F6C4CE80E090E056
:1022A0000E94C31A8F3431F481E090E00E94C31A77
:1022B0008130B9F186E069E00E94E6110E94861241
:1022C00083E592E00E94B9120E94791264EF71E0F6
:1022D00080E090E00E94640380E090E06FE40E9460
:1022E000D51A81E090E061E00E94D51A87E690E07F
:1022F00062E070E046E450E00E94CB1A86E069E0BC
:102300000E94E6110E94861280E492E00E94B912B7
:102310000E94791264EF71E080E090E00E94640313
:1023200008C087E690E062E070E046E450E00E947A
:10233000B31A80915103882399F480915003482F58
:1023400050E0ECE6F0E02081822F90E084179507C2
:1023500014F023502083329680E0EC39F80799F787
:102360000895F89482E081BB83E083BF89B78160E0
:1023700089BF81E290E80E94EB0380EB87BB81E597
:102380008DB917B887E886B978940E94E9120E943F
:10239000C8060E944E110E94D50664EF71E080E0ED
:1023A00090E00E9464030E94C7122FE088E190E051
:1023B0000FB6F894A89581BD0FBE21BD08950E9467
:1023C000B1110E94570F80E090E0089580934F0371
:1023D00060934E030895DF93CF93CDB7DEB7FE0130
:1023E00035966191719181E0AF010E943513CF91D3
:1023F000DF910895DF93CF93CDB7DEB7FE01359619
:102400006191719180E0AF010E943513CF91DF910E
:102410000895EF92FF921F93CF93DF93182F7B01C4
:10242000C39880E00E94090380E00E94090389E0CC
:102430000E940903812F0E940903C0E0D0E0F70148
:10244000EC0FFD1F10818AE00E9409038C2F0E946F
:1024500009038BE00E940903812F0E940903219642
:10246000C633D10561F788E00E94090380EA0E9423
:10247000090380EA0E94090385FDFBCF80E00E94EA
:1024800009038CE00E940903C39ADF91CF911F9149
:10249000FF90EF9008951F93182FC39880E00E943B
:1024A0000903112319F0113049F403C0809151033D
:1024B00003C0809151038C610E940903C39A1F914C
:1024C00008950F931F939EE1699F80011124080FC7
:1024D000111DC39885E00E940903812F0E94090302
:1024E00086E00E940903802F0E9409031F910F912B
:1024F000089587E00E9409038FEF0E940903C39AA1
:1025000080914E038F5F80934E0308950F931F9326
:1025100000914E038EE1089F8001112480914F03AA
:10252000080F111DC39884E00E94090383E00E94F4
:10253000090385E00E940903812F0E94090386E0B8
:102540000E940903802F0E9409031F910F91089593
:102550001F93182F8C3729F40E9479120E9486123B
:1025600006C087E00E940903812F0E9409031F9182
:102570000895CF93DF93EC0102C00E94A812FE01E0
:10258000219684918823C9F7DF91CF910895C3984C
:1025900084E00E94090384E00E940903C39A08951D
:1025A000C39880EA0E9409038FEF0E94090381FD0E
:1025B00003C080E490E002C080E090E0809351038B
:1025C000892B11F088E001C086E080935003C39A04
:1025D00008951F93BB9A0E94D012C3988CEE0E945C
:1025E00009038FEF0E940903182F80E00E9409035E
:1025F0008091510382600E94090362E370E080E0F1
:1026000090E00E9464038CE60E940903812F8F7E74
:102610000E94090310E1812F0E94090380E00E94BB
:1026200009031F5F1C31B9F781E00E944B121F9113
:102630000895DF93CF9300D0CDB7DEB7209152033A
:1026400030915303CE0101962115310519F48655B9
:10265000934002C0821B930B9A83898389819A815C
:102660000F900F90CF91DF9108952F923F924F924C
:102670005F926F927F928F929F92AF92BF92CF9212
:10268000DF92EF92FF920F931F93DF93CF93CDB71B
:10269000DEB760970FB6F894DEBF0FBECDBF8C8754
:1026A0007E876D875A019E012F5F3F4F388B2F87A2
:1026B000ED85FE852C8520FD859120FF8191FE878B
:1026C000ED87882309F43DC3853249F420FD8591C7
:1026D00020FF8191FE87ED87853251F406C08A3054
:1026E00021F48DE00E94A8128AE00E94A812E0CF97
:1026F000982FFF24882499243FE13F15D0F09B3286
:1027000069F09C3228F4903259F0933291F40EC063
:102710009D3249F0903369F441E026C052E0F52A39
:1027200084E0F82A2AC098E0F92A27C0E0E1FE2ACE
:1027300024C0F7FC2EC0892F80538A3080F4F6FE27
:1027400006C0FAE09F9E902C1124980E16C02AE035
:10275000829E802C1124880E30E2F32A0EC09E3215
:1027600029F4F6FCEEC240E4F42A07C09C3619F4C2
:1027700050E8F52A02C0983661F4ED85FE852C8577
:1027800020FD959120FF9191FE87ED87992309F017
:10279000B3CF892F8554833020F48F2D8061905ED4
:1027A00007C0892F8556833008F087C18F2D8F7E13
:1027B00086FD02C076E0972E182F1F73953611F410
:1027C000106406C0963611F4106802C091109A94F5
:1027D00017FF0BC03BE3391520F427E06CE3762E9E
:1027E0000EC0792C739427E00AC047E0491528F4FD
:1027F00027E0772457E0952E02C0292D772444E066
:10280000242E312C2A0C3B1CF501608171818281C0
:102810009381AE014F5F5F4F072D0E94D3016C0182
:10282000B9804B2C5524B0FE04C0B3FC02C00DE2AD
:1028300009C011FF02C00BE205C012FD02C000E09A
:1028400001C000E2C2018C709070892BA9F10023B5
:1028500011F483E001C084E0881510F0882408C0DA
:10286000881A13FD05C080E20E94A8128A94D9F745
:10287000002319F0802F0E94A81243FE05C036E6FF
:10288000E32E32E0F32E0FC02AE6E22E22E0F22EF3
:102890000AC00115110509F080520E94A81208947F
:1028A000E11CF11C04C0012F10E000711070F70151
:1028B0008491882371F7FFC017FF12C07C0C44FE7F
:1028C00004C08A81813309F47A9417141CF07724A8
:1028D00073942CC0F8E0F71548F598E0792E26C0DF
:1028E00016FD24C0892D90E08C159D0544F02CEF39
:1028F000C2162FEFD2061CF0106801C09A949920DE
:1029000049F0E2E0F0E0EC0FFD1FE90DF11D8081E0
:102910008033A1F317FF0AC0792C7394892D90E0BE
:10292000C816D90614F0992401C09C1817FD03C0DD
:1029300025E030E009C01C141D041CF021E030E04B
:1029400003C096012F5F3F4F002311F02F5F3F4FD1
:10295000992029F0892D90E00196280F391F882DA4
:1029600090E02817390714F0882401C0821AE12E5C
:10297000FF24C70189709070892B29F006C080E27E
:102980000E94A8128A948820D1F7002319F0802F82
:102990000E94A812E3FE05C006C080E30E94A812B0
:1029A0008A948820D1F717FF45C08601D7FE02C060
:1029B00000E010E076010894E11CF11CE01AF10A35
:1029C00041E050E04C0F5D1FE40EF51EC601871973
:1029D00091093C01892D90E0AA24BB24A81AB90AC8
:1029E0009FEF0F3F190719F48EE20E94A812C0163C
:1029F000D10634F0601671061CF4F701808101C025
:102A000080E3015010400894E11CF11C0A151B05DD
:102A10001CF00E94A812E4CF0C151D0509F049C056
:102A20009A81963328F4953309F043C044FC41C0A1
:102A300081E33FC08A81813311F0FFEEBF220E9403
:102A4000A812992081F08EE20E94A81212E0E1E023
:102A5000F0E0EC0FFD1FE10FF11D1F5F80810E9470
:102A6000A8129A94A1F7E4FC02C085E601C085E4AF
:102A70000E94A812D7FC05C0C114D10441F4B4FED1
:102A800006C0D094C194D108D3948DE201C08BE2EA
:102A90000E94A81280E305C08F5F26EF3FEFC20EB1
:102AA000D31E3AE0C316D104BCF70E94A8128C2DA5
:102AB000805D0E94A812510141C1933631F09337D5
:102AC00091F0933509F055C023C0F50180818983C9
:102AD0006E010894C11CD11C22E030E0A20EB31E8E
:102AE00001E010E012C0F501C080D180F6FC03C007
:102AF0006FEF7FEF02C0692D70E022E030E0A20EA0
:102B0000B31EC6010E94A81A8C013FE7F32214C02D
:102B1000F501C080D180F6FC03C06FEF7FEF02C0EB
:102B2000692D70E022E030E0A20EB31EC6010E94C3
:102B30009D1A8C0130E8F32AF3FE05C016C080E22E
:102B40000E94A8128A94882D90E008171907B8F3FC
:102B50000CC0F601F7FC8591F7FE81916F010E9490
:102B6000A81281108A94015010400115110589F7AF
:102B7000E5C0943611F0993681F5F7FE08C0F501ED
:102B8000208131814281538184E090E00AC0F501C7
:102B9000808191819C01442737FD4095542F82E02C
:102BA00090E0A80EB91E9FE6F92257FF09C0509584
:102BB0004095309521953F4F4F4F5F4FE0E8FE2AFB
:102BC000CA01B901AE014F5F5F4F2AE030E00E94B9
:102BD000AB02E82EFF85EF1A43C0953729F41F2D6D
:102BE0001F7E2AE030E01DC01F2D197F9F3661F047
:102BF000903720F4983509F0A4C00FC0903739F011
:102C0000983709F09EC004C028E030E00AC0106187
:102C100014FD146020E130E004C014FD166020E1D2
:102C200032E017FF08C0F5016081718182819381D4
:102C300044E050E008C0F50180819181BC0180E052
:102C400090E042E050E0A40EB51EAE014F5F5F4F32
:102C50000E94AB02E82E5F85E51A8FE7F82EF1227D
:102C6000F6FE0BC08EEFF822E91438F4F4FE07C02C
:102C7000F2FC05C09FEEF92202C01E2D01C0192DE5
:102C8000F4FE0DC0FE01EE0DF11D8081803319F4BC
:102C9000E9EEFE2208C01F5FF2FE05C003C08F2DC3
:102CA000867809F01F5F0F2DF3FC12C0F0FE0DC0F7
:102CB000181510F09E2C09C09E2C980C911A182DF6
:102CC00004C080E20E94A8121F5F1815D0F304C050
:102CD000181510F4811A01C0882404FF0BC080E38A
:102CE0000E94A81202FF17C001FD02C088E70CC0B5
:102CF00088E50AC0802F867871F001FF02C08BE260
:102D000001C080E2F7FC8DE20E94A81204C080E3BB
:102D10000E94A8129A94E914D0F3EA94E1E0F0E05A
:102D2000EC0FFD1FEE0DF11D80810E94A812EE2018
:102D3000A1F704C080E20E94A8128A948820D1F7EB
:102D4000B7CC60960FB6F894DEBF0FBECDBFCF9163
:102D5000DF911F910F91FF90EF90DF90CF90BF9088
:102D6000AF909F908F907F906F905F904F903F902B
:102D70002F9008955058BB27AA270ED0FFC1C8D165
:102D800030F0CDD120F031F49F3F11F41EF498C102
:102D90000EF4E095E7FB8EC1E92F12D280F3BA174B
:102DA000620773078407950718F071F49EF52AC22D
:102DB0000EF4E0950B2EBA2FA02D0B01B901900156
:102DC0000C01CA01A0011124FF27591B99F0593F9A
:102DD00050F4503E68F11A16F040A22F232F342FE2
:102DE0004427585FF3CF469537952795A795F04030
:102DF0005395C9F77EF41F16BA0B620B730B840B45
:102E0000BAF09150A1F0FF0FBB1F661F771F881FFC
:102E1000C2F70EC0BA0F621F731F841F48F4879554
:102E200077956795B795F7959E3F08F0B3CF939543
:102E3000880F08F09927EE0F97958795089568D128
:102E400058F080E891E009F49EEF69D128F040E85D
:102E500051E059F45EEF09C033C1D4C1E92FE078E5
:102E6000AFD168F3092E052AC1F3261737074807A3
:102E7000590738F00E2E07F8E02569F0E025E064E8
:102E80000AC0EF6307F8009407FADB01B9019D015E
:102E9000DC01CA01AD01EF9346D070D10AD05F9139
:102EA000552331F02BED3FE049E450FD49EC63CF71
:102EB0000895DF93DD27B92FBF7740E85FE316164B
:102EC000170648075B0710F4D92FA3D19F938F9360
:102ED0007F936F936AD2E4E8F0E0F5D04FD12F9161
:102EE0003F914F915F91A8D1DD2349F09058A2EA1C
:102EF0002AED3FE049EC5FE3D0785D274DDFDF91BD
:102F00003DC115D1E3954BC10CD038C108D140F07B
:102F1000FFD030F021F45F3F19F0CCC0511173C1E4
:102F2000CFC04ED198F39923C9F35523B1F3951B24
:102F3000550BBB27AA2762177307840738F09F5FDA
:102F40005F4F220F331F441FAA1FA9F333D00E2E49
:102F50003AF0E0E830D091505040E695001CCAF7B6
:102F600029D0FE2F27D0660F771F881FBB1F26177B
:102F700037074807AB07B0E809F0BB0B802DBF014E
:102F8000FF2793585F4F2AF09E3F510568F092C08B
:102F90003AC15F3FECF3983EDCF3869577956795F1
:102FA000B795F7959F5FC9F7880F911D96958795FF
:102FB00097F90895E1E0660F771F881FBB1F62171E
:102FC00073078407BA0720F0621B730B840BBA0BDC
:102FD000EE1F88F7E095089504D06894B11113C1ED
:102FE0000895F6D088F09F5790F0B92F9927B751E0
:102FF000A0F0D1F0660F771F881F991F1AF0BA95BD
:10300000C9F712C0B13081F0FDD0B1E00895FAC027
:10301000672F782F8827B85F39F0B93FCCF38695B2
:1030200077956795B395D9F73EF49095809570950F
:1030300061957F4F8F4F9F4F0895E89409C097FB8C
:103040003EF490958095709561957F4F8F4F9F4F7F
:103050009923A9F0F92F96E9BB279395F6958795C3
:1030600077956795B795F111F8CFFAF4BB0F11F486
:1030700060FF1BC06F5F7F4F8F4F9F4F16C088232D
:1030800011F096E911C0772321F09EE8872F762F63
:1030900005C0662371F096E8862F70E060E02AF0A4
:1030A0009A95660F771F881FDAF7880F9695879590
:1030B00097F9089597F99F6780E870E060E00895B8
:1030C0009FEF80EC0895DF93CF931F930F93FF92B0
:1030D000EF92DF927B018C01689405C0DA2EEF013C
:1030E000ABD0FE01E894A59125913591459155917C
:1030F000AEF3EF0151DEFE019701A801DA9479F7F2
:10310000DF90EF90FF900F911F91CF91DF91089585
:1031100000240A94161617061806090608950024B6
:103120000A9412161306140605060895C9CF50D046
:10313000E8F3E894E0E0BB279F57F0F02AED3FE08A
:1031400049EC06C0EE0FBB0F661F771F881F28F0E3
:10315000B23A62077307840728F0B25A620B730B06
:10316000840BE3959A9572F7803830F49A95BB0FEB
:10317000661F771F881FD2F7904857C1092E039406
:10318000000C11F4882352F0BB0F40F4BF2B11F454
:1031900060FF04C06F5F7F4F8F4F9F4F0895EF9385
:1031A000E0FF06C0A2EA2AED3FE049EC5FEBF4DD68
:1031B000E5DF0F90039401FC9058E1EBF0E048C18B
:1031C00057FD9058440F551F59F05F3F71F04795D8
:1031D000880F97FB991F61F09F3F79F087950895BD
:1031E000121613061406551FF2CF4695F1DF08C0DC
:1031F000161617061806991FF1CF869571056105F9
:1032000008940895E894BB2766277727CB0197F9A0
:1032100008959B01AC0160E070E080E89FE374CE0C
:103220000BD0ACCF75DF28F07ADF18F0952309F0CA
:1032300041CF46CF1124E7CFC3DFA0F3959FD1F351
:10324000950F50E0551F629FF001729FBB27F00D54
:10325000B11D639FAA27F00DB11DAA1F649F6627A9
:10326000B00DA11D661F829F2227B00DA11D621FF8
:10327000739FB00DA11D621F839FA00D611D221FB2
:10328000749F3327A00D611D231F849F600D211D96
:10329000822F762F6A2F11249F5750408AF0E1F039
:1032A00088234AF0EE0FFF1FBB1F661F771F881F82
:1032B00091505040A9F79E3F510570F0FBCEA3CF2F
:1032C0005F3FECF3983EDCF3869577956795B7956D
:1032D000F795E7959F5FC1F7FE2B880F911D969597
:1032E000879597F9089574DFE0F09E37D8F0963906
:1032F000B8F49E3848F4672F782F8827985FF9CF65
:1033000086957795679593959539D0F3B62FB170DB
:103310006B0F711D811D20F48795779567959395A7
:1033200067C081C070CF11F40EF4CACE7CC050DFEC
:10333000D0F39923D9F3CEF39F57550B87FF81D054
:103340000024A0E640EA900180585695979528F40D
:10335000805C660F771F881F20F026173707480705
:1033600030F4621B730B840B202931294A2BA6955C
:1033700017940794202531254A2758F7660F771FA1
:10338000881F20F026173707480730F4620B730BAD
:10339000840B200D311D411DA09581F7B901842FAB
:1033A0009158880F9695879508959B01AC0138CF69
:1033B000DF93D92FBCDEE695D7952AED3FE049E4AF
:1033C0005FE3B33A6207730784079507D7952AF03E
:1033D000A2EA49EC9068E0DCD1DEEFECF0E038D016
:1033E000DD0F0BF016DFDD0F0BF49058DF91089521
:1033F000882371F4772321F09850872B762F07C00C
:10340000662311F499270DC09051862B70E060E07F
:103410002AF09A95660F771F881FDAF7880F96951E
:10342000879597F908959F3F31F0915020F4879543
:1034300077956795B795880F911D9695879597F91C
:10344000089591505040660F771F881FD2F7089556
:103450009F938F937F936F93FF93EF939B01AC01A7
:10346000DFDEEF91FF912FDE2F913F914F915F9122
:10347000D7CE97FB092E07260AD077FD04D027D098
:1034800006D000201AF4709561957F4F0895F6F7E5
:10349000909581959F4F089597FB092E05260ED094
:1034A00057FD04D028D00AD0001C38F45095409520
:1034B000309521953F4F4F4F5F4F0895F6F7909508
:1034C0008095709561957F4F8F4F9F4F0895AA1BF0
:1034D000BB1B51E107C0AA1FBB1FA617B70710F0FF
:1034E000A61BB70B881F991F5A95A9F78095909531
:1034F000BC01CD010895A1E21A2EAA1BBB1BFD0140
:103500000DC0AA1FBB1FEE1FFF1FA217B307E407C2
:10351000F50720F0A21BB30BE40BF50B661F771F1A
:10352000881F991F1A9469F76095709580959095FA
:103530009B01AC01BD01CF010895FC0105906150D4
:1035400070400110D8F7809590958E0F9F1F0895B9
:10355000FC016150704001900110D8F78095909562
:103560008E0F9F1F0895DC01CB01FC01E199FECF76
:1035700006C0FFBBEEBBE09A31960DB20D924150F2
:103580005040B8F70895E199FECF9FBB8EBBE09AFB
:1035900099278DB30895DC01CB0103C02D910E94C2
:1035A000D61A41505040D0F70895262FE199FECF0A
:1035B0009FBB8EBB2DBB0FB6F894E29AE19A0FBE6B
:0835C00001960895F894FFCF75
:1035C80025690020256900EE1FFC000D0716090B70
:1035D8000115011503020D050D020E100E180D023E
:1035E800090E03020100000000160515020202027E
:1035F8000202030204110D08070B0400000000007A
:10360800000000000000000000000000000C0100A5
:10361800000000C2C0C0C1C0C0C1C0C0C4C0C0C1D9
:10362800C0C0C1C0C0C3C0C0C1C0C0C1C0C0C5C087
:10363800C0C1C0C0C1C0C0327C8900EDD968770064
:103648000000590000000000000000D69FDCA81808
:1036580017AA90437327F6B968EDF4DED409FEE69D
:103668001C1C84DDE80B992927D6DF8D210F036404
:1036780018EFEE1EF0B7828200941500347C00002B
:10368800001400988F0000000000000000000000F7
:10369800E7B73F3600000000000000AF669ED03854
:1036A8000000000000000000000000000000000012
:1036B8000000000000000000000000000000000002
:1036C8000000000000000000000000000086DBD0C1
:1036D800BC5416131586004E44BD7F2A15150000EC
:1036E80000000000000000000000000000000000D2
:1036F80000000000000000000000000000000000C2
:1037080000000000000000000000000000000000B1
:1037180000000000000000000000000000000000A1
:103728000000000000000000000000000000000091
:10373800CC31AA2C532E000200020005000200051D
:0A374800000200010203060A0B0054
:00000001FF
