:100000000C94DC010C94F9010C94F9010C94F901A5
:100010000C947E030C94F9010C94F9010C94F901F1
:100020000C94F9010C9436030C94F9010C94D3034D
:100030000C94FD030C94F9010C94F9010C94F90152
:100040000C94F9010C94F9010C94F9010C94F90148
:100050000C94F9013007330741074F075D076B0721
:1000600075078307BA07F9070908530817085608E0
:100070008808C708D908E70803091E0956096E0948
:10008000B009C9092D071A0A084AD73B3BCE016EB1
:1000900084BCBFFDC12F3D6C74319ABD56833DDADF
:1000A0003D00C77F11BED9E4BB4C3E916BAAAABEEE
:1000B000000000803F05A84CCDB2D44EB93836A917
:1000C000020C50B9918688083CA6AAAA2ABE000054
:1000D00000803F0664EC1B3C04BC163E3BE5B93C8B
:1000E000C93C37C29E5A3D660498083EEA69AAAAEE
:1000F0003E000000803F52657175657374696E67DC
:10010000204461746153747265616D732E2E2E00EC
:10011000426F6F74696E672075703AEDF2F2F2F219
:10012000F2F2F2F2F2F30057616974696E672066C9
:100130006F727C4D41564C696E6B206865617274BC
:1001400062656174732E2E2E002020202020202036
:10015000200044697361726D65640041504D20490F
:100160006E69740087253369252500E825332E3014
:1001700066256300E925332E3066256300E72535C3
:100180002E3066256300E625352E3066256300E5B2
:1001900025352E32668F00E425352E32668F00E13C
:1001A000253369252500572532690025342E306610
:1001B0002563001F25352E3066256300EAEB00EA33
:1001C000EC0025342E3066B00020C0C0C0C0C0C7CF
:1001D000C0C0C0C0C0207CD02573D1008325313180
:1001E0002E36667C842531312E36660011200010B3
:1001F00020000F25326900E325352E32668E00E29D
:1002000025352E32668E00253469B0B2002534695A
:10021000B0B100050304057C151314150048617A7C
:10022000792773204F53442076312E312E30627C53
:1002300020666F72204D41564C696E6B20312E3016
:10024000005265626F6F74696E672E2E2E004F53D9
:100250004420496E697469616C697A656420202064
:10026000004D697373696E672F4F6C6420436F6E26
:10027000666967007374616200616C74680061751F
:10028000746F0067756964006C6F697400726574DF
:100290006C006369726300706F7369006C616E64F7
:1002A000006F666C6F006D616E750066627761004D
:1002B00066627762006E616E00696E660000407A69
:1002C00010F35A00A0724E18090010A5D4E80000DF
:1002D000E87648170000E40B54020000CA9A3B007D
:1002E0000000E1F505000080969800000040420FF4
:1002F000000000A08601000000102700000000E8B8
:1003000003000000006400000000000A000000007C
:10031000000100000000002C76D888DC674F08231D
:10032000DFC1DFAE59E1B1B796E5E3E453C63AE683
:1003300051997696E8E6C28426EB898C9B62ED4063
:100340007C6FFCEFBC9C9F40F2BAA56FA5F49005B2
:100350005A2AF75C936B6CF9676DC11BFCE0E40DE6
:1003600047FEF520E6B500D0ED902E0300943577DA
:10037000050080841E080000204E0A000000C80C02
:10038000333333330F986E12831141EF8D2114896B
:100390003BE65516CFFEE6DB18D1844B381BF77CC5
:1003A0001D901DA4BBE424203284725E228100C90A
:1003B000F124ECA1E53D270011241FBECFE5D4E0D8
:1003C000DEBFCDBF11E0A0E6B0E0E4EEF5E302C091
:1003D00005900D92A433B107D9F712E0A4E3B1E080
:1003E00001C01D92A039B107E1F70E94650E0C947F
:1003F000F01A0C940000283008F027E03327DA01C7
:10040000990F311D87FD916000966105710539F4E2
:1004100032602E5F3D9330E32A95E1F708959F3FC8
:1004200030F080387105610509F03C5F3C5F3D9319
:10043000913008F08068911DDF93CF931F930F9345
:10044000FF92EF92192F987F9695E92F96959695A2
:10045000E90FFF27E95EFC4F99273327EE24FF249D
:10046000A701E70105900894079428F4360FE71ECA
:10047000F81E491F511D660F771F881F991F06948C
:10048000A1F70590079428F4E70EF81E491F561FA0
:10049000C11D770F881F991F661F0694A1F705904D
:1004A000079428F4F80E491F561FC71FD11D880F47
:1004B000991F661F771F0694A1F70590079420F4F3
:1004C000490F561FC71FD81F990F661F771F881F18
:1004D0000694A9F784911095177041F0D695C795A9
:1004E00057954795F794E7941A95C1F7EDEBF2E02D
:1004F00068941590159135916591959105907FE2DD
:100500007395E118F10A430B560BC90BD009C0F7DC
:10051000E10CF11E431F561FC91FD01D7EF470331E
:1005200011F48A95E6CFE894015030F0080F0AF4F0
:100530000027021708F4202F2395022F7A3328F082
:1005400079E37D932A95E9F710C07D932A9589F682
:10055000069497956795379517951794E118F10AC2
:10056000430B560BC90BD00998F023957E917395D8
:100570007A3308F070E37C932013B8F77E917061B2
:100580007D9330F0839571E37D9370E32A95E1F7D5
:100590001124EF90FF900F911F91CF91DF91992738
:1005A00087FD90950895FA01AA27283051F120314E
:1005B00081F1E8946F936E7F6E5F7F4F8F4F9F4FF7
:1005C000AF4FB1E03ED0B4E03CD0670F781F891F39
:1005D0009A1FA11D680F791F8A1F911DA11D6A0F07
:1005E000711D811D911DA11D20D009F468943F91BA
:1005F0002AE0269F11243019305D3193DEF6CF01B9
:100600000895462F4770405D4193B3E00FD0C9F77E
:10061000F6CF462F4F70405D4A3318F0495D31FDEB
:100620004052419302D0A9F7EACFB4E0A69597953E
:10063000879577956795BA95C9F700976105710514
:1006400008959B01AC010A2E06945795479537955E
:100650002795BA95C9F7620F731F841F951FA01DB8
:1006600008958FB9779BFECF8FB108951F920F9297
:100670000FB60F9211242F933F938F939F93AF93B5
:10068000BF938091380190913901A0913A01B091C6
:100690003B0130913D010196A11DB11D232F2D5F1E
:1006A0002D3720F02D570196A11DB11D20933D013E
:1006B0008093380190933901A0933A01B0933B01A4
:1006C0008091340190913501A0913601B0913701AC
:1006D0000196A11DB11D8093340190933501A09323
:1006E0003601B0933701BF91AF919F918F913F91A8
:1006F0002F910F900FBE0F901F9018951F920F9281
:100700000FB60F9211248F9381E080933C018F915B
:100710000F900FBE0F901F9018958FB7F8942091EF
:1007200038013091390140913A0150913B018FBF1E
:10073000B901CA010895EF92FF920F931F937B01B5
:100740008C018FB7F8944091380150913901609134
:100750003A0170913B018FBF2FB7F8948091380117
:1007600090913901A0913A01B0913B012FBF841BB8
:10077000950BA60BB70BE816F9060A071B0760F7DF
:100780001F910F91FF90EF900895019759F0FC0190
:10079000EE0FFF1FEE0FFF1F32978FB7F8943197C0
:1007A000F1F78FBF08951F920F920FB60F92112489
:1007B0002F938F939F93EF93FF939BB12CB1E09175
:1007C000A001EF5FEF738091A101E81711F482E0BF
:1007D00008C0892F8871E093A001F0E0E25AFE4F33
:1007E00020838093A201FF91EF919F918F912F9190
:1007F0000F900FBE0F901F9018951F920F920FB67B
:100800000F9211248F939F93EF93FF9390919E01EA
:1008100080919F01981761F0E0919F01EF5FEF7168
:10082000E0939F01F0E0E25CFE4F80818CB901C053
:100830005598FF91EF919F918F910F900FBE0F9060
:100840001F9018959C0110929E0110929F0110928A
:10085000A0011092A10197FF03C082E08BB93F77FE
:1008600030BD29B988E98AB986E880BD089590919C
:10087000A0018091A101981719F420E031E012C085
:10088000E091A101EF5FEF73E093A101F0E0E25A84
:10089000FE4F30812091A201922F80E0AC01430FE6
:1008A000511D9A01C90108959091A0018091A10163
:1008B0009817D1F3E091A101EF5FEF73E093A101ED
:1008C000F0E0E25AFE4F80810895282F90919E011A
:1008D0009F5F9F7180919F019817E1F3E92FF0E0EE
:1008E000E25CFE4F208390939E01559A089580917B
:1008F000A0019091A101891B8F7308958091A1019E
:100900008093A001089587B940E020E030E0369A56
:10091000349BFECF84B195B1280F391F34984F5FB7
:100920004230A9F73093A4012093A3013595279570
:10093000C901089580918F02882399F480918E02D5
:10094000482F50E0E7E6F0E02081822F90E0841706
:10095000950714F023502083329680E0E739F8079A
:1009600099F78091610087FF1DC086E696E6A6E6AE
:10097000B0E48093A8019093A901A093AA01B09339
:10098000AB0180E090E0A0E8BFE38093AC019093DE
:10099000AD01A093AE01B093AF0181E88093A601B1
:1009A0008DE81CC082E598EBAEE0B0E48093A8012E
:1009B0009093A901A093AA01B093AB0185E89BEEA7
:1009C000A1E5B0E48093AC019093AD01A093AE019A
:1009D000B093AF018BEF8093A60186E68093A701C9
:1009E00008950F931F938C01FC0180810E94830462
:1009F000AA2797FDA095BA2FBC01CD010E944618E9
:100A0000F80121813281438154810E945B19F801F0
:100A100025813681478150850E94DE161F910F91F6
:100A2000089587E065E00E9434120E94C5128DE1AE
:100A300092E00E94F8120E94B81208950E940613D4
:100A40000E94110585E06AE00E9434120E94C512DE
:100A500087E291E00E94F8120E94B81208951F9355
:100A6000CF93DF9385E06CE00E9434120E94C512A0
:100A700080E191E00E94F8120E94B81264EF71E0E8
:100A800080E090E00E949B030E947E04C0E0D0E0E2
:100A900010E0CE016AEF70E00E94841A892B69F49D
:100AA000812F8F5E6CE00E9434120E94C5128EEE80
:100AB0000E94E7120E94B8121F5F61E070E080E0C0
:100AC00090E00E949B03A895219687E0C13DD8073E
:100AD00001F7DF91CF911F9108951F93823010F499
:100AE00010E903C0182F110F1257812F0E94E7122F
:100AF000812F8F5F0E94E7121F9108952F923F92DE
:100B00004F925F926F927F928F929F92AF92BF921D
:100B1000CF92DF92EF92FF920F931F93DF93CF93C9
:100B200000D000D000D0CDB7DEB789836A832DB75F
:100B30003EB73E832D838DB79EB748970FB6F89486
:100B40009EBF0FBE8DBFEDB7FEB73196FC83EB8322
:100B50008091EB01992787FD909597FF03C09095B1
:100B600081959F4F8A359105B1F46091EB0177270C
:100B700067FD70958AE590E00E94841A882777FDCA
:100B80008095982F0E94461821EE3AEF43EB52E4ED
:100B90000E945B1909C06091EB01772767FD709592
:100BA000872F972F0E94461825E33AEF4EE85CEB1B
:100BB0000E945B197B018C018091EC01992787FDD4
:100BC000909597FF03C0909581959F4F8A35910529
:100BD000B1F46091EC01772767FD70958AE590E0AC
:100BE0000E94841A882777FD8095982F0E944618C6
:100BF00021EE3AEF43EB52E40E945B1909C0609189
:100C0000EC01772767FD7095872F972F0E94461874
:100C100025E33AEF4EE85CE30E945B195B016C014F
:100C2000B701C8010E94231A20E030E044E352E4F7
:100C30000E945B190E94BE190E9413187B018C014F
:100C4000B501C6010E94231A2B013C012B803C8078
:100C50002EEBC22E2FEFD22E4701AA2497FCA09490
:100C6000BA2CB601882777FD8095982F0E944618E8
:100C70009B01AC01C301B2010E945B197B018C0195
:100C8000C501B4010E9446189B01AC01C801B7011F
:100C90000E94DE1620E030E044E352E40E94DE16BB
:100CA00020E030E040E85FE30E94DD160E94131868
:100CB000F101619371931F012CE030E0C20ED31E4D
:100CC0003EE4C316D10469F6CC24DD249EEE892EC1
:100CD0009FEF992EBA80BA94EB81FC81EC0DFD1D3B
:100CE0000190F081E02D1E161F06B4F5EA35F105DE
:100CF0009CF5CF0101976EEE7FEF0E94841A8B0165
:100D00000B5F1F4FEB55F040089DC001099D900DF2
:100D1000189D900D11249F01281B390BC90162E019
:100D200070E00E94841A882777FD8095982F0E9492
:100D300046180E94BE190E9413187B01672B19F4F4
:100D400081E0E82EF12C6B2D600F89810E94A012AA
:100D50008E2D8B5F0E94E71282E090E0C80ED91EB4
:100D600099819F5F9983E8E1CE16D10409F0B4CF51
:100D70002D813E810FB6F8943EBF0FBE2DBF269643
:100D80000FB6F894DEBF0FBECDBFCF91DF911F919C
:100D90000F91FF90EF90DF90CF90BF90AF909F901A
:100DA0008F907F906F905F904F903F902F9008951D
:100DB0002F923F924F925F926F927F928F929F926B
:100DC000AF92BF92CF92DF92EF92FF920F931F9359
:100DD000CF93DF93A6E6CA2EA0E0DA2EC0E0D0E0E3
:100DE000F6EA6F2EF1E07F2EE3EB4E2EE1E05E2E71
:100DF00072EC272E71E0372E67E0A62E62E0B62E49
:100E00005DE0852E52E0952E1C2F8091620090911E
:100E10006300A0916400B09165000C2E04C0B695EB
:100E2000A795979587950A94D2F780FF1BC3D601A3
:100E30008C9111966C910E9434120E94C512EC2F75
:100E4000F0E0EA31F10508F009C3E65DFF4FEE0F6F
:100E5000FF1F0590F491E02D099418ECEE24CBC20D
:100E600083E192E0F4C28091EB0100D000D0EDB7B5
:100E7000FEB792828182992787FD90959483838320
:100E800081C28091EC0100D000D0ADB7BEB7129600
:100E9000BC92AE921197992787FD90956FC2809171
:100EA000BC019091BD01A091BE01B091BF0100D0E5
:100EB00000D000D02FEF31E097C18091C401909114
:100EC000C501A091C601B091C70100D000D000D0EB
:100ED00027EF31E089C18091D70100D000D0EDB774
:100EE000FEB7319622EF31E05BC18091D8018230AC
:100EF00020F0843008F0B2C203C08FEE91E0A7C2A8
:100F00008CEE91E0A4C2E090CF01F090D00100916E
:100F1000D1011091D2012091D3013091D40140919F
:100F2000D5015091D6016DB77EB76A5070400FB6AB
:100F3000F8947EBF0FBE6DBFEDB7FEB731966CED76
:100F400071E0ADB7BEB712967C936E931197E282B3
:100F5000F3820483158326833783408751870E9459
:100F600039128DB79EB70A960FB6F8949EBF0FBE82
:100F70008DBF76C26091EE017091EF018091F0011A
:100F80009091F10120E030E040E152E40E945B19D1
:100F900020E030E044EB53E40E94AB170E94BE19FE
:100FA0000E9413189B012550304037FF03C09B015E
:100FB000215E3F4FA0EBB1E0F901E350FF4F80818C
:100FC0008C932F5F3F4F2432310514F020E030E046
:100FD000119691E0AB3BB90779F700D000D029EC2E
:100FE00031E0EDB7FEB7328321831B97B483A3832F
:100FF000C9C18091EE019091EF01A091F001B091F3
:10100000F10100D000D000D0EDB7FEB732822182CE
:10101000EFC080910702882339F08FEB91E00E94A6
:10102000F812109207021CC28CEB91E010C2609182
:10103000E6017091E7018091E8019091E901ADB777
:10104000BEB718970FB6F894BEBF0FBEADBF0DB7B1
:101050001EB70F5F1F4F12965C924E9211970E941F
:1010600046182091AC013091AD014091AE015091F4
:10107000AF010E945B19F8016283738384839583B7
:101080008091A701992787FD9095978386830E9479
:1010900039122DB73EB7285F3F4F0FB6F8943EBFC9
:1010A0000FBE2DBFDDC18091EA012FC06091050206
:1010B00070910602E090EE01F090EF010091F001D6
:1010C0001091F101882777FD8095982F0E9446188E
:1010D000A80197010E94DD1620E030E044EB53E4C4
:1010E0000E94AB1720E030E040E851E40E945B1919
:1010F0000E94BE1920E030E040E85FE30E94DE1667
:101100000E941318862F67FD805F0E946D05A8C19D
:101110002091020260910302709104028DB79EB784
:101120000A970FB6F8949EBF0FBE8DBF0DB71EB7BE
:101130000F5F1F4FADB7BEB712967C926E9211979C
:10114000F8012283138280E090E00E9444182091ED
:10115000AC013091AD014091AE015091AF010E94C0
:101160005B19D80114966D937D938D939C9317977B
:101170008091A701992787FD909519969C938E934E
:1011800018970E943912EDB7FEB73A96E3C08091E6
:10119000010200D000D0EDB7FEB731962FE931E063
:1011A000ADB7BEB712963C932E93119782831382EC
:1011B000E9C08091C0019091C101A091C201B0919C
:1011C000C30100D000D000D027E931E00DC08091EC
:1011D000C8019091C901A091CA01B091CB0100D082
:1011E00000D000D02FE831E0EDB7FEB73283218385
:1011F00083839483A583B6830E9439122DB73EB7AB
:101200002A5F3F4F4ACF6091F2017091F3018091C4
:10121000F4019091F501ADB7BEB718970FB6F894E9
:10122000BEBF0FBEADBF0DB71EB70F5F1F4FE6E8C5
:10123000F1E01296FC93EE93119724C06091F201B5
:101240007091F3018091F4019091F5012091E201F8
:101250003091E3014091E4015091E501ADB7BEB793
:1012600018970FB6F894BEBF0FBEADBF0DB71EB72F
:101270000F5F1F4FEDE7F1E01296FC93EE9311978D
:101280000E94DD162091AC013091AD014091AE017C
:101290005091AF010E945B19D80112966D937D9316
:1012A0008D939C9315978091A70148C06091FA0196
:1012B0007091FB018091FC019091FD012DB73EB72B
:1012C000285030400FB6F8943EBF0FBE2DBF0DB76B
:1012D0001EB70F5F1F4FE4E7F1E017C06091F60102
:1012E0007091F7018091F8019091F9012DB73EB707
:1012F000285030400FB6F8943EBF0FBE2DBF0DB73B
:101300001EB70F5F1F4FEBE6F1E0ADB7BEB7129609
:10131000FC93EE9311972091A8013091A90140917F
:10132000AA015091AB010E945B19D80112966D93EE
:101330007D938D939C9315978091A601992787FDA6
:10134000909517969C938E9316970E943912EDB73D
:10135000FEB738960FB6F894FEBF0FBEEDBF80C043
:101360008091FE019091FF0100D000D0E4E6F1E011
:10137000ADB7BEB71296FC93EE93119714969C935B
:101380008E9313970E9439120F900F900F900F9029
:1013900067C080910C02813031F48091CC01909132
:1013A000CD010D9738F08091CC019091CD010B9734
:1013B00008F056C080EE0E94E71280910C02813046
:1013C00049F4E091CC01F091CD01EE0FFF1FE35203
:1013D000FF4F08C0E091CC01F091CD01EE0FFF1F4F
:1013E000E953FF4F8081918132C0F2E0EF1611F492
:1013F00018ED01C018EC812F0E94E71200E080E296
:101400000E94E7120F5F0C30D1F7812F8F5F0E948F
:10141000E7128CE70E94E712E39425E0E21629F731
:101420000E94B812809196008F5F609197000E9491
:101430007E0518C080910002833018F48BE591E09E
:1014400006C080910002843029F082E591E00E947C
:10145000F81206C089E491E00E94F812183111F0E8
:101460000E94B812219662E070E0C60ED71ECA3103
:10147000D10509F0C9CCDF91CF911F910F91FF9059
:10148000EF90DF90CF90BF90AF909F908F907F9024
:101490006F905F904F903F902F90089582E50E944B
:1014A00065040E9406130E94110586E069E00E940F
:1014B00034120E94C51281E492E00E94F8120E9448
:1014C000B812FFCF0F931F93CF93DF9383E70E9450
:1014D000650487E60E94650400E0C0E6D0E005C030
:1014E0001991812F0E946504010F80E0C73CD80745
:1014F000B9F7802F0E946504DF91CF911F910F9162
:101500000895FF920F931F9381E60E9465040E9445
:101510005404A8950E9483048C01892F990F990B7C
:10152000F82E0E946504802F0E9465048F2D800F85
:101530000E9465041F910F91FF900895CF92DF9252
:10154000FF920F931F93DF93CF93CDB7DEB7C756AC
:10155000D0400FB6F894DEBF0FBECDBF83E50E942A
:1015600065040E945404A8958736A1F5FF248E01D6
:101570000F5F1F4F88E6C82ED12CCC0EDD1E0E94B7
:101580005404F80181938F01F80EA895EC15FD0520
:10159000B1F70E945404A8958F15E1F48981863033
:1015A000C9F4A0E6B0E0FE01319687E601900D9205
:1015B0008150E1F7A89580E690E061E070E047E6B1
:1015C00050E00E94D91AA8950E9406130E949A041E
:1015D00081E201C080E40E946504C959DF4F0FB663
:1015E000F894DEBF0FBECDBFCF91DF911F910F9159
:1015F000FF90DF90CF9008958F929F92AF92BF920D
:10160000DF92EF92FF920F931F93DF93CF93CDB7AB
:10161000DEB7C054D0400FB6F894DEBF0FBECDBFCA
:1016200086E40E946504EE24FF245E010894A11C58
:10163000B11C97E3892E912C8C0E9D1E2CC0A89571
:101640000E9477048823D9F30E943704F80181931C
:101650008F01D80EE815F90599F701C0A8950E94E9
:1016600077048823D9F30E943704D81681F4C70180
:10167000B5010E94481281E20E9465040894E11CB1
:10168000F11CF0E0EF16F1E0FF0629F407C080E45A
:101690000E94650403C08501DD24D2CF0E94061399
:1016A000C05CDF4F0FB6F894DEBF0FBECDBFCF9149
:1016B000DF911F910F91FF90EF90DF90BF90AF905F
:1016C0009F908F9008953DC00E943704982F80917D
:1016D0000F02882371F59A3019F09D3039F429C032
:1016E0008091A5018F5F8093A50123C08091A50102
:1016F0008330E8F0933579F0943528F4963441F04E
:101700009235A9F40EC0913679F0933781F406C072
:101710000E94FC0A16C00E949E0A13C00E94620A20
:1017200010C00E944E0A0DC00E94810A0AC0109289
:10173000A501892F0E94AE0E8AE890E00E94C503A1
:10174000A8950E947704882309F0BECF089580E011
:1017500090E00E94D11A8F3431F481E090E00E9431
:10176000D11A863091F186E069E00E9434120E941D
:10177000C51281E692E00E94F8120E94B81264EF4E
:1017800071E080E090E00E949B0380E090E06FE4D5
:101790000E94E31A80E690E061E070E047E650E0E6
:1017A0000E94D91A86E069E00E9434120E94C51294
:1017B0008EE492E00E94F8120E94B81264EF71E089
:1017C00080E090E00E949B0308C080E690E061E02A
:1017D00070E047E650E00E94C11A0E949A04089502
:1017E0002F923F924F925F926F927F928F929F9231
:1017F000AF92BF92CF92DF92EF92FF920F931F931F
:10180000DF93CF9300D000D00F92CDB7DEB70E9408
:1018100011050E94A70B0E942F050E941E05EE24B1
:10182000FF2487011DC221E02D83A89580910F021E
:10183000823059F50E9406130E94110583E06AE088
:101840000E9434120E94C51286EF90E00E94F812A6
:101850000E94B8120E94661162E370E080E090E09E
:101860000E949B030E94661162E370E080E090E0BA
:101870000E949B030E94661162E370E080E090E0AA
:101880000E949B0383E080930F020E94630B0E94DF
:101890008D0369837A838B839C8380910802909166
:1018A0000902A0910A02B0910B0229813A814B8171
:1018B0005C81281B390B4A0B5B0BDA01C901805D87
:1018C0009740A040B04008F0B5C189819A81AB81B2
:1018D000BC818E199F09A00BB10B89379105A10519
:1018E000B10508F4B4C180910F02843008F4AFC18F
:1018F0008091D901882309F0BCC18091D801823040
:1019000008F4B7C18091CF019091D001A091D1018D
:10191000B091D2018093DA019093DB01A093DC01B6
:10192000B093DD018091D3019091D401A091D501B4
:10193000B091D6018093DE019093DF01A093E00186
:10194000B093E1018091F2019091F301A091F40133
:10195000B091F5018093E2019093E301A093E4013B
:10196000B093E50141E04093D90108C16091DA01EB
:101970007091DB018091DC019091DD019F7725E37F
:101980003AEF4EE85CE30E945B190E94A8171B0126
:101990002C016091DA017091DB018091DC01909162
:1019A000DD012091CF013091D0014091D1015091C2
:1019B000D2010E94DD169F7720EC3BE649ED57E40B
:1019C0000E945B195B016C016091DE017091DF0187
:1019D0008091E0019091E1012091D3013091D401F7
:1019E0004091D5015091D6010E94DD169F7720ECE1
:1019F0003BE649ED57E40E945B19A20191010E9468
:101A00005B197B018C01C601B501A60195010E94FD
:101A10005B195B016C01C801B701A80197010E9425
:101A20005B199B01AC01C601B5010E94DE160E9444
:101A3000E2190E9413186093E6017093E701809306
:101A4000E8019093E901A090DE01B090DF01C09021
:101A5000E001D090E1016090D3017090D4018090BA
:101A6000D5019090D6016091DA017091DB018091EF
:101A7000DC019091DD012091CF013091D0014091A6
:101A8000D1015091D2010E94DD167B018C0160E0F2
:101A900070E080E89FE3A20191010E94AB179B01D7
:101AA000AC01C801B7010E945B197B018C01C60122
:101AB000B501A40193010E94DD169B01AC015058B1
:101AC000C801B7010E94511720EE3EE245E652E4FC
:101AD0000E945B1920E030E044EB52E40E94DE16E5
:101AE0000E9413189B01AC0197FF04C028593E4F78
:101AF0004F4F5F4FCA01B901645B70408040904016
:101B000097FF06C0CA01B9016C547F4F8F4F9F4F9A
:101B1000E090EE01F090EF010091F0011091F101E1
:101B20000E944618A80197010E94DD160E94131812
:101B300097FF04C068597E4F8F4F9F4F0E944618F1
:101B400020E030E044EB53E40E94AB1720E030E0AB
:101B500040E851E40E945B190E94BE1920E030E089
:101B600040E85FE30E94DE160E9418186093EA01C5
:101B70008091EA01813110F01092EA0180916100B8
:101B800080FF0CC08AE990E00E94F1046093BC01E0
:101B90007093BD018093BE019093BF01809161005D
:101BA00081FF0CC083EA90E00E94F1046093C401BD
:101BB0007093C5018093C6019093C7018091610025
:101BC00082FF0CC08CEA90E00E94F1046093C00197
:101BD0007093C1018093C2019093C3018091610011
:101BE00083FF0CC085EB90E00E94F1046093C80174
:101BF0007093C9018093CA019093CB0180916100D9
:101C000084FF08C08EEB90E00E94F1040E94181837
:101C10006093010280910F02843029F40E94061320
:101C200055E050930F020E94D806E980FA800B819C
:101C30001C810DC080910F02813049F080910F020C
:101C4000882329F081E080930F020E941E05809175
:101C50003C01882309F4E9CD10923C01869B02C027
:101C60001D82E3CDED81EE2309F4DDCDF2E0FD83AD
:101C7000DCCD8091D901813009F080CF77CEF89406
:101C800082E081BB83E083BF89B7816089BF87E041
:101C900085BD89B7806489BF81E290E80E942204F3
:101CA00080EB87BB81E58DB917B887E886B9969A2E
:101CB00078940E9428132FE088E190E00FB6F89402
:101CC000A89581BD0FBE21BD08950E943F0E0E94C0
:101CD000F00B80E090E00895FB0190819827292F78
:101CE0002295207F292730E0522F4427C90163E045
:101CF000880F991F6A95E1F748275927818190E05D
:101D00004827592784E0359527958A95E1F742279A
:101D100053275183408308958931B1F08A3138F4D3
:101D2000813061F0813060F08831B1F40BC08332D2
:101D300089F08A3459F08E3179F40AC08CE708951D
:101D400082E3089588E1089587E1089584E1089584
:101D500087E2089584EF089580E008951F93182F77
:101D600010928002809183029091840284309105C8
:101D700009F44EC08530910554F48230910561F12B
:101D8000833091050CF04EC09923C4F4D4C0873041
:101D9000910509F469C08830910544F485309105B6
:101DA00009F44AC0069709F0C6C050C088309105B2
:101DB00009F473C0099709F0BEC0A6C01E3F09F020
:101DC000BAC082E090E090938402809383021092E4
:101DD00013021093120285C0113650F080918102D7
:101DE0008F5F809381021092800281E090E00BC0AF
:101DF0001093130210928502812F60E172E00E941D
:101E00006C0E84E090E0909384028093830293C0F0
:101E100010931402812F60E172E00E946C0E83E047
:101E200090E0F1CF10931502812F60E172E00E94E3
:101E30006C0E85E090E0E7CF10931602812F60E1F1
:101E400072E00E946C0E86E090E0DDCF10931702E6
:101E5000812F60E172E00E946C0E80911302882352
:101E6000C9F087E090E0CFCF80918502E82FF0E0C5
:101E7000E85EFD4F10838F5F80938502812F60E1C4
:101E800072E00E946C0E9091850280911302981767
:101E900009F051C088E090E0B6CF809117020E940F
:101EA0008C0E60E172E00E946C0E212F30E0809178
:101EB000100290911102907028173907C9F0109202
:101EC000800281E090E090938402809383021E3F21
:101ED00091F582E090E090938402809383021092C7
:101EE00013028FEF9FEF909311028093100223C093
:101EF00089E090E09093840280938302E0918502D0
:101F0000F0E0E85EFD4F16C0212F30E08091110215
:101F100090E02817390799F681E08093800281E0EC
:101F200090E09093840280938302E0918502F0E038
:101F3000E75EFD4F108320918002213099F480915B
:101F40001402809386028091880290918902009702
:101F500021F410928B0210928A02019690938902CA
:101F60008093880210928202222309F4A7C18091F3
:101F700017028E3109F451C18F3148F4813009F4D0
:101F800052C08130A0F0883109F098C19FC08A32D8
:101F900009F47FC18B3220F4833209F08FC174C100
:101FA0008E3309F47BC18A3409F088C1C8C081E04E
:101FB000809307028091150280930D028091160292
:101FC00080930E0280911C0280930C028091180273
:101FD000909119029093CD018093CC011092CE0183
:101FE00080911F028093000280910002843041F4AE
:101FF00080911E02881F8827881F8D5F80930002B2
:102000000E948D039B01AC012093080230930902CA
:1020100040930A0250930B0280910F02823008F025
:102020004DC182E050C0609126027091270280E08D
:1020300090E00E94441820E030E04AE754E40E9417
:10204000AB176093BC017093BD018093BE01909368
:10205000BF016091280270912902882777FD809541
:10206000982F0E94461820E030E048EC52E40E948D
:10207000AB176093C0017093C1018093C20190932C
:10208000C3016091C0017091C1018091C201909122
:10209000C30120E030E040E050E00E94A417882314
:1020A00064F480E090E0A0E0B0E08093C001909301
:1020B000C101A093C201B093C30180910F0283308C
:1020C00009F0FCC084E080930F02F8C06091200208
:1020D0007091210280912202909123020E94461861
:1020E00020E836E948E15BE40E94AB176093CF013A
:1020F0007093D0018093D1019093D201609124021A
:102100007091250280912602909127020E94461824
:1021100020E836E948E15BE40E94AB176093D30105
:102120007093D4018093D5019093D60180913402AD
:102130008093D801809135028093D701BFC08091F0
:10214000180290911902A0911A02B0911B0280937B
:10215000F6019093F701A093F801B093F9018091F3
:102160001C0290911D02A0911E02B0911F0280934B
:10217000FA019093FB01A093FC01B093FD016091E3
:10218000280270912902882777FD8095982F0E9458
:1021900046186093EE017093EF018093F0019093E5
:1021A000F10180912A0290912B029093FF0180937C
:1021B000FE018091FE019091FF018536910568F046
:1021C0008091FE019091FF018639910530F484E6FB
:1021D00090E09093FF018093FE018091FE01909129
:1021E000FF018091FE019091FF018739910520F058
:1021F0001092FF011092FE01809120029091210225
:10220000A0912202B09123028093F2019093F301F6
:10221000A093F401B093F50151C060912002709138
:102220002102809122029091230221EE3EE245E6B6
:1022300052E40E945B190E9413186093EB016091B5
:102240001C0270911D0280911E0290911F0221EECE
:102250003EE245E652E40E945B190E941318609327
:10226000EC016091240270912502809126029091E8
:10227000270221EE3EE245E652E40E945B190E94ED
:1022800013186093ED011AC080912D028093010212
:1022900015C0809118028093020210C080912E0216
:1022A00090912F0290930602809305028091300254
:1022B0009091310290930402809303021F9108953C
:1022C000892B19F4862F0E94650408952F923F925E
:1022D0004F925F926F927F928F929F92AF92BF9236
:1022E000CF92DF92EF92FF920F931F93DF93CF93E2
:1022F000CDB7DEB762970FB6F894DEBF0FBECDBF85
:102300000DE2E02E01E0F02E11E2C12E11E0D12EFF
:10231000B7E02B2E312C2C0E3D1EA3E14A2E512C62
:102320004C0E5D1EFDE0AF2EB12CAC0EBD1E3E016D
:102330000894611C711CE3E08E2E912C8C0E9D1E66
:1023400020910D0230910E02F7014081F60180814B
:10235000918198878F8329873A874B87F1E0FC87A3
:102360008EEF8D8796E09E87909187029F87809160
:10237000F700888B8091F800898BE2E4EA8B9F5FFD
:10238000909387028FEF9FEF9E838D838E01025F74
:102390001F4F08C0F80181918F01BE016B5F7F4F15
:1023A0000E946C0E04151505A9F78D819E819A83F4
:1023B0008983810106C0F80181918F01B3010E94D8
:1023C0006C0E0A151B05B9F784E9B3010E946C0E67
:1023D00089819A818B839C83850180E090E0F8015C
:1023E00061918F010E94601104151505B1F78101FB
:1023F00080E090E0F80161918F010E9460110A1560
:102400001B05B1F780E090E0F40160810E9460114B
:1024100080E090E0F40161810E9460110894E11C69
:10242000F11C82E090E0C80ED91E93E3E91691E01A
:10243000F90609F085CF62960FB6F894DEBF0FBE9D
:10244000CDBFCF91DF911F910F91FF90EF90DF9063
:10245000CF90BF90AF909F908F907F906F905F9044
:102460004F903F902F90089580938D0260938C023F
:102470000895DF93CF93CDB7DEB7FE013596619116
:10248000719181E0AF010E945813CF91DF910895BF
:10249000EF92FF921F93CF93DF93182F7B01C39886
:1024A00080E00E94310380E00E94310389E00E94B5
:1024B0003103812F0E943103C0E0D0E0F701EC0F1F
:1024C000FD1F10818AE00E9431038C2F0E9431038E
:1024D0008BE00E943103812F0E9431032196C63385
:1024E000D10561F788E00E94310380EA0E94310340
:1024F00080EA0E94310385FDFBCF80E00E9431031A
:102500008CE00E943103C39ADF91CF911F91FF901D
:10251000EF9008951F93182FC39880E00E94310315
:10252000112319F0113049F403C080918F0203C0C8
:1025300080918F028C610E943103C39A1F9108958C
:102540000F931F939EE1699F80011124080F111DB5
:10255000C39885E00E943103812F0E94310386E0F9
:102560000E943103802F0E9431031F910F91089523
:1025700087E00E9431038FEF0E943103C39A80915C
:102580008C028F5F80938C0208950F931F930091AC
:102590008C028EE1089F8001112480918D02080F2A
:1025A000111DC39884E00E94310383E00E9431032F
:1025B00085E00E943103812F0E94310386E00E9452
:1025C0003103802F0E9431031F910F9108951F93B3
:1025D000182F8C3729F40E94B8120E94C51206C029
:1025E00087E00E943103812F0E9431031F910895DB
:1025F000CF93DF93EC0102C00E94E712FE01219607
:1026000084918823C9F7DF91CF910895C39884E01E
:102610000E94310384E00E943103C39A0895C39855
:1026200080EA0E9431038FEF0E94310381FD03C0D5
:1026300080E490E002C080E090E080938F02892BDC
:1026400011F088E001C086E080938E02C39A08955D
:102650001F93BB9A0E940F13C3988CEE0E94310304
:102660008FEF0E943103182F80E00E943103809188
:102670008F0282600E94310362E370E080E090E0AC
:102680000E949B038CE60E943103812F8F7E0E9463
:10269000310310E1812F0E94310380E00E94310359
:1026A0001F5F1C31B9F781E00E948A121F910895C3
:1026B0002F923F924F925F926F927F928F929F9252
:1026C000AF92BF92CF92DF92EF92FF920F931F9340
:1026D000DF93CF93CDB7DEB760970FB6F894DEBF28
:1026E0000FBECDBF8C877E876D875A019E012F5FFD
:1026F0003F4F388B2F87ED85FE852C8520FD8591FA
:1027000020FF8191FE87ED87882309F43DC3853240
:1027100049F420FD859120FF8191FE87ED87853268
:1027200051F406C08A3021F48DE00E94E7128AE05D
:102730000E94E712E0CF982FFF24882499243FE1DC
:102740003F15D0F09B3269F09C3228F4903259F05A
:10275000933291F40EC09D3249F0903369F441E018
:1027600026C052E0F52A84E0F82A2AC098E0F92A27
:1027700027C0E0E1FE2A24C0F7FC2EC0892F805339
:102780008A3080F4F6FE06C0FAE09F9E902C112459
:10279000980E16C02AE0829E802C1124880E30E20A
:1027A000F32A0EC09E3229F4F6FCEEC240E4F42A6D
:1027B00007C09C3619F450E8F52A02C0983661F437
:1027C000ED85FE852C8520FD959120FF9191FE875A
:1027D000ED87992309F0B3CF892F8554833020F4F6
:1027E0008F2D8061905E07C0892F8556833008F059
:1027F00087C18F2D8F7E86FD02C076E0972E182F21
:102800001F73953611F4106406C0963611F41068E3
:1028100002C091109A9417FF0BC03BE3391520F4C6
:1028200027E06CE3762E0EC0792C739427E00AC063
:1028300047E0491528F427E0772457E0952E02C099
:10284000292D772444E0242E312C2A0C3B1CF50141
:102850006081718182819381AE014F5F5F4F072D4F
:102860000E94FB016C01B9804B2C5524B0FE04C0C2
:10287000B3FC02C00DE209C011FF02C00BE205C0AB
:1028800012FD02C000E001C000E2C2018C70907035
:10289000892BA9F1002311F483E001C084E088159D
:1028A00010F0882408C0881A13FD05C080E20E9439
:1028B000E7128A94D9F7002319F0802F0E94E712BB
:1028C00043FE05C035EBE32E32E0F32E0FC029EBBB
:1028D000E22E22E0F22E0AC00115110509F0805205
:1028E0000E94E7120894E11CF11C04C0012F10E0C3
:1028F00000711070F7018491882371F7FFC017FFF2
:1029000012C07C0C44FE04C08A81813309F47A949D
:1029100017141CF0772473942CC0F8E0F71548F5D1
:1029200098E0792E26C016FD24C0892D90E08C15E4
:102930009D0544F02CEFC2162FEFD2061CF0106854
:1029400001C09A94992049F0E2E0F0E0EC0FFD1FFD
:10295000E90DF11D80818033A1F317FF0AC0792CA6
:102960007394892D90E0C816D90614F0992401C0FB
:102970009C1817FD03C025E030E009C01C141D049D
:102980001CF021E030E003C096012F5F3F4F002391
:1029900011F02F5F3F4F992029F0892D90E001968B
:1029A000280F391F882D90E02817390714F0882444
:1029B00001C0821AE12EFF24C70189709070892B13
:1029C00029F006C080E20E94E7128A948820D1F79D
:1029D000002319F0802F0E94E712E3FE05C006C015
:1029E00080E30E94E7128A948820D1F717FF45C040
:1029F0008601D7FE02C000E010E076010894E11CD9
:102A0000F11CE01AF10A41E050E04C0F5D1FE40EAA
:102A1000F51EC601871991093C01892D90E0AA2471
:102A2000BB24A81AB90A9FEF0F3F190719F48EE2C9
:102A30000E94E712C016D10634F0601671061CF42D
:102A4000F701808101C080E3015010400894E11C2F
:102A5000F11C0A151B051CF00E94E712E4CF0C15AF
:102A60001D0509F049C09A81963328F4953309F081
:102A700043C044FC41C081E33FC08A81813311F0EF
:102A8000FFEEBF220E94E712992081F08EE20E94A1
:102A9000E71212E0E1E0F0E0EC0FFD1FE10FF11DA5
:102AA0001F5F80810E94E7129A94A1F7E4FC02C0A4
:102AB00085E601C085E40E94E712D7FC05C0C11479
:102AC000D10441F4B4FE06C0D094C194D108D3948B
:102AD0008DE201C08BE20E94E71280E305C08F5FA8
:102AE00026EF3FEFC20ED31E3AE0C316D104BCF767
:102AF0000E94E7128C2D805D0E94E712510141C1B6
:102B0000933631F0933791F0933509F055C023C0D7
:102B1000F501808189836E010894C11CD11C22E0DB
:102B200030E0A20EB31E01E010E012C0F501C0803B
:102B3000D180F6FC03C06FEF7FEF02C0692D70E01B
:102B400022E030E0A20EB31EC6010E94B61A8C012C
:102B50003FE7F32214C0F501C080D180F6FC03C02A
:102B60006FEF7FEF02C0692D70E022E030E0A20E2F
:102B7000B31EC6010E94AB1A8C0130E8F32AF3FEA3
:102B800005C016C080E20E94E7128A94882D90E06A
:102B900008171907B8F30CC0F601F7FC8591F7FE8A
:102BA00081916F010E94E71281108A9401501040B8
:102BB0000115110589F7E5C0943611F0993681F5B4
:102BC000F7FE08C0F501208131814281538184E004
:102BD00090E00AC0F501808191819C01442737FD76
:102BE0004095542F82E090E0A80EB91E9FE6F9228E
:102BF00057FF09C050954095309521953F4F4F4F55
:102C00005F4FE0E8FE2ACA01B901AE014F5F5F4F96
:102C10002AE030E00E94D302E82EFF85EF1A43C07D
:102C2000953729F41F2D1F7E2AE030E01DC01F2D8F
:102C3000197F9F3661F0903720F4983509F0A4C0D1
:102C40000FC0903739F0983709F09EC004C028E0D3
:102C500030E00AC0106114FD146020E130E004C0CF
:102C600014FD166020E132E017FF08C0F501608115
:102C700071818281938144E050E008C0F501808138
:102C80009181BC0180E090E042E050E0A40EB51ECE
:102C9000AE014F5F5F4F0E94D302E82E5F85E51AB9
:102CA0008FE7F82EF122F6FE0BC08EEFF822E91422
:102CB00038F4F4FE07C0F2FC05C09FEEF92202C012
:102CC0001E2D01C0192DF4FE0DC0FE01EE0DF11DEB
:102CD0008081803319F4E9EEFE2208C01F5FF2FE06
:102CE00005C003C08F2D867809F01F5F0F2DF3FC00
:102CF00012C0F0FE0DC0181510F09E2C09C09E2CBD
:102D0000980C911A182D04C080E20E94E7121F5FF0
:102D10001815D0F304C0181510F4811A01C08824C6
:102D200004FF0BC080E30E94E71202FF17C001FD01
:102D300002C088E70CC088E50AC0802F867871F051
:102D400001FF02C08BE201C080E2F7FC8DE20E942D
:102D5000E71204C080E30E94E7129A94E914D0F3CA
:102D6000EA94E1E0F0E0EC0FFD1FEE0DF11D808133
:102D70000E94E712EE20A1F704C080E20E94E71251
:102D80008A948820D1F7B7CC60960FB6F894DEBF4E
:102D90000FBECDBFCF91DF911F910F91FF90EF90AC
:102DA000DF90CF90BF90AF909F908F907F906F906B
:102DB0005F904F903F902F9008955058BB27AA27BF
:102DC0000ED027C2F0D130F0F5D120F031F49F3F82
:102DD00011F41EF4C0C10EF4E095E7FBB6C1E92F73
:102DE0003AD280F3BA17620773078407950718F081
:102DF00071F49EF552C20EF4E0950B2EBA2FA02D61
:102E00000B01B90190010C01CA01A0011124FF2797
:102E1000591B99F0593F50F4503E68F11A16F04092
:102E2000A22F232F342F4427585FF3CF4695379591
:102E30002795A795F0405395C9F77EF41F16BA0B56
:102E4000620B730B840BBAF09150A1F0FF0FBB1F04
:102E5000661F771F881FC2F70EC0BA0F621F731F4D
:102E6000841F48F4879577956795B795F7959E3FAA
:102E700008F0B3CF9395880F08F09927EE0F979538
:102E80008795089590D158F080E891E009F49EEF7D
:102E900091D128F040E851E059F45EEF09C05BC1E0
:102EA000FCC1E92FE078D7D168F3092E052AC1F3D8
:102EB000261737074807590738F00E2E07F8E02580
:102EC00069F0E025E0640AC0EF6307F8009407FAB0
:102ED000DB01B9019D01DC01CA01AD01EF934AD0CC
:102EE00098D10AD05F91552331F02BED3FE049E4B2
:102EF00050FD49EC63CF0895DF93DD27B92FBF77ED
:102F000040E85FE31616170648075B0710F4D92F51
:102F1000CBD19F938F937F936F9392D2E8E8F0E0A9
:102F20001DD177D12F913F914F915F91D0D1DD236A
:102F300049F09058A2EA2AED3FE049EC5FE3D078EF
:102F40005D274DDFDF9165C1DCD008F481E0089595
:102F500039D1E3956FC10CD05CC12CD140F023D1A5
:102F600030F021F45F3F19F0F0C0511197C1F3C068
:102F700072D198F39923C9F35523B1F3951B550BDF
:102F8000BB27AA2762177307840738F09F5F5F4F3C
:102F9000220F331F441FAA1FA9F333D00E2E3AF07D
:102FA000E0E830D091505040E695001CCAF729D097
:102FB000FE2F27D0660F771F881FBB1F26173707E6
:102FC0004807AB07B0E809F0BB0B802DBF01FF2716
:102FD00093585F4F2AF09E3F510568F0B6C05EC11E
:102FE0005F3FECF3983EDCF3869577956795B79550
:102FF000F7959F5FC9F7880F911D9695879597F96B
:103000000895E1E0660F771F881FBB1F62177307E3
:103010008407BA0720F0621B730B840BBA0BEE1FF8
:1030200088F7E095089504D06894B11137C10895E8
:103030001AD188F09F5790F0B92F9927B751A0F077
:10304000D1F0660F771F881F991F1AF0BA95C9F73C
:1030500012C0B13081F021D1B1E008951EC1672FB7
:10306000782F8827B85F39F0B93FCCF386957795EC
:103070006795B395D9F73EF49095809570956195D5
:103080007F4F8F4F9F4F0895E89409C097FB3EF400
:1030900090958095709561957F4F8F4F9F4F9923A5
:1030A000A9F0F92F96E9BB279395F6958795779523
:1030B0006795B795F111F8CFFAF4BB0F11F460FFE3
:1030C0001BC06F5F7F4F8F4F9F4F16C0882311F03B
:1030D00096E911C0772321F09EE8872F762F05C04F
:1030E000662371F096E8862F70E060E02AF09A95EA
:1030F000660F771F881FDAF7880F9695879597F9DF
:103100000895990F0008550FAA0BE0E8FEEF161678
:103110001706E807F907C0F012161306E407F507CB
:1031200098F0621B730B840B950B39F40A2661F03F
:10313000232B242B252B21F408950A2609F4A140E2
:10314000A6958FEF811D811D089597F99F6780E8EF
:1031500070E060E008959FEF80EC0895DF93CF93D7
:103160001F930F93FF92EF92DF927B018C01689483
:1031700005C0DA2EEF01ABD0FE01E894A5912591B0
:10318000359145915591AEF3EF0129DEFE0197018E
:10319000A801DA9479F7DF90EF90FF900F911F91DB
:1031A000CF91DF91089500240A9416161706180689
:1031B0000906089500240A9412161306140605063B
:1031C0000895C9CF50D0E8F3E894E0E0BB279F57BB
:1031D000F0F02AED3FE049EC06C0EE0FBB0F661F92
:1031E000771F881F28F0B23A62077307840728F018
:1031F000B25A620B730B840BE3959A9572F7803881
:1032000030F49A95BB0F661F771F881FD2F790483E
:1032100057C1092E0394000C11F4882352F0BB0F00
:1032200040F4BF2B11F460FF04C06F5F7F4F8F4FDE
:103230009F4F0895EF93E0FF06C0A2EA2AED3FE01A
:1032400049EC5FEBCCDDE5DF0F90039401FC905877
:10325000E5EBF0E048C157FD9058440F551F59F079
:103260005F3F71F04795880F97FB991F61F09F3F73
:1032700079F087950895121613061406551FF2CF9C
:103280004695F1DF08C0161617061806991FF1CFEC
:1032900086957105610508940895E894BB27662713
:1032A0007727CB0197F908959B01AC0160E070E0AE
:1032B00080E89FE350CE0BD0ACCF75DF28F07ADFEB
:1032C00018F0952309F041CF46CF1124E7CFC3DF93
:1032D000A0F3959FD1F3950F50E0551F629FF00129
:1032E000729FBB27F00DB11D639FAA27F00DB11D82
:1032F000AA1F649F6627B00DA11D661F829F22270B
:10330000B00DA11D621F739FB00DA11D621F839F91
:10331000A00D611D221F749F3327A00D611D231F67
:10332000849F600D211D822F762F6A2F11249F57B5
:1033300050408AF0E1F088234AF0EE0FFF1FBB1FD8
:10334000661F771F881F91505040A9F79E3F510577
:1033500070F0FBCEA3CF5F3FECF3983EDCF3869595
:1033600077956795B795F795E7959F5FC1F7FE2B22
:10337000880F911D9695879597F9089574DFE0F071
:103380009E37D8F09639B8F49E3848F4672F782FD6
:103390008827985FF9CF86957795679593959539A6
:1033A000D0F3B62FB1706B0F711D811D20F487957E
:1033B00077956795939567C081C070CF11F40EF42F
:1033C000CACE7CC050DFD0F39923D9F3CEF39F57F8
:1033D000550B87FF81D00024A0E640EA9001805879
:1033E0005695979528F4805C660F771F881F20F00C
:1033F00026173707480730F4621B730B840B20290C
:1034000031294A2BA69517940794202531254A2760
:1034100058F7660F771F881F20F0261737074807D1
:1034200030F4620B730B840B200D311D411DA095F0
:1034300081F7B901842F9158880F96958795089543
:103440009B01AC0138CFDF93D92FBCDEE695D79531
:103450002AED3FE049E45FE3B33A6207730784076C
:103460009507D7952AF0A2EA49EC9068B8DCD1DE3E
:10347000E3EDF0E038D0DD0F0BF016DFDD0F0BF4DD
:103480009058DF910895882371F4772321F09850A4
:10349000872B762F07C0662311F499270DC0905112
:1034A000862B70E060E02AF09A95660F771F881FE0
:1034B000DAF7880F9695879597F908959F3F31F031
:1034C000915020F4879577956795B795880F911D52
:1034D0009695879597F9089591505040660F771FFC
:1034E000881FD2F708959F938F937F936F93FF93D5
:1034F000EF939B01AC01DFDEEF91FF912FDE2F9167
:103500003F914F915F91D7CE97FB092E07260AD0A6
:1035100077FD04D00CD006D000201AF47095619588
:103520007F4F0895F6F7909581959F4F0895AA1BB8
:10353000BB1B51E107C0AA1FBB1FA617B70710F09E
:10354000A61BB70B881F991F5A95A9F780959095D0
:10355000BC01CD010895FC0105906150704001103F
:10356000D8F7809590958E0F9F1F0895FC016150AC
:10357000704001900110D8F7809590958E0F9F1F95
:103580000895DC01CB01FC01E199FECF06C0FFBB31
:10359000EEBBE09A31960DB20D9241505040B8F713
:1035A0000895E199FECF9FBB8EBBE09A99278DB31A
:1035B0000895DC01CB0103C02D910E94E41A415013
:1035C0005040D0F70895262FE199FECF9FBB8EBBC8
:1035D0002DBB0FB6F894E29AE19A0FBE01960895BA
:0435E000F894FFCF8D
:1035E4000600EE1FFC030D0716090B010106010876
:1035F400010D040D010E100E180D0E0F0E03160111
:10360400110C140C16050107010916031602010218
:1036140001010104110D08060B0400000000000064
:103624000000000000000000000000000000000096
:103634000000000000000000000000000000000086
:10364400000000000000007402740279027E02830C
:103654000288028D02920297029C02A102A60292A3
:1036640002740274027402AB02B002740274027433
:10367400027E028D028802070100000000C2C0C061
:10368400C1C0C0C1C0C0C4C0C0C1C0C0C1C0C0C32B
:10369400C0C0C1C0C0C1C0C0C5C0C0C1C0C0C1C01D
:1036A400C00200020005000200050002000102033E
:0436B400060A0B00F7
:00000001FF
