:100000000C94CA010C94E7010C94E7010C94E701ED
:100010000C94E7010C94E7010C94E7010C94E701C0
:100020000C94E7010C9424030C94E7010C94B203A4
:100030000C94DC030C94E7010C94E7010C94E701A9
:100040000C94E7010C94E7010C94E7010C94E70190
:100050000C94E701BB06BE06CC06DA06E806F806F5
:1000600006071407410780078E07CC079C07AF08D7
:10007000AF08D407E60707081508230831084A081F
:10008000B8069B08084AD73B3BCE016E84BCBFFD37
:10009000C12F3D6C74319ABD56833DDA3D00C77F58
:1000A00011BED9E4BB4C3E916BAAAABE00000080F1
:1000B0003F05A84CCDB2D44EB93836A9020C50B980
:1000C000918688083CA6AAAA2ABE000000803F06A6
:1000D00064EC1B3C04BC163E3BE5B93CC93C37C252
:1000E0009E5A3D660498083EEA69AAAA3E000000AE
:1000F000803F52657175657374696E6720446174E1
:100100006153747265616D732E2E2E00426F6F7491
:10011000696E672075703AEDF2F2F2F2F2F2F2F2E5
:10012000F2F30057616974696E6720666F727C4DE7
:1001300041564C696E6B20686561727462656174CA
:10014000732E2E2E00202020202020202000446905
:100150007361726D65640041504D20496E69740091
:10016000872533692525008625332E30668800854E
:1001700025352E30668D0020E525352E32668F0020
:1001800020E425352E32668F00E1253369252500D0
:100190001F25352E30668D00EAEB00EAEC00253491
:1001A0002E3066B00020C0C0C0C0C0C7C0C0C0C034
:1001B000C0207CD02573D100832531312E36667C5A
:1001C000842531312E3666001120001020000F25C5
:1001D00032690020E325352E32668E0020E2253577
:1001E0002E32668E00253469B0B200253469B0B174
:1001F00000050304057C151314150048617A79275E
:1002000073204F53442076312E30327C20666F723B
:10021000204D41564C696E6B20312E300052656284
:100220006F6F74696E672E2E2E004F534420496EF7
:10023000697469616C697A6564202020004D697376
:1002400073696E672F4F6C6420436F6E6669670039
:100250007374616200616C7468006175746F00672B
:10026000756964006C6F6974007265746C00636911
:10027000726300706F7369006C616E64006F666C0E
:100280006F006D616E75006662776100666277620D
:10029000006E616E00696E660000407A10F35A00CD
:1002A000A0724E18090010A5D4E80000E87648179F
:1002B0000000E40B54020000CA9A3B000000E1F584
:1002C00005000080969800000040420F000000A04A
:1002D0008601000000102700000000E80300000075
:1002E000006400000000000A00000000000100009F
:1002F0000000002C76D888DC674F0823DFC1DFAE12
:1003000059E1B1B796E5E3E453C63AE651997696DA
:10031000E8E6C28426EB898C9B62ED407C6FFCEFA3
:10032000BC9C9F40F2BAA56FA5F490055A2AF75CD1
:10033000936B6CF9676DC11BFCE0E40D47FEF52083
:10034000E6B500D0ED902E0300943577050080844B
:100350001E080000204E0A000000C80C333333335F
:100360000F986E12831141EF8D2114893BE65516CB
:10037000CFFEE6DB18D1844B381BF77C1D901DA403
:10038000BBE424203284725E228100C9F124ECA1F6
:10039000E53D270011241FBECFE5D4E0DEBFCDBF71
:1003A00011E0A0E6B0E0E8E9F3E302C005900D92A9
:1003B000AE32B107D9F712E0AEE2B1E001C01D9252
:1003C000AA39B107E1F70E942D0D0C94CA190C94BB
:1003D0000000283008F027E03327DA01990F311D9B
:1003E00087FD916000966105710539F432602E5FDA
:1003F0003D9330E32A95E1F708959F3F30F0803830
:100400007105610509F03C5F3C5F3D93913008F058
:100410008068911DDF93CF931F930F93FF92EF920C
:10042000192F987F9695E92F96959695E90FFF27B6
:10043000ED50FD4F99273327EE24FF24A701E70154
:1004400005900894079428F4360FE71EF81E491FFC
:10045000511D660F771F881F991F0694A1F70590FD
:10046000079428F4E70EF81E491F561FC11D770F89
:10047000881F991F661F0694A1F70590079428F41A
:10048000F80E491F561FC71FD11D880F991F661FE1
:10049000771F0694A1F70590079420F4490F561F83
:1004A000C71FD81F990F661F771F881F0694A9F7CB
:1004B00084911095177041F0D695C795579547953B
:1004C000F794E7941A95C1F7E9E9F2E0689415907A
:1004D000159135916591959105907FE27395E1189D
:1004E000F10A430B560BC90BD009C0F7E10CF11E02
:1004F000431F561FC91FD01D7EF4703311F48A9517
:10050000E6CFE894015030F0080F0AF400270217F4
:1005100008F4202F2395022F7A3328F079E37D9376
:100520002A95E9F710C07D932A9589F60694979548
:100530006795379517951794E118F10A430B560BF9
:10054000C90BD00998F023957E9173957A3308F002
:1005500070E37C932013B8F77E9170617D9330F047
:10056000839571E37D9370E32A95E1F71124EF9071
:10057000FF900F911F91CF91DF91992787FD909563
:100580000895FA01AA27283051F1203181F1E89429
:100590006F936E7F6E5F7F4F8F4F9F4FAF4FB1E076
:1005A0003ED0B4E03CD0670F781F891F9A1FA11D71
:1005B000680F791F8A1F911DA11D6A0F711D811D72
:1005C000911DA11D20D009F468943F912AE0269F37
:1005D00011243019305D3193DEF6CF010895462F96
:1005E0004770405D4193B3E00FD0C9F7F6CF462F77
:1005F0004F70405D4A3318F0495D31FD40524193E0
:1006000002D0A9F7EACFB4E0A6959795879577959C
:100610006795BA95C9F700976105710508959B0123
:10062000AC010A2E06945795479537952795BA95AC
:10063000C9F7620F731F841F951FA01D08958FB9FE
:10064000779BFECF8FB108951F920F920FB60F9236
:1006500011242F933F938F939F93AF93BF938091D8
:10066000320190913301A0913401B0913501309164
:1006700036010196A11DB11D232F2D5F2D3720F0CE
:100680002D570196A11DB11D209336018093320193
:1006900090933301A0933401B093350180912E01E2
:1006A00090912F01A0913001B09131010196A11DCF
:1006B000B11D80932E0190932F01A0933001B09330
:1006C0003101BF91AF919F918F913F912F910F90E9
:1006D0000FBE0F901F9018958FB7F894209132019C
:1006E0003091330140913401509135018FBFB901F0
:1006F000CA010895EF92FF920F931F937B018C0123
:100700008FB7F894409132015091330160913401D8
:10071000709135018FBF2FB7F8948091320190917D
:100720003301A0913401B09135012FBF841B950B8B
:10073000A60BB70BE816F9060A071B0760F71F910F
:100740000F91FF90EF900895019759F0FC01EE0F83
:10075000FF1FEE0FFF1F32978FB7F8943197F1F715
:100760008FBF08951F920F920FB60F9211242F93EF
:100770008F939F93EF93FF939BB12CB1E0919901DD
:10078000EF5FEF7380919A01E81711F482E008C0DF
:10079000892F8871E0939901F0E0E95AFE4F208398
:1007A00080939B01FF91EF919F918F912F910F90DB
:1007B0000FBE0F901F9018951F920F920FB60F92B9
:1007C00011248F939F93EF93FF93909197018091C2
:1007D0009801981761F0E0919801EF5FEF71E09355
:1007E0009801F0E0E95CFE4F80818CB901C055981A
:1007F000FF91EF919F918F910F900FBE0F901F90DF
:1008000018959C01109297011092980110929901ED
:1008100010929A0197FF03C082E08BB93F7730BDF9
:1008200029B988E98AB986E880BD0895909199012F
:1008300080919A01981719F420E031E012C0E091FC
:100840009A01EF5FEF73E0939A01F0E0E95AFE4FEF
:10085000308120919B01922F80E0AC01430F511D0C
:100860009A01C90108959091990180919A01981770
:10087000D1F3E0919A01EF5FEF73E0939A01F0E01A
:10088000E95AFE4F80810895282F909197019F5F2C
:100890009F71809198019817E1F3E92FF0E0E95CEE
:1008A000FE4F208390939701559A08958091990166
:1008B00090919A01891B8F73089580919A0180937A
:1008C0009901089587B940E020E030E0369A349BE2
:1008D000FECF84B195B1280F391F34984F5F423055
:1008E000A9F730939D0120939C0135952795C90167
:1008F00008950F931F938C01FC0180810E94620474
:10090000AA2797FDA095BA2FBC01CD010E94E3163E
:10091000F80121813281438154810E94F817F80146
:1009200025813681478150850E947B151F910F914B
:10093000089587E065E00E94D1100E9462118BEF5C
:1009400091E00E9495110E94551108950E94A311F3
:100950000E94990485E06AE00E94D1100E94621111
:1009600083E291E00E9495110E94551108951F9312
:10097000CF93DF9385E06CE00E94D1100E9462115A
:100980008CE091E00E9495110E94551164EF71E096
:1009900080E090E00E947A030E945D04C0E0D0E015
:1009A00010E0CE016AEF70E00E942119892B69F4F2
:1009B000812F8F5E6CE00E94D1100E9462118EEE3A
:1009C0000E9484110E9455111F5F61E070E080E079
:1009D00090E00E947A03A895219687E0C13DD80750
:1009E00001F7DF91CF911F9108951F938091DD0151
:1009F000823010F410E904C01091DD01110F12577C
:100A0000812F0E948411812F8F5F0E9484111F917A
:100A100008952F923F924F925F926F927F928F92A2
:100A20009F92AF92BF92CF92DF92EF92FF920F937D
:100A30001F93DF93CF9300D000D000D0CDB7DEB7A7
:100A400089836A832DB73EB73E832D838DB79EB7CA
:100A500048970FB6F8949EBF0FBE8DBFEDB7FEB797
:100A60003196FC83EB838091DE01992787FD909579
:100A700097FF03C0909581959F4F8A359105B1F4FA
:100A80006091DE01772767FD70958AE590E00E940E
:100A90002119882777FD8095982F0E94E31621EE73
:100AA0003AEF43EB52E40E94F81709C06091DE016F
:100AB000772767FD7095872F972F0E94E31625E310
:100AC0003AEF4EE85CEB0E94F8177B018C018091B5
:100AD000DF01992787FD909597FF03C09095819539
:100AE0009F4F8A359105B1F46091DF01772767FD4B
:100AF00070958AE590E00E942119882777FD8095FE
:100B0000982F0E94E31621EE3AEF43EB52E40E9445
:100B1000F81709C06091DF01772767FD7095872F6F
:100B2000972F0E94E31625E33AEF4EE85CE30E941C
:100B3000F8175B016C01B701C8010E94C01820E0E2
:100B400030E044E352E40E94F8170E945B180E94D0
:100B5000B0167B018C01B501C6010E94C0182B01A3
:100B60003C012B803C802EEBC22E2FEFD22E470172
:100B7000AA2497FCA094BA2CB601882777FD80950B
:100B8000982F0E94E3169B01AC01C301B2010E94A1
:100B9000F8177B018C01C501B4010E94E3169B018B
:100BA000AC01C801B7010E947B1520E030E044E3AE
:100BB00052E40E947B1520E030E040E85FE30E94B1
:100BC0007A150E94B016F101619371931F012CE018
:100BD00030E0C20ED31E3EE4C316D10469F6CC2425
:100BE000DD249EEE892E9FEF992EBA80BA94EB8178
:100BF000FC81EC0DFD1D0190F081E02D1E161F06FD
:100C0000B4F5EA35F1059CF5CF0101976EEE7FEF63
:100C10000E9421198B010B5F1F4FEB55F040089D7F
:100C2000C001099D900D189D900D11249F01281B56
:100C3000390BC90162E070E00E942119882777FD15
:100C40008095982F0E94E3160E945B180E94B016B0
:100C50007B01672B19F481E0E82EF12C6B2D600FDE
:100C600089810E943D118E2D8B5F0E94841182E04C
:100C700090E0C80ED91E99819F5F9983E8E1CE1656
:100C8000D10409F0B4CF2D813E810FB6F8943EBF58
:100C90000FBE2DBF26960FB6F894DEBF0FBECDBF98
:100CA000CF91DF911F910F91FF90EF90DF90CF9048
:100CB000BF90AF909F908F907F906F905F904F907C
:100CC0003F902F9008952F923F924F925F926F9294
:100CD0007F928F929F92AF92BF92CF92DF92EF92CC
:100CE000FF920F931F93CF93DF93A5E6CA2EA0E048
:100CF000DA2EC0E0D0E0F8EB6F2EF1E07F2EEEECC4
:100D00004E2EE1E05E2E73ED272E71E0372E65EE5C
:100D1000A62E61E0B62E5BEE852E51E0952E1C2F9F
:100D20008091610090916200A0916300B091640095
:100D30000C2E04C0B695A795979587950A94D2F77F
:100D400080FF11C2D6018C9111966C910E94D11036
:100D50000E946211EC2FF0E0E831F10508F0FFC1CC
:100D6000E65DFF4FEE0FFF1F0590F491E02D099413
:100D700018ECFF24C1C181EF91E0EAC18091DE014E
:100D800000D000D0EDB7FEB792828182992787FD0F
:100D900090959483838377C18091DF0100D000D048
:100DA000ADB7BEB71296BC92AE921197992787FD48
:100DB000909565C18091AF019091B001A091B10172
:100DC000B091B20100D000D000D02CED31E00BC1C9
:100DD0008091B7019091B801A091B901B091BA0189
:100DE00000D000D000D0EDB7FEB732822182FFC024
:100DF0008091CA0100D000D0EDB7FEB73196ADB7F3
:100E0000BEB712965C924E921197DDC08091CB01D5
:100E1000823020F0843008F0A2C103C08BEC91E056
:100E200097C188EC91E094C1E090C201F090C301B9
:100E30000091C4011091C5012091C6013091C701F4
:100E40004091C8015091C901EDB7FEB73A970FB66E
:100E5000F894FEBF0FBEEDBF3196ADB7BEB7129688
:100E60007C926E921197E282F3820483158326832B
:100E70003783408751870E94D610EDB7FEB73A9668
:100E800085C06091E1017091E2018091E301909150
:100E9000E40120E030E040E152E40E94F81720E055
:100EA00030E044EB53E40E9448160E945B180E9415
:100EB000B0169B012550304037FF03C09B01215ED7
:100EC0003F4FAFE9B1E0F901E850FF4F80818C93CB
:100ED0002F5F3F4F2432310514F020E030E01196AF
:100EE000F1E0AA3ABF0779F700D000D025EA31E057
:100EF000EDB7FEB7328321831B97B483A383C3C0AE
:100F00008091E1019091E201A091E301B091E401AF
:100F100000D000D000D02EE931E065C08091F10111
:100F2000882339F08BE991E00E9495111092F1012C
:100F300018C188E991E00CC18091CC01813009F0A1
:100F400010C16091D9017091DA018091DB0190911B
:100F5000DC0100D000D000D00DB71EB70F5F1F4FCF
:100F6000E0E9F1E0ADB7BEB71296FC93EE931197AE
:100F70000E94E316D80112966D937D938D939C93F6
:100F800015970E94D610EDB7FEB736960FB6F894B7
:100F9000FEBF0FBEEDBFE5C08091CC01813009F0EE
:100FA000E0C00E94F504DDC08091F00100D000D0C7
:100FB000EDB7FEB7319629E831E0ADB7BEB712966E
:100FC0003C932E931197828313825DC08091B3016D
:100FD0009091B401A091B501B091B60100D000D0BC
:100FE00000D020E831E0EDB7FEB732832183838360
:100FF0009483A583B6830E94D6102DB73EB72A5F8F
:101000003F4F0FB6F8943EBF0FBE2DBFAAC08091D0
:10101000BB019091BC01A091BD01B091BE0100D077
:1010200000D000D027E731E0DECF8091E50190913C
:10103000E601A091E701B091E80100D000D000D016
:101040002FE631E0D0CF8091E9019091EA01A091A3
:10105000EB01B091EC0100D000D000D027E631E0E8
:10106000C2CF8091ED019091EE0100D000D0E0E67A
:10107000F1E0ADB7BEB71296FC93EE9311971496BC
:101080009C938E9313970E94D6100F900F900F9001
:101090000F9067C08091F601813031F48091BF01DB
:1010A0009091C0010D9738F08091BF019091C001DF
:1010B0000B9708F056C080EE0E9484118091F601D3
:1010C000813049F4E091BF01F091C001EE0FFF1FA4
:1010D000E852FF4F08C0E091BF01F091C001EE0F50
:1010E000FF1FEE53FF4F8081918132C0F2E0FF1667
:1010F00011F418ED01C018EC812F0E94841100E05A
:1011000080E20E9484110F5F0C30D1F7812F8F5F36
:101110000E9484118CE70E948411F39425E0F2165A
:1011200029F70E945511809191008F5F6091920084
:101130000E94090518C08091EF01833018F487E5FB
:1011400091E006C08091EF01843029F08EE491E0B7
:101150000E94951106C085E491E00E949511163118
:1011600011F00E945511219662E070E0C60ED71E64
:10117000C831D10509F0D3CDDF91CF911F910F91E7
:10118000FF90EF90DF90CF90BF90AF909F908F90A7
:101190007F906F905F904F903F902F90089582E5E1
:1011A0000E9444040E94A3110E94990486E069E011
:1011B0000E94D1100E9462118DE192E00E9495116F
:1011C0000E945511FFCF0F931F93CF93DF9383E7B7
:1011D0000E94440482E60E94440400E0C0E6D0E09D
:1011E00005C01991812F0E944404010F80E0C23C88
:1011F000D807B9F7802F0E944404DF91CF911F9147
:101200000F910895FF920F931F9381E60E9444046B
:101210000E943304A8950E9462048C01892F990FC3
:10122000990BF82E0E944404802F0E9444048F2DB5
:10123000800F0E9444041F910F91FF900895CF9258
:10124000DF92FF920F931F93DF93CF93CDB7DEB75B
:10125000C256D0400FB6F894DEBF0FBECDBF83E5B7
:101260000E9444040E943304A895823691F5FF241D
:101270008E010F5F1F4F83E6C82ED12CCC0EDD1ED2
:101280000E943304F80181938F01F80EA895EC15A4
:10129000FD05B1F70E943304A8958F15D1F489811B
:1012A0008530B9F4A0E6B0E0FE01319682E6019007
:1012B0000D928150E1F7A89580E690E061E070E042
:1012C00042E650E00E94B319A8950E94A31181E262
:1012D00001C080E40E944404CE59DF4F0FB6F89459
:1012E000DEBF0FBECDBFCF91DF911F910F91FF9059
:1012F000DF90CF9008958F929F92AF92BF92DF922E
:10130000EF92FF920F931F93DF93CF93CDB7DEB78A
:10131000C054D0400FB6F894DEBF0FBECDBF86E4F8
:101320000E944404EE24FF245E010894A11CB11C19
:1013300097E3892E912C8C0E9D1E2CC0A8950E949F
:1013400056048823D9F30E941604F80181938F0173
:10135000D80EE815F90599F701C0A8950E94560422
:101360008823D9F30E941604D81681F4C701B50169
:101370000E94E51081E20E9444040894E11CF11CE3
:10138000F0E0EF16F1E0FF0629F407C080E40E94C8
:10139000440403C08501DD24D2CF0E94A311C05CA8
:1013A000DF4F0FB6F894DEBF0FBECDBFCF91DF91F8
:1013B0001F910F91FF90EF90DF90BF90AF909F90A3
:1013C0008F9008953DC00E941604982F8091F901D6
:1013D000882371F59A3019F09D3039F429C0809135
:1013E0009E018F5F80939E0123C080919E01833078
:1013F000E8F0933579F0943528F4963441F092353D
:10140000A9F40EC0913679F0933781F406C00E949A
:101410007B0916C00E941F0913C00E94E30810C078
:101420000E94CF080DC00E9402090AC010929E01BE
:10143000892F0E94760D8AE890E00E94A403A89567
:101440000E945604882309F0BECF089580E090E002
:101450000E94AB198F3431F481E090E00E94AB1907
:10146000853091F186E069E00E94D1100E946211FE
:101470008DE392E00E9495110E94551164EF71E096
:1014800080E090E00E947A0380E090E06FE40E94A8
:10149000BD1980E690E061E070E042E650E00E9415
:1014A000B31986E069E00E94D1100E9462118AE2BD
:1014B00092E00E9495110E94551164EF71E080E066
:1014C00090E00E947A0308C080E690E061E070E05E
:1014D00042E650E00E949B1980919902882399F47A
:1014E00080919802482F50E0E6E6F0E02081822FBC
:1014F00090E08417950714F023502083329680E003
:10150000E639F80799F708952F923F924F925F922C
:101510006F927F928F929F92AF92BF92CF92DF9203
:10152000EF92FF920F931F93DF93CF9300D000D0E1
:10153000CDB7DEB70E9499040E94260A0E94B70424
:101540000E94A604A8958091F901823059F50E9465
:10155000A3110E94990483E06AE00E94D1100E94C6
:10156000621182EF90E00E9495110E9455110E9435
:10157000031062E370E080E090E00E947A030E9432
:10158000031062E370E080E090E00E947A030E9422
:10159000031062E370E080E090E00E947A0383E051
:1015A0008093F9010E94E2090E946C0369837A83A7
:1015B0008B839C838091F2019091F301A091F401BF
:1015C000B091F50129813A814B815C81281B390B4F
:1015D0004A0B5B0BDA01C901805D9740A040B04027
:1015E00008F007C28091AB019091AC01A091AD01D0
:1015F000B091AE0129813A814B815C81281B390B66
:101600004A0B5B0B293731054105510508F49ACF88
:101610008091F901843008F495CF8091CC01882322
:1016200009F0F5C18091CB01823008F4F0C18091BE
:10163000C2019091C301A091C401B091C5018093F2
:10164000CD019093CE01A093CF01B093D0018091B2
:10165000C6019091C701A091C801B091C9018093C2
:10166000D1019093D201A093D301B093D401809182
:10167000E5019091E601A091E701B091E801809326
:10168000D5019093D601A093D701B093D80131E052
:101690003093CC0108C16091CD017091CE01809151
:1016A000CF019091D0019F7725E33AEF4EE85CE3BC
:1016B0000E94F8170E9445161B012C016091CD0174
:1016C0007091CE018091CF019091D0012091C20103
:1016D0003091C3014091C4015091C5010E947A1517
:1016E0009F7720EC3BE649ED57E40E94F8175B0139
:1016F0006C016091D1017091D2018091D3019091E0
:10170000D4012091C6013091C7014091C801509188
:10171000C9010E947A159F7720EC3BE649ED57E41A
:101720000E94F817A20191010E94F8177B018C0119
:10173000C601B501A60195010E94F8175B016C0175
:10174000C801B701A80197010E94F8179B01AC01DD
:10175000C601B5010E947B150E947F180E94B01639
:101760006093D9017093DA018093DB019093DC01DF
:10177000A090D101B090D201C090D301D090D401FB
:101780006090C6017090C7018090C8019090C90117
:101790006091CD017091CE018091CF019091D001E7
:1017A0002091C2013091C3014091C4015091C50103
:1017B0000E947A157B018C0160E070E080E89FE375
:1017C000A20191010E9448169B01AC01C801B7011A
:1017D0000E94F8177B018C01C601B501A401930199
:1017E0000E947A159B01AC015058C801B7010E94B4
:1017F000EE1520EE3EE245E652E40E94F81720E0A6
:1018000030E044EB52E40E947B150E94B0169B012D
:10181000AC0197FF04C028593E4F4F4F5F4FCA019C
:10182000B901645B70408040904097FF06C0CA01D8
:10183000B9016C547F4F8F4F9F4FE090E101F090C2
:10184000E2010091E3011091E4010E94E316A80176
:1018500097010E947A150E94B01697FF04C068593C
:101860007E4F8F4F9F4F0E94E31620E030E044EB05
:1018700053E40E94481620E030E040E851E40E9422
:10188000F8170E945B1820E030E040E85FE30E9418
:101890007B150E94B5166093DD018091DD018131D9
:1018A00010F01092DD018091610090916200A09192
:1018B0006300B0916400B0FF0CC085E990E00E9425
:1018C00079046093AF017093B0018093B10190935C
:1018D000B2018091610090916200A0916300B0918B
:1018E0006400B1FF0CC08EE990E00E94790460931F
:1018F000B7017093B8018093B9019093BA018091B8
:10190000610090916200A0916300B0916400B2FF09
:101910000CC087EA90E00E9479046093B301709351
:10192000B4018093B5019093B601809161009091CC
:101930006200A0916300B0916400B3FF0CC080EB23
:1019400090E00E9479046093BB017093BC01809386
:10195000BD019093BE018091610090916200A091C1
:101960006300B0916400B4FF08C089EB90E00E946E
:1019700079040E94B5166093F00180916100909106
:101980006200A0916300B0916400B5FF1AC060913D
:10199000E5017091E6018091E7019091E8012091C5
:1019A000CD013091CE014091CF015091D0010E94E4
:1019B0007A156093E5017093E6018093E7019093B7
:1019C000E8018091F901843029F40E94A31145E0D7
:1019D0004093F9010E94630689819A81AB81BC81A1
:1019E0008093AB019093AC01A093AD01B093AE0195
:1019F000A9CD8091F901813009F4A4CD8091F9013C
:101A0000882309F49FCD91E09093F90199CD8091BD
:101A1000CC01813009F047CF3ECEF89482E081BB03
:101A200083E083BF89B7816089BF81E290E80E942B
:101A3000010480EB87BB81E58DB917B887E886B9CB
:101A400078940E94C5112FE088E190E00FB6F894D9
:101A5000A89581BD0FBE21BD08950E940D0D0E9465
:101A6000840A80E090E00895FB0190819827292F57
:101A70002295207F292730E0522F4427C90163E0B7
:101A8000880F991F6A95E1F748275927818190E0CF
:101A90004827592784E0359527958A95E1F742270D
:101AA00053275183408308958931B1F08A3138F446
:101AB000813061F0813060F08831B1F40BC0833245
:101AC00089F08A3459F08E3179F40AC08CE7089590
:101AD00082E3089588E1089587E1089584E10895F7
:101AE00087E2089584EF089580E008951F93182FEA
:101AF00010928A0280918D0290918E02843091051D
:101B000009F44EC08530910554F48230910561F19D
:101B1000833091050CF04EC09923C4F4D4C08730B3
:101B2000910509F469C08830910544F48530910528
:101B300009F44AC0069709F0C6C050C08830910524
:101B400009F473C0099709F0BEC0A6C01E3F09F092
:101B5000BAC082E090E090938E0280938D02109242
:101B6000FD011093FC0185C017FF0AC080918B0214
:101B70008F5F80938B0210928A0281E090E00BC00D
:101B80001093FD0110928F02812F6AEF71E00E9485
:101B9000340D84E090E090938E0280938D0293C088
:101BA0001093FE01812F6AEF71E00E94340D83E0F3
:101BB00090E0F1CF1093FF01812F6AEF71E00E9456
:101BC000340D85E090E0E7CF10930002812F6AEF9B
:101BD00071E00E94340D86E090E0DDCF10930102A9
:101BE000812F6AEF71E00E94340D8091FD018823FE
:101BF000C9F087E090E0CFCF80918F02E82FF0E02E
:101C0000EE5FFD4F10838F5F80938F02812F6AEF0D
:101C100071E00E94340D90918F028091FD01981720
:101C200009F051C088E090E0B6CF809101020E9497
:101C3000540D6AEF71E00E94340D212F30E0809145
:101C4000FA019091FB01907028173907C9F01092A2
:101C50008A0281E090E090938E0280938D021E3F75
:101C600091F582E090E090938E0280938D02109225
:101C7000FD018FEF9FEF9093FB018093FA0123C04A
:101C800089E090E090938E0280938D02E0918F0224
:101C9000F0E0EE5FFD4F16C0212F30E08091FB0198
:101CA00090E02817390799F681E080938A0281E055
:101CB00090E090938E0280938D02E0918F02F0E08D
:101CC000ED5FFD4F108320918A02213099F48091BD
:101CD000FE0180939002809192029091930200976E
:101CE00021F410929502109294020196909393021F
:101CF0008093920210928C02222309F47CC180917D
:101D00000102883109F4A1C0893130F4882371F0CF
:101D1000813009F070C146C0833209F468C18A3449
:101D200009F4D0C08E3109F066C12AC181E08093E8
:101D3000F1018091FF018093F7018091000280936F
:101D4000F801809106028093F60180910202909141
:101D500003029093C0018093BF011092C101809152
:101D600009028093EF018091EF01843041F480916A
:101D70000802881F8827881F8D5F8093EF010E94CB
:101D80006C039B01AC012093F2013093F30140936B
:101D9000F4015093F5018091F901823008F02BC1D4
:101DA00082E050C0609110027091110280E090E0DA
:101DB0000E94E11620E030E04AE754E40E94481611
:101DC0006093AF017093B0018093B1019093B20121
:101DD0006091120270911302882777FD8095982FE9
:101DE0000E94E31620E030E048EC52E40E944816DE
:101DF0006093B3017093B4018093B5019093B601E1
:101E00006091B3017091B4018091B5019091B601D8
:101E100020E030E040E050E00E944116882364F466
:101E200080E090E0A0E0B0E08093B3019093B40133
:101E3000A093B501B093B6018091F901833009F008
:101E4000DAC084E08093F901D6C060910A027091F3
:101E50000B0280910C0290910D0220E836E948E9CE
:101E600050E00E943419CA01B9010E94E316609340
:101E7000C2017093C3018093C4019093C501609126
:101E80000E0270910F02809110029091110220E8D1
:101E900036E948E950E00E943419CA01B9010E94AC
:101EA000E3166093C6017093C7018093C8019093B5
:101EB000C90180911E028093CB0180911F02809303
:101EC000CA0199C08091060290910702A091080270
:101ED000B09109028093E9019093EA01A093EB018C
:101EE000B093EC016091120270911302882777FD84
:101EF0008095982F0E94E3166093E1017093E201B0
:101F00008093E3019093E401809114029091150273
:101F10009093EE018093ED018091ED019091EE019F
:101F20008536910568F08091ED019091EE0186393A
:101F3000910530F484E690E09093EE018093ED01FA
:101F40008091ED019091EE018091ED019091EE0173
:101F50008739910520F01092EE011092ED018091E9
:101F60000A0290910B02A0910C02B0910D02809395
:101F7000E5019093E601A093E701B093E8013BC02F
:101F800060910A0270910B0280910C0290910D02F7
:101F900021EE3EE245E652E40E94F8170E94B01698
:101FA0006093DE0160910602709107028091080241
:101FB0009091090221EE3EE245E652E40E94F817B4
:101FC0000E94B0166093DF0160910E0270910F02C3
:101FD000809110029091110221EE3EE245E652E41A
:101FE0000E94F8170E94B0166093E00104C080912F
:101FF00017028093F0011F910895892B19F4862F01
:102000000E94440408952F923F924F925F926F92E4
:102010007F928F929F92AF92BF92CF92DF92EF9278
:10202000FF920F931F93DF93CF93CDB7DEB76297E5
:102030000FB6F894DEBF0FBECDBF08E2E02E01E080
:10204000F02E1CE1C12E11E0D12EB7E02B2E312C49
:102050002C0E3D1EA3E14A2E512C4C0E5D1EFDE0C0
:10206000AF2EB12CAC0EBD1E3E010894611C711C3C
:10207000E3E08E2E912C8C0E9D1E2091F701309165
:10208000F801F7014081F6018081918198878F8363
:1020900029873A874B87F1E0FC878EEF8D8796E0A2
:1020A0009E87909191029F878091F200888B80910A
:1020B000F300898BE2E4EA8B9F5F909391028FEFAC
:1020C0009FEF9E838D838E01025F1F4F08C0F80132
:1020D00081918F01BE016B5F7F4F0E94340D04150B
:1020E0001505A9F78D819E819A838983810106C098
:1020F000F80181918F01B3010E94340D0A151B056F
:10210000B9F784E9B3010E94340D89819A818B83E8
:102110009C83850180E090E0F80161918F010E942D
:10212000FD0F04151505B1F7810180E090E0F8017D
:1021300061918F010E94FD0F0A151B05B1F780E028
:1021400090E0F40160810E94FD0F80E090E0F401D6
:1021500061810E94FD0F0894E11CF11C82E090E077
:10216000C80ED91E9EE2E91691E0F90609F085CF66
:1021700062960FB6F894DEBF0FBECDBFCF91DF9150
:102180001F910F91FF90EF90DF90CF90BF90AF9095
:102190009F908F907F906F905F904F903F902F9087
:1021A000089580939702609396020895DF93CF93EA
:1021B000CDB7DEB7FE0135966191719181E0AF0137
:1021C0000E94F511CF91DF910895EF92FF921F9336
:1021D000CF93DF93182F7B01C39880E00E941F03E9
:1021E00080E00E941F0389E00E941F03812F0E944C
:1021F0001F03C0E0D0E0F701EC0FFD1F10818AE063
:102200000E941F038C2F0E941F038BE00E941F035C
:10221000812F0E941F032196C633D10561F788E004
:102220000E941F0380EA0E941F0380EA0E941F038E
:1022300085FDFBCF80E00E941F038CE00E941F03FE
:10224000C39ADF91CF911F91FF90EF9008951F9354
:10225000182FC39880E00E941F03112319F011303A
:1022600049F403C08091990203C0809199028C6166
:102270000E941F03C39A1F9108950F931F939EE11D
:10228000699F80011124080F111DC39885E00E94E9
:102290001F03812F0E941F0386E00E941F03802FCF
:1022A0000E941F031F910F91089587E00E941F0352
:1022B0008FEF0E941F03C39A809196028F5F8093D5
:1022C000960208950F931F93009196028EE1089F46
:1022D0008001112480919702080F111DC39884E09A
:1022E0000E941F0383E00E941F0385E00E941F03DA
:1022F000812F0E941F0386E00E941F03802F0E94EF
:102300001F031F910F9108951F93182F8C3729F4E5
:102310000E9455110E94621106C087E00E941F03AF
:10232000812F0E941F031F910895CF93DF93EC012B
:1023300002C00E948411FE01219684918823C9F76E
:10234000DF91CF910895C39884E00E941F0384E039
:102350000E941F03C39A0895C39880EA0E941F0336
:102360008FEF0E941F0381FD03C080E490E002C054
:1023700080E090E080939902892B11F088E001C001
:1023800086E080939802C39A08951F93BB9A0E9497
:10239000AC11C3988CEE0E941F038FEF0E941F03A5
:1023A000182F80E00E941F038091990282600E9492
:1023B0001F0362E370E080E090E00E947A038CE605
:1023C0000E941F03812F8F7E0E941F0310E1812F27
:1023D0000E941F0380E00E941F031F5F1C31B9F79A
:1023E00081E00E9427111F9108952F923F924F92F2
:1023F0005F926F927F928F929F92AF92BF92CF9295
:10240000DF92EF92FF920F931F93DF93CF93CDB79D
:10241000DEB760970FB6F894DEBF0FBECDBF8C87D6
:102420007E876D875A019E012F5F3F4F388B2F8724
:10243000ED85FE852C8520FD859120FF8191FE870D
:10244000ED87882309F43DC3853249F420FD859149
:1024500020FF8191FE87ED87853251F406C08A30D6
:1024600021F48DE00E9484118AE00E948411E0CF63
:10247000982FFF24882499243FE13F15D0F09B3208
:1024800069F09C3228F4903259F0933291F40EC0E6
:102490009D3249F0903369F441E026C052E0F52ABC
:1024A00084E0F82A2AC098E0F92A27C0E0E1FE2A51
:1024B00024C0F7FC2EC0892F80538A3080F4F6FEAA
:1024C00006C0FAE09F9E902C1124980E16C02AE0B8
:1024D000829E802C1124880E30E2F32A0EC09E3298
:1024E00029F4F6FCEEC240E4F42A07C09C3619F445
:1024F00050E8F52A02C0983661F4ED85FE852C85FA
:1025000020FD959120FF9191FE87ED87992309F099
:10251000B3CF892F8554833020F48F2D8061905E56
:1025200007C0892F8556833008F087C18F2D8F7E95
:1025300086FD02C076E0972E182F1F73953611F492
:10254000106406C0963611F4106802C091109A9477
:1025500017FF0BC03BE3391520F427E06CE3762E20
:102560000EC0792C739427E00AC047E0491528F47F
:1025700027E0772457E0952E02C0292D772444E0E8
:10258000242E312C2A0C3B1CF50160817181828143
:102590009381AE014F5F5F4F072D0E94E9016C01EF
:1025A000B9804B2C5524B0FE04C0B3FC02C00DE230
:1025B00009C011FF02C00BE205C012FD02C000E01D
:1025C00001C000E2C2018C709070892BA9F1002338
:1025D00011F483E001C084E0881510F0882408C05D
:1025E000881A13FD05C080E20E9484118A94D9F7ED
:1025F000002319F0802F0E94841143FE05C031E9A9
:10260000E32E32E0F32E0FC025E9E22E22E0F22E77
:102610000AC00115110509F080520E948411089426
:10262000E11CF11C04C0012F10E000711070F701D3
:102630008491882371F7FFC017FF12C07C0C44FE01
:1026400004C08A81813309F47A9417141CF077242A
:1026500073942CC0F8E0F71548F598E0792E26C061
:1026600016FD24C0892D90E08C159D0544F02CEFBB
:10267000C2162FEFD2061CF0106801C09A94992060
:1026800049F0E2E0F0E0EC0FFD1FE90DF11D808163
:102690008033A1F317FF0AC0792C7394892D90E041
:1026A000C816D90614F0992401C09C1817FD03C060
:1026B00025E030E009C01C141D041CF021E030E0CE
:1026C00003C096012F5F3F4F002311F02F5F3F4F54
:1026D000992029F0892D90E00196280F391F882D27
:1026E00090E02817390714F0882401C0821AE12EDF
:1026F000FF24C70189709070892B29F006C080E201
:102700000E9484118A948820D1F7002319F0802F29
:102710000E948411E3FE05C006C080E30E9484117C
:102720008A948820D1F717FF45C08601D7FE02C0E2
:1027300000E010E076010894E11CF11CE01AF10AB7
:1027400041E050E04C0F5D1FE40EF51EC6018719F5
:1027500091093C01892D90E0AA24BB24A81AB90A4A
:102760009FEF0F3F190719F48EE20E948411C016E3
:10277000D10634F0601671061CF4F701808101C0A7
:1027800080E3015010400894E11CF11C0A151B0560
:102790001CF00E948411E4CF0C151D0509F049C0FE
:1027A0009A81963328F4953309F043C044FC41C024
:1027B00081E33FC08A81813311F0FFEEBF220E9486
:1027C0008411992081F08EE20E94841112E0E1E0F0
:1027D000F0E0EC0FFD1FE10FF11D1F5F80810E94F3
:1027E00084119A94A1F7E4FC02C085E601C085E457
:1027F0000E948411D7FC05C0C114D10441F4B4FE79
:1028000006C0D094C194D108D3948DE201C08BE26C
:102810000E94841180E305C08F5F26EF3FEFC20E58
:10282000D31E3AE0C316D104BCF70E9484118C2D4C
:10283000805D0E948411510141C1933631F093377C
:1028400091F0933509F055C023C0F501808189834B
:102850006E010894C11CD11C22E030E0A20EB31E10
:1028600001E010E012C0F501C080D180F6FC03C089
:102870006FEF7FEF02C0692D70E022E030E0A20E22
:10288000B31EC6010E9490198C013FE7F32214C0C9
:10289000F501C080D180F6FC03C06FEF7FEF02C06E
:1028A000692D70E022E030E0A20EB31EC6010E9446
:1028B00085198C0130E8F32AF3FE05C016C080E2CA
:1028C0000E9484118A94882D90E008171907B8F3A4
:1028D0000CC0F601F7FC8591F7FE81916F010E9413
:1028E000841181108A94015010400115110589F757
:1028F000E5C0943611F0993681F5F7FE08C0F50170
:10290000208131814281538184E090E00AC0F50149
:10291000808191819C01442737FD4095542F82E0AE
:1029200090E0A80EB91E9FE6F92257FF09C0509506
:102930004095309521953F4F4F4F5F4FE0E8FE2A7D
:10294000CA01B901AE014F5F5F4F2AE030E00E943B
:10295000C102E82EFF85EF1A43C0953729F41F2DD9
:102960001F7E2AE030E01DC01F2D197F9F3661F0C9
:10297000903720F4983509F0A4C00FC0903739F093
:10298000983709F09EC004C028E030E00AC010610A
:1029900014FD146020E130E004C014FD166020E155
:1029A00032E017FF08C0F501608171818281938157
:1029B00044E050E008C0F50180819181BC0180E0D5
:1029C00090E042E050E0A40EB51EAE014F5F5F4FB5
:1029D0000E94C102E82E5F85E51A8FE7F82EF122EA
:1029E000F6FE0BC08EEFF822E91438F4F4FE07C0AF
:1029F000F2FC05C09FEEF92202C01E2D01C0192D68
:102A0000F4FE0DC0FE01EE0DF11D8081803319F43E
:102A1000E9EEFE2208C01F5FF2FE05C003C08F2D45
:102A2000867809F01F5F0F2DF3FC12C0F0FE0DC079
:102A3000181510F09E2C09C09E2C980C911A182D78
:102A400004C080E20E9484111F5F1815D0F304C0F7
:102A5000181510F4811A01C0882404FF0BC080E30C
:102A60000E94841102FF17C001FD02C088E70CC05C
:102A700088E50AC0802F867871F001FF02C08BE2E2
:102A800001C080E2F7FC8DE20E94841104C080E363
:102A90000E9484119A94E914D0F3EA94E1E0F0E002
:102AA000EC0FFD1FEE0DF11D80810E948411EE20C0
:102AB000A1F704C080E20E9484118A948820D1F793
:102AC000B7CC60960FB6F894DEBF0FBECDBFCF91E6
:102AD000DF911F910F91FF90EF90DF90CF90BF900B
:102AE000AF909F908F907F906F905F904F903F90AE
:102AF0002F9008955058BB27AA270ED027C2F0D197
:102B000030F0F5D120F031F49F3F11F41EF4C0C134
:102B10000EF4E095E7FBB6C1E92F3AD280F3BA177D
:102B2000620773078407950718F071F49EF552C287
:102B30000EF4E0950B2EBA2FA02D0B01B9019001D8
:102B40000C01CA01A0011124FF27591B99F0593F1C
:102B500050F4503E68F11A16F040A22F232F342F64
:102B60004427585FF3CF469537952795A795F040B2
:102B70005395C9F77EF41F16BA0B620B730B840BC7
:102B8000BAF09150A1F0FF0FBB1F661F771F881F7F
:102B9000C2F70EC0BA0F621F731F841F48F48795D7
:102BA00077956795B795F7959E3F08F0B3CF9395C6
:102BB000880F08F09927EE0F97958795089590D183
:102BC00058F080E891E009F49EEF91D128F040E8B8
:102BD00051E059F45EEF09C05BC1FCC1E92FE07818
:102BE000D7D168F3092E052AC1F3261737074807FE
:102BF000590738F00E2E07F8E02569F0E025E0646B
:102C00000AC0EF6307F8009407FADB01B9019D01E0
:102C1000DC01CA01AD01EF934AD098D10AD05F918F
:102C2000552331F02BED3FE049E450FD49EC63CFF3
:102C30000895DF93DD27B92FBF7740E85FE31616CD
:102C4000170648075B0710F4D92FCBD19F938F93BA
:102C50007F936F9392D2E4E8F0E01DD177D12F916A
:102C60003F914F915F91D0D1DD2349F09058A2EA76
:102C70002AED3FE049EC5FE3D0785D274DDFDF913F
:102C800065C1DCD008F481E0089539D1E3956FC1C6
:102C90000CD05CC12CD140F023D130F021F45F3F47
:102CA00019F0F0C0511197C1F3C072D198F3992374
:102CB000C9F35523B1F3951B550BBB27AA27621700
:102CC0007307840738F09F5F5F4F220F331F441F45
:102CD000AA1FA9F333D00E2E3AF0E0E830D091507D
:102CE0005040E695001CCAF729D0FE2F27D0660F6A
:102CF000771F881FBB1F261737074807AB07B0E8A9
:102D000009F0BB0B802DBF01FF2793585F4F2AF0BE
:102D10009E3F510568F0B6C05EC15F3FECF3983E40
:102D2000DCF3869577956795B795F7959F5FC9F71B
:102D3000880F911D9695879597F90895E1E0660FA4
:102D4000771F881FBB1F621773078407BA0720F01D
:102D5000621B730B840BBA0BEE1F88F7E095089586
:102D600004D06894B11137C108951AD188F09F57E3
:102D700090F0B92F9927B751A0F0D1F0660F771FC7
:102D8000881F991F1AF0BA95C9F712C0B13081F0A7
:102D900021D1B1E008951EC1672F782F8827B85F31
:102DA00039F0B93FCCF3869577956795B395D9F708
:102DB0003EF490958095709561957F4F8F4F9F4F12
:102DC0000895E89409C097FB3EF49095809570951E
:102DD00061957F4F8F4F9F4F9923A9F0F92F96E967
:102DE000BB279395F695879577956795B795F111DC
:102DF000F8CFFAF4BB0F11F460FF1BC06F5F7F4F79
:102E00008F4F9F4F16C0882311F096E911C077238A
:102E100021F09EE8872F762F05C0662371F096E893
:102E2000862F70E060E02AF09A95660F771F881F62
:102E3000DAF7880F9695879597F90895990F000806
:102E4000550FAA0BE0E8FEEF16161706E807F9077C
:102E5000C0F012161306E407F50798F0621B730B17
:102E6000840B950B39F40A2661F0232B242B252B98
:102E700021F408950A2609F4A140A6958FEF811D3B
:102E8000811D089597F99F6780E870E060E00895DC
:102E90009FEF80EC0895DF93CF931F930F93FF92E2
:102EA000EF92DF927B018C01689405C0DA2EEF016E
:102EB000ABD0FE01E894A5912591359145915591AE
:102EC000AEF3EF0129DEFE019701A801DA9479F74C
:102ED000DF90EF90FF900F911F91CF91DF910895B8
:102EE00000240A94161617061806090608950024E9
:102EF0000A9412161306140605060895C9CF50D079
:102F0000E8F3E894E0E0BB279F57F0F02AED3FE0BC
:102F100049EC06C0EE0FBB0F661F771F881F28F015
:102F2000B23A62077307840728F0B25A620B730B38
:102F3000840BE3959A9572F7803830F49A95BB0F1D
:102F4000661F771F881FD2F7904857C1092E039438
:102F5000000C11F4882352F0BB0F40F4BF2B11F486
:102F600060FF04C06F5F7F4F8F4F9F4F0895EF93B7
:102F7000E0FF06C0A2EA2AED3FE049EC5FEBCCDDC2
:102F8000E5DF0F90039401FC9058E1EBF0E048C1BD
:102F900057FD9058440F551F59F05F3F71F047950A
:102FA000880F97FB991F61F09F3F79F087950895EF
:102FB000121613061406551FF2CF4695F1DF08C00E
:102FC000161617061806991FF1CF8695710561052B
:102FD00008940895E894BB2766277727CB0197F9D3
:102FE00008959B01AC0160E070E080E89FE350CE63
:102FF0000BD0ACCF75DF28F07ADF18F0952309F0FD
:1030000041CF46CF1124E7CFC3DFA0F3959FD1F383
:10301000950F50E0551F629FF001729FBB27F00D86
:10302000B11D639FAA27F00DB11DAA1F649F6627DB
:10303000B00DA11D661F829F2227B00DA11D621F2A
:10304000739FB00DA11D621F839FA00D611D221FE4
:10305000749F3327A00D611D231F849F600D211DC8
:10306000822F762F6A2F11249F5750408AF0E1F06B
:1030700088234AF0EE0FFF1FBB1F661F771F881FB4
:1030800091505040A9F79E3F510570F0FBCEA3CF61
:103090005F3FECF3983EDCF3869577956795B7959F
:1030A000F795E7959F5FC1F7FE2B880F911D9695C9
:1030B000879597F9089574DFE0F09E37D8F0963938
:1030C000B8F49E3848F4672F782F8827985FF9CF97
:1030D00086957795679593959539D0F3B62FB1700E
:1030E0006B0F711D811D20F48795779567959395DA
:1030F00067C081C070CF11F40EF4CACE7CC050DF1F
:10310000D0F39923D9F3CEF39F57550B87FF81D086
:103110000024A0E640EA900180585695979528F43F
:10312000805C660F771F881F20F026173707480737
:1031300030F4621B730B840B202931294A2BA6958E
:1031400017940794202531254A2758F7660F771FD3
:10315000881F20F026173707480730F4620B730BDF
:10316000840B200D311D411DA09581F7B901842FDD
:103170009158880F9695879508959B01AC0138CF9B
:10318000DF93D92FBCDEE695D7952AED3FE049E4E1
:103190005FE3B33A6207730784079507D7952AF070
:1031A000A2EA49EC9068B8DCD1DEEFECF0E038D070
:1031B000DD0F0BF016DFDD0F0BF49058DF91089553
:1031C000882371F4772321F09850872B762F07C03E
:1031D000662311F499270DC09051862B70E060E0B2
:1031E0002AF09A95660F771F881FDAF7880F969551
:1031F000879597F908959F3F31F0915020F4879576
:1032000077956795B795880F911D9695879597F94E
:10321000089591505040660F771F881FD2F7089588
:103220009F938F937F936F93FF93EF939B01AC01D9
:10323000DFDEEF91FF912FDE2F913F914F915F9154
:10324000D7CE97FB092E07260AD077FD04D027D0CA
:1032500006D000201AF4709561957F4F0895F6F717
:10326000909581959F4F089597FB092E05260ED0C6
:1032700057FD04D028D00AD0001C38F45095409552
:10328000309521953F4F4F4F5F4F0895F6F790953A
:103290008095709561957F4F8F4F9F4F0895AA1B22
:1032A000BB1B51E107C0AA1FBB1FA617B70710F031
:1032B000A61BB70B881F991F5A95A9F78095909563
:1032C000BC01CD010895A1E21A2EAA1BBB1BFD0172
:1032D0000DC0AA1FBB1FEE1FFF1FA217B307E407F5
:1032E000F50720F0A21BB30BE40BF50B661F771F4D
:1032F000881F991F1A9469F760957095809590952D
:103300009B01AC01BD01CF010895FC010590615006
:1033100070400110D8F7809590958E0F9F1F0895EB
:10332000FC016150704001900110D8F78095909594
:103330008E0F9F1F0895DC01CB01FC01E199FECFA8
:1033400006C0FFBBEEBBE09A31960DB20D92415024
:103350005040B8F70895E199FECF9FBB8EBBE09A2D
:1033600099278DB30895DC01CB0103C02D910E94F4
:10337000BE1941505040D0F70895262FE199FECF55
:103380009FBB8EBB2DBB0FB6F894E29AE19A0FBE9D
:0833900001960895F894FFCFA7
:1033980005EE1FFC000D0716090B011501150302A8
:1033A8000D050D020E100E180D02090E0302010084
:1033B800000000160515021504020202030204119A
:1033C8000D08070B040000000000000000000000CA
:1033D80000000000000000000000000000000000E5
:1033E80000000000000000000000000000000000D5
:1033F80000005002500255025A025F02640269023C
:103408006E02730278027D0282026E02500250023E
:10341800500287028C025002500250025A0269027E
:1034280064020C0100000000C2C0C0C1C0C0C1C01D
:10343800C0C4C0C0C1C0C0C1C0C0C3C0C0C1C0C07A
:10344800C1C0C0C5C0C0C1C0C0C1C0C00200020068
:0E3458000500020005000200010203060A0B37
:00000001FF
