:100000000C94BE010C94DB010C94DB010C94DB011D
:100010000C94DB010C94DB010C94DB010C94DB01F0
:100020000C94DB010C9418030C94DB010C94A603D4
:100030000C94D0030C94DB010C94DB010C94DB01D9
:100040000C94DB010C94DB010C94DB010C94DB01C0
:100050000C94DB01BF08C208D608E608F4081809AA
:10006000290937096909A809B809F409C809230B3E
:10007000230BFC09230B230B0C0A2D0A3D0A560AFD
:10008000BC08090B084AD73B3BCE016E84BCBFFDC0
:10009000C12F3D6C74319ABD56833DDA3D00C77F58
:1000A00011BED9E4BB4C3E916BAAAABE00000080F1
:1000B0003F05A84CCDB2D44EB93836A9020C50B980
:1000C000918688083CA6AAAA2ABE000000803F06A6
:1000D00064EC1B3C04BC163E3BE5B93CC93C37C252
:1000E0009E5A3D660498083EEA69AAAA3E000000AE
:1000F000803F52657175657374696E6720446174E1
:100100006153747265616D732E2E2E00426F6F7491
:10011000696E672075703AEDF2F2F2F2F2F2F2F2E5
:10012000F2F30057616974696E6720666F727C4DE7
:1001300041564C696E6B20686561727462656174CA
:10014000732E2E2E00202020202020202000446905
:100150007361726D6564008725332E3069250086D2
:1001600025332E306688008525352E30668D00E1DA
:1001700025336925001F25352E30668D00EAEB00FA
:10018000EAEC0025342E3066B00020C0C0C0C0C0EC
:10019000C7C0C0C0C0C0207CD02573D1008325312A
:1001A000312E36667C842531312E366600112000D2
:1001B0001020000F2532690020E325352E32668E8F
:1001C0000020E225352E32668E00253469B0B2005B
:1001D000253469B0B100050304057C15131415001E
:1001E00073746162006163726F00616C74680061B6
:1001F00075746F006C6F6974007265746C0067755C
:100200006964006369726300706F7369006C616E8A
:1002100064006F666C6F0066627761006662776289
:10022000006D616E750020202020BABBBCBDBE7C75
:1002300020202020CACBCCCDCE7C41726475436196
:100240006D204F5344005265626F6F74696E672E64
:100250002E2E004F534420496E697469616C697A8F
:100260006564202020004D697373696E672F4F6CA1
:100270006420436F6E666967006E616E00696E662A
:100280000000407A10F35A00A0724E18090010A521
:10029000D4E80000E87648170000E40B54020000A0
:1002A000CA9A3B000000E1F5050000809698000026
:1002B0000040420F000000A086010000001027004F
:1002C000000000E803000000006400000000000AD5
:1002D00000000000000100000000002C76D888DC3F
:1002E000674F0823DFC1DFAE59E1B1B796E5E3E41C
:1002F00053C63AE651997696E8E6C28426EB898C95
:100300009B62ED407C6FFCEFBC9C9F40F2BAA56FF6
:10031000A5F490055A2AF75C936B6CF9676DC11BC5
:10032000FCE0E40D47FEF520E6B500D0ED902E038D
:1003300000943577050080841E080000204E0A00D6
:100340000000C80C333333330F986E12831141EF22
:100350008D2114893BE65516CFFEE6DB18D1844B80
:10036000381BF77C1D901DA4BBE424203284725EF0
:10037000228100C9F124ECA1E53D270011241FBE14
:10038000CFE5D4E0DEBFCDBF10E0A0E6B0E0EEE9FF
:10039000F4E302C005900D92A83DB107D9F712E031
:1003A000A8EDB0E001C01D92A034B107E1F70E94B2
:1003B000B2110C944D1A0C940000283008F027E07C
:1003C0003327DA01990F311D87FD91600096610591
:1003D000710539F432602E5F3D9330E32A95E1F7E1
:1003E00008959F3F30F080387105610509F03C5F4A
:1003F0003C5F3D93913008F08068911DDF93CF936F
:100400001F930F93FF92EF92192F987F9695E92FE4
:1004100096959695E90FFF27E552FD4F99273327CB
:10042000EE24FF24A701E70105900894079428F41F
:10043000360FE71EF81E491F511D660F771F881FD4
:10044000991F0694A1F70590079428F4E70EF81E6B
:10045000491F561FC11D770F881F991F661F0694DD
:10046000A1F70590079428F4F80E491F561FC71FDF
:10047000D11D880F991F661F771F0694A1F705905D
:10048000079420F4490F561FC71FD81F990F661FE6
:10049000771F881F0694A9F784911095177041F073
:1004A000D695C79557954795F794E7941A95C1F750
:1004B000E1E8F2E068941590159135916591959178
:1004C00005907FE27395E118F10A430B560BC90BB7
:1004D000D009C0F7E10CF11E431F561FC91FD01DE4
:1004E0007EF4703311F48A95E6CFE894015030F031
:1004F000080F0AF40027021708F4202F2395022F73
:100500007A3328F079E37D932A95E9F710C07D933B
:100510002A9589F6069497956795379517951794B8
:10052000E118F10A430B560BC90BD00998F023953B
:100530007E9173957A3308F070E37C932013B8F7BB
:100540007E9170617D9330F0839571E37D9370E3CC
:100550002A95E1F71124EF90FF900F911F91CF9111
:10056000DF91992787FD90950895FA01AA272830F1
:1005700051F1203181F1E8946F936E7F6E5F7F4F70
:100580008F4F9F4FAF4FB1E03ED0B4E03CD0670FEC
:10059000781F891F9A1FA11D680F791F8A1F911D3F
:1005A000A11D6A0F711D811D911DA11D20D009F48F
:1005B00068943F912AE0269F11243019305D3193D1
:1005C000DEF6CF010895462F4770405D4193B3E0BA
:1005D0000FD0C9F7F6CF462F4F70405D4A3318F061
:1005E000495D31FD4052419302D0A9F7EACFB4E012
:1005F000A6959795879577956795BA95C9F70097CA
:100600006105710508959B01AC010A2E069457956A
:10061000479537952795BA95C9F7620F731F841FC1
:10062000951FA01D08958FB9779BFECF8FB10895B8
:100630001F920F920FB60F9211242F933F938F9317
:100640009F93AF93BF938091DC009091DD00A091C8
:10065000DE00B091DF003091E0000196A11DB11DD8
:10066000232F2D5F2D3720F02D570196A11DB11D91
:100670002093E0008093DC009093DD00A093DE00E7
:10068000B093DF008091D8009091D900A091DA005A
:10069000B091DB000196A11DB11D8093D80090930D
:1006A000D900A093DA00B093DB00BF91AF919F9186
:1006B0008F913F912F910F900FBE0F901F90189523
:1006C0008FB7F8942091DC003091DD004091DE007E
:1006D0005091DF008FBFB901CA010895EF92FF92D8
:1006E0000F931F937B018C018FB7F8944091DC002E
:1006F0005091DD006091DE007091DF008FBF2FB759
:10070000F8948091DC009091DD00A091DE00B09122
:10071000DF002FBF841B950BA60BB70BE816F9065D
:100720000A071B0760F71F910F91FF90EF90089544
:10073000019759F0FC01EE0FFF1FEE0FFF1F3297DC
:100740008FB7F8943197F1F78FBF08951F920F92EA
:100750000FB60F9211242F938F939F93EF93FF93D4
:100760009BB12CB1E0914301EF5FEF7380914401A5
:10077000E81711F482E008C0892F8871E0934301E3
:10078000F0E0EF5FFE4F208380934501FF91EF91F2
:100790009F918F912F910F900FBE0F901F901895E2
:1007A0001F920F920FB60F9211248F939F93EF9386
:1007B000FF939091410180914201981761F0E0917F
:1007C0004201EF5FEF71E0934201F0E0EF51FF4F24
:1007D00080818CB901C05598FF91EF919F918F91C5
:1007E0000F900FBE0F901F9018959C011092410121
:1007F00010924201109243011092440197FF03C0EE
:1008000082E08BB93F7730BD29B988E98AB986E89B
:1008100080BD08959091430180914401981719F487
:1008200020E031E012C0E0914401EF5FEF73E0930C
:100830004401F0E0EF5FFE4F308120914501922F9F
:1008400080E0AC01430F511D9A01C90108959091B8
:100850004301809144019817D1F3E0914401EF5F87
:10086000EF73E0934401F0E0EF5FFE4F8081089565
:10087000282F909141019F5F9F71809142019817AD
:10088000E1F3E92FF0E0EF51FF4F20839093410116
:10089000559A08958091430190914401891B8F736B
:1008A00008958091440180934301089597B1907E0B
:1008B000982B97B940E020E030E0369A349BFECF89
:1008C00084B195B1280F391F34984F5F4230A9F792
:1008D000309347012093460135952795C901089526
:1008E000FB0190819827292F2295207F292730E02E
:1008F000522F4427C90163E0880F991F6A95E1F7D9
:1009000048275927818190E04827592784E0359569
:1009100027958A95E1F7422753275183408308950D
:10092000AF92BF92DF92EF92FF920F931F93CF93FC
:10093000DF93D62E5901E82EFF249701220F331F93
:10094000F901EE0DFF1DEF01CC0FDD1FCC0FDD1FF8
:10095000C05DDD4F18828B819C818430910509F444
:1009600065C08530910554F482309105B9F183302A
:1009700091050CF07CC09923C4F448C187309105DF
:1009800009F4B3C08830910544F48530910509F429
:1009900081C0069709F03AC190C08830910509F4EA
:1009A000D2C0099709F032C1F7C085E5681709F090
:1009B0002DC182E090E09C838B8380E990E0E89EEB
:1009C000F001E99EF00DF89EF00D1124E056FE4F67
:1009D00013828FEF9FEF9183808318C167FF10C050
:1009E00089818F5F8983EE0FFF1FEE0FFF1FEE5C83
:1009F000FD4F80818F5F8083188281E090E013C07B
:100A000080E990E0E89EF001E99EF00DF89EF00D7F
:100A10001124E056FE4F63831D82862FBF010E9482
:100A2000700484E090E09C838B83F0C084E290E0CB
:100A3000E89EF001E99EF00DF89EF00D1124EE0FF6
:100A4000FF1FEE0FFF1FEC55FE4F608380E990E023
:100A5000E89EB001E99E700DF89E700D112460565D
:100A60007E4F8D2D0E94700483E090E0DCCF80E902
:100A700090E0E89EF001E99EF00DF89EF00D112443
:100A8000E056FE4F6583862FBF010E94700485E00B
:100A900090E0C9CF80E990E0E89EF001E99EF00D7A
:100AA000F89EF00D1124E056FE4F6683862FBF019D
:100AB0000E94700486E090E0B6CF80E990E0E89E66
:100AC0008001E99E100DF89E100D112400561E4F56
:100AD000F8016783862FB8010E947004F8018381B2
:100AE000882371F187E090E09ECF8D81F901B3E01A
:100AF000EE0FFF1FBA95E1F7E20FF31F3196A3E067
:100B0000EE0FFF1FAA95E1F7E80FF11DE056FE4F2B
:100B100060838F5F8D8380E990E0E89E8001E99E8D
:100B2000100DF89E100D112400561E4F862FB8018F
:100B30000E9470049D81F8018381981709F066C0B6
:100B400088E090E070CF262F30E080E990E0E89ECA
:100B5000D001E99EB00DF89EB00D1124A056BE4FF5
:100B60008D919C91119790702817390791F0EE0F95
:100B7000FF1FEE0FFF1FEE5CFD4F80818F5F8083B4
:100B8000188281E090E09C838B83F5E56F17F1F587
:100B900028C089E090E047CF262F30E080E990E040
:100BA000E89ED001E99EB00DF89EB00D1124A0562C
:100BB000BE4F11968C91119790E028173907E9F0F4
:100BC000EE0FFF1FEE0FFF1FEE5CFD4F80818F5F6A
:100BD0008083188281E090E09C838B8385E5D81622
:100BE000A9F482E090E09C838B8313961C92139768
:100BF0008FEF9FEF8D939C9309C081E0888381E004
:100C000090E09C838B83EA01B983A883D701AA0F64
:100C1000BB1FAE0DBF1DAA0FBB1FAA0FBB1FA05D40
:100C2000BD4F8C91813069F584E290E0E89EF0013F
:100C3000E99EF00DF89EF00D1124EE0FFF1FEE0F50
:100C4000FF1FEC55FE4F808116968C9316971896D1
:100C50008D919C911997892B21F41B961C921E92C1
:100C60001A97F701EE0FFF1FEE0DFF1DEE0FFF1F8E
:100C7000EE0FFF1FE05DFD4F808591850196918706
:100C80008087F701EE0FFF1FEE0DFF1DEE0FFF1F18
:100C9000EE0FFF1FDF01A05DBD4FE501B983A88303
:100CA000EE5CFD4F10828C91DF91CF911F910F91DF
:100CB000FF90EF90DF90BF90AF900895DF93CF93B8
:100CC00000D000D0CDB7DEB7FC013896E60FF11D9D
:100CD0002381328141815081B901CA010F900F9067
:100CE0000F900F90CF91DF9108958AE065E00E9408
:100CF000B9110E944A1286E292E00E947D120E947F
:100D00003D1208951F930E948B120E94750686E083
:100D100069E00E94B9110E944A1286E492E00E94A2
:100D20007D120E943D1210E064E670E080E090E0E9
:100D30000E946E03A8951F5F1A30B1F7FFCF1F9373
:100D4000CF93DF9385E06CE00E94B9110E944A12B4
:100D50008CE091E00E947D120E943D1264EF71E0F0
:100D600080E090E00E946E030E945104C0E0D0E059
:100D700010E0CE016AEF70E00E94E119892B69F45E
:100D8000812F8F5E6CE00E94B9110E944A128EEE94
:100D90000E946C120E943D121F5F61E070E080E0D3
:100DA00090E00E946E03219687E0C13DD80709F7C5
:100DB000DF91CF911F9108951F9380917001823030
:100DC00010F410E904C010917001110F1257812F17
:100DD0000E946C12812F8F5F0E946C121F910895E8
:100DE0002F923F924F925F926F927F928F929F923B
:100DF000AF92BF92CF92DF92EF92FF920F931F9329
:100E0000DF93CF9300D000D000D0CDB7DEB7898379
:100E10006A832DB73EB73E832D838DB79EB7489723
:100E20000FB6F8949EBF0FBE8DBFEDB7FEB73196DB
:100E3000FC83EB8380917101992787FD909597FF43
:100E400003C0909581959F4F8A359105B1F46091CB
:100E50007101772767FD70958AE590E00E94E1199E
:100E6000882777FD8095982F0E94C71721EE3AEFCB
:100E700043EB52E40E94B81809C0609171017727D2
:100E800067FD7095872F972F0E94C71725E33AEFCC
:100E90004EE85CEB0E94B8187B018C0180917201D6
:100EA000992787FD909597FF03C0909581959F4F57
:100EB0008A359105B1F460917201772767FD7095CD
:100EC0008AE590E00E94E119882777FD8095982FA8
:100ED0000E94C71721EE3AEF43EB52E40E94B81884
:100EE00009C060917201772767FD7095872F972F52
:100EF0000E94C71725E33AEF4EE85CE30E94B8185A
:100F00005B016C01B701C8010E94801920E030E04C
:100F100044E352E40E94B8180E941B190E949417DF
:100F20007B018C01B501C6010E9480192B013C0197
:100F30002B803C804EEBC42E4FEFD42E4701AA24C9
:100F400097FCA094BA2CB601882777FD8095982F3E
:100F50000E94C7179B01AC01C301B2010E94B818DF
:100F60007B018C01C501B4010E94C7179B01AC0134
:100F7000C801B7010E94631620E030E044E352E468
:100F80000E94631620E030E040E85FE30E946216B2
:100F90000E949417F101619371931F012CE030E0DE
:100FA000C20ED31E3EE4C316D10469F6CC24DD2460
:100FB0003EEE832E3FEF932EBA80BA94EB81FC81F4
:100FC000EC0DFD1D0190F081E02D1E161F06B4F5FD
:100FD000EA35F1059CF5CF0101976EEE7FEF0E9497
:100FE000E1198B010B5F1F4FEB55F040089DC001CD
:100FF000099D900D189D900D11249F01281B390B00
:10100000C90162E070E00E94E119882777FD8095B0
:10101000982F0E94C7170E941B190E9494177B01EA
:10102000672B19F421E0E22EF12C6B2D600F8981E2
:101030000E9425128E2D8B5F0E946C1282E090E040
:10104000C80ED91E99819F5F9983E8E1CE16D1041D
:1010500009F0B4CF2D813E810FB6F8943EBF0FBE8C
:101060002DBF26960FB6F894DEBF0FBECDBFCF9131
:10107000DF911F910F91FF90EF90DF90CF90BF9085
:10108000AF909F908F907F906F905F904F903F9028
:101090002F9008952F923F924F925F926F927F927E
:1010A0008F929F92AF92BF92CF92DF92FF920F9357
:1010B0001F93CF93DF930E946003209185013091AD
:1010C00086014091870150918801621B730B840B4C
:1010D000950B605D77408040904008F0C1C28091E0
:1010E0008901882311F00E948B12CC24DD24BFE5F6
:1010F000AB2EB1E0BB2EA7E68A2EA1E09A2EFFE62A
:101100006F2EF1E07F2EE5E74E2EE1E05E2E73E8D4
:10111000272E71E0372E1C2D809160009091610088
:10112000A0916200B09163000C2C04C0B695A79505
:10113000979587950A94D2F780FF89C2F601EE0F42
:10114000FF1FEC59FF4F8081F601EE0FFF1FE05AA1
:10115000FF4F65810E94B9110E944A12EC2DF0E008
:10116000E831F10508F06FC2E65DFF4FEE0FFF1F9B
:101170000590F491E02D099418ECFF242BC286ED24
:1011800091E003C12091710100D000D080ED91E089
:10119000ADB7BEB712969C938E931197332727FD58
:1011A000309514963C932E93139779C12091720138
:1011B00000D000D08AEC91E0CDB7DEB79A83898366
:1011C000332727FD30953C832B8369C1209148014B
:1011D0003091490140914A0150914B0100D000D01B
:1011E00000D081EC91E00DC020914E0130914F0173
:1011F000409150015091510100D000D000D088EBB7
:1012000091E0EDB7FEB792838183ADB7BEB7139679
:101210002D933D934D935C9316970E94BE11CDB7CD
:10122000DEB726960FB6F894DEBF0FBECDBF0DC257
:1012300020915D0100D000D0EDB7FEB7319683EB71
:1012400091E0ADB7BEB712969C938E93119722830F
:10125000E1C080915E01823020F0843008F0F3C15B
:1012600003C080EB91E091C08DEA91E08EC0809147
:10127000550190915601A0915701B09158012091CC
:10128000590130915A0140915B0150915C01CDB7F9
:10129000DEB72A970FB6F894DEBF0FBECDBFEDB70D
:1012A000FEB731966DE971E07A8369838283938317
:1012B000A483B58326833783408751870E94BE115C
:1012C0008DB79EB70A960FB6F8949EBF0FBE8DBF1E
:1012D000BCC160917401709175018091760190910B
:1012E000770120E030E040E152E40E94B81820E0AD
:1012F00030E044EB53E40E942C170E941B190E941B
:1013000094179B012550304037FF03C09B01215E9D
:101310003F4FA0E9B1E0F901EE55FF4F80818C937A
:101320002F5F3F4F2432310514F020E030E011965A
:1013300091E0AB39B90779F700D000D0EAE8F1E0E5
:10134000CDB7DEB7FA83E9831B97BC83AB83A7C015
:101350008091740190917501A0917601B09177010F
:1013600000D000D000D0CDB7DEB73A82298263C06A
:1013700080918401882339F080E891E00E947D12F9
:101380001092840162C18DE791E00E947D125DC1DF
:1013900080915F01813009F058C160916C017091BA
:1013A0006D0180916E0190916F0100D000D000D04E
:1013B0000DB71EB70F5F1F4FADB7BEB712965C9249
:1013C0004E9211970E94C717E8016A837B838C8332
:1013D0009D830E94BE11EDB7FEB736960FB6F89406
:1013E000FEBF0FBEEDBF31C180915F01813009F0BA
:1013F0002CC10E94DC0629C18091830100D000D05D
:10140000EDB7FEB73196ADB7BEB712967C926E922D
:1014100011978283138243C0809178019091790162
:10142000A0917A01B0917B0100D000D000D0CDB75F
:10143000DEB79A828982EDB7FEB783839483A58352
:10144000B6830E94BE112DB73EB72A5F3F4F0FB63D
:10145000F8943EBF0FBE2DBFF8C080917C019091E3
:101460007D01A0917E01B0917F0100D000D000D01D
:10147000CDB7DEB7BA82A982DECF8091800190918C
:10148000810100D000D0C7E5D1E0ADB7BEB712965C
:10149000DC93CE93119714969C938E9313970E948E
:1014A000BE110F900F900F900F90CFC030918A0116
:1014B000209154018091520190915301323009F0F2
:1014C0004AC08636910561F18736910598F48430DB
:1014D000910549F18530910520F4039709F0B3C0D7
:1014E0002BC08436910509F4D3C08536910509F0E7
:1014F000AAC013C08C36910529F18D36910528F4C8
:101500008B36910509F09FC05CC08D369105E9F0DE
:101510008E36910509F097C01BC0C5EED1E0BAC068
:10152000CAEED1E0B7C0233009F43FC02530C1F185
:10153000223009F088C03FC0233009F086C0CEEFCA
:10154000D1E0A8C0C8E0D2E0A5C0CDE0D2E0A2C002
:10155000C2E1D2E09FC0313009F075C085309105FD
:1015600019F4243059F594C08630910559F421308E
:1015700019F4C7E1D2E08EC0223009F064C0CCE19A
:10158000D2E088C08230910531F4243009F05BC08C
:10159000C1E2D2E07FC08430910581F4253019F496
:1015A000C9EFD1E077C0233019F4CFEED1E072C09B
:1015B000283009F048C0C4EFD1E06CC0079709F0AB
:1015C00042C0C3E0D2E066C0E2E0FE1611F418EDBE
:1015D00001C018EC812F0E946C1200E080E20E9492
:1015E0006C120F5F0C30D1F7812F8F5F0E946C124D
:1015F0008CE70E946C12F394F5E0FF1629F70E9425
:101600003D1280919000609191008F5F0E94F006E2
:101610001EC080918201843051F000D0CEE4D1E030
:10162000ADB7BEB71296DC93CE93119707C000D02A
:1016300025E431E0EDB7FEB7328321830E94BE116D
:101640000F900F9002C0163111F00E943D120894C5
:10165000C11CD11C38E1C316D10409F05CCD21C0F6
:10166000809189018823E9F481E0809389010E94B7
:101670008B120E94750685E06AE00E94B9110E94F3
:101680004A1283E291E00E947D120E943D1209C03D
:10169000C0EED1E080EE0E946C12CE010E947D125D
:1016A000D2CFDF91CF911F910F91FF90DF90CF901C
:1016B000BF90AF909F908F907F906F905F904F9072
:1016C0003F902F9008950F931F93CF93DF9383E75D
:1016D0000E9438048CE30E943804C0E6D0E000E0A9
:1016E00005C01991812F0E943804010F80E0CC3988
:1016F000D807B9F7802F0E943804DF91CF911F914E
:101700000F910895892B19F4862F0E9438040895AB
:101710002F923F924F925F926F927F928F929F9201
:10172000AF92BF92CF92DF92EF92FF920F931F93EF
:10173000DF93CF93CDB7DEB764970FB6F894DEBFD3
:101740000FBECDBF32EDE32E30E0F32E26ECC22EDD
:1017500020E0D22E1E010894211C311C95E1492E57
:10176000512C4C0E5D1E89E0682E712C6C0E7D1E76
:101770000FE0A02EB12CAC0EBD1E15E0812E912CD9
:101780008C0E9D1E20918B0130918C01F7014081C0
:10179000F601808191819A83898329873A874B87D3
:1017A000F10181818C8780818D87F1E0FE8785E55D
:1017B0008F8796E0988B90913702998B80919C004F
:1017C0008A8B80919D008B8BE2E4EC8B9F5F9093E2
:1017D00037028FEF9FEF98878F838E01005F1F4F37
:1017E00008C0F80181918F01BE01695F7F4F0E949F
:1017F000700404151505A9F78F8198859C838B8348
:10180000830108C0F80181918F01BE016D5F7F4F98
:101810000E9470040A151B05A9F78B819C818D839A
:101820009E83850180E090E0F80161918F010E9424
:10183000820B04151505B1F7830180E090E0F801F3
:1018400061918F010E94820B0A151B05B1F780E0A0
:1018500090E0F40160810E94820B80E090E0F4014E
:1018600061810E94820B0894E11CF11C82E090E0EF
:10187000C80ED91E98EDE91690E0F90609F082CF5E
:1018800064960FB6F894DEBF0FBECDBFCF91DF9147
:101890001F910F91FF90EF90DF90CF90BF90AF908E
:1018A0009F908F907F906F905F904F903F902F9080
:1018B0000895FF920F931F9381E60E9438040E94BF
:1018C0002704A8950E9456048C01892F990F990B23
:1018D000F82E0E943804802F0E9438048F2D800F2C
:1018E0000E9438041F910F91FF900895CF92DF92CC
:1018F000FF920F931F93DF93CF93CDB7DEB7EC9793
:101900000FB6F894DEBF0FBECDBF83E50E9438044A
:101910000E942704A8958C3379F5FF248E010F5F70
:101920001F4F5DE3C52ED12CCC0EDD1E0E94270477
:10193000F80181938F01F80EA895EC15FD05B1F71C
:101940000E942704A8958F15B9F4A0E6B0E0FE0127
:1019500031968CE301900D928150E1F7A89580E6D5
:1019600090E062E070E04CE350E00E94361AA895E7
:101970000E948B1281E201C080E40E943804EC9640
:101980000FB6F894DEBF0FBECDBFCF91DF911F9190
:101990000F91FF90DF90CF9008958F929F92AF921A
:1019A000BF92DF92EF92FF920F931F93DF93CF933B
:1019B000CDB7DEB7C054D0400FB6F894DEBF0FBE2F
:1019C000CDBF86E40E943804EE24FF245E01089413
:1019D000A11CB11C67E3862E912C8C0E9D1E2CC081
:1019E000A8950E944A048823D9F30E940A04F801AA
:1019F00081938F01D80EE815F90599F701C0A895D4
:101A00000E944A048823D9F30E940A04D81681F45C
:101A1000C701B5010E94CD1181E20E9438040894EB
:101A2000E11CF11CF0E0EF16F1E0FF0629F407C01D
:101A300080E40E94380403C08501DD24D2CF0E94D7
:101A40008B12C05CDF4F0FB6F894DEBF0FBECDBF68
:101A5000CF91DF911F910F91FF90EF90DF90BF909A
:101A6000AF909F908F9008954F925F926F927F9268
:101A70008F929F92BF92CF92DF92EF92FF920F933D
:101A80001F93DF93CF9300D000D000D0CDB7DEB747
:101A9000F3E06F2E712C6C0E7D1E2E010894411CFC
:101AA000511CBB24B394E5E0CE2ED12CCC0EDD1E10
:101AB00074E6872E912C6CC10E940A04682F8091D5
:101AC0008E01882369F56A3059F16D3031F48091C7
:101AD0008F018F5F80938F0123C080918F018330AE
:101AE000E8F0633579F0643528F4663441F0623506
:101AF000A9F40EC0613679F0633781F406C00E9404
:101B0000CD0C46C10E94760C43C10E94630B40C1BC
:101B10000E9482063DC10E94590C3AC110928F0169
:101B200080E0A20193010E949004882309F42CC153
:101B3000B0928E01E980FA80D70117968C918E3190
:101B400009F4F6C08F3130F4882369F08B3109F045
:101B50001BC187C0823239F18A3409F488C08032CF
:101B600009F012C15FC0B0928401F70185818093B2
:101B70008B01868180938C01808580938A010E94ED
:101B800060039B01AC012093850130938601409353
:101B900087015093880180918901882309F4F4C05A
:101BA000B0928D01F1C08701085F1F4FD7011E96CB
:101BB0008C911E97F60180831D968C9181836D8197
:101BC0007E8180E090E00E94C51720E030E04AE787
:101BD00054E40E942C17609348017093490180934C
:101BE0004A0190934B01D70118968C91189790E079
:101BF0009093530180935201F801818180935401A5
:101C000082818093820150968C91D6018C93F7014A
:101C1000878511968C938D819E8190934D01809341
:101C20004C01B2C0C70169E00E945E066093550195
:101C300070935601809357019093580189819A813E
:101C40006DE00E945E066093590170935A01809383
:101C50005B0190935C01E981FA81808980935E0148
:101C600093C0D70118968C9180935D018DC0C701F8
:101C700064E00E945E0660937C0170937D01809316
:101C80007E0190937F01E980FA80F7013896818583
:101C9000D6018C93808511968C936D817E818827E7
:101CA00077FD8095982F0E94C717609374017093F9
:101CB00075018093760190937701F7018389D601AE
:101CC0008C93828911968C938D819E819093810152
:101CD00080938001809180019091810185369105EA
:101CE00058F080918001909181018639910520F40E
:101CF0009092810180928001809180019091810178
:101D000080918001909181018739910520F0109296
:101D1000810110928001C7016CE00E945E06609311
:101D200078017093790180937A0190937B012CC0A4
:101D3000C7016CE00E945E0621EE3EE245E652E4F9
:101D40000E94B8180E9494176093710189819A814A
:101D500068E00E945E0621EE3EE245E652E40E9403
:101D6000B8180E9494176093720189819A8160E18A
:101D70000E945E0621EE3EE245E652E40E94B8185B
:101D80000E949417609373018AE890E00E94980380
:101D90000E944A04882309F08FCE26960FB6F89445
:101DA000DEBF0FBECDBFCF91DF911F910F91FF908E
:101DB000EF90DF90CF90BF909F908F907F906F902B
:101DC0005F904F9008952F923F924F925F926F9243
:101DD0007F928F929F92AF92BF92CF92DF92EF92BB
:101DE000FF920F931F93DF93CF9300D000D0CDB716
:101DF000DEB7A89580918D01882309F443C00E9425
:101E00008B1283E06AE00E94B9110E944A1282EFAD
:101E100090E00E947D120E943D120E94880B62E3B6
:101E200070E080E090E00E946E030E94880B62E305
:101E300070E080E090E00E946E030E94880B62E3F5
:101E400070E080E090E00E946E0310928D0110E03F
:101E500068EC70E080E090E00E946E03A8951F5F40
:101E60001A30B1F70E948B12109289010E94600310
:101E70009B01AC012093850130938601409387013B
:101E8000509388010E94340D0E94600369837A8315
:101E90008B839C8380919C0190919D01A0919E01D8
:101EA000B0919F0129813A814B815C81281B390BBC
:101EB0004A0B5B0B293731054105510508F4A5C1D3
:101EC00080915F01882309F09AC180915E01823080
:101ED00008F495C18091550190915601A091570148
:101EE000B09158018093600190936101A0936201C9
:101EF000B09363018091590190915A01A0915B01C7
:101F0000B0915C018093640190936501A093660198
:101F1000B09367018091780190917901A0917A0145
:101F2000B0917B018093680190936901A0936A014D
:101F3000B0936B0181E080935F0108C16091600103
:101F40007091610180916201909163019F7725E317
:101F50003AEF4EE85CE30E94B8180E9429171B0173
:101F60002C016091600170916101809162019091FA
:101F700063012091550130915601409157015091D4
:101F800058010E9462169F7720EC3BE649ED57E42A
:101F90000E94B8185B016C01609164017091650149
:101FA00080916601909167012091590130915A0109
:101FB00040915B0150915C010E9462169F7720EC7A
:101FC0003BE649ED57E40E94B818A20191010E9436
:101FD000B8187B018C01C601B501A60195010E94CC
:101FE000B8185B016C01C801B701A80197010E94F4
:101FF000B8189B01AC01C601B5010E9463160E948E
:102000003F190E94941760936C0170936D01809347
:102010006E0190936F01A0906401B0906501C09033
:102020006601D09067016090590170905A018090CC
:102030005B0190905C016091600170916101809101
:1020400062019091630120915501309156014091B8
:102050005701509158010E9462167B018C0160E08B
:1020600070E080E89FE3A20191010E942C179B0180
:10207000AC01C801B7010E94B8187B018C01C601F0
:10208000B501A40193010E9462169B01AC01505856
:10209000C801B7010E94D61620EE3EE245E652E4A2
:1020A0000E94B81820E030E044EB52E40E9463162E
:1020B0000E9494179B01AC0197FF04C028593E4F22
:1020C0004F4F5F4FCA01B901645B70408040904040
:1020D00097FF06C0CA01B9016C547F4F8F4F9F4FC5
:1020E000E0907401F09075010091760110917701F4
:1020F0000E94C717A80197010E9462160E949417B8
:1021000097FF04C068597E4F8F4F9F4F0E94C7179B
:1021100020E030E044EB53E40E942C1720E030E054
:1021200040E851E40E94B8180E941B1920E030E0FA
:1021300040E85FE30E9463160E9499176093700164
:1021400080917001813110F01092700180916000D7
:1021500090916100A0916200B091630084FF23C060
:1021600081E00E9456042091940030919500609186
:10217000960070919700AC01429FC001439F900D63
:10218000529F900D11240E94E119882777FD8095B8
:10219000982F0E94C71760934E0170934F01809350
:1021A0005001909351018091600090916100A09145
:1021B0006200B091630080709078892B89F082E092
:1021C0000E945604209198003091990060919A00E5
:1021D00070919B00821B930B0E94E1196093830115
:1021E0000E944A0889819A81AB81BC8180939C01BD
:1021F00090939D01A0939E01B0939F0106C0809192
:102200005F01813009F0A2CF99CE0F900F900F900F
:102210000F90CF91DF911F910F91FF90EF90DF9082
:10222000CF90BF90AF909F908F907F906F905F9076
:102230004F903F902F90089580E090E00E942E1ADA
:102240008F3431F481E090E00E942E1A8130B9F190
:1022500086E069E00E94B9110E944A1286E692E087
:102260000E947D120E943D1264EF71E080E090E0D8
:102270000E946E0380E090E06FE40E94401A81E0CB
:1022800090E061E00E94401A80E690E062E070E039
:102290004CE350E00E94361A86E069E00E94B911D2
:1022A0000E944A1283E592E00E947D120E943D1234
:1022B00064EF71E080E090E00E946E0308C080E669
:1022C00090E062E070E04CE350E00E941E1A8091C2
:1022D0003F028823C1F480913E02482F50E020E065
:1022E00030E0F901EE0FFF1FE05AFF4F858190E0CB
:1022F000841795071CF08581835085832F5F3F4F9E
:102300002831310571F70895F89482E081BB83E0AC
:1023100083BF89B7816089BF81E290E80E94F5039D
:1023200080EB87BB81E58DB917B887E886B97894CB
:102330000E94AD120E9475060E941C110E949F0609
:1023400064EF71E080E090E00E946E030E948B12C7
:102350002DE088E190E00FB6F894A89581BD0FBEFE
:1023600021BD08950E9484110E94E30E80E090E058
:10237000089580933D0260933C020895DF93CF93CC
:10238000CDB7DEB7FE0135966191719181E0AF0165
:102390000E94DD12CF91DF910895EF92FF921F937B
:1023A000CF93DF93182F7B01C39880E00E94130323
:1023B00080E00E94130389E00E941303812F0E9492
:1023C0001303C0E0D0E0F701EC0FFD1F10818AE09D
:1023D0000E9413038C2F0E9413038BE00E941303AF
:1023E000812F0E9413032196C633D10561F788E03F
:1023F0000E94130380EA0E94130380EA0E941303E1
:1024000085FDFBCF80E00E9413038CE00E94130344
:10241000C39ADF91CF911F91FF90EF9008951F9382
:10242000182FC39880E00E941303112319F0113074
:1024300049F403C080913F0203C080913F028C6148
:102440000E941303C39A1F9108950F931F939EE157
:10245000699F80011124080F111DC39885E00E9417
:102460001303812F0E94130386E00E941303802F21
:102470000E9413031F910F91089587E00E94130398
:102480008FEF0E941303C39A80913C028F5F809369
:102490003C0208950F931F9300913C028EE1089F28
:1024A0008001112480913D02080F111DC39884E022
:1024B0000E94130383E00E94130385E00E9413032C
:1024C000812F0E94130386E00E941303802F0E9435
:1024D00013031F910F9108951F93182F8C3729F420
:1024E0000E943D120E944A1206C087E00E94130318
:1024F000812F0E9413031F910895CF93DF93EC0166
:1025000002C00E946C12FE01219684918823C9F7B3
:10251000DF91CF910895C39884E00E94130384E073
:102520000E941303C39A0895C39880EA0E9413037C
:102530008FEF0E94130381FD03C080E490E002C08E
:1025400080E090E080933F02892B11F088E001C089
:1025500086E080933E02C39A08951F93BB9A0E941F
:102560009412C3988CEE0E9413038FEF0E94130302
:10257000182F80E00E94130380913F0282600E9426
:10258000130362E370E080E090E00E946E038CE64B
:102590000E941303812F8F7E0E94130310E1812F6D
:1025A0000E94130380E00E9413031F5F1C31B9F7E0
:1025B00081E00E940F121F9108952F923F924F9237
:1025C0005F926F927F928F929F92AF92BF92CF92C3
:1025D000DF92EF92FF920F931F93DF93CF93CDB7CC
:1025E000DEB760970FB6F894DEBF0FBECDBF8C8705
:1025F0007E876D875A019E012F5F3F4F388B2F8753
:10260000ED85FE852C8520FD859120FF8191FE873B
:10261000ED87882309F43DC3853249F420FD859177
:1026200020FF8191FE87ED87853251F406C08A3004
:1026300021F48DE00E946C128AE00E946C12E0CFBF
:10264000982FFF24882499243FE13F15D0F09B3236
:1026500069F09C3228F4903259F0933291F40EC014
:102660009D3249F0903369F441E026C052E0F52AEA
:1026700084E0F82A2AC098E0F92A27C0E0E1FE2A7F
:1026800024C0F7FC2EC0892F80538A3080F4F6FED8
:1026900006C0FAE09F9E902C1124980E16C02AE0E6
:1026A000829E802C1124880E30E2F32A0EC09E32C6
:1026B00029F4F6FCEEC240E4F42A07C09C3619F473
:1026C00050E8F52A02C0983661F4ED85FE852C8528
:1026D00020FD959120FF9191FE87ED87992309F0C8
:1026E000B3CF892F8554833020F48F2D8061905E85
:1026F00007C0892F8556833008F087C18F2D8F7EC4
:1027000086FD02C076E0972E182F1F73953611F4C0
:10271000106406C0963611F4106802C091109A94A5
:1027200017FF0BC03BE3391520F427E06CE3762E4E
:102730000EC0792C739427E00AC047E0491528F4AD
:1027400027E0772457E0952E02C0292D772444E016
:10275000242E312C2A0C3B1CF50160817181828171
:102760009381AE014F5F5F4F072D0E94DD016C0129
:10277000B9804B2C5524B0FE04C0B3FC02C00DE25E
:1027800009C011FF02C00BE205C012FD02C000E04B
:1027900001C000E2C2018C709070892BA9F1002366
:1027A00011F483E001C084E0881510F0882408C08B
:1027B000881A13FD05C080E20E946C128A94D9F732
:1027C000002319F0802F0E946C1243FE05C039E7E8
:1027D000E32E32E0F32E0FC02DE7E22E22E0F22EA0
:1027E0000AC00115110509F080520E946C1208946C
:1027F000E11CF11C04C0012F10E000711070F70102
:102800008491882371F7FFC017FF12C07C0C44FE2F
:1028100004C08A81813309F47A9417141CF0772458
:1028200073942CC0F8E0F71548F598E0792E26C08F
:1028300016FD24C0892D90E08C159D0544F02CEFE9
:10284000C2162FEFD2061CF0106801C09A9499208E
:1028500049F0E2E0F0E0EC0FFD1FE90DF11D808191
:102860008033A1F317FF0AC0792C7394892D90E06F
:10287000C816D90614F0992401C09C1817FD03C08E
:1028800025E030E009C01C141D041CF021E030E0FC
:1028900003C096012F5F3F4F002311F02F5F3F4F82
:1028A000992029F0892D90E00196280F391F882D55
:1028B00090E02817390714F0882401C0821AE12E0D
:1028C000FF24C70189709070892B29F006C080E22F
:1028D0000E946C128A948820D1F7002319F0802F6F
:1028E0000E946C12E3FE05C006C080E30E946C12D9
:1028F0008A948820D1F717FF45C08601D7FE02C011
:1029000000E010E076010894E11CF11CE01AF10AE5
:1029100041E050E04C0F5D1FE40EF51EC601871923
:1029200091093C01892D90E0AA24BB24A81AB90A78
:102930009FEF0F3F190719F48EE20E946C12C01628
:10294000D10634F0601671061CF4F701808101C0D5
:1029500080E3015010400894E11CF11C0A151B058E
:102960001CF00E946C12E4CF0C151D0509F049C043
:102970009A81963328F4953309F043C044FC41C052
:1029800081E33FC08A81813311F0FFEEBF220E94B4
:102990006C12992081F08EE20E946C1212E0E1E04C
:1029A000F0E0EC0FFD1FE10FF11D1F5F80810E9421
:1029B0006C129A94A1F7E4FC02C085E601C085E49C
:1029C0000E946C12D7FC05C0C114D10441F4B4FEBE
:1029D00006C0D094C194D108D3948DE201C08BE29B
:1029E0000E946C1280E305C08F5F26EF3FEFC20E9E
:1029F000D31E3AE0C316D104BCF70E946C128C2D92
:102A0000805D0E946C12510141C1933631F09337C1
:102A100091F0933509F055C023C0F5018081898379
:102A20006E010894C11CD11C22E030E0A20EB31E3E
:102A300001E010E012C0F501C080D180F6FC03C0B7
:102A40006FEF7FEF02C0692D70E022E030E0A20E50
:102A5000B31EC6010E94131A8C013FE7F32214C073
:102A6000F501C080D180F6FC03C06FEF7FEF02C09C
:102A7000692D70E022E030E0A20EB31EC6010E9474
:102A8000081A8C0130E8F32AF3FE05C016C080E274
:102A90000E946C128A94882D90E008171907B8F3E9
:102AA0000CC0F601F7FC8591F7FE81916F010E9441
:102AB0006C1281108A94015010400115110589F79C
:102AC000E5C0943611F0993681F5F7FE08C0F5019E
:102AD000208131814281538184E090E00AC0F50178
:102AE000808191819C01442737FD4095542F82E0DD
:102AF00090E0A80EB91E9FE6F92257FF09C0509535
:102B00004095309521953F4F4F4F5F4FE0E8FE2AAB
:102B1000CA01B901AE014F5F5F4F2AE030E00E9469
:102B2000B502E82EFF85EF1A43C0953729F41F2D13
:102B30001F7E2AE030E01DC01F2D197F9F3661F0F7
:102B4000903720F4983509F0A4C00FC0903739F0C1
:102B5000983709F09EC004C028E030E00AC0106138
:102B600014FD146020E130E004C014FD166020E183
:102B700032E017FF08C0F501608171818281938185
:102B800044E050E008C0F50180819181BC0180E003
:102B900090E042E050E0A40EB51EAE014F5F5F4FE3
:102BA0000E94B502E82E5F85E51A8FE7F82EF12224
:102BB000F6FE0BC08EEFF822E91438F4F4FE07C0DD
:102BC000F2FC05C09FEEF92202C01E2D01C0192D96
:102BD000F4FE0DC0FE01EE0DF11D8081803319F46D
:102BE000E9EEFE2208C01F5FF2FE05C003C08F2D74
:102BF000867809F01F5F0F2DF3FC12C0F0FE0DC0A8
:102C0000181510F09E2C09C09E2C980C911A182DA6
:102C100004C080E20E946C121F5F1815D0F304C03C
:102C2000181510F4811A01C0882404FF0BC080E33A
:102C30000E946C1202FF17C001FD02C088E70CC0A1
:102C400088E50AC0802F867871F001FF02C08BE210
:102C500001C080E2F7FC8DE20E946C1204C080E3A8
:102C60000E946C129A94E914D0F3EA94E1E0F0E047
:102C7000EC0FFD1FEE0DF11D80810E946C12EE2005
:102C8000A1F704C080E20E946C128A948820D1F7D8
:102C9000B7CC60960FB6F894DEBF0FBECDBFCF9114
:102CA000DF911F910F91FF90EF90DF90CF90BF9039
:102CB000AF909F908F907F906F905F904F903F90DC
:102CC0002F9008955058BB27AA270ED0FFC1C8D116
:102CD00030F0CDD120F031F49F3F11F41EF498C1B3
:102CE0000EF4E095E7FB8EC1E92F12D280F3BA17FC
:102CF000620773078407950718F071F49EF52AC2DE
:102D00000EF4E0950B2EBA2FA02D0B01B901900106
:102D10000C01CA01A0011124FF27591B99F0593F4A
:102D200050F4503E68F11A16F040A22F232F342F92
:102D30004427585FF3CF469537952795A795F040E0
:102D40005395C9F77EF41F16BA0B620B730B840BF5
:102D5000BAF09150A1F0FF0FBB1F661F771F881FAD
:102D6000C2F70EC0BA0F621F731F841F48F4879505
:102D700077956795B795F7959E3F08F0B3CF9395F4
:102D8000880F08F09927EE0F97958795089568D1D9
:102D900058F080E891E009F49EEF69D128F040E80E
:102DA00051E059F45EEF09C033C1D4C1E92FE07896
:102DB000AFD168F3092E052AC1F326173707480754
:102DC000590738F00E2E07F8E02569F0E025E06499
:102DD0000AC0EF6307F8009407FADB01B9019D010F
:102DE000DC01CA01AD01EF9346D070D10AD05F91EA
:102DF000552331F02BED3FE049E450FD49EC63CF22
:102E00000895DF93DD27B92FBF7740E85FE31616FB
:102E1000170648075B0710F4D92FA3D19F938F9310
:102E20007F936F936AD2E4E8F0E0F5D04FD12F9111
:102E30003F914F915F91A8D1DD2349F09058A2EACC
:102E40002AED3FE049EC5FE3D0785D274DDFDF916D
:102E50003DC115D1E3954BC10CD038C108D140F02C
:102E6000FFD030F021F45F3F19F0CCC0511173C195
:102E7000CFC04ED198F39923C9F35523B1F3951BD5
:102E8000550BBB27AA2762177307840738F09F5F8B
:102E90005F4F220F331F441FAA1FA9F333D00E2EFA
:102EA0003AF0E0E830D091505040E695001CCAF767
:102EB00029D0FE2F27D0660F771F881FBB1F26172C
:102EC00037074807AB07B0E809F0BB0B802DBF01FF
:102ED000FF2793585F4F2AF09E3F510568F092C03C
:102EE0003AC15F3FECF3983EDCF3869577956795A2
:102EF000B795F7959F5FC9F7880F911D96958795B0
:102F000097F90895E1E0660F771F881FBB1F6217CE
:102F100073078407BA0720F0621B730B840BBA0B8C
:102F2000EE1F88F7E095089504D06894B11113C19D
:102F30000895F6D088F09F5790F0B92F9927B75190
:102F4000A0F0D1F0660F771F881F991F1AF0BA956D
:102F5000C9F712C0B13081F0FDD0B1E00895FAC0D8
:102F6000672F782F8827B85F39F0B93FCCF3869563
:102F700077956795B395D9F73EF4909580957095C0
:102F800061957F4F8F4F9F4F0895E89409C097FB3D
:102F90003EF490958095709561957F4F8F4F9F4F30
:102FA0009923A9F0F92F96E9BB279395F695879574
:102FB00077956795B795F111F8CFFAF4BB0F11F437
:102FC00060FF1BC06F5F7F4F8F4F9F4F16C08823DE
:102FD00011F096E911C0772321F09EE8872F762F14
:102FE00005C0662371F096E8862F70E060E02AF055
:102FF0009A95660F771F881FDAF7880F9695879541
:1030000097F9089597F99F6780E870E060E0089568
:103010009FEF80EC0895DF93CF931F930F93FF9260
:10302000EF92DF927B018C01689405C0DA2EEF01EC
:10303000ABD0FE01E894A59125913591459155912C
:10304000AEF3EF0151DEFE019701A801DA9479F7A2
:10305000DF90EF90FF900F911F91CF91DF91089536
:1030600000240A9416161706180609060895002467
:103070000A9412161306140605060895C9CF50D0F7
:10308000E8F3E894E0E0BB279F57F0F02AED3FE03B
:1030900049EC06C0EE0FBB0F661F771F881F28F094
:1030A000B23A62077307840728F0B25A620B730BB7
:1030B000840BE3959A9572F7803830F49A95BB0F9C
:1030C000661F771F881FD2F7904857C1092E0394B7
:1030D000000C11F4882352F0BB0F40F4BF2B11F405
:1030E00060FF04C06F5F7F4F8F4F9F4F0895EF9336
:1030F000E0FF06C0A2EA2AED3FE049EC5FEBF4DD19
:10310000E5DF0F90039401FC9058E1EBF0E048C13B
:1031100057FD9058440F551F59F05F3F71F0479588
:10312000880F97FB991F61F09F3F79F0879508956D
:10313000121613061406551FF2CF4695F1DF08C08C
:10314000161617061806991FF1CF869571056105A9
:1031500008940895E894BB2766277727CB0197F951
:1031600008959B01AC0160E070E080E89FE374CEBD
:103170000BD0ACCF75DF28F07ADF18F0952309F07B
:1031800041CF46CF1124E7CFC3DFA0F3959FD1F302
:10319000950F50E0551F629FF001729FBB27F00D05
:1031A000B11D639FAA27F00DB11DAA1F649F66275A
:1031B000B00DA11D661F829F2227B00DA11D621FA9
:1031C000739FB00DA11D621F839FA00D611D221F63
:1031D000749F3327A00D611D231F849F600D211D47
:1031E000822F762F6A2F11249F5750408AF0E1F0EA
:1031F00088234AF0EE0FFF1FBB1F661F771F881F33
:1032000091505040A9F79E3F510570F0FBCEA3CFDF
:103210005F3FECF3983EDCF3869577956795B7951D
:10322000F795E7959F5FC1F7FE2B880F911D969547
:10323000879597F9089574DFE0F09E37D8F09639B6
:10324000B8F49E3848F4672F782F8827985FF9CF15
:1032500086957795679593959539D0F3B62FB1708C
:103260006B0F711D811D20F4879577956795939558
:1032700067C081C070CF11F40EF4CACE7CC050DF9D
:10328000D0F39923D9F3CEF39F57550B87FF81D005
:103290000024A0E640EA900180585695979528F4BE
:1032A000805C660F771F881F20F0261737074807B6
:1032B00030F4621B730B840B202931294A2BA6950D
:1032C00017940794202531254A2758F7660F771F52
:1032D000881F20F026173707480730F4620B730B5E
:1032E000840B200D311D411DA09581F7B901842F5C
:1032F0009158880F9695879508959B01AC0138CF1A
:10330000DF93D92FBCDEE695D7952AED3FE049E45F
:103310005FE3B33A6207730784079507D7952AF0EE
:10332000A2EA49EC9068E0DCD1DEEFECF0E038D0C6
:10333000DD0F0BF016DFDD0F0BF49058DF910895D1
:10334000882371F4772321F09850872B762F07C0BC
:10335000662311F499270DC09051862B70E060E030
:103360002AF09A95660F771F881FDAF7880F9695CF
:10337000879597F908959F3F31F0915020F48795F4
:1033800077956795B795880F911D9695879597F9CD
:10339000089591505040660F771F881FD2F7089507
:1033A0009F938F937F936F93FF93EF939B01AC0158
:1033B000DFDEEF91FF912FDE2F913F914F915F91D3
:1033C000D7CE97FB092E07260AD077FD04D00CD064
:1033D00006D000201AF4709561957F4F0895F6F796
:1033E000909581959F4F0895AA1BBB1B51E107C083
:1033F000AA1FBB1FA617B70710F0A61BB70B881F85
:10340000991F5A95A9F780959095BC01CD01089513
:10341000FC010590615070400110D8F7809590959F
:103420008E0F9F1F0895FC016150704001900110A4
:10343000D8F7809590958E0F9F1F0895DC01CB01E2
:10344000FC01E199FECF06C0FFBBEEBBE09A3196CE
:103450000DB20D9241505040B8F70895E199FECF5A
:103460009FBB8EBBE09A99278DB30895DC01CB01F9
:1034700003C02D910E94411A41505040D0F7089549
:10348000262FE199FECF9FBB8EBB2DBB0FB6F894C4
:0E349000E29AE19A0FBE01960895F894FFCFDC
:10349E00EE1FFC000D0716090B0115011503020D99
:1034AE00050D020E100E180D02090E03020100008A
:1034BE000000160515021504020202030204110D86
:1034CE0008070B0400000000000000000C010000C3
:1034DE000000C2C0C0C1C0C0C1C0C0C4C0C0C1C055
:1034EE00C0C1C0C0C3C0C0C1C0C0C1C0C0C5C0C0C3
:1034FE00C1C0C0C1C0C0020002000500020005002C
:08350E000200010203060A0B92
:00000001FF
