:100000000C94B4010C94D1010C94D1010C94D10145
:100010000C94D1010C94D1010C94D1010C94D10118
:100020000C94D1010C940E030C94D1010C949C03FC
:100030000C94C6030C94D1010C94D1010C94D10101
:100040000C94D1010C94D1010C94D1010C94D101E8
:100050000C94D1016F0E720E860E940E7D10A40EBC
:10006000B40EC20EED0E2A0F3E0F7D0F4E0F7D1007
:100070007D107D107D107D10850F930FB30FCC0F79
:100080006C0E084AD73B3BCE016E84BCBFFDC12F2E
:100090003D6C74319ABD56833DDA3D00C77F11BE79
:1000A000D9E4BB4C3E916BAAAABE000000803F057C
:1000B000A84CCDB2D44EB93836A9020C50B99186AD
:1000C00088083CA6AAAA2ABE000000803F0664EC6D
:1000D0001B3C04BC163E3BE5B93CC93C37C29E5AAA
:1000E0003D660498083EEA69AAAA3E000000803FE7
:1000F00052657175657374696E67204461746153EC
:10010000747265616D732E2E2E005265626F6F746E
:10011000696E672E2E2E00557064617465204368E9
:100120006172536574004F534420496E697469616C
:100130006C697A6564202020004D697373696E676D
:100140002F4F6C6420436F6E66696700426F6F7457
:10015000696E672075703AEDF2F2F2F2F2F2F2F2A5
:10016000F2F30057616974696E6720666F727C4DA7
:1001700041564C696E6B206865617274626561748A
:10018000732E2E2E008725332E30692500862533C9
:100190002E306688008525352E30668D001F25356A
:1001A0002E30668D00EAEB00EAEC0025342E306636
:1001B000B00020C0C0C0C0C0C7C0C0C0C0C0207C8C
:1001C000D02573D100832531312E36667C842531CC
:1001D000312E3666001120001020000F25326900F4
:1001E00020E225352E32668E00253469B0B2002516
:1001F0003469B0B100050304057C151314150073B0
:10020000746162006163726F00616C746800617593
:10021000746F006C6F6974007265746C0067756947
:1002200064006369726300706F7369006C616E646F
:10023000006F666C6F0066627761006662776200CD
:100240006D616E750020202020BABBBCBDBE7C2035
:10025000202020CACBCCCDCE7C4172647543616D29
:10026000204F5344006E616E00696E660000407A54
:1002700010F35A00A0724E18090010A5D4E800002F
:10028000E87648170000E40B54020000CA9A3B00CD
:100290000000E1F505000080969800000040420F44
:1002A000000000A08601000000102700000000E808
:1002B00003000000006400000000000A00000000CD
:1002C000000100000000002C76D888DC674F08236E
:1002D000DFC1DFAE59E1B1B796E5E3E453C63AE6D4
:1002E00051997696E8E6C28426EB898C9B62ED40B4
:1002F0007C6FFCEFBC9C9F40F2BAA56FA5F4900503
:100300005A2AF75C936B6CF9676DC11BFCE0E40D36
:1003100047FEF520E6B500D0ED902E03009435772A
:10032000050080841E080000204E0A000000C80C52
:10033000333333330F986E12831141EF8D211489BB
:100340003BE65516CFFEE6DB18D1844B381BF77C15
:100350001D901DA4BBE424203284725E228100C95A
:10036000F124ECA1E53D270011241FBECFE5D4E028
:10037000DEBFCDBF10E0A0E6B0E0EAE3F3E302C0E9
:1003800005900D92A03DB107D9F712E0A0EDB0E0C5
:1003900001C01D92A433B107E1F70E949C040C94A4
:1003A0009B190C940000283008F027E03327DA016D
:1003B000990F311D87FD916000966105710539F433
:1003C00032602E5F3D9330E32A95E1F708959F3F19
:1003D00030F080387105610509F03C5F3C5F3D936A
:1003E000913008F08068911DDF93CF931F930F9396
:1003F000FF92EF92192F987F9695E92F96959695F3
:10040000E90FFF27E953FD4F99273327EE24FF24F7
:10041000A701E70105900894079428F4360FE71E1A
:10042000F81E491F511D660F771F881F991F0694DC
:10043000A1F70590079428F4E70EF81E491F561FF0
:10044000C11D770F881F991F661F0694A1F705909D
:10045000079428F4F80E491F561FC71FD11D880F97
:10046000991F661F771F0694A1F70590079420F443
:10047000490F561FC71FD81F990F661F771F881F68
:100480000694A9F784911095177041F0D695C795F9
:1004900057954795F794E7941A95C1F7EDE6F2E082
:1004A00068941590159135916591959105907FE22D
:1004B0007395E118F10A430B560BC90BD009C0F72D
:1004C000E10CF11E431F561FC91FD01D7EF470336F
:1004D00011F48A95E6CFE894015030F0080F0AF441
:1004E0000027021708F4202F2395022F7A3328F0D3
:1004F00079E37D932A95E9F710C07D932A9589F6D3
:10050000069497956795379517951794E118F10A12
:10051000430B560BC90BD00998F023957E91739528
:100520007A3308F070E37C932013B8F77E91706102
:100530007D9330F0839571E37D9370E32A95E1F725
:100540001124EF90FF900F911F91CF91DF91992788
:1005500087FD90950895FA01AA27283051F120319E
:1005600081F1E8946F936E7F6E5F7F4F8F4F9F4F47
:10057000AF4FB1E03ED0B4E03CD0670F781F891F89
:100580009A1FA11D680F791F8A1F911DA11D6A0F57
:10059000711D811D911DA11D20D009F468943F910A
:1005A0002AE0269F11243019305D3193DEF6CF0109
:1005B0000895462F4770405D4193B3E00FD0C9F7CF
:1005C000F6CF462F4F70405D4A3318F0495D31FD3C
:1005D0004052419302D0A9F7EACFB4E0A69597958F
:1005E000879577956795BA95C9F700976105710565
:1005F00008959B01AC010A2E0694579547953795AF
:100600002795BA95C9F7620F731F841F951FA01D08
:1006100008958FB9779BFECF8FB108951F920F92E7
:100620000FB60F9211242F933F938F939F93AF9305
:10063000BF938091D4009091D500A091D600B09145
:10064000D7003091D8000196A11DB11D232F2D5F39
:100650002D3720F02D570196A11DB11D2093D800F4
:100660008093D4009093D500A093D600B093D70088
:100670008091D0009091D100A091D200B091D30090
:100680000196A11DB11D8093D0009093D100A0933D
:10069000D200B093D300BF91AF919F918F913F91C2
:1006A0002F910F900FBE0F901F9018958FB7F89451
:1006B0002091D4003091D5004091D6005091D700C0
:1006C0008FBFB901CA010895EF92FF920F931F9354
:1006D0007B018C018FB7F8944091D4005091D500E4
:1006E0006091D6007091D7008FBF2FB7F89480919A
:1006F000D4009091D500A091D600B091D7002FBF23
:10070000841B950BA60BB70BE816F9060A071B0707
:1007100060F71F910F91FF90EF900895019759F0A6
:10072000FC01EE0FFF1FEE0FFF1F32978FB7F894FB
:100730003197F1F78FBF08951F920F920FB60F9266
:1007400011242F938F939F93EF93FF939BB12CB121
:10075000E0913B01EF5FEF7380913C01E81711F4EA
:1007600082E008C0892F8871E0933B01F0E0E750F8
:10077000FF4F208380933D01FF91EF919F918F91D7
:100780002F910F900FBE0F901F9018951F920F92F0
:100790000FB60F9211248F939F93EF93FF93909135
:1007A000390180913A01981761F0E0913A01EF5FC9
:1007B000EF71E0933A01F0E0E752FF4F80818CB98E
:1007C00001C05598FF91EF919F918F910F900FBEAF
:1007D0000F901F9018959C011092390110923A01C8
:1007E00010923B0110923C0197FF03C082E08BB94D
:1007F0003F7730BD29B988E98AB986E880BD089578
:1008000090913B0180913C01981719F420E031E070
:1008100012C0E0913C01EF5FEF73E0933C01F0E028
:10082000E750FF4F308120913D01922F80E0AC01D5
:10083000430F511D9A01C901089590913B01809188
:100840003C019817D1F3E0913C01EF5FEF73E09327
:100850003C01F0E0E750FF4F80810895282F9091F0
:1008600039019F5F9F7180913A019817E1F3E92F59
:10087000F0E0E752FF4F208390933901559A089595
:1008800080913B0190913C01891B8F730895809169
:100890003C0180933B010895EF92FF920F931F93C9
:1008A000A8950E943A090E9456037B018C01809111
:1008B0003E0190913F01A0914001B0914101A801FA
:1008C0009701281B390B4A0B5B0B29373105410572
:1008D000510550F00E94BD10E0923E01F0923F01A0
:1008E00000934001109341011F910F91FF90EF90F1
:1008F0000895F89482E081BB83E083BF89B781606B
:1009000089BF81E290E80E94EB0380EB87BB81E521
:100910008DB978940E94C00B64EF71E080E090E0A4
:100920000E9464032DE088E190E00FB6F894A8954A
:1009300081BD0FBE21BD08950E9479040E944C0420
:10094000FDCFFB0190819827292F2295207F292711
:1009500030E0522F4427C90163E0880F991F6A9540
:10096000E1F748275927818190E04827592784E0FB
:10097000359527958A95E1F7422753275183408380
:100980000895AF92BF92DF92EF92FF920F931F9361
:10099000CF93DF93D62E5901E82EFF249701220F23
:1009A000331FF901EE0DFF1DEF01CC0FDD1FCC0F42
:1009B000DD1FCA52DE4F18828B819C8184309105E5
:1009C00009F465C08530910554F482309105B9F180
:1009D000833091050CF07CC09923C4F448C1873062
:1009E000910509F4B3C08830910544F48530910530
:1009F00009F481C0069709F03AC190C0883091058A
:100A000009F4D2C0099709F032C1F7C085E568172B
:100A100009F02DC182E090E09C838B8380E990E017
:100A2000E89EF001E99EF00DF89EF00D1124EA5BBE
:100A3000FE4F13828FEF9FEF9183808318C167FF72
:100A400010C089818F5F8983EE0FFF1FEE0FFF1F9C
:100A5000E852FE4F80818F5F8083188281E090E0B2
:100A600013C080E990E0E89EF001E99EF00DF89E49
:100A7000F00D1124EA5BFE4F63831D82862FBF01B8
:100A80000E94A10484E090E09C838B83F0C084E208
:100A900090E0E89EF001E99EF00DF89EF00D112423
:100AA000EE0FFF1FEE0FFF1FE65BFE4F608380E936
:100AB00090E0E89EB001E99E700DF89E700D112443
:100AC0006A5B7E4F8D2D0E94A10483E090E0DCCF15
:100AD00080E990E0E89EF001E99EF00DF89EF00DAF
:100AE0001124EA5BFE4F6583862FBF010E94A1049B
:100AF00085E090E0C9CF80E990E0E89EF001E99EB2
:100B0000F00DF89EF00D1124EA5BFE4F6683862FF0
:100B1000BF010E94A10486E090E0B6CF80E990E09A
:100B2000E89E8001E99E100DF89E100D11240A5BCD
:100B30001E4FF8016783862FB8010E94A104F801B7
:100B40008381882371F187E090E09ECF8D81F90148
:100B5000B3E0EE0FFF1FBA95E1F7E20FF31F3196F6
:100B6000A3E0EE0FFF1FAA95E1F7E80FF11DEA5B86
:100B7000FE4F60838F5F8D8380E990E0E89E800167
:100B8000E99E100DF89E100D11240A5B1E4F862F52
:100B9000B8010E94A1049D81F8018381981709F092
:100BA00066C088E090E070CF262F30E080E990E0CA
:100BB000E89ED001E99EB00DF89EB00D1124AA5B0D
:100BC000BE4F8D919C91119790702817390791F025
:100BD000EE0FFF1FEE0FFF1FE852FE4F80818F5F69
:100BE0008083188281E090E09C838B83F5E56F170A
:100BF000F1F528C089E090E047CF262F30E080E96A
:100C000090E0E89ED001E99EB00DF89EB00D112451
:100C1000AA5BBE4F11968C91119790E02817390767
:100C2000E9F0EE0FFF1FEE0FFF1FE852FE4F80812D
:100C30008F5F8083188281E090E09C838B8385E5C1
:100C4000D816A9F482E090E09C838B8313961C92C3
:100C500013978FEF9FEF8D939C9309C081E088835A
:100C600081E090E09C838B83EA01B983A883D7015C
:100C7000AA0FBB1FAE0DBF1DAA0FBB1FAA0FBB1F24
:100C8000AA52BE4F8C91813069F584E290E0E89ED3
:100C9000F001E99EF00DF89EF00D1124EE0FFF1FFC
:100CA000EE0FFF1FE65BFE4F808116968C93169722
:100CB00018968D919C911997892B21F41B961C9263
:100CC0001E921A97F701EE0FFF1FEE0DFF1DEE0F9C
:100CD000FF1FEE0FFF1FEA52FE4F808591850196A0
:100CE00091878087F701EE0FFF1FEE0DFF1DEE0FBE
:100CF000FF1FEE0FFF1FDF01AA52BE4FE501B983B0
:100D0000A883E852FE4F10828C91DF91CF911F9102
:100D10000F91FF90EF90DF90BF90AF900895DF9319
:100D2000CF9300D000D0CDB7DEB7FC013896E60FE8
:100D3000F11D2381328141815081B901CA010F9097
:100D40000F900F900F90CF91DF9108956F927F9247
:100D50008F929F92AF92BF92DF92EF92FF920F938A
:100D60001F93DF93CF9300D000D000D0CDB7DEB774
:100D700043E0842E912C8C0E9D1E3E010894611C34
:100D8000711CDD24D39435E0E32EF12CEC0EFD1E16
:100D900024E6A22EB12C65C10E940004682F809128
:100DA0003202882341F56A3031F16D3031F480919F
:100DB00033028F5F809333021EC0809133028330F1
:100DC000C0F0623599F0633518F4663491F405C0CB
:100DD000633531F0633769F406C00E94570B41C197
:100DE0000E94000B3EC10E94E10A3BC10E94C40A5E
:100DF00038C11092330280E0A30194010E94C10423
:100E0000882309F42AC1D092320209811A81D801BB
:100E100017968C918E3109F4F4C08F3130F4882309
:100E200069F08B3109F019C185C0823239F18A34F9
:100E300009F486C0803209F010C15DC0D09228024A
:100E4000F801858180932F0286818093300280850E
:100E500080932E020E9456039B01AC01209329022D
:100E600030932A0240932B0250932C0280912D0242
:100E7000882309F4F2C0D0923102EFC0D8011E9647
:100E80008C911E97F70180831D968C9181836D81D3
:100E90007E8180E090E00E94131720E030E04AE776
:100EA00054E40E947A166093F2017093F3018093E8
:100EB000F4019093F501D80118968C9190E09093ED
:100EC000F9018093F801085F1F4FF80181810850F4
:100ED00010408093FA01D80150968C915097F701F9
:100EE00080831F968C9181838D819E819093F701E1
:100EF0008093F601B2C0C80169E00E948F0660933A
:100F0000FB017093FC018093FD019093FE018981A8
:100F10009A816DE00E948F066093FF01709300023A
:100F20008093010290930202E981FA818089809383
:100F3000040293C0D80118968C91809303028DC04F
:100F4000C80164E00E948F0660932202709323021E
:100F5000809324029093250209811A81F801389622
:100F60008185D7018C93808511968C936D817E81CC
:100F7000882777FD8095982F0E94151760931A0295
:100F800070931B0280931C0290931D02F8018389C9
:100F9000D7018C93828911968C938D819E81909339
:100FA000270280932602809126029091270285369F
:100FB000910558F08091260290912702863991057B
:100FC00020F4B0922702A0922602809126029091EE
:100FD000270280912602909127028739910520F0FF
:100FE0001092270210922602C8016CE00E948F0620
:100FF00060931E0270931F0280932002909321023F
:101000002CC0C8016CE00E948F0621EE3EE245E64E
:1010100052E40E9406180E94E2166093170289812A
:101020009A8168E00E948F0621EE3EE245E652E496
:101030000E9406180E94E2166093180289819A8124
:1010400060E10E948F0621EE3EE245E652E40E94F6
:1010500006180E94E216609319028AE890E00E9446
:101060008E030E944004882309F096CEEB81FC8118
:10107000809142019091430122853385820F931F15
:101080009093430180934201228180914401909189
:101090004501820F911D909345018093440126964E
:1010A0000FB6F894DEBF0FBECDBFCF91DF911F9179
:1010B0000F91FF90EF90DF90BF90AF909F908F9037
:1010C0007F906F900895892B19F4862F0E942E042B
:1010D00008952F923F924F925F926F927F928F92DC
:1010E0009F92AF92BF92CF92DF92EF92FF920F93B7
:1010F0001F93DF93CF93CDB7DEB764970FB6F89405
:10110000DEBF0FBECDBFA6EAEA2EA0E0FA2EFAE9B6
:10111000CF2EF0E0DF2E1E010894211C311CE5E1EA
:101120004E2E512C4C0E5D1E79E0672E712C6C0EEC
:101130007D1E6FE0A62EB12CAC0EBD1E55E0852E97
:10114000912C8C0E9D1E20912F0230913002F701C0
:101150004081F601808191819A83898329873A872A
:101160004B87F10181818C8780818D87F1E0FE873B
:1011700085E58F8796E0988B9091DD01998B809122
:1011800060008A8B809161008B8BE2E4EC8B9F5F27
:101190009093DD018FEF9FEF98878F838E01005F23
:1011A0001F4F08C0F80181918F01BE01695F7F4F19
:1011B0000E94A10404151505A9F78F8198859C83C9
:1011C0008B83830108C0F80181918F01BE016D5F9F
:1011D0007F4F0E94A1040A151B05A9F78B819C81F2
:1011E0008D839E83850180E090E0F80161918F01FD
:1011F0000E94630804151505B1F7830180E090E0B3
:10120000F80161918F010E9463080A151B05B1F76F
:1012100080E090E0F40160810E94630880E090E04B
:10122000F40161810E9463080894E11CF11C82E0D2
:1012300090E0C80ED91E9CEAE91690E0F90609F084
:1012400082CF64960FB6F894DEBF0FBECDBFCF91AC
:10125000DF911F910F91FF90EF90DF90CF90BF90A3
:10126000AF909F908F907F906F905F904F903F9046
:101270002F9008951F9380913102882309F443C071
:101280000E94790A83E06AE00E94A7090E94380A56
:1012900080EF90E00E946B0A0E942B0A0E9469086E
:1012A00062E370E080E090E00E9464030E946908BD
:1012B00062E370E080E090E00E9464030E946908AD
:1012C00062E370E080E090E00E94640310923102DB
:1012D00010E068EC70E080E090E00E946403A89564
:1012E0001F5F1A30B1F70E94790A10922D020E94F6
:1012F00056039B01AC012093290230932A024093AC
:101300002B0250932C020E94A6061F91089500976D
:1013100019F0019769F406C01092E50186E0809308
:10132000E401089580E48093E50188E08093E4017E
:1013300008958091E501882331F0803419F421E08B
:1013400030E003C0089520E030E0C90108958093A3
:10135000E3016093E2010895DF93CF93CDB7DEB749
:10136000FE0135966191719181E0AF010E942B12CF
:10137000CF91DF910895EF92FF921F93CF93DF9368
:10138000182F7B01C39880E00E94090380E00E942F
:10139000090389E00E940903812F0E940903C0E02C
:1013A000D0E0F701EC0FFD1F10818AE00E940903D5
:1013B0008C2F0E9409038BE00E940903812F0E9459
:1013C00009032196C633D10561F788E00E9409031D
:1013D00080EA0E94090380EA0E94090385FDFBCF91
:1013E00080E00E9409038CE00E940903C39ADF9108
:1013F000CF911F91FF90EF9008951F93182FC398DE
:1014000080E00E940903112319F0113049F403C050
:101410008091E50103C08091E5018C610E94090380
:10142000C39A1F9108950F931F939EE1699F8001B6
:101430001124080F111DC39885E00E940903812F14
:101440000E94090386E00E940903802F0E9409037D
:101450001F910F91089587E00E9409038FEF0E946A
:101460000903C39A8091E2018F5F8093E20108959E
:101470000F931F930091E2018EE1089F80011124D8
:101480008091E301080F111DC39884E00E940903B5
:1014900083E00E94090385E00E940903812F0E94D6
:1014A000090386E00E940903802F0E9409031F910F
:1014B0000F9108951F93182F8C3729F40E942B0A3F
:1014C0000E94380A06C087E00E940903812F0E940B
:1014D00009031F910895CF93DF93EC0102C00E948E
:1014E0005A0AFE01219684918823C9F7DF91CF9192
:1014F0000895C39884E00E94090384E00E940903D0
:10150000C39A0895C39880EA0E9409038FEF0E944E
:10151000090390E0969587958095909581709070DD
:101520000E948709C39A08951F93BB9A0E94820A5A
:10153000C3988CEE0E9409038FEF0E940903182FB5
:1015400080E00E9409038091E50182600E94090306
:1015500062E370E080E090E00E9464038CE60E9409
:101560000903812F8F7E0E94090310E1812F0E94C1
:10157000090380E00E9409031F5F1C31B9F781E075
:101580000E94FD091F9108951F930E94790A0E94ED
:101590003D0C86E069E00E94A7090E94380A8AE0B3
:1015A00091E00E946B0A0E942B0A10E064E670E052
:1015B00080E090E00E946403A8951F5F1A30B1F7A5
:1015C000FFCF0F931F93CF93DF9383E70E942E04E7
:1015D00084E30E942E04C6E6D0E000E005C0199125
:1015E000812F0E942E04010F80E0CA39D807B9F775
:1015F000802F0E942E04DF91CF911F910F910895AB
:10160000CF92DF92FF920F931F93DF93CF93CDB7CB
:10161000DEB7E4970FB6F894DEBF0FBECDBF83E50B
:101620000E942E040E941D04A895843379F5FF249E
:101630008E010F5F1F4F85E3C82ED12CCC0EDD1E0F
:101640000E941D04F80181938F01F80EA895EC15F6
:10165000FD05B1F70E941D04A8958F15B9F4A6E603
:10166000B0E0FE01319684E301900D928150E1F7E4
:10167000A89586E690E062E070E044E350E00E94C6
:101680008419A8950E94790A81E201C080E40E9431
:101690002E04E4960FB6F894DEBF0FBECDBFCF91F7
:1016A000DF911F910F91FF90DF90CF9008958F925F
:1016B0009F92AF92BF92DF92EF92FF920F931F9390
:1016C000DF93CF93CDB7DEB7C054D0400FB6F894B8
:1016D000DEBF0FBECDBF0E94790A86E069E00E949E
:1016E000A7090E94380A87E191E00E946B0A0E94D4
:1016F0002B0A86E40E942E04EE24FF245E01089447
:10170000A11CB11C97E3892E912C8C0E9D1EA895CF
:101710008501DD240E941D04F80181938F01D80EFC
:10172000E815F905B9F7A8950E941D048D1581F4F7
:10173000C701B5010E94BB0981E20E942E040894F2
:10174000E11CF11CF0E0EF16F1E0FF0601F703C029
:1017500080E40E942E040E94790AC05CDF4F0FB61D
:10176000F894DEBF0FBECDBFCF91DF911F910F91D7
:10177000FF90EF90DF90BF90AF909F908F90089573
:101780000F931F93CF93DF930E94940A0E943D0C06
:1017900080E090E00E947C198F3431F481E090E089
:1017A0000E947C198130B9F186E069E00E94A709A6
:1017B0000E94380A89E391E00E946B0A0E942B0A7A
:1017C00064EF71E080E090E00E94640380E090E0CC
:1017D0006FE40E948E1981E090E061E00E948E1912
:1017E00086E690E062E070E044E350E00E948419F5
:1017F00086E069E00E94A7090E94380A86E291E02B
:101800000E946B0A0E942B0A64EF71E080E090E076
:101810000E94640308C086E690E062E070E044E362
:1018200050E00E946C1900E010E0E801CC0FDD1FD1
:10183000CA59DF4F2D8130E08091E40190E02817F4
:1018400039073CF00E949909892B19F48D81835046
:101850008D830F5F1F4F0831110539F70E944A0C25
:1018600064EF71E080E090E00E9464030E94790AD6
:10187000DF91CF911F910F9108958AE065E00E945A
:10188000A7090E94380A85E492E00E946B0A0E9430
:101890002B0A0895EF92FF921F93CF93DF9385E079
:1018A0006CE00E94A7090E94380A8CE491E00E9433
:1018B0006B0A0E942B0A64EF71E080E090E00E94C6
:1018C00064030E944704C0E0D0E010E080EAE82E04
:1018D0008FE0F82ECE016AEF70E00E942F19892B5D
:1018E00069F4812F8F5E6CE00E94A7090E94380A7C
:1018F0008EEE0E945A0A0E942B0A1F5FC7010197B1
:10190000F1F7219687E0C13DD80721F7DF91CF910C
:101910001F91FF90EF9008951F93809116028230DF
:1019200010F410E904C010911602110F1257812F04
:101930000E945A0A812F8F5F0E945A0A1F910895B0
:101940002F923F924F925F926F927F928F929F92CF
:10195000AF92BF92CF92DF92EF92FF920F931F93BD
:10196000DF93CF9300D000D000D0CDB7DEB789830E
:101970006A832DB73EB73E832D838DB79EB74897B8
:101980000FB6F8949EBF0FBE8DBFEDB7FEB7319670
:10199000FC83EB8380911702992787FD909597FF31
:1019A00003C0909581959F4F8A359105B1F4609160
:1019B0001702772767FD70958AE590E00E942F193E
:1019C000882777FD8095982F0E94151721EE3AEF12
:1019D00043EB52E40E94061809C060911702772772
:1019E00067FD7095872F972F0E94151725E33AEF13
:1019F0004EE85CEB0E9406187B018C018091180276
:101A0000992787FD909597FF03C0909581959F4FEB
:101A10008A359105B1F460911802772767FD7095BA
:101A20008AE590E00E942F19882777FD8095982FEE
:101A30000E94151721EE3AEF43EB52E40E9406187C
:101A400009C060911802772767FD7095872F972F3F
:101A50000E94151725E33AEF4EE85CE30E94061852
:101A60005B016C01B701C8010E94CE1820E030E094
:101A700044E352E40E9406180E9469180E94E2168C
:101A80007B018C01B501C6010E94CE182B013C01DF
:101A90002B803C803EEBC32E3FEFD32E4701AA2480
:101AA00097FCA094BA2CB601882777FD8095982FD3
:101AB0000E9415179B01AC01C301B2010E940618D8
:101AC0007B018C01C501B4010E9415179B01AC017B
:101AD000C801B7010E94B11520E030E044E352E4B0
:101AE0000E94B11520E030E040E85FE30E94B015AD
:101AF0000E94E216F101619371931F012CE030E026
:101B0000C20ED31E3EE4C316D10469F6CC24DD24F4
:101B10002EEE822E2FEF922EBA80BA94EB81FC81AA
:101B2000EC0DFD1D0190F081E02D1E161F06B4F591
:101B3000EA35F1059CF5CF0101976EEE7FEF0E942B
:101B40002F198B010B5F1F4FEB55F040089DC00113
:101B5000099D900D189D900D11249F01281B390B94
:101B6000C90162E070E00E942F19882777FD8095F7
:101B7000982F0E9415170E9469180E94E2167B0197
:101B8000672B19F491E0E92EF12C6B2D600F898100
:101B90000E94130A8E2D8B5F0E945A0A82E090E009
:101BA000C80ED91E99819F5F9983E8E1CE16D104B2
:101BB00009F0B4CF2D813E810FB6F8943EBF0FBE21
:101BC0002DBF26960FB6F894DEBF0FBECDBFCF91C6
:101BD000DF911F910F91FF90EF90DF90CF90BF901A
:101BE000AF909F908F907F906F905F904F903F90BD
:101BF0002F9008952F923F924F925F926F927F9213
:101C00008F929F92AF92BF92CF92DF92FF920F93EB
:101C10001F93CF93DF930E945603209129023091A6
:101C20002A0240912B0250912C02621B730B840BF1
:101C3000950B605D77408040904008F06BC28091CA
:101C40002D02882311F00E94790ACC24DD24A2EB16
:101C5000AA2EA1E0BA2EF5EC8F2EF1E09F2EEBED2F
:101C60006E2EE1E07E2E70EE472E71E0572E69EE6B
:101C7000262E61E0362E1C2D809166009091670023
:101C8000A0916800B09169000C2C04C0B695A7958E
:101C9000979587950A94D2F780FF33C2F601EE0F2D
:101CA000FF1FE659FF4F8081F601EE0FFF1FEA5933
:101CB000FF4F65810E94A7090E94380AEC2DF0E0D1
:101CC000E731F10508F019C2E65DFF4FEE0FFF1F87
:101CD0000590F491E02D099418ECFF24EFC185EFF5
:101CE00091E0D9C02091170200D000D08FEE91E092
:101CF000ADB7BEB712969C938E931197332727FDED
:101D0000309514963C932E9313973FC180911802FF
:101D100000D000D0CDB7DEB73A822982992787FD5F
:101D200090959C838B8331C18091F2019091F30156
:101D3000A091F401B091F50100D000D000D0EDB732
:101D4000FEB75282418297C08091030200D000D03A
:101D5000EDB7FEB73196ADB7BEB712967C926E92D4
:101D600011978283138211C180910402823020F086
:101D7000843008F0C2C103C088ED91E08CC085EDCD
:101D800091E089C08091FB019091FC01A091FD013F
:101D9000B091FE012091FF013091000240910102BB
:101DA00050910202CDB7DEB72A970FB6F894DEBF86
:101DB0000FBECDBFEDB7FEB731969A82898282837E
:101DC0009383A483B58326833783408751870E94FA
:101DD000AC09EDB7FEB73A96C0C060911A02709197
:101DE0001B0280911C0290911D0220E030E040E136
:101DF00052E40E94061820E030E044EB53E40E94D5
:101E00007A160E9469180E94E2169B012550304004
:101E100037FF03C09B01215E3F4FA6EEB1E0F90101
:101E2000E455FF4F80818C932F5F3F4F2432310563
:101E300014F020E030E01196F1E0A13FBF0779F700
:101E400000D000D0CDB7DEB7BA82A9821B97BC8381
:101E5000AB839BC080911A0290911B02A0911C023F
:101E6000B0911D0200D000D000D02BEA31E0EDB7D8
:101E7000FEB732832183CDB7DEB766C080912802DA
:101E8000882339F088EA91E00E946B0A10922802B8
:101E900036C185EA91E00E946B0A31C1809105024A
:101EA000813009F02CC1609112027091130280916F
:101EB00014029091150200D000D000D00DB71EB7CB
:101EC0000F5F1F4FCDE9D1E0ADB7BEB71296DC93DF
:101ED000CE9311970E941517F80162837383848350
:101EE00095830E94AC092DB73EB72A5F3F4F0FB6CE
:101EF000F8943EBF0FBE2DBF02C180910502813014
:101F000009F0FDC00E948C0CFAC080911E029091D5
:101F10001F02A0912002B091210200D000D000D079
:101F2000E5E9F1E00DC08091220290912302A09199
:101F30002402B091250200D000D000D0EDE8F1E0FD
:101F4000CDB7DEB7FA83E9838B839C83AD83BE83F1
:101F50000E94AC09EDB7FEB736960FB6F894FEBFF7
:101F60000FBEEDBFCCC0809126029091270200D019
:101F700000D0C5E8D1E0ADB7BEB71296DC93CE93E2
:101F8000119714969C938E9313970E94AC090F900F
:101F90000F900F900F90B3C030912E022091FA0154
:101FA0008091F8019091F901323009F04AC08636EB
:101FB000910561F18736910598F48430910549F1D6
:101FC0008530910520F4039709F097C02BC0843623
:101FD000910509F4B7C08536910509F08EC013C08C
:101FE0008C36910529F18D36910528F48B369105B3
:101FF00009F083C05AC08D369105E9F08E369105FF
:1020000009F07BC01BC0C4E0D2E09EC0C9E0D2E0B2
:102010009BC0233009F43FC02530C1F1223009F0C4
:102020006CC03EC0233009F06AC0CDE1D2E08CC064
:10203000C7E2D2E089C0CCE2D2E086C0C1E3D2E000
:1020400083C0313009F059C08530910519F424302E
:1020500051F578C08630910559F4213019F4C6E362
:10206000D2E072C0223009F048C0CBE3D2E06CC0AD
:102070008230910531F4243009F03FC0C0E4D2E051
:1020800063C08430910579F4253019F4C8E1D2E0B9
:102090005BC0233019F4CEE0D2E056C0283069F599
:1020A000C3E1D2E051C0079741F5C2E2D2E04CC093
:1020B000E2E0FE1611F418ED01C018EC812F0E9429
:1020C0005A0A00E080E20E945A0A0F5F0C30D1F7F2
:1020D000812F8F5F0E945A0A8CE70E945A0AF3945C
:1020E000F5E0FF1629F70E942B0A80919600609177
:1020F00097008F5F0E94A00C04C0163111F00E945F
:102100002B0A0894C11CD11C28E1C216D10409F085
:10211000B2CD21C080912D028823E9F481E0809323
:102120002D020E94790A0E943D0C85E06AE00E941F
:10213000A7090E94380A83E691E00E946B0A0E9478
:102140002B0A09C0CFEFD1E080EE0E945A0ACE01DF
:102150000E946B0AD2CFDF91CF911F910F91FF9018
:10216000DF90CF90BF90AF909F908F907F906F90B7
:102170005F904F903F902F9008952F923F924F92F3
:102180005F926F927F928F929F92AF92BF92CF9207
:10219000DF92EF92FF920F931F93809105028823A5
:1021A00009F054C180910402823008F44FC180913B
:1021B000FB019091FC01A091FD01B091FE01809383
:1021C000060290930702A0930802B093090280913F
:1021D000FF0190910002A0910102B0910202809350
:1021E0000A0290930B02A0930C02B0930D0280910F
:1021F0001E0290911F02A0912002B09121028093B3
:102200000E0290930F02A0931002B093110281E08E
:102210008093050208C160910602709107028091C7
:102220000802909109029F7725E33AEF4EE85CE3BC
:102230000E9406180E9477161B012C01609106026D
:102240007091070280910802909109022091FB0190
:102250003091FC014091FD015091FE010E94B015AA
:102260009F7720EC3BE649ED57E40E9406185B019E
:102270006C0160910A0270910B0280910C029091A6
:102280000D022091FF013091000240910102509116
:1022900002020E94B0159F7720EC3BE649ED57E41F
:1022A0000E940618A20191010E9406187B018C0170
:1022B000C601B501A60195010E9406185B016C01DB
:1022C000C801B701A80197010E9406189B01AC0143
:1022D000C601B5010E94B1150E948D180E94E21638
:1022E000609312027093130280931402909315026C
:1022F000A0900A02B0900B02C0900C02D0900D0288
:102300006090FF01709000028090010290900202A4
:102310006091060270910702809108029091090273
:102320002091FB013091FC014091FD015091FE0193
:102330000E94B0157B018C0160E070E080E89FE3B3
:10234000A20191010E947A169B01AC01C801B7015C
:102350000E9406187B018C01C601B501A4019301FE
:102360000E94B0159B01AC015058C801B7010E94F2
:10237000241620EE3EE245E652E40E94061820E0D4
:1023800030E044EB52E40E94B1150E94E2169B013A
:10239000AC0197FF04C028593E4F4F4F5F4FCA0111
:1023A000B901645B70408040904097FF06C0CA014D
:1023B000B9016C547F4F8F4F9F4FE0901A02F090FD
:1023C0001B0200911C0210911D020E941517A8010A
:1023D00097010E94B0150E94E21697FF04C0685949
:1023E0007E4F8F4F9F4F0E94151720E030E044EB47
:1023F00053E40E947A1620E030E040E851E40E9465
:1024000006180E94691820E030E040E85FE30E946F
:10241000B1150E94E7166093160280911602813171
:1024200010F0109216020E94FA0D1F910F91FF906A
:10243000EF90DF90CF90BF90AF909F908F907F9064
:102440006F905F904F903F902F900895809105027C
:10245000813049F7E0CE2F923F924F925F926F9278
:102460007F928F929F92AF92BF92CF92DF92EF9224
:10247000FF920F931F93DF93CF93CDB7DEB7609793
:102480000FB6F894DEBF0FBECDBF8C877E876D87F9
:102490005A019E012F5F3F4F388B2F87ED85FE85B8
:1024A0002C8520FD859120FF8191FE87ED87882373
:1024B00009F43DC3853249F420FD859120FF8191C7
:1024C000FE87ED87853251F406C08A3021F48DE015
:1024D0000E945A0A8AE00E945A0AE0CF982FFF24ED
:1024E000882499243FE13F15D0F09B3269F09C325B
:1024F00028F4903259F0933291F40EC09D3249F095
:10250000903369F441E026C052E0F52A84E0F82ACD
:102510002AC098E0F92A27C0E0E1FE2A24C0F7FC8F
:102520002EC0892F80538A3080F4F6FE06C0FAE070
:102530009F9E902C1124980E16C02AE0829E802C1B
:102540001124880E30E2F32A0EC09E3229F4F6FCE4
:10255000EEC240E4F42A07C09C3619F450E8F52A8C
:1025600002C0983661F4ED85FE852C8520FD95919D
:1025700020FF9191FE87ED87992309F0B3CF892F32
:102580008554833020F48F2D8061905E07C0892FA1
:102590008556833008F087C18F2D8F7E86FD02C05F
:1025A00076E0972E182F1F73953611F4106406C02D
:1025B000963611F4106802C091109A9417FF0BC060
:1025C0003BE3391520F427E06CE3762E0EC0792C1E
:1025D000739427E00AC047E0491528F427E07724E0
:1025E00057E0952E02C0292D772444E0242E312C6B
:1025F0002A0C3B1CF5016081718182819381AE01BF
:102600004F5F5F4F072D0E94D3016C01B9804B2CA7
:102610005524B0FE04C0B3FC02C00DE209C011FF96
:1026200002C00BE205C012FD02C000E001C000E2E2
:10263000C2018C709070892BA9F1002311F483E002
:1026400001C084E0881510F0882408C0881A13FDA2
:1026500005C080E20E945A0A8A94D9F7002319F033
:10266000802F0E945A0A43FE05C035E6E32E32E071
:10267000F32E0FC029E6E22E22E0F22E0AC0011549
:10268000110509F080520E945A0A0894E11CF11CBD
:1026900004C0012F10E000711070F70184918823AD
:1026A00071F7FFC017FF12C07C0C44FE04C08A8182
:1026B000813309F47A9417141CF0772473942CC096
:1026C000F8E0F71548F598E0792E26C016FD24C0ED
:1026D000892D90E08C159D0544F02CEFC2162FEF4C
:1026E000D2061CF0106801C09A94992049F0E2E0EB
:1026F000F0E0EC0FFD1FE90DF11D80818033A1F3A7
:1027000017FF0AC0792C7394892D90E0C816D9065A
:1027100014F0992401C09C1817FD03C025E030E097
:1027200009C01C141D041CF021E030E003C0960118
:102730002F5F3F4F002311F02F5F3F4F992029F06B
:10274000892D90E00196280F391F882D90E02817D9
:10275000390714F0882401C0821AE12EFF24C70132
:1027600089709070892B29F006C080E20E945A0A75
:102770008A948820D1F7002319F0802F0E945A0AEA
:10278000E3FE05C006C080E30E945A0A8A948820AE
:10279000D1F717FF45C08601D7FE02C000E010E068
:1027A00076010894E11CF11CE01AF10A41E050E0C6
:1027B0004C0F5D1FE40EF51EC601871991093C01FF
:1027C000892D90E0AA24BB24A81AB90A9FEF0F3FD5
:1027D000190719F48EE20E945A0AC016D10634F085
:1027E000601671061CF4F701808101C080E301507E
:1027F00010400894E11CF11C0A151B051CF00E94F6
:102800005A0AE4CF0C151D0509F049C09A81963388
:1028100028F4953309F043C044FC41C081E33FC034
:102820008A81813311F0FFEEBF220E945A0A99205B
:1028300081F08EE20E945A0A12E0E1E0F0E0EC0F33
:10284000FD1FE10FF11D1F5F80810E945A0A9A94BB
:10285000A1F7E4FC02C085E601C085E40E945A0AA3
:10286000D7FC05C0C114D10441F4B4FE06C0D09415
:10287000C194D108D3948DE201C08BE20E945A0A20
:1028800080E305C08F5F26EF3FEFC20ED31E3AE014
:10289000C316D104BCF70E945A0A8C2D805D0E9499
:1028A0005A0A510141C1933631F0933791F0933573
:1028B00009F055C023C0F501808189836E01089419
:1028C000C11CD11C22E030E0A20EB31E01E010E0DA
:1028D00012C0F501C080D180F6FC03C06FEF7FEF1E
:1028E00002C0692D70E022E030E0A20EB31EC601E6
:1028F0000E9461198C013FE7F32214C0F501C080EA
:10290000D180F6FC03C06FEF7FEF02C0692D70E04D
:1029100022E030E0A20EB31EC6010E9456198C01BF
:1029200030E8F32AF3FE05C016C080E20E945A0A7E
:102930008A94882D90E008171907B8F30CC0F601A7
:10294000F7FC8591F7FE81916F010E945A0A811070
:102950008A94015010400115110589F7E5C094369D
:1029600011F0993681F5F7FE08C0F501208131811B
:102970004281538184E090E00AC0F5018081918119
:102980009C01442737FD4095542F82E090E0A80E2B
:10299000B91E9FE6F92257FF09C050954095309522
:1029A00021953F4F4F4F5F4FE0E8FE2ACA01B90122
:1029B000AE014F5F5F4F2AE030E00E94AB02E82E8D
:1029C000FF85EF1A43C0953729F41F2D1F7E2AE09B
:1029D00030E01DC01F2D197F9F3661F0903720F425
:1029E000983509F0A4C00FC0903739F0983709F036
:1029F0009EC004C028E030E00AC0106114FD1460DD
:102A000020E130E004C014FD166020E132E017FF41
:102A100008C0F501608171818281938144E050E0BA
:102A200008C0F50180819181BC0180E090E042E026
:102A300050E0A40EB51EAE014F5F5F4F0E94AB0287
:102A4000E82E5F85E51A8FE7F82EF122F6FE0BC01F
:102A50008EEFF822E91438F4F4FE07C0F2FC05C04A
:102A60009FEEF92202C01E2D01C0192DF4FE0DC0EB
:102A7000FE01EE0DF11D8081803319F4E9EEFE2296
:102A800008C01F5FF2FE05C003C08F2D867809F0D5
:102A90001F5F0F2DF3FC12C0F0FE0DC0181510F0D3
:102AA0009E2C09C09E2C980C911A182D04C080E20F
:102AB0000E945A0A1F5F1815D0F304C0181510F4AD
:102AC000811A01C0882404FF0BC080E30E945A0AC7
:102AD00002FF17C001FD02C088E70CC088E50AC0EC
:102AE000802F867871F001FF02C08BE201C080E286
:102AF000F7FC8DE20E945A0A04C080E30E945A0A41
:102B00009A94E914D0F3EA94E1E0F0E0EC0FFD1FB1
:102B1000EE0DF11D80810E945A0AEE20A1F704C03B
:102B200080E20E945A0A8A948820D1F7B7CC609636
:102B30000FB6F894DEBF0FBECDBFCF91DF911F91CE
:102B40000F91FF90EF90DF90CF90BF90AF909F904C
:102B50008F907F906F905F904F903F902F9008954F
:102B60005058BB27AA270ED0FFC1C8D130F0CDD115
:102B700020F031F49F3F11F41EF498C10EF4E0955B
:102B8000E7FB8EC1E92F12D280F3BA1762077307F1
:102B90008407950718F071F49EF52AC20EF4E095AB
:102BA0000B2EBA2FA02D0B01B90190010C01CA0107
:102BB000A0011124FF27591B99F0593F50F4503EB2
:102BC00068F11A16F040A22F232F342F4427585FA4
:102BD000F3CF469537952795A795F0405395C9F7BC
:102BE0007EF41F16BA0B620B730B840BBAF0915074
:102BF000A1F0FF0FBB1F661F771F881FC2F70EC013
:102C0000BA0F621F731F841F48F4879577956795E5
:102C1000B795F7959E3F08F0B3CF9395880F08F0CE
:102C20009927EE0F97958795089568D158F080E819
:102C300091E009F49EEF69D128F040E851E059F4A1
:102C40005EEF09C033C1D4C1E92FE078AFD168F39A
:102C5000092E052AC1F3261737074807590738F008
:102C60000E2E07F8E02569F0E025E0640AC0EF6366
:102C700007F8009407FADB01B9019D01DC01CA01E4
:102C8000AD01EF9346D070D10AD05F91552331F05A
:102C90002BED3FE049E450FD49EC63CF0895DF930D
:102CA000DD27B92FBF7740E85FE316161706480700
:102CB0005B0710F4D92FA3D19F938F937F936F93CA
:102CC0006AD2E2E8F0E0F5D04FD12F913F914F91D9
:102CD0005F91A8D1DD2349F09058A2EA2AED3FE0A8
:102CE00049EC5FE3D0785D274DDFDF913DC115D121
:102CF000E3954BC10CD038C108D140F0FFD030F083
:102D000021F45F3F19F0CCC0511173C1CFC04ED137
:102D100098F39923C9F35523B1F3951B550BBB27A2
:102D2000AA2762177307840738F09F5F5F4F220F4F
:102D3000331F441FAA1FA9F333D00E2E3AF0E0E848
:102D400030D091505040E695001CCAF729D0FE2F94
:102D500027D0660F771F881FBB1F26173707480726
:102D6000AB07B0E809F0BB0B802DBF01FF279358DC
:102D70005F4F2AF09E3F510568F092C03AC15F3F15
:102D8000ECF3983EDCF3869577956795B795F795C4
:102D90009F5FC9F7880F911D9695879597F90895BC
:102DA000E1E0660F771F881FBB1F62177307840758
:102DB000BA0720F0621B730B840BBA0BEE1F88F767
:102DC000E095089504D06894B11113C10895F6D028
:102DD00088F09F5790F0B92F9927B751A0F0D1F004
:102DE000660F771F881F991F1AF0BA95C9F712C08E
:102DF000B13081F0FDD0B1E00895FAC0672F782F8F
:102E00008827B85F39F0B93FCCF3869577956795F9
:102E1000B395D9F73EF490958095709561957F4F65
:102E20008F4F9F4F0895E89409C097FB3EF490950B
:102E30008095709561957F4F8F4F9F4F9923A9F093
:102E4000F92F96E9BB279395F69587957795679522
:102E5000B795F111F8CFFAF4BB0F11F460FF1BC066
:102E60006F5F7F4F8F4F9F4F16C0882311F096E9F9
:102E700011C0772321F09EE8872F762F05C06623A7
:102E800071F096E8862F70E060E02AF09A95660F60
:102E9000771F881FDAF7880F9695879597F9089519
:102EA00097F99F6780E870E060E008959FEF80ECFD
:102EB0000895DF93CF931F930F93FF92EF92DF92CA
:102EC0007B018C01689405C0DA2EEF01ABD0FE01C6
:102ED000E894A5912591359145915591AEF3EF0177
:102EE00051DEFE019701A801DA9479F7DF90EF90A7
:102EF000FF900F911F91CF91DF91089500240A94C4
:102F00001616170618060906089500240A941216C4
:102F10001306140605060895C9CF50D0E8F3E894C7
:102F2000E0E0BB279F57F0F02AED3FE049EC06C0F8
:102F3000EE0FBB0F661F771F881F28F0B23A62079B
:102F40007307840728F0B25A620B730B840BE39566
:102F50009A9572F7803830F49A95BB0F661F771FE9
:102F6000881FD2F7904857C1092E0394000C11F422
:102F7000882352F0BB0F40F4BF2B11F460FF04C054
:102F80006F5F7F4F8F4F9F4F0895EF93E0FF06C015
:102F9000A2EA2AED3FE049EC5FEBF4DDE5DF0F90BC
:102FA000039401FC9058EFEAF0E048C157FD9058B7
:102FB000440F551F59F05F3F71F04795880F97FBFD
:102FC000991F61F09F3F79F08795089512161306B7
:102FD0001406551FF2CF4695F1DF08C016161706E6
:102FE0001806991FF1CF869571056105089408951B
:102FF000E894BB2766277727CB0197F908959B01B3
:10300000AC0160E070E080E89FE374CE0BD0ACCF01
:1030100075DF28F07ADF18F0952309F041CF46CF0D
:103020001124E7CFC3DFA0F3959FD1F3950F50E0B4
:10303000551F629FF001729FBB27F00DB11D639F6A
:10304000AA27F00DB11DAA1F649F6627B00DA11D10
:10305000661F829F2227B00DA11D621F739FB00DB6
:10306000A11D621F839FA00D611D221F749F332726
:10307000A00D611D231F849F600D211D822F762FBF
:103080006A2F11249F5750408AF0E1F088234AF0BC
:10309000EE0FFF1FBB1F661F771F881F9150504008
:1030A000A9F79E3F510570F0FBCEA3CF5F3FECF335
:1030B000983EDCF3869577956795B795F795E795F4
:1030C0009F5FC1F7FE2B880F911D9695879597F905
:1030D000089574DFE0F09E37D8F09639B8F49E3842
:1030E00048F4672F782F8827985FF9CF86957795D2
:1030F000679593959539D0F3B62FB1706B0F711D0D
:10310000811D20F4879577956795939567C081C059
:1031100070CF11F40EF4CACE7CC050DFD0F39923E7
:10312000D9F3CEF39F57550B87FF81D00024A0E63B
:1031300040EA900180585695979528F4805C660F78
:10314000771F881F20F026173707480730F4621BC7
:10315000730B840B202931294A2BA69517940794C9
:10316000202531254A2758F7660F771F881F20F042
:1031700026173707480730F4620B730B840B200DBA
:10318000311D411DA09581F7B901842F9158880FF9
:103190009695879508959B01AC0138CFDF93D92F81
:1031A000BCDEE695D7952AED3FE049E45FE3B33A0C
:1031B0006207730784079507D7952AF0A2EA49ECBE
:1031C0009068E0DCD1DEEDECF0E038D0DD0F0BF004
:1031D00016DFDD0F0BF49058DF910895882371F40A
:1031E000772321F09850872B762F07C0662311F4A0
:1031F00099270DC09051862B70E060E02AF09A95D7
:10320000660F771F881FDAF7880F9695879597F9CD
:1032100008959F3F31F0915020F4879577956795F9
:10322000B795880F911D9695879597F908959150B8
:103230005040660F771F881FD2F708959F938F9392
:103240007F936F93FF93EF939B01AC01DFDEEF91D0
:10325000FF912FDE2F913F914F915F91D7CE97FB3A
:10326000092E07260AD077FD04D00CD006D0002006
:103270001AF4709561957F4F0895F6F790958195B2
:103280009F4F0895AA1BBB1B51E107C0AA1FBB1F7C
:10329000A617B70710F0A61BB70B881F991F5A95E2
:1032A000A9F780959095BC01CD010895FC0105908A
:1032B000615070400110D8F7809590958E0F9F1F38
:1032C0000895FC016150704001900110D8F780957D
:1032D00090958E0F9F1F0895DC01CB01FC01E199B1
:1032E000FECF06C0FFBBEEBBE09A31960DB20D9249
:1032F00041505040B8F70895E199FECF9FBB8EBB77
:10330000E09A99278DB30895DC01CB0103C02D917C
:103310000E948F1941505040D0F70895262FE1990F
:10332000FECF9FBB8EBB2DBB0FB6F894E29AE19AFD
:0A3330000FBE01960895F894FFCF38
:10333A000C0100000000EE1F7C000D0716090B01AE
:10334A0015011503020D050D020E100E180D0209C6
:10335A000E03020100000000150515021504020201
:10336A0002030204110D0807000002000200050012
:10337A00020005000200010203060A0BC2C0C0C116
:10338A00C0C0C1C0C0C4C0C0C1C0C0C1C0C0C3C029
:10339A00C0C1C0C0C1C0C0C5C0C0C1C0C0C1C0C01A
:00000001FF
